:020000040000FA
:08000000803102288731FD2F39
:100E8E00F401F50151011308F839063893004001B9
:100E9E008E017E01CE01400193018C017E01B801CD
:100EAE00FF30400191007E01B9143915B91510308B
:100EBE00A60042019D179E161E121E119F11333061
:100ECE009B00F201F3016B2F40018C186F2F702FD6
:100EDE00762F740875040319752F762F822F8C18B0
:100EEE00792F7A2FA02F023074067504031D802FE0
:100EFE00812FA02F822F413042019A000130F40041
:100F0E000030F5008A2F9E1C8D2F8E2F8A2F8F2F4B
:100F1E000330F1000830F0007730890B942FF00B7E
:100F2E00942FF10B942F00000130F2000030F300EB
:100F3E00A02F40018C19A42FA52FAB2F7408750478
:100F4E000319AA2FAB2FB62F8C19AE2FAF2FD42F7C
:100F5E0074037504031DB42FB52FD42FB62F443050
:100F6E0042019A000230F4000030F500BE2F9E1CA4
:100F7E00C12FC22FBE2FC32F0330F1000830F00057
:100F8E007730890BC82FF00BC82FF10BC82F00003C
:100F9E000130F2000030F300D42F40010C19D82F8D
:100FAE00D92F6B2F72037304031DDE2FDF2F6B2FD0
:100FBE00F201F301F401F501533042019A00E72FDB
:100FCE009E1CEA2FEB2FE72FEC2F0330F100083099
:100FDE00F0007730890BF12FF00BF12FF10BF12F81
:100FEE0000006B2F6B2F6B2F803102284001873151
:020FFE00472F7B
:020000040001F9
:0A000E008C3FFD3F9F3FFF3FFF3F87
:00000001FF
