:020000040000FA
:0400000080311B2808
:100008007E1480310130F0070030F13D0A3070066F
:100018007104031D10281128172880304001970605
:10002800F001F10117284E018C127E100900803171
:100038001D28F001F1017E10400180312328510173
:100048001308F8390638930040011E121E08F039CB
:1000580009389E001F08F0390D389F001F081F3906
:1000680040389F001F129E1761309D008D0192013C
:100078007E01C3014E018C1296168B1742288031DF
:020088001B2833
:020000040001F9
:0A000E008C3FFD3F9F3FFF3FFF3F87
:00000001FF
