:020000040000FA
:0400000080314D28D6
:100008007E148031803040019706730844018D00CA
:1000180072088C004E010C1C122813282528700821
:10002800013EF0000030713DF1000D30F5002D303B
:10003800F400D830890B1E28F40B1E28F50B1E2857
:100048002528033070067104031D2B282C2831281D
:100058000130F0000030F100312870037104031DF5
:10006800362837283C287830F200EC30F3003C285A
:10007800023070067104031D422843284828B03016
:10008800F2003C30F30048284E010C1010107E108E
:10009800090080314F2880318B208031F200803177
:1000A8008C208031F300F001F1017E104001803195
:1000B8005D2851011308F8390638930040018C0176
:1000C8008D017E01B801C30101304001910001306A
:1000D80092007E01441408307D0190000B144E01FB
:1000E8000C101614303044018E048E141108F039A7
:1000F800013891000E1473088D0072088C004E01AF
:1001080010101A140B178B17882880314D28B0341B
:020118003C3475
:020000040001F9
:0A000E008C3FFD3F9F3FFF3FFF3F87
:00000001FF
