:020000040000FA
:08000000803102288731E92F4D
:10094A00FE0012001E00FE0BA62C0034FF34FF34FA
:10095A00FF34FF34FF34FF34FF34FF3451011308EE
:10096A00F839063893007E01D90140018F019401BC
:10097A007E01CE0140018E0193017E01C301400137
:10098A008D010F3092000F307E01C4004430860082
:10099A000030870030308400003085000830F000D5
:1009AA0016001A00F00BD52C3C3086000030870068
:1009BA0020308400003085000830F00016001A004C
:1009CA00F00BE32C07304001B8000030B9000730C3
:1009DA00BA000030BB00FE30F0003A08303E860014
:1009EA008701700881003808203E8600870181014E
:1009FA00810A0130A8000030A900AA01AB01DF2F4B
:100A0A00AC01AD012D08803AF00080307002031D60
:100A1A00102D08302C02031C132D142D162D622DB7
:100A2A00622D4001AE01AF012F08803AF0008030FC
:100A3A007002031D222D08302E02031C252D262D9F
:100A4A00282D502D502D40012C08303E860087015C
:100A5A00010898002E08203E8600870101089900A7
:100A6A003F30F0005530890B382DF00B382D00003F
:100A7A0001304001AE070030AF3D2F08803AF00048
:100A8A0080307002031D4B2D08302E02031C4E2DA0
:100A9A004F2D282D502D01304001AC070030AD3DBF
:100AAA002D08803AF00080307002031D5E2D083058
:100ABA002C02031C612D622D162D40010D18662D86
:100ACA00672D792D0530F1000F30F000F130890BD8
:100ADA006C2DF00B6C2DF10B6C2D000001304001D8
:100AEA00AA000030AB00792D8D187C2D7D2D8F2D1D
:100AFA000530F1000F30F000F130890B822DF00B38
:100B0A00822DF10B822D000002304001AA00003034
:100B1A00AB008F2D0D19922D932DA52D0530F100C7
:100B2A000F30F000F130890B982DF00B982DF10B56
:100B3A00982D000003304001AA000030AB00A52D1B
:100B4A008D19A82DA92DCB2F0530F1000F30F000FB
:100B5A00F130890BAE2DF00BAE2DF10BAE2D00004E
:100B6A0004304001AA000030AB00CB2FCB2F3A084B
:100B7A00FF3EBA00FF303B3DBB003A08013E303E23
:100B8A0086008701FE300106031DCC2DCD2DDF2DF9
:100B9A00FD30F0003A08303E860087017008810077
:100BAA00FF30F0003A08013E303E860087017008A7
:100BBA008100DF2F3A08013E303E86008701FD3072
:100BCA000106031DE92DEA2DFC2DFB30F0003A0841
:100BDA00303E8600870170088100FF30F0003A0835
:100BEA00013E303E8600870170088100DF2F3A08F7
:100BFA00013E303E86008701FB300106031D062EAA
:100C0A00072E192EF730F0003A08303E8600870189
:100C1A0070088100FF30F0003A08013E303E86003D
:100C2A00870170088100DF2F3A08013E303E8600B6
:100C3A008701F7300106031D232E242E362EEF30AE
:100C4A00F0003A08303E8600870170088100FF30C4
:100C5A00F0003A08013E303E8600870170088100A4
:100C6A00DF2F3A08013E303E86008701EF30010649
:100C7A00031D402E412E532EDF30F0003A08303E3D
:100C8A008600870170088100FF30F0003A08013EB3
:100C9A00303E8600870170088100DF2F3A08013E46
:100CAA00303E86008701DF300106031D5D2E5E2E71
:100CBA00702EBF30F0003A08303E86008701700877
:100CCA008100FF30F0003A08013E303E860087017D
:100CDA0070088100DF2F3A08013E303E8600870106
:100CEA00BF300106031D7A2E7B2E8D2E7F30F00039
:100CFA003A08303E8600870170088100FF30F00014
:100D0A003A08013E303E8600870170088100DF2FD5
:100D1A003A08013E303E860087017F300106031DF6
:100D2A00972E982EDF2FA801A901DF2FDF2F380871
:100D3A00FF3EB800FF30393DB9003808013E203E79
:100D4A00860087010135F0003808203E86008701B9
:100D5A00700881003808013E203E86008701810123
:100D6A00B91FB82EB92EDF2FA801A901DF2FDF2F57
:100D7A003808013EB8000030393DB9003808FF3E56
:100D8A00203E860087010136F0003808203E8600A2
:100D9A008701700881003808FF3E203E86008701DF
:100DAA0081013908803AF00080307002031DDF2E7D
:100DBA0008303802031CE22EE32EDF2F4001B8016F
:100DCA00B901A801A901DF2FDF2F3A08013EBA00B5
:100DDA0000303B3DBB003A08FF3E303E86008701AB
:100DEA007F300106031DFA2EFB2E0D2FBF30F000B7
:100DFA003A08303E8600870170088100FF30F00013
:100E0A003A08FF3E303E8600870170088100DF2FD6
:100E1A003A08FF3E303E86008701BF300106031DB7
:100E2A00172F182F2A2FDF30F0003A08303E86009D
:100E3A00870170088100FF30F0003A08FF3E303E1B
:100E4A008600870170088100DF2F3A08FF3E303E96
:100E5A0086008701DF300106031D342F352F472F07
:100E6A00EF30F0003A08303E8600870170088100B2
:100E7A00FF30F0003A08FF3E303E860087017008D6
:100E8A008100DF2F3A08FF3E303E86008701EF30AF
:100E9A000106031D512F522F642FF730F0003A0834
:100EAA00303E8600870170088100FF30F0003A0862
:100EBA00FF3E303E8600870170088100DF2F3A0826
:100ECA00FF3E303E86008701F7300106031D6E2F74
:100EDA006F2F812FFB30F0003A08303E86008701E1
:100EEA0070088100FF30F0003A08FF3E303E86006D
:100EFA00870170088100DF2F3A08FF3E303E8600E6
:100F0A008701FB300106031D8B2F8C2F9E2FFD308E
:100F1A00F0003A08303E8600870170088100FF30F1
:100F2A00F0003A08FF3E303E8600870170088100D3
:100F3A00DF2F3A08FF3E303E86008701FD3001066A
:100F4A00031DA82FA92FBB2FFE30F0003A08303E10
:100F5A008600870170088100FF30F0003A08FF3EE2
:100F6A00303E8600870170088100DF2F3A08FF3E75
:100F7A00303E86008701FE300106031DC52FC62FAD
:100F8A00DF2FA801A901DF2FDF2FDF2F2B08003A5F
:100F9A000319D02FDF2F2A08013A0319BC2D033A6F
:100FAA0003199C2E013A0319BD2E073A0319EA2E9A
:100FBA00DF2FDF2F400128082904031DE52FE62F24
:100FCA00052DE72F80310228AB308400843085005C
:100FDA00443086000030870008308431A5248731E8
:100FEA00BC01BD01BE01BF01C001C101C201C301F3
:060FFA0040018431B32C1C
:020000040001F9
:0A000E008C3FFD3F9F3FFF3FFF3F87
:00000001FF
