:020000040000FA
:08000000803102288731F52F41
:10000C000800640080010131890B08280034FA01D2
:10001C00F71F112812281F28F409F509F609F7090A
:10002C00F40A0319F50A0319F60A0319F70AFA0177
:10003C00FA0AF31F222823282F28F009F109F209C4
:10004C00F309F00A0319F10A0319F20A0319F30A66
:10005C002F2873087204710470040319362837288A
:10006C007628F901F90A46280130F035F10DF20D28
:10007C00F30D890B3B280130F8007808F907462866
:10008C00F31F49284A283A284C284C287308770231
:10009C00031D5A2872087602031D5A28710875022E
:1000AC00031D5A2870087402031C5D285E286728FB
:1000BC007008F4027108F53B7208F63B7308F73BC5
:1000CC0067280130F336F20CF10CF00C890B682820
:1000DC000130F902031D732874284C2876287628E1
:1000EC007A0803197A287B288728F409F509F60978
:1000FC00F709F40A0319F50A0319F60A0319F70AA2
:10010C0087287708F3007608F2007508F100740868
:10011C00F00090280800F20040018E100E147208B6
:10012C00F0000730F036890B982870080139F1007F
:10013C00F10CF10C0E0871067F3971068E007208F5
:10014C00F0000630F036890BA82870080139F10050
:10015C00F10EF10DF10D0E087106BF3971068E000E
:10016C007208F0000530F036890BB9287008013997
:10017C00F100F10EF10D0E087106DF3971068E00DB
:10018C007208F0000430F036890BC9287008013968
:10019C00F100F10E0E087106EF3971068E00033076
:1001AC00890BD628000040018E140D30890BDC28F9
:1001BC00000040018E107208F0000330F036890BFD
:1001CC00E42870080139F100F10CF10C0E087106ED
:1001DC007F3971068E007208F0000230F036890B00
:1001EC00F42870080139F100F10EF10DF10D0E0833
:1001FC007106BF3971068E0072360139F000F00EAF
:10020C00F00D0E087006DF3970068E007208013989
:10021C00F000F00E0E087006EF3970068E000330F9
:10022C00890B1629000040018E140D30890B1C29F6
:10023C00000040018E100D30890B222900003A304D
:10024C00F0002330890B2829F00B28290000080026
:10025C0040019313131393121312931013108E1354
:10026C000E138E120E128E100E103A30F300233035
:10027C00890B3E29F30B3E2900003A30F300233062
:10028C00890B4629F30B462900003A30F300233042
:10029C00890B4E29F30B4E2900003A30F300233022
:1002AC00890B5629F30B562900003A30F300233002
:1002BC00890B5E29F30B5E2900003A30F3002330E2
:1002CC00890B6629F30B66290000F401F40A04304B
:1002DC007402031C7229732975299F299F294001D7
:1002EC008E130E138E160E168E100E108E130E13FA
:1002FC008E160E168E140E100D30890B83290000ED
:10030C0040018E130E138E160E168E100E103A30F0
:10031C00F3002330890B9029F30B90290000013056
:10032C00F3007308F40704307402031C9E299F2900
:10033C00752940018E130E138E160E128E100E1090
:10034C008E130E138E160E128E140E100D30890B8A
:10035C00AD29000040018E130E138E160E128E1056
:10036C000E103A30F3002330890BBA29F30BBA295B
:10037C0000002830F3007308F40074088E31CE2688
:10038C0081311030F3007308F40074088E31CE26DE
:10039C008131F401F40A74088E31CE2681310F308C
:1003AC00F3007308F40074088E31CE2681310800F6
:1003BC004001A701A801A001A101E9290130F6071C
:1003CC000030F73DE929A601A60A760884007708D3
:1003DC0085001200203A0319F429F5290B2A760816
:1003EC008400770885000008F73EF800FF300318FA
:1003FC000030F90000307902053003197802031C33
:10040C00082A092A0B2AA6010B2A2608F800F9014A
:10041C007808A2007908A300272A760884007708B8
:10042C0085000008F800F9017808F0007908F1005F
:10043C008C31AE24813171084001A3007008A200F8
:10044C00272A22082304031D2C2A2D2AE429392AC1
:10045C00392A01304001A0000030A1000130F6071C
:10046C000030F73D762A760884007708850000086E
:10047C00F800F9017908003A0319452A762A780818
:10048C002B3A0319342A063A03192F2A762A762A8C
:10049C0076088400770885000008D03EF800FF300D
:1004AC0003180030F900F809F909F80A0319F90AD8
:1004BC0040012808F1002708F0000A30F200003053
:1004CC00F3008C318C248131780870074001A7002F
:1004DC007908713DA8000130F6070030F73D762A07
:1004EC0076088400770885000008D03EF800FF30BD
:1004FC0003180030F900003079020A300319780231
:10050C00031C892A8B2A01308C2A0030FA00FB014B
:10051C007A084001A4007B08A500A82A760884006C
:10052C00770885000008F800F9017808F0007908D0
:10053C00F1008C315624813171084001A5007008FE
:10054C00A400A82A24082504031DAD2AAE2A4E2A8D
:10055C00AF2A20082104031DB42AB52AC12A270971
:10056C00F8002809F900F80A0319F90A7808F600C6
:10057C007908F700C72A2808F7002708F600C72AC9
:10058C00C72A08004001B4002F08BE002E08BD0089
:10059C002D08BC002C08BB00BE1BD52AD72A013065
:1005AC00D82A0030B000B1013008B9003108BA00C7
:1005BC0039083A040319E32AE42AEF2ABB09BC09D7
:1005CC00BD09BE09BB0A0319BC0A0319BD0A0319EC
:1005DC00BE0A4101A51BF32AF42AF82AFD30A60510
:1005EC00FF30A7052508803A4001B000803030026A
:1005FC00031D032B0130410124020318062B072B8A
:10060C000D2B01304001B5000030B600152B410117
:10061C0025084001B600410124084001B500410104
:10062C0023084001B800410122084001B7003908F5
:10063C003A04031D222B232B292B4101261D272B8A
:10064C00282B2E2B292BFF304001B707FF30B83D4C
:10065C001F304001BF000030C0003F08A83E86009C
:10066C0087018101872BFF304001BF07FF30C03D60
:10067C000030F3000030F2000030F1000A30F000DE
:10068C003E08F7003D08F6003C08F5003B08F40076
:10069C0080310D2082317108FC007008FB008C3118
:1006AC006F2482317B08303E4001B0003F08A83EE9
:1006BC008600870130088100FF30B507FF30B63D5A
:1006CC00FF30B707FF30B83D0030F3000030F200C8
:1006DC000030F1000A30F0003E08F7003D08F6004B
:1006EC003C08F5003B08F4008F3167278231730812
:1006FC004001BE007208BD007108BC007008BB0050
:10070C00872B4008803AB00080303002031D902BBC
:10071C0001303F02031C932B942BC02B40013E084D
:10072C003D043C043B04031D9C2B9D2B392B3608AC
:10073C00803AB00080303002031DA62B0130350208
:10074C000318A92BAA2B392B40013808803AB0008A
:10075C0080303002031DB42B01303702031CB72B41
:10076C00B82BC02B4101A618BC2BBD2B392BC02B91
:10077C00C02BC02B400139083A04031DC62BC72BD4
:10078C00CD2B4101261DCB2BCC2BEB2BCD2BFF30B6
:10079C004001BF07FF30C03D39083A04031DD72B79
:1007AC00D82BDD2B2B30B2000030B300E22B2D30D8
:1007BC00B2000030B300E22B3208B0003F08A83E74
:1007CC008600870130088100EB2B40013F08A83ED2
:1007DC00B0003008A4003808A6003708A50034087B
:1007EC008E317126823140012508AD002408AC0001
:1007FC00FF2B08004001D100410886008701403FD3
:10080C00C300413FC4004308840044088500120023
:10081C00253A031D122C132CC12D4108860087018B
:10082C000130810741310318810A4101A201A30162
:10083C00A601A701FF30A400FF30A5004001CD01A7
:10084C00CE01902C6B2C41012614400141088600EE
:10085C0087010130810741310318810A902C410135
:10086C00A6144001410886008701013081074131FF
:10087C000318810A902C410126154001410886007D
:10088C0087010130810741310318810A902C410105
:10089C00A6154001410886008701013081074131CE
:1008AC000318810A902C410126164001410886004C
:1008BC0087010130810741310318810A902C0130E6
:1008CC00CD000030CE00902C902C41088600870182
:1008DC00403FC300413FC4004308840044088500E6
:1008EC000008C500C6014608003A03197E2C652C89
:1008FC004508203A03194D2C033A0319592C083A90
:10090C000319412C063A0319292C1D3A0319352CCD
:10091C00652C902C4D084E040319952C962C6B2CA1
:10092C004101261C9A2C9B2CA02CFD30A605FF30D7
:10093C00A705A02C4001410886008701403FC30059
:10094C00413FC400430884004408850012002A3A41
:10095C00031DB12CB22CD32C410886008701013029
:10096C00810741310318810A42088600870101087A
:10097C008400850102308107003F4101A200013F44
:10098C00A300A31FCA2CCB2C362D2614A209A30915
:10099C00A20A0319A30A362D362D40014108860000
:1009AC008701403FF600413FF7008131DE21843161
:1009BC0077084101A3007608A200EE2C4001410803
:1009CC00860087010130810741310318810AEE2C22
:1009DC004001410886008701403FC300413FC400ED
:1009EC0043088400440885000008D03EC500FF3051
:1009FC0003180030C600003046020A3003194502C5
:100A0C00031C092D0B2D01300C2D0030C700C80123
:100A1C004708CF004808D0002E2D410886008701DA
:100A2C00403FC300413FC400430884004408850094
:100A3C000008C500C6014508F0004608F1008C31DD
:100A4C005624843171084001D0007008CF002E2D3F
:100A5C004F085004031D332D342DE42C362D362D28
:100A6C004001410886008701403FC300413FC4005C
:100A7C0043088400440885001200643A0319472D8A
:100A8C00482D5A2D410886008701403FC300413F45
:100A9C00C40043088400440885001200693A031D11
:100AAC00582D592D8A2D5A2D410886008701013069
:100ABC00810741310318810A420886008701010829
:100ACC008400850102308107003FC300013FC40050
:100ADC004308C9004408CA00890D893B8909CB0029
:100AEC00CC004C08AF004B08AE004A08AD004908DA
:100AFC00AC0051088231C822843140012D08C2005B
:100B0C002C08C100E82DE82D410886008701403FE4
:100B1C00C300413FC4004308840044088500120010
:100B2C00253A031D9A2D9B2DB52D41088600870172
:100B3C000130810741310318810A2530F000003063
:100B4C00F1005108C3004308F2008E311D26843198
:100B5C0001304001C1000030C200E82DE82D4108F1
:100B6C00860087010130810741310318810AC101D8
:100B7C00C201E82DE82D410886008701403FC300E3
:100B8C00413FC40043088400440885000008C500A8
:100B9C00C6014508F0004608F1005108C700470897
:100BAC00F2008E311D2684314001410886008701F8
:100BBC000130810741310318810A0130C100003036
:100BCC00C200E82D080051011308F83906389300CB
:100BDC0040018D018F017E01D901400194017E01FC
:100BEC00C301CE014301901608307D01C5000930C8
:100BFC00C60043011008F0390838900013308D00FE
:100C0C0014307E019800153099000A304101E8003B
:100C1C000030E9002830EA000030EB001B30EC001B
:100C2C000030ED0046304001EB006B084101D8006C
:100C3C0012304001EB006B084101D900DA01DB01F5
:100C4C0081312E21853101308E31CE2685310C300B
:100C5C008E31CE268531F301F30A2930F400903021
:100C6C00F50002308D31CE25853100304001DA009F
:100C7C009030DB00410169084001DD00410168084A
:100C8C004001DC0041016B084001DF0041016A08B2
:100C9C004001DE0041016D084001E10041016C089A
:100CAC004001E000C8308C31D1248531F301C830CB
:100CBC00F4000030F50002308D31CE258531662EE2
:100CCC0043011114692E11186C2E6D2E692E6E2E87
:100CDC00D0308C00712E0F18742E752E712E772E2D
:100CEC00772E0F197A2E7B2E772E7C2E8C017E2E52
:100CFC000F18812E822E7E2E842E842E0F19872E75
:100D0C00882E842E91148A2E91188D2E8E2E8A2E3A
:100D1C008F2ED1308C00922E0F18952E962E922E4F
:100D2C00992E992E91150F199C2E9D2E982E9F2E33
:100D3C009F2E0F1CA22EA32E9F2EA42E0C0840011A
:100D4C00EB00EC016B084101DC0040016C08410137
:100D5C00DD00430191121116B32E111AB62EB72EC7
:100D6C00B32E9115B92E0F1CBC2EBD2EB92EBE2E36
:100D7C000C084001EB00EC016B084101E000400164
:100D8C006C084101E100430191121116CD2E111A8C
:100D9C00D02ED12ECD2E9115D32E0F1CD62ED72E74
:100DAC00D32ED82E0C084001EB00EC016B0841014E
:100DBC00E40040016C084101E50043019116111655
:100DCC00E72E111AEA2EEB2EE72E1115ED2E111926
:100DDC00F02EF12EED2EF22E0F3041015C0540016C
:100DEC00EB00003041015D054001EC0041015D0864
:100DFC004001EE0041015C084001ED000430EF00C1
:100E0C006E0DEE0CED0CEF0B062F07306D05F000A0
:100E1C0000306E05F1000A30F2000030F3008C3126
:100E2C008C24853140016B0870074101DE004001C4
:100E3C006C08713D4101DF000F3060054001EB0093
:100E4C000030410161054001EC00410161084001A5
:100E5C00EE00410160084001ED000430EF006E0D22
:100E6C00EE0CED0CEF0B352F07306D05F00000305C
:100E7C006E05F1000A30F2000030F3008C318C2446
:100E8C00853140016B0870074101E20040016C089C
:100E9C00713D4101E3000F3064054001EB0000306F
:100EAC00410165054001EC00410165084001EE007F
:100EBC00410164084001ED000430EF006E0DEE0CB2
:100ECC00ED0CEF0B642F07306D05F00000306E0554
:100EDC00F1000A30F2000030F3008C318C248531A3
:100EEC0040016B0870074101E60040016C08713D40
:100EFC004101E70017304001DA009030DB0041017E
:100F0C0067084001DD00410166084001DC00410139
:100F1C0063084001DF00410162084001DE0041012D
:100F2C005F084001E10041015E084001E000C8306B
:100F3C008C31D1248531F301F30AC8304001EB0028
:100F4C006B08F40001308D318125853141016D082C
:100F5C005F06031DB32F6C085E06031DB62FB72F5B
:100F6C00CC2F6B086306031DBD2F6A086206031D98
:100F7C00C02FC12FCC2F69086706031DC72F680827
:100F8C0066060319CA2FCB2FD32FCC2F5A035B0421
:100F9C00031DD12FD22FE42FD32F4001190E01396D
:100FAC00013EEB00EB0E19086B06EF396B0699004E
:100FBC0001304101DA000030DB00E42F0930400140
:100FCC00EC001E30EB00E430890BEA2FEB0BEA2F20
:100FDC00EC0BEA2F0000662E662E80310228A03022
:100FEC008400003085002830803107208731400193
:040FFC008531E92D25
:1018AC007008D03EF200FF30713DF300003073023F
:1018BC000A3003197202031C642C662C0130672C4D
:1018CC000030F400F5017408F0007508F1006E2C7E
:1018DC0008007C08803A4001A00080302002031DE3
:1018EC00792C01307B0203187C2C7D2C8A2C7B09F3
:1018FC004001A0007C09A100A00A0319A10A20083C
:10190C00FB002108FC008B2C8B2C0800F401F5014A
:10191C008F2C701C922C932C972C7208F407730844
:10192C00F53D0130F235F30D890B982C0130F13671
:10193C00F00C890B9D2C70087104031DA62CA72C90
:10194C008F2CA82C7508F1007408F000AD2C080041
:10195C00F401F40A2030700671040319B62CB72C6C
:10196C00C82C7008F73EF200FF30713DF3000030D8
:10197C007302053003197202031CC52CC62CC82C2B
:10198C00F401C82C7408F200F3017208F00073081B
:10199C00F100D02C08004001E5005C30FD007D0812
:1019AC00E4006508FD007D08E600E701E801E901B7
:1019BC00EA015B08D3005A08D2006430FD007D08B0
:1019CC00D40066308D314C258C3140015308E30036
:1019DC005208E20067086507FD007D088600870154
:1019EC008101F82C0800F7007708F2007208F60065
:1019FC00042D0130F2007208F707042D77088600D9
:101A0C0087010108031D0B2D0C2DFF2C0D2D7608C5
:101A1C00F2000030F300F209F309F20A0319F30A99
:101A2C007708F4000030F50072087407F0007308B2
:101A3C00753DF100212D08004001A300A101A20178
:101A4C003B2D2008F900FA017908F0007A08F10022
:101A5C007808FB007B08F2008E311D268D31013099
:101A6C004001A1070030A23D3B2D21082307F900BE
:101A7C007908860087010108FA007A08A00020087E
:101A8C00031D492D4A2D272D4B2D08004001D70051
:101A9C005308D9005208D8004101A001A1016C2DB6
:101AAC0058304001D5005508C1005408D6005608DE
:101ABC00C2005708843100248D3140014108410196
:101ACC00A007400142084101A13D6C2D400158087E
:101ADC008400590885001200031D752D762D562D96
:101AEC00772D410121084001D3004101200840011C
:101AFC00D200802D0800F7009D2D7308803EF50064
:101B0C007508F800B32D7308C03EF5007508F80091
:101B1C00B32D7308943EF5007508F800B32D7308C7
:101B2C00D43EF5007508F800B32DB32DB32D77080E
:101B3C00F500F6017608003A0319A52DB32D7508AA
:101B4C00013A0319832D033A0319892D013A03191C
:101B5C008F2D073A0319952DB32D78088E31CE268B
:101B6C008D31C42D740886008701010880319120C5
:101B7C008D310130F5007508F407C42D740886000A
:101B8C0087010108031DCB2DCC2DB82DCD2D0800C0
:101B9C00F800EA2D7308803EF6007608F900002E56
:101BAC007308C03EF6007608F900002E7308943EC8
:101BBC00F6007608F900002E7308D43EF60076087D
:101BCC00F900002E002E002E7808F600F701770899
:101BDC00003A0319F22D002E7608013A0319D02D84
:101BEC00033A0319D62D013A0319DC2D073A0319D0
:101BFC00E22D002E79088E31CE268D31122E7408EE
:101C0C008400750885000008803191208D310130E9
:101C1C00F4070030F53D122E740884007508850019
:101C2C001200031D1A2E1B2E052E1C2E08007208E6
:101C3C000319212E222E282E7208031D262E272E44
:101C4C002D2E282E7008803106208E31702E7208B1
:101C5C00033E86008701160001040319362E372E29
:101C6C00552E7208033E86008701403FF300413F2A
:101C7C00F400720A86008701403FF500413FF600F0
:101C8C007608803AF7007408803A7702031D502ECC
:101C9C00730875020318532E542E702E552E70088F
:101CAC00F300720886008701720A8400850100081F
:101CBC000107F40074088600870173088100720A1A
:101CCC00860087010130810741310318810A702E8B
:101CDC00702E702E08004001AB004101261C772E9F
:101CEC00782E822E40012B08FC007C08F80024087A
:101CFC008D3122258E31822E4001A61B862E872EF9
:101D0C008C2E2608AA002508A9008E2EA901AA014E
:101D1C00A701A801A32E2030F0000030F1004001F3
:101D2C002B08FC007C08F2008E311D268E31013010
:101D3C004001A7070030A83DA32E2808803AFC00DC
:101D4C002A08803A7C02031DAD2E29082702031CA9
:101D5C00B02EB12E912E41012618B52EB62EC02EC6
:101D6C0040012B08FC007C08F80024088D3122254A
:101D7C008E31C02E400124088C31F9248E31400163
:101D8C0029087007A4002A08713DA500CD2E080073
:101D9C00F20040018E100E107208F0000730F03681
:101DAC00890BD52E70080139F100F10CF10C0E08DD
:101DBC0071067F3971068E007208F0000630F0361D
:101DCC00890BE52E70080139F100F10EF10DF10DC2
:101DDC000E087106BF3971068E007208F0000530CE
:101DEC00F036890BF62E70080139F100F10EF10D69
:101DFC000E087106DF3971068E007208F00004308F
:101E0C00F036890B062F70080139F100F10E0E081F
:101E1C007106EF3971068E000330890B132F000009
:101E2C0040018E140D30890B192F000040018E10CB
:101E3C007208F0000330F036890B212F700801393D
:101E4C00F100F10CF10C0E0871067F3971068E0051
:101E5C007208F0000230F036890B312F700801390E
:101E6C00F100F10EF10DF10D0E087106BF3971067E
:101E7C008E0072360139F000F00EF00D0E0870066F
:101E8C00DF3970068E0072080139F000F00E0E0872
:101E9C007006EF3970068E000330890B532F00004B
:101EAC0040018E140D30890B592F000040018E100B
:101EBC003A30F0002330890B612FF00B612F0000BA
:101ECC0008004001A101F31F6C2F6D2F7A2FF00930
:101EDC00F109F209F309F00A0319F10A0319F20ADC
:101EEC000319F30AA101A10AF71F7D2F7E2F8E2F54
:101EFC00F409F509F609F709F40A0319F50A0319A7
:101F0C00F60A0319F70A0130F8007808A1068E2F9B
:101F1C000030A5000030A4000030A3000030A20067
:101F2C00730872047104700403199D2F9E2FE52F02
:101F3C00A001A00AAD2F0130F035F10DF20DF30D1B
:101F4C00890BA22F0130F8007808A007AD2FF31FE2
:101F5C00B02FB12FA12FB32FB32F0130A235A30D6A
:101F6C00A40DA50D890BB42F73087702031DC82F80
:101F7C0072087602031DC82F71087502031DC82F45
:101F8C0070087402031CCB2FCC2FD62F7008F402D0
:101F9C007108F53B7208F63B7308F73B2214D62FF9
:101FAC000130F336F20CF10CF00C890BD72F013009
:101FBC00A002031DE22FE32FB32FE52FE52F2108FD
:101FCC000319E92FEA2FF62FA209A309A409A509E1
:101FDC00A20A0319A30A0319A40A0319A50AF62FC6
:101FEC002508F3002408F2002308F1002208F00071
:101FFC00FF2F0800423455344D34213420346134E1
:10200C007434203425343034323464343A34253446
:10201C003034323464343A34253430343234643429
:10202C0000342034203420342534303432346434B9
:10203C003A3425343034323464343A342534303440
:10204C0032346434003442346F346D346234693465
:0C205C0074346134203462346234003487
:020000040001F9
:0A000E008C3FFD3F9F3FFF3FFF3F87
:00000001FF
