:020000040000FA
:0400000080310B2818
:100008007E1480314E01101090107E10090080314E
:100018000D2841018731E7278031C8008731E8275B
:100028008031C9004001E001E101E201E301E4019E
:10003800E5014101C201C301C401C501C601C701EF
:100048007E1040019A31C32A8F319D2F28282828F5
:100058002828282828032904031D33283428312F69
:100068003528A7313527803101307C054101BA0098
:1000780000307D05BB003A083B04031D4428452891
:10008800472B3F2B3F2B9831842080314001550866
:100098004101BF00400154084101BE0099311E21B1
:1000A8008031400155084101BD004001540841011B
:1000B800BC00883127208031400155084101C1002A
:1000C800400154084101C0003D08803A4001DC006D
:1000D80080305C02031D73280B3041013C02031C75
:1000E80076287728AB284001181698121815981109
:1000F8000D304001DD002D30DC00D730890B82281F
:10010800DC0B8228DD0B8228003298318420803174
:10011800400155084101BF00400154084101BE009B
:1001280099311E218031400155084101BD0040012F
:1001380054084101BC00883127208031400155080E
:100148004101C100400154084101C000AB284101F0
:100158003F08803A4001DC0080305C02031DB7286C
:10016800033041013E020318BA28BB28C5280330D2
:1001780046018D00FF308C000330910084309000E0
:10018800C52841014108803A4001DC0080305C020A
:10019800031DD1280330410140020318D428D52873
:1001A800DF28033046018D0084308C000330910035
:1001B800FF309000DF2841013F084106031DE62873
:1001C8003E084006031DE928EA28F42803304601C2
:1001D8008D00FF308C0003309100FF309000F42830
:1001E80041013F08803A4001DC0080305C02031D79
:1001F80000290B3041013E02031C032904297629FA
:1002080041013D08803A4001DC0080305C02031D5A
:100218001029073041013C020318132914297629B3
:1002280041014108803A4001DC0080305C02031D36
:10023800202907304101400203182329242976295F
:1002480015304001DD004B30DC00BE30890B2A2917
:10025800DC0B2A29DD0B2A29000040011816981604
:100268001815981129304001DD009630DC007F30E8
:10027800890B3C29DC0B3C29DD0B3C294001181675
:1002880098121815981115304001DD004B30DC002C
:10029800BE30890B4D29DC0B4D29DD0B4D290000A3
:1002A800983184208031400155084101BF00400148
:1002B80054084101BE0099311E2180314001550882
:1002C8004101BD00400154084101BC00883127208C
:1002D8008031400155084101C100400154084101E5
:1002E800C000762941014108803A4001DC00803095
:1002F8005C02031D82290730410140020318852949
:100308008629F82941013D08803A4001DC00803007
:100318005C02031D9229073041013C02031895290C
:100328009629F82941014108803A4001DC008030D3
:100338005C02031DA2290B3041014002031CA529C0
:10034800A629F82915304001DD004B30DC00BE300D
:10035800890BAC29DC0BAC29DD0BAC290000400172
:10036800181698121815981529304001DD00963096
:10037800DC007F30890BBE29DC0BBE29DD0BBE29D2
:100388004001181698121815981115304001DD0013
:100398004B30DC00BE30890BCF29DC0BCF29DD0BBD
:1003A800CF2900009831842080314001550841014F
:1003B800BF00400154084101BE0099311E2180311F
:1003C800400155084101BD00400154084101BC00ED
:1003D800883127208031400155084101C100400182
:1003E80054084101C000F82941013F08803A400102
:1003F800DC0080305C02031D042A073041013E0204
:100408000318072A082A5B2A41013D08803A40015F
:10041800DC0080305C02031D142A073041013C02D5
:100428000318172A182A5B2A41014108803A40011B
:10043800DC0080305C02031D242A073041014002A1
:100448000318272A282A5B2A40011812981618151B
:10045800981129304001DD009630DC007F30890B8F
:10046800332ADC0B332ADD0B332A98318420803180
:10047800400155084101BF00400154084101BE0038
:1004880099311E218031400155084101BD004001CC
:1004980054084101BC0088312720803140015508AB
:1004A8004101C100400154084101C0005B2A4101DB
:1004B8003D08803A4001DC0080305C02031D672A59
:1004C8000B3041013C02031C6A2A6B2A8C2A410129
:1004D8003F08803A4001DC0080305C02031D772A27
:1004E800073041013E0203187A2A7B2A8C2A4101EF
:1004F8004108803A4001DC0080305C02031D872AF5
:10050800073041014002031C8A2A8B2A1E2B8C2AA1
:1005180041013D08803A4001DC0080305C02031D47
:10052800982A0B3041013C02031C9B2A9C2ABD2AB5
:1005380041013F08803A4001DC0080305C02031D25
:10054800A82A0B3041013E02031CAB2AAC2ABD2A63
:1005580041014108803A4001DC0080305C02031D03
:10056800B82A0B30410140020318BB2ABC2A1E2BB3
:10057800BD2A41013D08803A4001DC0080305C0220
:10058800031DC92A0B3041013C02031CCC2ACD2A89
:10059800EE2A41013F08803A4001DC0080305C02CD
:1005A800031DD92A073041013E020318DC2ADD2A3F
:1005B800EE2A41014108803A4001DC0080305C02AB
:1005C800031DE92A0830410140020318EC2AED2AEC
:1005D8001E2BEE2A41013D08803A4001DC008030A4
:1005E8005C02031DFA2A0B3041013C02031CFD2A60
:1005F800FE2A342B41013F08803A4001DC0080305C
:100608005C02031D0A2B083041013E02031C0D2B1E
:100618000E2B342B41014108803A4001DC00803028
:100628005C02031D1A2B07304101400203181D2BE1
:100638001E2B342B40011816981218159811523099
:100648004001DD002B30DC000030890B292BDC0B4E
:10065800292BDD0B292B00004101B801B901342BEE
:10066800A7313527803101307C054101BA000030BF
:100678007D05BB003F2B38083904031D442B452B4F
:100688004728472B472B3A033B04031D4C2B4D2B84
:10069800382D302D302D9831842080314001550877
:1006A8004101BF00400154084101BE0099311E219B
:1006B8008031400155084101BD0040015408410105
:1006C800BC00883127208031400155084101C10014
:1006D800400154084101C0003D08803A4001DC0057
:1006E80080305C02031D7B2B0B3041013C02031C54
:1006F8007E2B7F2BB32B40011816981218159811D2
:100708000D304001DD002D30DC00D730890B8A2BFD
:10071800DC0B8A2BDD0B8A2B003298318420803148
:10072800400155084101BF00400154084101BE0085
:1007380099311E218031400155084101BD00400119
:1007480054084101BC0088312720803140015508F8
:100758004101C100400154084101C000B32B4101CF
:100768003F08803A4001DC0080305C02031DBF2B4B
:10077800033041013E020318C22BC32BCD2B03309B
:1007880046018D00FF308C000330910084309000CA
:10079800CD2B41014108803A4001DC0080305C02E9
:1007A800031DD92B0330410140020318DC2BDD2B3C
:1007B800E72B033046018D0084308C000330910014
:1007C800FF309000E72B41013F084106031DEE2B47
:1007D8003E084006031DF12BF22BFC2B033046018B
:1007E8008D00FF308C0003309100FF309000FC2B0F
:1007F80041013F08803A4001DC0080305C02031D63
:10080800082C073041013E0203180B2C0C2C7E2CBF
:1008180041013D08803A4001DC0080305C02031D44
:10082800182C073041013C0203181B2C1C2C7E2C71
:1008380041014108803A4001DC0080305C02031D20
:10084800282C0B3041014002031C2B2C2C2C7E2C15
:1008580015304001DD004B30DC00BE30890B322CF6
:10086800DC0B322CDD0B322C0000400118169812DC
:100878001815981529304001DD009630DC007F30CE
:10088800890B442CDC0B442CDD0B442C400118163E
:1008980098121815981115304001DD004B30DC0016
:1008A800BE30890B552CDC0B552CDD0B552C00006C
:1008B800983184208031400155084101BF00400132
:1008C80054084101BE0099311E218031400155086C
:1008D8004101BD00400154084101BC008831272076
:1008E8008031400155084101C100400154084101CF
:1008F800C0007E2C41013F08803A4001DC00803076
:100908005C02031D8A2C073041013E0203188D2C1E
:100918008E2CE12C41013D08803A4001DC008030FA
:100928005C02031D9A2C073041013C0203189D2CE0
:100938009E2CE12C41014108803A4001DC008030C6
:100948005C02031DAA2C0730410140020318AD2C9C
:10095800AE2CE12C40011812981618159811293060
:100968004001DD009630DC007F30890BB92CDC0BB0
:10097800B92CDD0BB92C9831842080314001550801
:100988004101BF00400154084101BE0099311E21B8
:100998008031400155084101BD0040015408410122
:1009A800BC00883127208031400155084101C10031
:1009B800400154084101C000E12C41013F08803A40
:1009C8004001DC0080305C02031DED2C0B3041013E
:1009D8003E02031CF02CF12C252D15304001DD00C2
:1009E8004B30DC00BE30890BF72CDC0BF72CDD0B11
:1009F800F72C000040011816981618159811293080
:100A08004001DD009630DC007F30890B092DDC0BBE
:100A1800092DDD0B092D400118169812181598118B
:100A280015304001DD004B30DC00BE30890B1A2D3B
:100A3800DC0B1A2DDD0B1A2D00004101B801B9019C
:100A4800252DA7313527803101307C054101BA00B9
:100A580000307D05BB00302D38083904031D352DC5
:100A6800362D4F2B382D382D02303A063B04031D06
:100A78003E2D3F2D3528222F222F9831842080317A
:100A8800400155084101BF00400154084101BE0022
:100A980099311E218031400155084101BD004001B6
:100AA80054084101BC008831272080314001550895
:100AB8004101C100400154084101C0003D08803A8D
:100AC8004001DC0080305C02031D6D2D0B304101BC
:100AD8003C02031C702D712DA52D4001181698128B
:100AE800181598110D304001DD002D30DC00D7308D
:100AF800890B7C2DDC0B7C2DDD0B7C2D0032983195
:100B080084208031400155084101BF00400154084C
:100B18004101BE0099311E21803140015508410133
:100B2800BD00400154084101BC00883127208031B4
:100B3800400155084101C100400154084101C0006D
:100B4800A52D41013F08803A4001DC0080305C025D
:100B5800031DB12D033041013E020318B42DB52DFC
:100B6800BF2D033046018D00FF308C00033091000B
:100B780084309000BF2D41014108803A4001DC00DB
:100B880080305C02031DCB2D033041014002031865
:100B9800CE2DCF2DD92D033046018D0084308C0009
:100BA80003309100FF309000D92D41013F084106E4
:100BB800031DE02D3E084006031DE32DE42DEE2D18
:100BC800033046018D00FF308C0003309100FF3068
:100BD8009000EE2D41013F08803A4001DC00803052
:100BE8005C02031DFA2D0B3041013E02031CFD2D52
:100BF800FE2D702E41013D08803A4001DC00803016
:100C08005C02031D0A2E073041013C0203180D2E19
:100C18000E2E702E41014108803A4001DC008030E0
:100C28005C02031D1A2E07304101400203181D2ED5
:100C38001E2E702E15304001DD004B30DC00BE301A
:100C4800890B242EDC0B242EDD0B242E0000400102
:100C5800181698161815981129304001DD0096309D
:100C6800DC007F30890B362EDC0B362EDD0B362E62
:100C78004001181698121815981115304001DD001A
:100C88004B30DC00BE30890B472EDC0B472EDD0BCA
:100C9800472E0000983184208031400155084101D9
:100CA800BF00400154084101BE0099311E21803126
:100CB800400155084101BD00400154084101BC00F4
:100CC800883127208031400155084101C100400189
:100CD80054084101C000702E41013F08803A40018C
:100CE800DC0080305C02031D7C2E073041013E028F
:100CF80003187F2E802ED32E41013D08803A4001F3
:100D0800DC0080305C02031D8C2E073041013C0260
:100D180003188F2E902ED32E41014108803A4001AE
:100D2800DC0080305C02031D9C2E0730410140022C
:100D380003189F2EA02ED32E4001181298161815AE
:100D4800981129304001DD009630DC007F30890B96
:100D5800AB2EDC0BAB2EDD0BAB2E98318420803113
:100D6800400155084101BF00400154084101BE003F
:100D780099311E218031400155084101BD004001D3
:100D880054084101BC0088312720803140015508B2
:100D98004101C100400154084101C000D32E410166
:100DA8004108803A4001DC0080305C02031DDF2EE0
:100DB8000B3041014002031CE22EE32E172F1530A1
:100DC8004001DD004B30DC00BE30890BE92EDC0B26
:100DD800E92EDD0BE92E00004001181698121815AF
:100DE800981529304001DD009630DC007F30890BF2
:100DF800FB2EDC0BFB2EDD0BFB2E40011816981288
:100E08001815981115304001DD004B30DC00BE305C
:100E1800890B0C2FDC0B0C2FDD0B0C2F0000410174
:100E2800B801B901172FA7313527803101307C056A
:100E38004101BA0000307D05BB00222F3808390473
:100E4800031D272F282F412D3528352835283528EB
:100E5800312F312F312F9631012E80310B28F80098
:100E680078080319382F392F4D2FF31F3C2F3D2FAA
:100E78004D2F7009FA007109FB007209FC00730913
:100E8800FD00FA0A0319FB0A0319FC0A0319FD0AF3
:100E9800552F7308FD007208FC007108FB007008EC
:100EA800FA007308720471047004031D5C2F5D2F2F
:100EB800672F0030F3000030F2000030F1000030FE
:100EC800F000E62FE62F9630F4007408F900782F2A
:100ED8000130F4007408F9070130FD36FC0CFB0CF6
:100EE800FA0C890B712F782FFE307D05031D7D2F9D
:100EF8007E2F6C2F932F932F0130F4007408F9077D
:100F08000130FA070030FB3D0030FC3D0030FD3D6C
:100F18000130FD36FC0CFB0CFA0C890B8D2FFF30D1
:100F28007D05031D982F992F802FA52FA52F013000
:100F3800F9020130FA35FB0DFC0DFD0D890B9E2FD2
:100F4800A52FFC1BA82FA92FB02F02307902031858
:100F5800AE2FAF2F9B2FB02F7918B32FB42FBC2FE4
:100F6800FF30FA05FF30FB057F30FC05FF30FD053B
:100F78000310F90C7908F400F501F601F7011830AF
:100F8800F435F50DF60DF70D890BC42F7408FA0426
:100F98007508FB047608FC047708FD047808031933
:100FA800D62FD72FDD2FF31FDA2FDB2FDD2FFD17DD
:100FB800DD2F7D08F3007C08F2007B08F1007A0839
:0A0FC800F000E62F0800B6340334F1
:10100200F800F401F5017008F200F3017208F6002D
:101012007308F7000C28781C0F281028142876086B
:10102200F4077708F53D0130F635F70D890B1528E1
:101032000310F80C7808031D1F2820280C282128EB
:101042007508F1007408F000262808004001DA0152
:10105200DB010030D9000030D8000030D70000306A
:10106200D60016161A30890B3428003240011612A7
:101072003A288C1E3D283E283A2844010E14412865
:1010820040018C1E452846284C284E01101C4A2837
:101092004B2841284C2844010E100D084001E50060
:1010A20044010C084001E40044018C018D014030F0
:1010B2004001BD000030BC000030BB000030BA006F
:1010C2003530A3008630A2003730A100BD30A00029
:1010D2006408F0006508F100890D893B8909F20076
:1010E200F300013087313327883173084001A700AC
:1010F2007208A6007108A5007008A4008A31FA22BD
:10110200883140012308C1002208C0002108BF0025
:101112002008BE009131E921883140013D08D90003
:101122003C08D8003B08D7003A08D6005908A70067
:101132005808A6005708A5005608A4004730A30087
:101142000430A200D030A1000030A0008A31FA227F
:10115200883140012308BD002208BC002108BB00E1
:101162002008BA00A7316B27883140013B08DB0019
:101172003A08DA005B08D5005A08D400C0280800F3
:1011820041013F08803A4001DC0041014708803AB2
:1011920040015C02031DD028410146083E020318AB
:1011A200D328D428E52841014108803A4001DC00D7
:1011B20080305C02031DE0280A3041014002031C1A
:1011C200E328E4282D29E52841014108803A40011D
:1011D200DC0080305C02031DF1280B30410140022B
:1011E200031CF428F528092941013F08803A4001EF
:1011F200DC0041014708803A40015C02031D0429DA
:10120200410146083E02031C072908292D29092904
:1012120041014108803A4001DC0080305C02031D3C
:1012220015290A3041014002031818291929862973
:1012320041014708803A4001DC0041013F08803A01
:1012420040015C02031D282941013E0846020318A1
:101252002B292C2986292D2941013E094001DC0038
:1012620041013F094001DD00DC0A0319DD0A4101A9
:10127200460840015C074101B600470840015D3D58
:101282004101B7003708F1003608F0000A30F200D9
:101292000030F30098310420883170094001DC00ED
:1012A2007109DD00DC0A0319DD0A41014808400129
:1012B2005C07DE004101490840015D3DDF005E0838
:1012C2004601900040015F08460191004101370844
:1012D200F1003608F0000A30F2000030F3009831D5
:1012E200042088314101480870074001DC004101B7
:1012F2004908713D4001DD005C0846018C00400157
:101302005D0846018D00862986299831842088311E
:10131200400155084101BF00400154084101BE008F
:1013220099311E218831400155084101BD0040011B
:1013320054084101BC0088312720883140015508FA
:101342004101C100400154084101C000A8294101E6
:101352003F08803A4001DC0080305C02031DB42962
:10136200103041013E02031CB729B829272A410146
:101372003D08803A4001DC0080305C02031DC42934
:101382000F3041013C020318C729C829272A41010D
:101392004108803A4001DC0080305C02031DD42900
:1013A2000F30410140020318D729D829272A0330D8
:1013B20046018D0084308C0003309100843090000F
:1013C200400118169816181598111D304001DD00BD
:1013D200D130DC008A30890BEC29DC0BEC29DD0BE7
:1013E200EC290000400118169812181598110530C2
:1013F2004001DD007730DC00D630890BFE29DC0BA2
:10140200FE29DD0BFE29000098318420883140013D
:1014120055084101BF00400154084101BE00993105
:101422001E218831400155084101BD004001540888
:101432004101BC0088312720883140015508410113
:10144200C100400154084101C000272A41013F0860
:10145200803A4001DC0080305C02031D332A0F30E9
:1014620041013E020318362A372AA42A41013D08C7
:10147200803A4001DC0080305C02031D432A0830C0
:1014820041013C020318462A472AA42A4101410885
:10149200803A4001DC0080305C02031D532A0F3089
:1014A200410140020318562A572AA42A0330460152
:1014B2008D0084308C000330910084309000400114
:1014C20018169812181198151D304001DD00693068
:1014D200DC00A530890B6B2ADC0B6B2ADD0B6B2A37
:1014E2004001181698121815981105304001DD00B8
:1014F2000F30DC00F130890B7C2ADC0B7C2ADD0BFF
:101502007C2A983184208831400155084101BF006E
:10151200400154084101BE0099311E218831400129
:1015220055084101BD00400154084101BC00883109
:1015320027208831400155084101C100400154086B
:101542004101C000A42A41014108803A4001DC0067
:1015520080305C02031DB02A153041014002031C99
:10156200B32AB42AF12A033046018D0084308C005C
:10157200033091008430900006304001DD009A3043
:10158200DC00BE30890BC32ADC0BC32ADD0BC32A65
:1015920000004001181698121815981519304001CC
:1015A200DD00C230DC009730890BD52ADC0BD52A4E
:1015B200DD0BD52A4001181698121815981104301F
:1015C2004001DD00DB30DC00FF30890BE62ADC0B5A
:1015D200E62ADD0BE62A4101B801B901F12AF12A16
:1015E200410138083904031DF82A803128289C312A
:1015F2000B2C400123088039A8002808AD002335B0
:10160200A8002808B300A21F072B082B0A2B3314AB
:101612000A2B330803190E2B0F2B1F2B330A031D22
:10162200132B142B1D2B0030A3000030A20000301E
:10163200A1000030A0001D2BA217282B0030A30010
:101642000030A2000030A1000030A000282B2708A3
:101652008039A8002808AD062735A8002808B2005E
:10166200A61F342B352B372B3214372B3208031994
:101672003B2B3C2B4C2B320A031D402B412B4A2B7C
:101682000030A7000030A6000030A5000030A40002
:101692004A2BA617552B0030A7000030A6000030B9
:1016A200A5000030A400552B32080319592B5A2BE0
:1016B200602B3308031D5E2B5F2B6A2B602B0030DF
:1016C200A3000030A2000030A1000030A000642D71
:1016D200642D2008A8002808F0002608883101207F
:1016E2008A3171084001B9007008B8003808A800B2
:1016F200A901AA01AB012B08B1002A08B0002908F0
:10170200AF002808AE003908A800A901AA01AB0160
:101712002B08B7002A08B6002908B5002808B4002B
:101722002108A8002808F0002508883101208A3104
:1017320071084001B9007008B8003808A800A90172
:10174200AA01AB012808AE072908AF3D2A08B03D1F
:101752002B08B13D3908A800A901AA01AB0128084C
:10176200B4072908B53D2A08B63D2B08B73D220823
:10177200A8002808F0002408883101208A31710865
:101782004001B9007008B8003808A800A901AA01F0
:10179200AB012808AE072908AF3D2A08B03D2B0847
:1017A200B13D3908A800A901AA01AB012808B40774
:1017B2002908B53D2A08B63D2B08B73D0830AE359D
:1017C200AF0DB00DB10D890BE02B2108A800280840
:1017D200F0002408883101208A3171084001B900E3
:1017E2007008B8003808AE073908AF3D0030B03D88
:1017F200B13D2008A8002808F00025088831012002
:101802008A3171084001B9007008B8003808AE0783
:101812003908AF3D0030B03DB13D0830AE35AF0DB7
:10182200B00DB10D890B0F2C2008A8002808F0007C
:101832002408883101208A3171084001B9007008FA
:10184200B8003808AE073908AF3D0030B03DB13DB1
:101852002108A8002808F0002608883101208A31D2
:1018620071084001B9007008B8003808B407390897
:10187200B53D0030B63DB73D2208A8002808F0006B
:101882002508883101208A3171084001B9007008A9
:10189200B8003808B4073908B53D0030B63DB73D49
:1018A2002208A8002808F0002608883101208A3181
:1018B20071084001B9007008B8003808A80039085A
:1018C200A900AA01AB010830A835A90DAA0DAB0DDC
:1018D200890B652C2808B4072908B53D2A08B63DAE
:1018E2002B08B73D2E08A8002F08A9003008AA002F
:1018F2003108AB001830AB36AA0CA90CA80C890B26
:101902007C2C2808B4072908B53D2A08B63D2B08C7
:10191200B73D0830AE35AF0DB00DB10D890B8B2C34
:1019220033083207A800A901A90D2808823EB80091
:10193200FF30293DB900B62C0130B435B50DB60DD6
:10194200B70D890B9E2CB11FA72CA82CAA2C3414DE
:10195200AA2C0130AE35AF0DB00DB10D890BAB2CF9
:10196200FF30B807FF30B93DB62CB61FB92CBA2CE0
:101972009D2CBB2CB201B11FBF2CC02CE02CFF3020
:101982002E05A800FF302F05A900FF303005AA0060
:101992007F303105AB002B082A04290428040319DF
:1019A200D32CD42CD72CB201B20AE02C341CDA2C62
:1019B200DB2CE02CB201B20AE02CE02CE02C320845
:1019C2000319E42CE52C0F2D0130B4070030B53D8E
:1019D2000030B63D0030B73D371CF02CF12C0F2DF6
:1019E2003408A8003508A9003608AA003708AB0059
:1019F2000130AC00AB37AA0CA90CA80CAC0BFB2C29
:101A02002B08B7002A08B6002908B5002808B40038
:101A12000130B8070030B93D0F2D0F2D3908803A3B
:101A2200A80080302802031D182DFF303802031C45
:101A32001B2D1C2D262D7F304001B7008030B600B3
:101A42000030B5000030B400572D40013908803A0B
:101A5200A80080302802031D302D013038020318FF
:101A6200332D342D3F2D00304001B7000030B60039
:101A72000030B5000030B400AD01572D40013808E8
:101A8200A8002808B300FF30B405FF30B5057F3049
:101A9200B6050030B705331C4F2D502D522DB61709
:101AA200522D3336A8002808B700572D2D08A8005C
:101AB2002808B7043708A3003608A2003508A10099
:101AC2003408A000642D080041013F08803A40011B
:101AD200DC0041014708803A40015C02031D742D7D
:101AE200410146083E020318772D782D892D4101C8
:101AF2004108803A4001DC0080305C02031D842DE5
:101B02000A3041014002031C872D882DD12D892DD9
:101B120041014108803A4001DC0080305C02031D33
:101B2200952D0B3041014002031C982D992DAD2DAE
:101B320041013F08803A4001DC0041014708803AF8
:101B420040015C02031DA82D410146083E02031C10
:101B5200AB2DAC2DD12DAD2D41014108803A400174
:101B6200DC0080305C02031DB92D0A3041014002C5
:101B72000318BC2DBD2D2A2E41014708803A400191
:101B8200DC0041013F08803A40015C02031DCC2D7C
:101B920041013E0846020318CF2DD02D2A2ED12D09
:101BA20041013E094001DC0041013F094001DD00E5
:101BB200DC0A0319DD0A4101460840015C074101C4
:101BC200B600470840015D3D4101B7003708F1000A
:101BD2003608F0000A30F2000030F3009831042099
:101BE2008D3170094001DC007109DD00DC0A031946
:101BF200DD0A4101480840015C07DE004101490855
:101C020040015D3DDF005E084601900040015F0833
:101C12004601910041013708F1003608F0000A3010
:101C2200F2000030F300983104208D314101480860
:101C320070074001DC0041014908713D4001DD00AF
:101C42005C0846018C0040015D0846018D002A2E89
:101C52002A2E983184208D31400155084101BF0060
:101C6200400154084101BE0099311E218D314001CD
:101C720055084101BD00400154084101BC008831B2
:101C820027208D31400155084101C100400154080F
:101C92004101C0004C2E41014608013E4001DC00DA
:101CA20000304101473D4001DD0041013F08803ADB
:101CB2004001DE005D08803A5E02031D632E5C086F
:101CC20041013E020318662E672EEC2E41014408A4
:101CD200013E4001DC0000304101453D4001DD0094
:101CE20041013D08803A4001DE005D08803A5E0213
:101CF200031D7E2E5C0841013C020318812E822EB8
:101D0200EC2E41014208013E4001DC00003041015D
:101D1200433D4001DD005D08803ADE00410141089B
:101D2200803A40015E02031D9A2E410140084001A3
:101D32005C0203189D2E9E2EEC2E033046018D0070
:101D4200E8308C0003309100E83090004001181612
:101D520098121815981519304001DD00C230DC00C8
:101D62009730890BB22EDC0BB22EDD0BB22E400166
:101D7200181698121815981104304001DD004030F1
:101D8200DC002630890BC32EDC0BC32EDD0BC32EE9
:101D92000000983184208D31400155084101BF0077
:101DA200400154084101BE0099311E218D3140018C
:101DB20055084101BD00400154084101BC00883171
:101DC20027208D31400155084101C10040015408CE
:101DD2004101C000EC2E41014608013E4001DC00F9
:101DE20000304101473D4001DD0041013F08803A9A
:101DF2004001DE005D08803A5E02031D032F5C088D
:101E020041013E020318062F072F822F4101440889
:101E1200013E4001DC0000304101453D4001DD0052
:101E220041013D08803A4001DE005D08803A5E02D1
:101E3200031D1E2F5C0841013C020318212F222F93
:101E4200822F41014108803A4001DC0041014308F0
:101E5200803A40015C02031D312F410142084002D9
:101E62000318342F352F822F033046018D00E830BE
:101E72008C0003309100E83090004001181698124F
:101E8200181198151D304001DD006930DC00A530C5
:101E9200890B492FDC0B492FDD0B492F4001181606
:101EA20098121815981105304001DD000F30DC0042
:101EB200F130890B5A2FDC0B5A2FDD0B5A2F983138
:101EC20084208D31400155084101BF004001540872
:101ED2004101BE0099311E218D3140015508410159
:101EE200BD00400154084101BC00883127208D31DA
:101EF200400155084101C100400154084101C000A0
:101F0200822F41014608053E4001DC0000304101BC
:101F1200473D4001DD005D08803ADE0041013F0897
:101F2200803A40015E02031D9A2F41013E084001A2
:101F32005C0203189D2F9F2F9D315D2D41014408A6
:101F4200023E4001DC0000304101453D4001DD0020
:101F520041013D08803A4001DE005D08803A5E02A0
:101F6200031DB62F5C0841013C020318B92FBA2F9A
:101F72009D2F033046018D00E8308C000330910024
:101F8200E8309000400118169816181598111D3067
:101F92004001DD000130DC00BF30890BCE2FDC0BAD
:101FA200CE2FDD0BCE2F00324001181698121815D5
:101FB200981104304001DD00DB30DC00FF30890B7A
:101FC200E02FDC0BE02FDD0BE02F41013408013E56
:101FD200B4000030353DB5003508803A4001DC00E0
:101FE20041013B08803A40015C02031DFB2F410185
:0E1FF2003A083402031CFF2F9B31EA2B9D2F6F
:10203A000030FB000030FA000030F9000030F800F0
:10204A002628701C29282A2833287408F8077508B6
:10205A00F93D7608FA3D7708FB3D33280130F4351F
:10206A00F50DF60DF70D890B34280130F336F20C15
:10207A00F10CF00C890B3B2873087204710470048C
:10208A00031D4828492826284A287B08F3007A088D
:10209A00F2007908F1007808F0005328080041019D
:1020AA003F08803A4001DC0080305C02031D602852
:1020BA00033041013E020318632864286E28033066
:1020CA0046018D00FF308C0003309100843090006F
:1020DA006E2841014108803A4001DC0080305C02F0
:1020EA00031D7A2803304101400203187D287E2807
:1020FA008828033046018D0084308C00033091001B
:10210A00FF309000882841013F084106031D8F28AF
:10211A003E084006031D922893289D280330460155
:10212A008D00FF308C0003309100FF3090009D2815
:10213A0041013F08803A4001DC0080305C02031D07
:10214A00A9280B3041013E02031CAC28AD281F29E7
:10215A0041013D08803A4001DC0080305C02031DE9
:10216A00B928073041013C020318BC28BD281F29A1
:10217A0041014108803A4001DC0080305C02031DC5
:10218A00C9280730410140020318CC28CD281F294D
:10219A0015304001DD004B30DC00BE30890BD328FE
:1021AA00DC0BD328DD0BD328000040011816981643
:1021BA001815981129304001DD009630DC007F3077
:1021CA00890BE528DC0BE528DD0BE528400118160C
:1021DA0098121815981115304001DD004B30DC00BB
:1021EA00BE30890BF628DC0BF628DD0BF62800003A
:1021FA00983184209031400155084101BF004001C7
:10220A0054084101BE0099311E2190314001550800
:10221A004101BD00400154084101BC00883127201A
:10222A009031400155084101C10040015408410163
:10223A00C0001F2941013F08803A4001DC0080307C
:10224A005C02031D2B29073041013E0203182E2987
:10225A002F29822941013D08803A4001DC00803063
:10226A005C02031D3B29073041013C0203183E2949
:10227A003F29822941014108803A4001DC0080302F
:10228A005C02031D4B2907304101400203184E2905
:10229A004F298229400118129816181598112930C9
:1022AA004001DD009630DC007F30890B5A29DC0BB7
:1022BA005A29DD0B5A29983184209031400155085A
:1022CA004101BF00400154084101BE0099311E215D
:1022DA009031400155084101BD00400154084101B7
:1022EA00BC00883127209031400155084101C100C6
:1022FA00400154084101C000822941014108803A45
:10230A004001DC0080305C02031D8E290B30410144
:10231A004002031C91299229C72915304001DD008A
:10232A004B30DC00BE30890B9829DC0B9829DD0B79
:10233A009829000040011816981218159815293086
:10234A004001DD009630DC007F30890BAA29DC0BC6
:10235A00AA29DD0BAA2940011816981218159811F6
:10236A0015304001DD004B30DC00BE30890BBB2943
:10237A00DC0BBB29DD0BBB2900004101B801B90107
:10238A00C729C729410138083904031DCD29CF2996
:10239A009B31852BD0290130AA070030AB3D2B0891
:1023AA00803A4001DC0041012108803A40015C0288
:1023BA00031DE229410120082A02031CE529E72915
:1023CA009B317E2B9331C82B400141088039C200D2
:1023DA004208CB004135C2004208D200C01FF6298C
:1023EA00F729F9295214F92952080319FD29FE2956
:1023FA000F2A520A031D022A032A0C2A0030C1009E
:10240A000030C0000030BF000030BE000C2AC017E8
:10241A00C101182A0030C1000030C0000030BF00DE
:10242A000030BE00182A3D088039C2004208CB0697
:10243A003D35C2004208D300BC1F242A252A272A78
:10244A005314272A530803192B2A2C2A3D2A530AE4
:10245A00031D302A312A3A2A0030BD000030BC0060
:10246A000030BB000030BA003A2ABC17BD01452A29
:10247A000030BD000030BC000030BB000030BA00A4
:10248A003D083C043B043A04031D4C2A4D2A672AA2
:10249A000030C1000030C0000030BF000030BE0074
:1024AA008030C0047F30C1044B08C2004208C10416
:1024BA004108BD004008BC003F08BB003E08BA0006
:1024CA00C72BC72B5208031D6B2A6C2A7E2A0030A1
:1024DA00C1000030C0000030BF000030BE0041081B
:1024EA00BD004008BC003F08BB003E08BA00C72B2D
:1024FA00C72B5308C200C301C209C309C20A031980
:10250A00C30A52084207C40043080318430AC50015
:10251A0044087F3ECC000030453DCD004108CA004A
:10252A004008C9003F08C8003E08C7000030C10083
:10253A000030C0000030BF000030BE000030D100C3
:10254A000030D0000030CF000030CE00D301EF2A97
:10255A0053080319B12AB22ACE2A0130C735C80D49
:10256A00C90DCA0D890BB32A0130BE35BF0DC00D86
:10257A00C10D890BBA2AD11FC32AC42AC62A3E14FE
:10258A00C62A0130CE35CF0DD00DD10D890BC72A01
:10259A00CE2A3D084A02031DDC2A3C084902031DD3
:1025AA00DC2A3B084802031DDC2A3A084702031CBE
:1025BA00DF2AE02AEA2A51173A08C7023B08C83B31
:1025CA003C08C93B3D08CA3BEA2A0130C20042081E
:1025DA00D307EF2A1A305302031CF42AF52AAD2A2C
:1025EA00F62A4A084904480447040319FD2AFE2A20
:1025FA001A2B4E141A2B1A2B0130BE35BF0DC00DE3
:10260A00C10D890B022BD11F0B2B0C2B0E2B3E1449
:10261A000E2B0130CE35CF0DD00DD10D890B0F2BDE
:10262A00FF30CC07FF30CD3D1A2BC01F1D2B1E2BB0
:10263A00012B1F2BD301D11F232B242B442BFF301B
:10264A004E05C200FF304F05C300FF305005C400DD
:10265A007F305105C5004508440443044204031968
:10266A00372B382B3B2BD301D30A442B3E1C3E2B52
:10267A003F2B442BD301D30A442B442B442B53081E
:10268A000319482B492B732B0130BE070030BF3D7D
:10269A000030C03D0030C13D411C542B552B732BDB
:1026AA003E08C2003F08C3004008C4004108C500F4
:1026BA000130C600C537C40CC30CC20CC60B5F2B55
:1026CA004508C1004408C0004308BF004208BE00D4
:1026DA000130CC070030CD3D732B732B4D08803A67
:1026EA00C20080304202031D7C2BFF304C02031CC7
:1026FA007F2B802B8D2BFF304001CC000030CD008A
:10270A000030C1000030C0000030BF000030BE0001
:10271A0040014D08803AC20080304202031D972BC7
:10272A0001304C0203189A2B9B2BA72B4001CC019A
:10273A00CD010030C1000030C0000030BF000030C1
:10274A00BE00CB0140014C08C2004208D200521C14
:10275A00AF2BB02BB22BC017B62B7F30C20042086A
:10276A00C0055236C2004208C1004B08C2004208E6
:10277A00C1044108BD004008BC003F08BB003E0838
:10278A00BA00C72B080002304101B0000030B10086
:10279A003208013EB2000030333DB300D42B023080
:1027AA0032063304031DDA2BDB2BE02BAE01AF011B
:1027BA00B001B101E02B023030063104031DE62BD3
:1027CA00E82B9531F62DAC01AD019531D62D0130AE
:1027DA004101B8000030B900C92D983184209331E5
:1027EA00400155084101BF00400154084101BE00A3
:1027FA0099311E219331400155084101BD00400124
:10280A0054084101BC008831272093314001550802
:10281A004101C100400154084101C0003D08803A0D
:10282A004001DC0080305C02031D1E2C0B3041018C
:10283A003C02031C212C222C562C400118169812FB
:10284A00181598110D304001DD002D30DC00D7300D
:10285A00890B2D2CDC0B2D2CDD0B2D2C0032983105
:10286A0084209331400155084101BF0040015408BA
:10287A004101BE0099311E219331400155084101A1
:10288A00BD00400154084101BC0088312720933122
:10289A00400155084101C100400154084101C000EE
:1028AA00562C41013F08803A4001DC0080305C022E
:1028BA00031D622C033041013E020318652C662C6D
:1028CA00702C033046018D00FF308C0003309100DC
:1028DA0084309000702C41014108803A4001DC00AC
:1028EA0080305C02031D7C2C033041014002031836
:1028FA007F2C802C8A2C033046018D0084308C007A
:10290A0003309100FF3090008A2C41013F084106B4
:10291A00031D912C3E084006031D942C952C9F2CD8
:10292A00033046018D00FF308C0003309100FF30E8
:10293A0090009F2C41013F08803A4001DC00803022
:10294A005C02031DAB2C073041013E020318AE2C7A
:10295A00AF2C212D41013D08803A4001DC00803036
:10296A005C02031DBB2C073041013C020318BE2C3C
:10297A00BF2C212D41014108803A4001DC00803002
:10298A005C02031DCB2C0B3041014002031CCE2CF0
:10299A00CF2C212D15304001DD004B30DC00BE303C
:1029AA00890BD52CDC0BD52CDD0BD52C0000400176
:1029BA00181698121815981529304001DD0096301E
:1029CA00DC007F30890BE72CDC0BE72CDD0BE72CD6
:1029DA004001181698121815981115304001DD009B
:1029EA004B30DC00BE30890BF82CDC0BF82CDD0BED
:1029FA00F82C000098318420933140015508410198
:102A0A00BF00400154084101BE0099311E21933193
:102A1A00400155084101BD00400154084101BC0074
:102A2A00883127209331400155084101C1004001F6
:102A3A0054084101C000212D41013F08803A40015C
:102A4A00DC0080305C02031D2D2D073041013E025F
:102A5A000318302D312D842D41013D08803A400163
:102A6A00DC0080305C02031D3D2D073041013C0231
:102A7A000318402D412D842D41014108803A40011F
:102A8A00DC0080305C02031D4D2D073041014002FD
:102A9A000318502D512D842D40011812981618151F
:102AAA00981129304001DD009630DC007F30890B17
:102ABA005C2DDC0B5C2DDD0B5C2D98318420933171
:102ACA00400155084101BF00400154084101BE00C0
:102ADA0099311E219331400155084101BD00400141
:102AEA0054084101BC008831272093314001550820
:102AFA004101C100400154084101C000842D410137
:102B0A003F08803A4001DC0080305C02031D902DB2
:102B1A000B3041013E02031C932D942DC92D153013
:102B2A004001DD004B30DC00BE30890B9A2DDC0BF6
:102B3A009A2DDD0B9A2D00004001181698161815CB
:102B4A00981129304001DD009630DC007F30890B76
:102B5A00AC2DDC0BAC2DDD0BAC2D400118169812F8
:102B6A001815981115304001DD004B30DC00BE30DD
:102B7A00890BBD2DDC0BBD2DDD0BBD2D00004101E8
:102B8A00B801B901C92DC92D410138083904031DFD
:102B9A00CF2DD02DF22B9531D22D0130AC0700303C
:102BAA00AD3D2D08803A4001DC0041012308803AFE
:102BBA0040015C02031DE42D410122082C02031C82
:102BCA00E72DE92D9331EC2BEA2D01304101B000BC
:102BDA000030B1003208013EB2000030333DB3008C
:102BEA00F62D023032063304031DFC2DFD2D012E75
:102BFA00AE01AF01012E012E41012E082F04031D43
:102C0A00072E092E9B31722B0A2E24032504031D3D
:102C1A000F2E112E9D313B2DB401B5010730400115
:102C2A00A4000030A500A731352795317D08400161
:102C3A00A7007C08A6009831262095314001250876
:102C4A004101BB00400124084101BA002C2E410178
:102C5A003A083B04031D322E332E382E0130BA00B7
:102C6A000030BB00382E9831842095314001550838
:102C7A004101BF00400154084101BE0099311E21A3
:102C8A009531400155084101BD00400154084101F8
:102C9A00BC00883127209531400155084101C10007
:102CAA00400154084101C0003D08803A4001DC005F
:102CBA0080305C02031D642E103041013C02031C6B
:102CCA00672E682E9C2E4001181698121815981116
:102CDA000D304001DD002D30DC00D730890B732E1A
:102CEA00DC0B732EDD0B732E003298318420953164
:102CFA00400155084101BF00400154084101BE008E
:102D0A0099311E219531400155084101BD0040010C
:102D1A0054084101BC0088312720953140015508EB
:102D2A004101C100400154084101C0009C2E4101EB
:102D3A003F08803A4001DC0080305C02031DA82E67
:102D4A00083041013E020318AB2EAC2EB62E0330DA
:102D5A0046018D0084308C000330910020309000B1
:102D6A00B62E41014108803A4001DC0080305C0205
:102D7A00031DC22E0830410140020318C52EC62E7B
:102D8A00D02E033046018D0020308C000330910094
:102D9A0084309000D02E41013F084106031DD72EF2
:102DAA003E084006031DDA2EDB2EE52E03304601CF
:102DBA008D0084308C000330910084309000E52E21
:102DCA0041013F08803A4001DC0080305C02031D6B
:102DDA00F12E103041013E02031CF42EF52E712F04
:102DEA0041013D08803A4001DC0080305C02031D4D
:102DFA00012F0F3041013C020318042F052F712FB8
:102E0A0041014108803A4001DC0080305C02031D28
:102E1A00112F0F30410140020318142F152F712F63
:102E2A00033046018D0084308C00033091008430D9
:102E3A00900007304001DD001730DC006A30890B52
:102E4A00242FDC0B242FDD0B242F00004001181641
:102E5A009816181598111F304001DD007130DC00FA
:102E6A001E30890B362FDC0B362FDD0B362F000078
:102E7A00400118169812181598110D304001DD00FE
:102E8A002D30DC00D730890B482FDC0B482FDD0BA7
:102E9A00482F00329831842095314001550841016C
:102EAA00BF00400154084101BE0099311E219531ED
:102EBA00400155084101BD00400154084101BC00D0
:102ECA00883127209531400155084101C100400150
:102EDA0054084101C000712F41013F08803A400166
:102EEA00DC0080305C02031D7D2F0F3041013E0261
:102EFA000318802F812FEF2F41013D08803A4001AE
:102F0A00DC0080305C02031D8D2F0F3041013C0232
:102F1A000318902F912FEF2F41014108803A400169
:102F2A00DC0080305C02031D9D2F0F3041014002FE
:102F3A000318A02FA12FEF2F033046018D008430F4
:102F4A008C000330910084309000400118129816CA
:102F5A001815981127304001DD008F30DC0005304C
:102F6A00890BB52FDC0BB52FDD0BB52F40011816D9
:102F7A009812181598110D304001DD002D30DC0033
:102F8A00D730890BC62FDC0BC62FDD0BC62F0032BC
:102F9A00983184209531400155084101BF00400114
:102FAA0054084101BE0099311E219531400155084E
:102FBA004101BD00400154084101BC00883127206D
:102FCA009531400155084101C100400154084101B1
:102FDA00C000EF2F41014108803A4001DC008030F7
:102FEA005C02031DFB2F103041014002031CFF2F1E
:062FFA009931B8292C2ECC
:10300800F401F5010728701C0A280B280F287208FC
:10301800F4077308F53D0130F235F30D890B1028DC
:103028000130F136F00C890B152870087104031D66
:103038001E281F28072820287508F1007408F000AA
:10304800252808004001AA01A71F2B282C2834286E
:10305800A609A709A60A0319A70AAA01AA0A3428D1
:10306800A51F372838283E28A409A509A40A03194A
:10307800A50A3E2824082504031943284428732850
:10308800A901A90A51280130A435A50D890B4828A2
:103098000130A8002808A9075128A51F5428552839
:1030A80047285728572825082702031D5D28240884
:1030B8002602031C6028612866282408A602250821
:1030C800A73B66280130A536A40C890B6728013078
:1030D800A902031D702871285728732873282A0805
:1030E8000319772878287E28A609A709A60A0319AC
:1030F800A70A7E282708A5002608A4008328080018
:103108004001DA01DB010030D9000030D80000307E
:10311800D7000030D60016141A30890B91280032D7
:103128004001161097288C1C9A289B289728440140
:103138000E149E2840018C1CA228A328A9284E0101
:10314800101CA728A8289E28A92844010E100D089D
:103158004001E50044010C084001E40044018C01F1
:103168008D0140304001BD000030BC000030BB0084
:103178000030BA003530A3008630A2003730A100F5
:10318800BD30A0006408F0006508F100890D893B96
:103198008909F200F3000130873133279831730829
:1031A8004001A7007208A6007108A5007008A400D5
:1031B8008A31FA22983140012308C1002208C00050
:1031C8002108BF002008BE009131E9219831400153
:1031D8003D08D9003C08D8003B08D7003A08D6007B
:1031E8005908A7005808A6005708A5005608A400C3
:1031F8004730A3000430A200D030A1000030A00066
:103208008A31FA22983140012308BD002208BC0007
:103218002108BB002008BA00A7316B27983140016C
:103228003B08DB003A08DA005B08D5005A08D400EE
:103238001D2908004001DA01DB010030D900003007
:10324800D8000030D7000030D60016151A30890B88
:103258002B2900324001161131298C1D34293529BA
:10326800312944010E14382940018C1D3C293D297F
:1032780043294E01101C4129422938294329440178
:103288000E100D084001E50044010C084001E4005F
:1032980044018C018D0140304001BD000030BC006C
:1032A8000030BB000030BA003530A3008630A200E1
:1032B8003730A100BD30A0006408F0006508F100B7
:1032C800890D893B8909F200F300013087313327E2
:1032D800993173084001A7007208A6007108A5007B
:1032E8007008A4008A31FA22993140012308C100EC
:1032F8002208C0002108BF002008BE009131E92142
:10330800993140013D08D9003C08D8003B08D70056
:103318003A08D6005908A7005808A6005708A5007B
:103328005608A4004730A3000430A200D030A10002
:103338000030A0008A31FA22993140012308BD00EB
:103348002208BC002108BB002008BA00A7316B275F
:10335800993140013B08DB003A08DA005B08D500E8
:103368005A08D400B7290800033046018D0084307C
:103378008C0003309100843090000B304001DD0058
:103388002630DC005D30890BC729DC0BC729DD0B33
:10339800C7290032400118169812181598151F30C1
:1033A8004001DD007130DC001E30890BD929DC0BAF
:1033B800D929DD0BD92900004001181698121815D3
:1033C80098110D304001DD002D30DC00D730890B1D
:1033D800EB29DC0BEB29DD0BEB290032410134082A
:1033E800013EB4000030353DB5003508803A400153
:1033F800DC0041013B08803A40015C02031D072ABA
:1034080041013A083402031C0A2A0C2A96312C2E50
:1034180007304001A4000030A500A73135279931B5
:103428007D084001A7007C08A60098312620993124
:10343800400125084101BB00400124084101BA00B0
:10344800B401B5010130B8000030B9009F31F62F42
:103458003A083B04031D312A322A372A0130BA00C0
:103468000030BB00372A9831842099314001550833
:103478004101BF00400154084101BE0099311E219D
:103488009931400155084101BD00400154084101EE
:10349800BC00883127209931400155084101C100FD
:1034A800400154084101C0003D08803A4001DC0059
:1034B80080305C02031D632A103041013C02031C6A
:1034C800662A672A8E2A400118169812181598112C
:1034D800983184209931400155084101BF004001CD
:1034E80054084101BE0099311E2199314001550807
:1034F8004101BD00400154084101BC00883127202A
:103508009931400155084101C10040015408410169
:10351800C0008E2A41013F08803A4001DC0080301B
:103528005C02031D9A2A083041013E0203189D2AB5
:103538009E2AA82A033046018D0084308C0003306F
:10354800910020309000A82A41014108803A4001AA
:10355800DC0080305C02031DB42A083041014002BF
:103568000318B72AB92A9E31882E033046018D00E8
:1035780020308C000330910084309000B72A51012C
:103588001308F8390638930040018C017E01B80110
:1035980040011110911411119115111291168E01FB
:1035A8007E014E11CE114E12CE12400193013030E1
:1035B80044018E040E151108F039013891008C0170
:1035C8008D0109307E01A00046018E170F308E0450
:1035D8000A307E01A100460192170F309204FF3095
:1035E80045018D000330460191008430900003307E
:1035F8008D0084308C0044011E08FC3901389E007F
:103608001E08F33904389E004E0110101A140B17C7
:1036180045011008F03902389000F0308E050E0888
:103628008F3940388E008E174E0190109A148B17E0
:103638004101B601B701A001A101A201A301B00196
:10364800B101A401A5010130A6000030A700A8011E
:10365800A901BE01BF01BC01BD01C001C101AE018C
:10366800AF0129304001DD009630DC007F30890B46
:103678003B2BDC0B3B2BDD0B3B2B983184209A3109
:10368800400155084101C700400154084101C600E6
:1036980099311E219A31400155084101C500400168
:1036A80054084101C400883127209A314001550847
:1036B8004101C300400154084101C2005230400199
:1036C800DD002B30DC000030890B682BDC0B682B0D
:1036D800DD0B682B0000702B9631012E4101300361
:1036E8003104031D782B7A2B9331D42BAA01AB011B
:1036F8009131D42901304101B8000030B90091312D
:10370800C729983184209A31400155084101BF00EA
:10371800400154084101BE0099311E219A314001EF
:1037280055084101BD00400154084101BC008831E1
:1037380027209A31400155084101C1004001540831
:103748004101C0003D08803A4001DC0080305C0245
:10375800031DB12B0B3041013C02031CB42BB62BCB
:1037680090315428400118169812181598110D30E8
:103778004001DD002D30DC00D730890BC12BDC0B7C
:10378800C12BDD0BC12B0032983184209A314001C6
:1037980055084101BF00400154084101BE0099315C
:1037A8001E219A31400155084101BD0040015408CD
:1037B8004101BC00883127209A3140015508410158
:1037C800C100400154084101C000B42B4101B401BB
:1037D800B5010130B8000030B90007304001A4003D
:1037E8000030A500A73135279B317D084001A7008F
:1037F8007C08A600983126209B314001250841010C
:10380800BB00400124084101BA008A31F12A3A0874
:103818003B04031D102C112C162C0130BA0000306B
:10382800BB00162C983184209B314001550841017A
:10383800BF00400154084101BE0099311E219B314F
:10384800400155084101BD00400154084101BC0038
:10385800883127209B31400155084101C1004001B2
:1038680054084101C0004508803A4001DC0041018C
:103878003D08803A40015C02031D452C41013C088B
:1038880044020318482C4A2C8931A82941014108CF
:103898003F06031D512C40083E06031D542C552C91
:1038A8006B2C4908460191004101480846019000E7
:1038B8004101490846018D004101480846018C0034
:1038C8004001181698121815981189318629400157
:1038D800181698121815981141014108803A4001AC
:1038E800DC0041014308803A40015C02031D7F2C43
:1038F8004101420840020318822C832C942C410178
:103908003F08803A4001DC0080305C02031D8F2CA8
:103918000A3041013E02031C922C932CDD2C942C7E
:1039280041013F08803A4001DC0080305C02031D01
:10393800A02C0B3041013E02031CA32CA42CB82C54
:1039480041014108803A4001DC0041014308803AC6
:1039580040015C02031DB32C410142084002031CD4
:10396800B62CB72CDD2CB82C41013F08803A400119
:10397800DC0080305C02031DC42C0A3041013E0289
:103988000318C72CC92C8831C12841014308803A43
:103998004001DC0041014108803A40015C02031DFE
:1039A800D82C4101400842020318DB2CDC2CC72C20
:1039B800DD2C410140094001DC0041014109400181
:1039C800DD00DC0A0319DD0A4101420840015C07F9
:1039D8004101B600430840015D3D4101B700370889
:1039E800F1003608F0000A30F2000030F300983198
:1039F80004209B314101480870074001DC00410167
:103A08004908713D4001DD005C0846019000400115
:103A18005D084601910041013708F1003608F000C1
:103A28000A30F2000030F300983104209B3170090D
:103A38004001DC007109DD00DC0A0319DD0A4101DF
:103A4800480840015C07DE004101490840015D3D2E
:103A5800DF005E0846018C0040015F0846018D00CA
:103A6800C72C9F31FE2F352D352D352D3B2D2603A7
:103A78002704031D402D422D8731312FB401B50194
:103A880007304001A4000030A500A73135279D313B
:103A98007D084001A7007C08A600983126209D31AA
:103AA800400125084101BB00400124084101BA003A
:103AB8005D2D41013A083B04031D632D642D692DDA
:103AC8000130BA000030BB00692D983184209D3147
:103AD800400155084101BF00400154084101BE00A2
:103AE80099311E219D31400155084101BD00400119
:103AF80054084101BC00883127209D3140015508F8
:103B08004101C100400154084101C0004508803A04
:103B18004001DC0041013D08803A40015C02031D80
:103B2800982D41013C08440203189B2D9D2D8E3190
:103B38004C2E410141083F06031DA42D40083E06B6
:103B4800031DA72DA82DBE2D49084601910041014E
:103B58004808460190004101490846018D0041018D
:103B6800480846018C00400118169812181598113B
:103B78008E312A2E400118169812181598114101F5
:103B88004108803A4001DC0041014308803A400185
:103B98005C02031DD22D4101420840020318D52DB5
:103BA800D62DE72D41013F08803A4001DC008030E6
:103BB8005C02031DE22D0A3041013E02031CE52D83
:103BC800E62D302EE72D41013F08803A4001DC0008
:103BD80080305C02031DF32D0B3041013E02031CB3
:103BE800F62DF72D0B2E41014108803A4001DC00EB
:103BF80041014308803A40015C02031D062E410141
:103C080042084002031C092E0A2E302E0B2E4101B9
:103C18003F08803A4001DC0080305C02031D172E0B
:103C28000A3041013E0203181A2E1C2E8D31652DD3
:103C380041014308803A4001DC0041014108803AD3
:103C480040015C02031D2B2E41014008420203186B
:103C58002E2E2F2E1A2E302E410140094001DC0055
:103C6800410141094001DD00DC0A0319DD0A410177
:103C7800420840015C074101B600430840015D3D30
:103C88004101B7003708F1003608F0000A30F200A9
:103C98000030F300983104209D3141014808700735
:103CA8004001DC0041014908713D4001DD005C082C
:103CB8004601900040015D08460191004101370826
:103CC800F1003608F0000A30F2000030F3009831B5
:103CD80004209D3170094001DC007109DD00DC0A17
:103CE8000319DD0A4101480840015C07DE00410173
:103CF800490840015D3DDF005E0846018C00400137
:103D08005F0846018D001A2E41013F084106031D38
:103D18008F2E3E084006031D922E932E9D2E0330B3
:103D280046018D0084308C0003309100843090006F
:103D38009D2E41013F08803A4001DC0080305C0242
:103D4800031DA92E0F3041013E020318AC2EAD2EE3
:103D5800292F41013D08803A4001DC0080305C0297
:103D6800031DB92E0F3041013C020318BC2EBD2E95
:103D7800292F41014108803A4001DC0080305C0273
:103D8800031DC92E103041014002031CCC2ECD2E3C
:103D9800292F033046018D0084308C0003309100B8
:103DA8008430900007304001DD001730DC006A30B5
:103DB800890BDC2EDC0BDC2EDD0BDC2E0000400139
:103DC80018169812181598151F304001DD0071302B
:103DD800DC001E30890BEE2EDC0BEE2EDD0BEE2EFA
:103DE8000000400118169812181598110D3040015E
:103DF800DD002D30DC00D730890B002FDC0B002FC5
:103E0800DD0B002F0032983184209E314001550887
:103E18004101BF00400154084101BE0099311E21F3
:103E28009E31400155084101BD004001540841013F
:103E3800BC00883127209E31400155084101C1004E
:103E4800400154084101C000292F41013F08803A30
:103E58004001DC0080305C02031D352F0F3041012A
:103E68003E020318382F392FA72F41013D08803A09
:103E78004001DC0080305C02031D452F0F304101FA
:103E88003C020318482F492FA72F41014108803AC7
:103E98004001DC0080305C02031D552F0F304101CA
:103EA80040020318582F592FA72F033046018D00C1
:103EB80084308C0003309100843090004001181247
:103EC80098161815981127304001DD008F30DC0056
:103ED8000530890B6D2FDC0B6D2FDD0B6D2F40012D
:103EE80018169812181598110D304001DD002D3064
:103EF800DC00D730890B7E2FDC0B7E2FDD0B7E2F6D
:103F08000032983184209E31400155084101BF009C
:103F1800400154084101BE0099311E219E314001E3
:103F280055084101BD00400154084101BC008831D9
:103F380027209E31400155084101C1004001540825
:103F48004101C000A72F41013F08803A4001DC0031
:103F580080305C02031DB32F103041013E02031C68
:103F6800B62FB72FF62F033046018D0084308C0012
:103F780003309100843090000B304001DD00263082
:103F8800DC005D30890BC62FDC0BC62FDD0BC62F7E
:103F98000032400118169816181598111F30400164
:103FA800DD007130DC001E30890BD82FDC0BD82FD8
:103FB800DD0BD82F0000400118169812181598111B
:103FC8000D304001DD002D30DC00D730890BEA2FA1
:103FD800DC0BEA2FDD0BEA2F00324101B801B901F1
:103FE800F62FF62F410138083904031DFC2FFE2F48
:083FF8009A312C2A9A310A2AA1
:104E6A0040016308F3006208F2006108F10060087B
:104E7A00F0004C30F7009530F6007F30F5002D3009
:104E8A00F40090311D20A731013070074001E00085
:104E9A000030713DE1000030723DE2000030733DA8
:104EAA00E3006008A0006108A1006208A20063088C
:104EBA00A3000330A336A20CA10CA00C890B5F2F10
:104ECA002108FD002008FC006A2F080040013A086A
:104EDA00BE003B08BF003C08C0003D08C1000310EB
:104EEA00400D410DC2004208C4004408031D7E2F34
:104EFA007F2F892F0030BD000030BC000030BB007E
:104F0A000030BA00FF2FFF2F3A08BE003B08BF004F
:104F1A003C08C0003D08C1001F30C136C00CBF0CA0
:104F2A00BE0C890B922F3E08C2004208C300BC1770
:104F3A00FF30BA05FF30BB05FF30BC050030BD05A8
:104F4A009630C402C41FAA2FAB2FCE2F4408803A32
:104F5A00973E0318B12FB22FBD2F0030BD0000308D
:104F6A00BC000030BB000030BA00FF2FFF2FBD2F5E
:104F7A000130BD36BC0CBB0CBA0C890BBE2F0130FC
:104F8A00BE003E08C407031DCB2FCC2FBD2FEF2F29
:104F9A00EF2F20304402031CD32FD42FE82F0030E8
:104FAA00BD000030BC000030BB000030BA00FF2F4B
:104FBA00FF2FE82F0130BA35BB0DBC0DBD0D890B93
:104FCA00E02F0130C4024408031DEC2FED2FDF2F20
:104FDA00EF2FEF2F43080319F32FF42FFF2FBA09EE
:104FEA00BB09BC09BD09BA0A0319BB0A0319BC0AE1
:064FFA000319BD0A0800C6
:020000040001F9
:0A000E008C3FFD3F9F3FFF3FFF3F87
:00000001FF
