:020000040000FA
:08000000803102288731EF2F47
:100B9400FE0012001E00FE0BCB2D00343F34063441
:100BA4005B344F3466346D347D3407347F346734BA
:100BB4003F3451011308F8390638930040011E12DE
:100BC4001E08F03909389E00F0309F051F309F053C
:100BD4001F1606307D01910040019C019E178C0177
:100BE400FF3091007E01B801613040019D008D010C
:100BF40092017E01C30140018F0194017E01D9015C
:100C040040018E0193017E01CE0120308600003028
:100C1400870073308400003085000B30F00016002C
:100C24001A00F00B112E0130F1000030F2001A2EE0
:100C34000A3040011C020318202E212E2A2E0630D1
:100C440099001C08733E86008701010898002A2E2B
:100C540014301C0203182F2E302E552E0A301C027D
:100C6400031C352E362E552E063099001C08F63EF0
:100C7400733E86008701010898000530F000263095
:100C8400890B422EF00B422E0032053040019900B0
:100C9400740898000530F0002630890B4F2EF00BB5
:100CA4004F2E0032552E1E3040011C0203185B2EBD
:100CB4005C2E812E14301C02031C612E622E812EA8
:100CC400063099001C08EC3E733E8600870101083B
:100CD40098000530F0002630890B6E2EF00B6E2E36
:100CE4000032053040019900750898000530F00085
:100CF4002630890B7B2EF00B7B2E0032812E283080
:100D040040011C020318872E882EAD2E1E301C02B3
:100D1400031C8D2E8E2EAD2E063099001C08E23E4B
:100D2400733E86008701010898000530F0002630E4
:100D3400890B9A2EF00B9A2E00320530400199004F
:100D4400760898000530F0002630890BA72EF00BAA
:100D5400A72E0032AD2E323040011C020318B32EF0
:100D6400B42ED92E28301C02031CB92EBA2ED92E2B
:100D7400063099001C08D83E733E8600870101089E
:100D840098000530F0002630890BC62EF00BC62ED5
:100D94000032053040019900770898000530F000D2
:100DA4002630890BD32EF00BD32E0032D92E3C30B3
:100DB40040011C020318DF2EE02E052F32301C02E6
:100DC400031CE52EE62E052F063099001C08CE3EA6
:100DD400733E86008701010898000530F000263034
:100DE400890BF22EF00BF22E0032053040019900EF
:100DF400780898000530F0002630890BFF2EF00BA0
:100E0400FF2E0032052F463040011C0203180B2F21
:100E14000C2F312F3C301C02031C112F122F312FA9
:100E2400063099001C08C43E733E86008701010801
:100E340098000530F0002630890B1E2FF00B1E2F72
:100E44000032053040019900790898000530F0001F
:100E54002630890B2B2FF00B2B2F0032312F5030E3
:100E640040011C020318372F382F5D2F46301C0217
:100E7400031C3D2F3E2F5D2F063099001C08BA3EFF
:100E8400733E86008701010898000530F000263083
:100E9400890B4A2FF00B4A2F00320530400199008C
:100EA4007A0898000530F0002630890B572FF00B94
:100EB400572F00325D2F5A3040011C020318632F54
:100EC400642F892F50301C02031C692F6A2F892F2D
:100ED400063099001C08B03E733E86008701010865
:100EE40098000530F0002630890B762FF00B762F12
:100EF40000320530400199007B0898000530F0006D
:100F04002630890B832FF00B832F0032892F643016
:100F140040011C0203188F2F902FB52F5A301C024A
:100F2400031C952F962FB52F063099001C08A63E5A
:100F3400733E86008701010898000530F0002630D2
:100F4400890BA22FF00BA22F00320530400199002B
:100F54007C0898000530F0002630890BAF2FF00B89
:100F6400AF2F0032B52F643040011C06031DBB2F88
:100F7400BC2FE22F06309900730898000530F0006A
:100F84002630890BC32FF00BC32F003205304001EC
:100F94009900730898000530F0002630890BD02F93
:100FA400F00BD02F003203304001990074089800F0
:100FB4000530F0002630890BDD2FF00BDD2F0032D9
:100FC400653040011C02031CE82FE92F1A2E9C01F6
:100FD4001A2E1A2E1A2E80310228D0308400853021
:100FE400850020308600003087000B308531CA250B
:0C0FF4008731AB01AC0140018531DB2DE1
:020000040001F9
:0A000E008C3FFD3F9F3FFF3FFF3F87
:00000001FF
