:020000040000FA
:0400000080313428EF
:100008007E1480314E010C1C0A280B281C288030D5
:10001800400197060B30F1002630F0005E30890B66
:100028001328F00B1328F10B13284E010C101C2871
:100038007E013F1C20282128322880304001960666
:100048000B30F1002630F0005E30890B2928F00BC8
:100058002928F10B29287E013F1032287E1009003B
:10006800803136287E10400180313A28510113082A
:10007800F8390538930040018C018D017E01B801E3
:10008800C301013040019100013092007E01441407
:10009800391408307D0190000B144E010C10161411
:1000A8007E013D143E143F104E0116168B175B2837
:0600B8005D2880313428B0
:020000040001F9
:0A000E008C3FFD3F9F3FFF3FFF3F87
:00000001FF
