:020000040000FA
:10000000803102288731C12F89319F298931AE295A
:100010008A310C2A8A316A2A9531CA2D9631282EC6
:100020009631862E9431AE2C95310C2D95316A2D5A
:100030009331922B9331F02B94314E2C9231762ABE
:100040009231D42A9331322B8031DC2881313A2904
:040050008131982939
:10005E00FF34FF34FF34FF34FF34FF34FF34FF34FA
:10006E00FF34FF34FF34FF34FF34FF34FF34FF34EA
:10007E00FF34FF34FF34FF34FF34FF34FF34FF34DA
:10008E00FF34FF34FF34FF34FF34FF34FF34FF34CA
:10009E00FF34FF34FF34FF34FF34FF34FF34FF34BA
:1000AE00FF34FF34FF34FF34FF34FF34FF34FF34AA
:1000BE00FF34FF34FF34FF34FF34FF34FF34FF349A
:1000CE00FF34FF34FF34FF34FF34FF34FF34FF348A
:1000DE004001AA01A71F742875287D28A609A70923
:1000EE00A60A0319A70AAA01AA0A7D28A51F802815
:1000FE0081288728A409A509A40A0319A50A872817
:10010E002408250403198C288D28BC28A901A90AC6
:10011E009A280130A435A50D890B91280130A8002D
:10012E002808A9079A28A51F9D289E289028A02850
:10013E00A02825082702031DA62824082602031C32
:10014E00A928AA28AF282408A6022508A73BAF286D
:10015E000130A536A40C890BB0280130A902031D6D
:10016E00B928BA28A028BC28BC282A080319C028F8
:10017E00C128C728A609A709A60A0319A70AC728CE
:10018E002708A5002608A400CC280800430148082B
:10019E004001AB002B084201A00043014908400179
:1001AE00AB002B084101A400EA2E10304301CF0012
:1001BE000030D0005008803A4001AB0080302B0256
:1001CE00031DEC28013043014F020318EF28F028DD
:1001DE00F2282B292B2943014F08FF3E203E860093
:1001EE000130870001084001AB0043014F08203E5B
:1001FE0086000130870040012B08810043014F0823
:10020E00FF3EA43E8600870101084001AB0043017A
:10021E004F08A43E8600870140012B088100FF3065
:10022E004301CF07FF30D03D5008803A4001AB006C
:10023E0080302B02031D2629013043014F02031883
:10024E0029292A29F2282B29430148084001AB000D
:10025E002B084201A000430149084001AB002B08C6
:10026E004101A400EA2E11304301CF000030D0002E
:10027E005008803A4001AB0080302B02031D4A2902
:10028E00013043014F0203184D294E295029892967
:10029E00892943014F08FF3E203E8600013087002A
:1002AE0001084001AB0043014F08203E860001309B
:1002BE00870040012B08810043014F08FF3EA43EFA
:1002CE008600870101084001AB0043014F08A43EA0
:1002DE008600870140012B088100FF304301CF07C4
:1002EE00FF30D03D5008803A4001AB0080302B02E9
:1002FE00031D8429013043014F02031887298829E1
:10030E0050298929430148084001AB002B084201BE
:10031E00A000430149084001AB002B084101A40095
:10032E00EA2E12304301CF000030D0005008803A40
:10033E004001AB0080302B02031DA8290130430180
:10034E004F020318AB29AC29AE29E729E72943014F
:10035E004F08FF3E203E8600013087000108400115
:10036E00AB0043014F08203E86000130870040015C
:10037E002B08810043014F08FF3EA43E86008701F3
:10038E0001084001AB0043014F08A43E86008701DF
:10039E0040012B088100FF304301CF07FF30D03DD5
:1003AE005008803A4001AB0080302B02031DE22939
:1003BE00013043014F020318E529E629AE29E7294A
:1003CE00430148084001AB002B084201A000430145
:1003DE0049084001AB002B084101A400EA2EEA2E89
:1003EE0043013B08003A0319FD29EA2E3A08FE3E66
:1003FE00031CEA2E8400133004020318EA2E803107
:10040E000435043E8200EA2E01304101EC0000303A
:10041E00ED0043014B08013ECB0000304C3DCC00BB
:10042E004B08FF3EAE3E860001308700013640018C
:10043E00AB0043014B08AE3E860001308700400101
:10044E002B08810043014B08AE3E86000130870029
:10045E0001084001AB002B084301C8004B08FF3ECA
:10046E00AE3E86000130870081014B08FF3EB8008A
:10047E00FF304C3DB9004E08B7004D08B6004D0890
:10048E00BC3E86000130870001084001AB002B08FE
:10049E004301C9004C08803A4001AB0080302B026A
:1004AE00031D5C2A083043014B02031C5F2A602A9D
:1004BE00FE2E4301CB01CC014101EE01EF01FE2ED8
:1004CE00FE2E02304101EC000030ED0043014D08DC
:1004DE00FF3ECD00FF304E3DCE004D08013EBC3EEE
:1004EE00860001308700FE300106031D7F2A802A18
:1004FE00BC2AFD304001AB0043014D08BC3E8600D6
:10050E000130870040012B08810043014D08BC3E9D
:10051E0086000130870001084001AB002B08430123
:10052E00C900FF304001AB0043014D08013EBC3E07
:10053E0086000130870040012B08810043014D08E1
:10054E00013EB60000304E3DB7004C08B9004B08D6
:10055E00B8004B08AE3E860001308700010840010E
:10056E00AB002B084301C800FE2E4D08013EBC3ED9
:10057E00860001308700FD300106031DC72AC82AF8
:10058E00042BFB304001AB0043014D08BC3E8600FE
:10059E000130870040012B08810043014D08BC3E0D
:1005AE0086000130870001084001AB002B08430193
:1005BE00C900FF304001AB0043014D08013EBC3E77
:1005CE0086000130870040012B08810043014D0851
:1005DE00013EB60000304E3DB7004B08AE3E8600E1
:1005EE000130870001084001AB002B084301C80011
:1005FE004C08B9004B08B800FE2E4D08013EBC3E1B
:10060E00860001308700FB300106031D0F2B102BD7
:10061E004C2BF7304001AB0043014D08BC3E860029
:10062E000130870040012B08810043014D08BC3E7C
:10063E0086000130870001084001AB002B08430102
:10064E00C900FF304001AB0043014D08013EBC3EE6
:10065E0086000130870040012B08810043014D08C0
:10066E00013EB60000304E3DB7004B08AE3E860050
:10067E000130870001084001AB002B084301C80080
:10068E004C08B9004B08B800FE2E4D08013EBC3E8A
:10069E00860001308700F7300106031D572B582BBB
:1006AE00942BEF304001AB0043014D08BC3E860059
:1006BE000130870040012B08810043014D08BC3EEC
:1006CE0086000130870001084001AB002B08430172
:1006DE00C900FF304001AB0043014D08013EBC3E56
:1006EE0086000130870040012B08810043014D0830
:1006FE00013EB60000304E3DB7004B08AE3E8600C0
:10070E000130870001084001AB002B084301C800EF
:10071E004C08B9004B08B800FE2E4D08013EBC3EF9
:10072E00860001308700EF300106031D9F2BA02BA2
:10073E00DC2BDF304001AB0043014D08BC3E860090
:10074E000130870040012B08810043014D08BC3E5B
:10075E0086000130870001084001AB002B084301E1
:10076E00C900FF304001AB0043014D08013EBC3EC5
:10077E0086000130870040012B08810043014D089F
:10078E00013EB60000304E3DB7004B08AE3E86002F
:10079E000130870001084001AB002B084301C8005F
:1007AE004C08B9004B08B800FE2E4D08013EBC3E69
:1007BE00860001308700DF300106031DE72BE82B92
:1007CE00242CBF304001AB0043014D08BC3E8600D7
:1007DE000130870040012B08810043014D08BC3ECB
:1007EE0086000130870001084001AB002B08430151
:1007FE00C900FF304001AB0043014D08013EBC3E35
:10080E0086000130870040012B08810043014D080E
:10081E00013EB60000304E3DB7004B08AE3E86009E
:10082E000130870001084001AB002B084301C800CE
:10083E004C08B9004B08B800FE2E4D08013EBC3ED8
:10084E00860001308700BF300106031D2F2C302C8F
:10085E00722C7F304001AB0043014D08BC3E860038
:10086E000130870040012B08810043014D08BC3E3A
:10087E0086000130870001084001AB002B084301C0
:10088E00C900FF304001AB0043014D08013EBC3EA4
:10089E0086000130870040012B08810043014D087E
:1008AE00013EB80000304E3DB9004D08013EB60085
:1008BE0000304E3DB7004B08AE3E8600013087003B
:1008CE0001084001AB002B084301C8004C08B900D9
:1008DE004B08B800FE2E4D08013EBC3E860001308E
:1008EE0087007F300106031D7D2C7E2CFE2E4101DC
:1008FE00EE01EF01FE2EFE2E03304101EC00003022
:10090E00ED0043014D08013ECD0000304E3DCE00BE
:10091E004D08FF3EBC3E8600013087007F30010649
:10092E00031D9A2C9B2CD72CBF304001AB004301EA
:10093E004D08BC3E86000130870040012B08810027
:10094E0043014D08BC3E860001308700010840017E
:10095E00AB002B084301C900FF304001AB0043013F
:10096E004D08FF3EBC3E86000130870040012B083B
:10097E00810043014D08FF3EB600FF304E3DB700EB
:10098E004B08AE3E86000130870001084001AB00E7
:10099E002B084301C8004C08B9004B08B800FE2EC6
:1009AE004D08FF3EBC3E860001308700BF30010679
:1009BE00031DE22CE32C1F2DDF304001AB00430161
:1009CE004D08BC3E86000130870040012B08810097
:1009DE0043014D08BC3E86000130870001084001EE
:1009EE00AB002B084301C900FF304001AB004301AF
:1009FE004D08FF3EBC3E86000130870040012B08AB
:100A0E00810043014D08FF3EB600FF304E3DB7005A
:100A1E004B08AE3E86000130870001084001AB0056
:100A2E002B084301C8004C08B9004B08B800FE2E35
:100A3E004D08FF3EBC3E860001308700DF300106C8
:100A4E00031D2A2D2B2D672DEF304001AB004301E6
:100A5E004D08BC3E86000130870040012B08810006
:100A6E0043014D08BC3E860001308700010840015D
:100A7E00AB002B084301C900FF304001AB0043011E
:100A8E004D08FF3EBC3E86000130870040012B081A
:100A9E00810043014D08FF3EB600FF304E3DB700CA
:100AAE004B08AE3E86000130870001084001AB00C6
:100ABE002B084301C8004C08B9004B08B800FE2EA5
:100ACE004D08FF3EBC3E860001308700EF30010628
:100ADE00031D722D732DAF2DF7304001AB00430176
:100AEE004D08BC3E86000130870040012B08810076
:100AFE0043014D08BC3E86000130870001084001CD
:100B0E00AB002B084301C900FF304001AB0043018D
:100B1E004D08FF3EBC3E86000130870040012B0889
:100B2E00810043014D08FF3EB600FF304E3DB70039
:100B3E004B08AE3E86000130870001084001AB0035
:100B4E002B084301C8004C08B9004B08B800FE2E14
:100B5E004D08FF3EBC3E860001308700F73001068F
:100B6E00031DBA2DBB2DF72DFB304001AB00430109
:100B7E004D08BC3E86000130870040012B088100E5
:100B8E0043014D08BC3E860001308700010840013C
:100B9E00AB002B084301C900FF304001AB004301FD
:100BAE004D08FF3EBC3E86000130870040012B08F9
:100BBE00810043014D08FF3EB600FF304E3DB700A9
:100BCE004B08AE3E86000130870001084001AB00A5
:100BDE002B084301C8004C08B9004B08B800FE2E84
:100BEE004D08FF3EBC3E860001308700FB300106FB
:100BFE00031D022E032E3F2EFD304001AB0043019C
:100C0E004D08BC3E86000130870040012B08810054
:100C1E0043014D08BC3E86000130870001084001AB
:100C2E00AB002B084301C900FF304001AB0043016C
:100C3E004D08FF3EBC3E86000130870040012B0868
:100C4E00810043014D08FF3EB600FF304E3DB70018
:100C5E004B08AE3E86000130870001084001AB0014
:100C6E002B084301C8004C08B9004B08B800FE2EF3
:100C7E004D08FF3EBC3E860001308700FD30010668
:100C8E00031D4A2E4B2E872EFE304001AB00430132
:100C9E004D08BC3E86000130870040012B088100C4
:100CAE0043014D08BC3E860001308700010840011B
:100CBE00AB002B084301C900FF304001AB004301DC
:100CCE004D08FF3EBC3E86000130870040012B08D8
:100CDE00810043014D08FF3EB600FF304E3DB70088
:100CEE004B08AE3E86000130870001084001AB0084
:100CFE002B084301C8004C08B9004B08B800FE2E63
:100D0E004D08FF3EBC3E860001308700FE300106D6
:100D1E00031D922E932EFE2E4101EE01EF01FE2EAB
:100D2E00FE2EFE2E04304101EC000030ED0043019A
:100D3E004B08FF3ECB00FF304C3DCC004B08013E34
:100D4E00AE3E86000130870001354001AB00430105
:100D5E004B08AE3E86000130870040012B08810013
:100D6E0043014B08AE3E860001308700010840016A
:100D7E00AB002B084301C8004B08013EAE3E860077
:100D8E000130870081014D08BC3E8600013087008E
:100D9E0001084001AB002B084301C9004E08B70003
:100DAE004D08B600CC1FDC2EDD2EE12E4101EE01EA
:100DBE00EF01E12E43014B08013EB80000304C3DDF
:100DCE00B900FE2EFE2E43014708003A0319F02EFD
:100DDE00FE2E4608013A03190B2A033A0319682A14
:100DEE00013A0319832C073A0319992EFE2E43015B
:100DFE00CF01D0012C2F43014F08203E8600013039
:100E0E0087004B08AE3E84000130850000080106C5
:100E1E00031D122F132F262F4F08A43E8600870185
:100E2E004D08BC3E84000130850000080106031DFC
:100E3E00212F222F262F4101EE01EF01262F013007
:100E4E004301CF070030D03D2C2F5008803A40018F
:100E5E00AB0043013B08803A40012B02031D3A2FA1
:100E6E0043013A084F02031C3D2F3E2F022F402F05
:100E7E00402F41016E086F04031D462F482F8D3100
:100E8E00AA2D492F4301AA01AB012B08803A40013C
:100E9E00AB0080302B02031D572F643043012A0212
:100EAE00031C5A2F5B2F5D2FBF2FBF2F4301C40191
:100EBE00C5014508803A4001AB0080302B02031D6E
:100ECE006B2F083043014402031C6E2F6F2F712FBE
:100EDE00A12FA12F43014408A03E860001308700B8
:100EEE0001084001990043014408683E8600013024
:100EFE0087000108400198000B304001AB006230C2
:100F0E00890B872FAB0B872F000001304301C407DD
:100F1E000030C53D4508803A4001AB0080302B02C1
:100F2E00031D9C2F083043014402031C9F2FA02F4A
:100F3E00712FA12F0B304001AB006230890BA52F12
:100F4E00AB0BA52F000001304301AA070030AB3DCB
:100F5E002B08803A4001AB0080302B02031DBA2FC4
:100F6E00643043012A02031CBD2FBE2F5D2FBF2FFD
:100F7E00803102280530840088308500D330860009
:100F8E00013087001030903109208731EC30840019
:100F9E009E30850020308600023087001030903160
:100FAE00092087312F30840080308500A0308600E4
:100FBE00023087004030903109208731E3308400C1
:100FCE00013085000C3090310320873130308400A1
:100FDE0002308500083090310320873120308400A4
:100FEE0003308500403090310320873140018E312F
:020FFE008E2E35
:10100A00FF34FF34FF34FF34FF34FF34FF34FF343E
:10101A00FF34FF34FF34FF34FF34FF34FF34FF342E
:10102A0043016E08F3006D08F2006C08F1006B08CA
:10103A00F0004C30F7009530F6007F30F5002D3087
:10104A00F40090310F208831013070074301EB0022
:10105A000030713DEC000030723DED000030733D10
:10106A00EE006B084001A00043016C084001A1009A
:10107A0043016D084001A20043016E084001A3002C
:10108A000330A336A20CA10CA00C890B4628210818
:10109A00FD002008FC0051280800532801304301B4
:1010AA00C4070030C53D4508803A4001AB00803096
:1010BA002B02031D6328083043014402031C6628DF
:1010CA0068288D31F52D692801304301A8070030C1
:1010DA00A93D2908803A4001AB0043012D08803A16
:1010EA0040012B02031D7C2843012C082802031C03
:1010FA007F2881288D31AF2D822843015108603E17
:10110A008600013087004B08AE3E8400013085001E
:10111A0000080106031D92289328D7285108E43EA7
:10112A00860087014D08BC3E840001308500000816
:10113A000106031DA128A228D7285108603E86006F
:10114A00013087008101FF304001AB0043015108A3
:10115A00E43E8600870140012B08810043013A08DA
:10116A00013EBA0000303B3DBB002D08803A4001E9
:10117A00AB0080302B02031DC528153043012C0219
:10118A000318C828C928CF2832304301AC000030E0
:10119A00AD00CF2843012C08F63EAC00FF302D3DB0
:1011AA00AD00D7285108603E86000130870001084B
:1011BA00031DE028E2289731D52F88311520883180
:1011CA0007307C054301D10000307D05D200013093
:1011DA004001AB004301510A4001F428AB35890BA9
:1011EA00F3282B08AC0043015108603E8600013009
:1011FA00870040012C088100430151085204031D55
:10120A00072908297729073051065204031D0E2998
:10121A000F2916297F304001AB002B084301CA0071
:10122A001629063051065204031D1C291D2924299A
:10123A00BF304001AB002B084301CA002429053006
:10124A0051065204031D2A292B293229DF30400175
:10125A00AB002B084301CA0032290430510652045C
:10126A00031D382939294029EF304001AB002B08EA
:10127A004301CA004029033051065204031D46297E
:10128A0047294E29F7304001AB002B084301CA0019
:10129A004E29023051065204031D542955295C294E
:1012AA00FB304001AB002B084301CA005C29510303
:1012BA005204031D612962296929FD304001AB00EE
:1012CA002B084301CA00692951085204031D6E29DB
:1012DA006F297729FE304001AB002B084301CA0071
:1012EA007729772951035204031D7D299E31FC2E4B
:1012FA009F316B2F023043014606470403198629A2
:10130A0087298C290330C6000030C7008C29400188
:10131A008C19902992298131F72943014603470400
:10132A0003199829992990290430C6000030C7006A
:10133A009029902948084001AB002B084201A000DF
:10134A00430149084001AB002B084101A400863142
:10135A00EA2E01304301CF000030D0005008803A15
:10136A004001AB0080302B02031DBE29013043012E
:10137A004F020318C129C229C429FD29FD294301A5
:10138A004F08FF3E203E86000130870001084001D9
:10139A00AB0043014F08203E860001308700400120
:1013AA002B08810043014F08FF3EA43E86008701B7
:1013BA0001084001AB0043014F08A43E86008701A3
:1013CA0040012B088100FF304301CF07FF30D03D99
:1013DA005008803A4001AB0080302B02031DF829E7
:1013EA00013043014F020318FB29FC29C429FD29B6
:1013FA00430148084001AB002B084201A000430109
:10140A0049084001AB002B084101A400AC29023075
:10141A004301CF000030D0005008803A4001AB00B1
:10142A0080302B02031D1C2A013043014F0203188E
:10143A001F2A202A222A5B2A5B2A43014F08FF3EE1
:10144A00203E86000130870001084001AB004301BD
:10145A004F08203E86000130870040012B0881009A
:10146A0043014F08FF3EA43E860087010108400160
:10147A00AB0043014F08A43E8600870140012B08B8
:10148A008100FF304301CF07FF30D03D5008803A3A
:10149A004001AB0080302B02031D562A0130430164
:1014AA004F020318592A5A2A222A5B2A430148085A
:1014BA004001AB002B084201A0004301490840014A
:1014CA00AB002B084101A400AC2903304301CF0033
:1014DA000030D0005008803A4001AB0080302B0227
:1014EA00031D7A2A013043014F0203187D2A7E2AFE
:1014FA00812A9531BA2D7E2A43014F08FF3E203EAC
:10150A0086000130870001084001AB0043014F0803
:10151A00203E86000130870040012B0881004301EC
:10152A004F08FF3EA43E8600870101084001AB0038
:10153A0043014F08A43E8600870140012B08810021
:10154A00FF304301CF07FF30D03D5008803A4001B9
:10155A00AB0080302B02031DB52A013043014F0234
:10156A000318B82AB92A812A7E2ABF304001AB0063
:10157A002B084301CA00C12A023051065204031D36
:10158A00C72AC82ACF2ADF304001AB002B08430103
:10159A00CA00CF2A51035204031DD42AD52ADC2AB1
:1015AA00EF304001AB002B084301CA00DC2A510886
:1015BA005204031DE12AE22AE92AF7304001AB006E
:1015CA002B084301CA00E92A073051065204031DB9
:1015DA00EF2AF02AF72AFB304001AB002B0843011F
:1015EA00CA00F72A063051065204031DFD2AFE2AB4
:1015FA00052BFD304001AB002B084301CA00052B27
:10160A00053051065204031D0B2B0C2B142BFE30F4
:10161A004001AB002B084301CA00142B142B0430E1
:10162A0051065204031D1A2B1B2B8A2B0330510619
:10163A005204031D212B222B292B7F304001AB00A2
:10164A002B084301CA00292B023051065204031DFC
:10165A002F2B302B372BBF304001AB002B08430117
:10166A00CA00372B51035204031D3C2B3D2B442B3C
:10167A00DF304001AB002B084301CA00442B51085C
:10168A005204031D492B4A2B512BEF304001AB006A
:10169A002B084301CA00512B073051065204031D7F
:1016AA00572B582B5F2BF7304001AB002B08430117
:1016BA00CA005F2B063051065204031D652B662BA8
:1016CA006D2BFB304001AB002B084301CA006D2B88
:1016DA00053051065204031D732B742B7B2BFD30EE
:1016EA004001AB002B084301CA007B2B0430510692
:1016FA005204031D812B822B8A2BFE304001AB0042
:10170A002B084301CA008A2B8A2B05305106520442
:10171A00031D902B922B9631DE2E02305106520475
:10172A00031D982B992BA02B7F304001AB002B086F
:10173A004301CA00A02B51035204031DA52BA62B5B
:10174A00AD2BBF304001AB002B084301CA00AD2BC3
:10175A0051085204031DB22BB32BBA2BDF304001C0
:10176A00AB002B084301CA00BA2B073051065204BA
:10177A00031DC02BC12BC82BEF304001AB002B0837
:10178A004301CA00C82B063051065204031DCE2B52
:10179A00CF2BD62BF7304001AB002B084301CA00F0
:1017AA00D62B053051065204031DDC2BDD2BE42B0E
:1017BA00FB304001AB002B084301CA00E42B043084
:1017CA0051065204031DEA2BEB2BF22BFD3040018C
:1017DA00AB002B084301CA00F22B03305106520416
:1017EA00031DF92B9631D62E902BAB35890BFA2B8C
:1017FA002B08AC0043015108603E86000130870087
:10180A0040012C088100430151085204031D0E2C8B
:10181A000F2C7E2C073051065204031D152C162C52
:10182A001D2C7F304001AB002B084301CA001D2C40
:10183A00063051065204031D232C242C2B2CBF30B6
:10184A004001AB002B084301CA002B2C053051067E
:10185A005204031D312C322C392CDF304001AB00ED
:10186A002B084301CA00392C043051065204031DC7
:10187A003F2C402C472CEF304001AB002B08430192
:10188A00CA00472C033051065204031D4D2C4E2C1E
:10189A00552CF7304001AB002B084301CA00552CE8
:1018AA00023051065204031D5B2C5C2C632CFB3066
:1018BA004001AB002B084301CA00632C51035204B8
:1018CA00031D682C692C702CFD304001AB002B08DD
:1018DA004301CA00702C51085204031D752C762C42
:1018EA007E2CFE304001AB002B084301CA007E2C3F
:1018FA007E2C51035204031D832C842CF32C0630B6
:10190A0051065204031D8A2C8B2C922C7F304001E5
:10191A00AB002B084301CA00922C05305106520431
:10192A00031D982C992CA02CBF304001AB002B082A
:10193A004301CA00A02C043051065204031DA62CF0
:10194A00A72CAE2CDF304001AB002B084301CA00A4
:10195A00AE2C033051065204031DB42CB52CBC2CFA
:10196A00EF304001AB002B084301CA00BC2C023007
:10197A0051065204031DC22CC32CCA2CF730400155
:10198A00AB002B084301CA00CA2C51035204031DA1
:10199A00CF2CD02CD72CFB304001AB002B084301B5
:1019AA00CA00D72C51085204031DDC2CDD2CE42C70
:1019BA00FD304001AB002B084301CA00E42C07307C
:1019CA0051065204031DEA2CEB2CF32CFE30400185
:1019DA00AB002B084301CA00F32CF32C023051064A
:1019EA005204031DF92CFB2C913180290530510634
:1019FA005204031D012D022D092D7F304001AB0039
:101A0A002B084301CA00092D043051065204031D54
:101A1A000F2D102D172DBF304001AB002B084301AD
:101A2A00CA00172D033051065204031D1D2D1E2D09
:101A3A00252DDF304001AB002B084301CA00252DBC
:101A4A00023051065204031D2B2D2C2D332DEF305D
:101A5A004001AB002B084301CA00332D5103520445
:101A6A00031D392D91314F299131562907305106DD
:101A7A005204031D412D422D492DBF304001AB00B8
:101A8A002B084301CA00492D063051065204031D92
:101A9A004F2D502D572DDF304001AB002B0843014D
:101AAA00CA00572D053051065204031D5D2D5E2DC7
:101ABA00652DEF304001AB002B084301CA00652DAC
:101ACA00043051065204031D6B2D6C2D732DF73013
:101ADA004001AB002B084301CA00732D03305106A5
:101AEA005204031D792D7A2D812DFB304001AB0064
:101AFA002B084301CA00812D023051065204031DEE
:101B0A00872D882D8F2DFD304001AB002B08430116
:101B1A00CA008F2D51035204031D942D952D9D2D1E
:101B2A00FE304001AB002B084301CA009D2D9D2DBC
:101B3A004A084001AB0043015108E43E8600870190
:101B4A0040012B0881008731402F4301A801A901D8
:101B5A0088316E284301CF01D001CD2D43014F08B2
:101B6A00A43E8600870101084001980043014F08FE
:101B7A00203E860001308700010840019900283084
:101B8A00890BC52D01304301CF070030D03DCD2D43
:101B9A005008803A4001AB0043013B08803A4001BB
:101BAA002B02031DDB2D43013A084F02031CDE2DD5
:101BBA00DF2DB32DE02D4301C401C5014508803A4C
:101BCA004001AB0080302B02031DEE2D083043018B
:101BDA004402031CF12DF22DF52D88316928F22DCE
:101BEA004301CF01D0015008803A4001AB00803058
:101BFA002B02031D032E083043014F02031C062E3D
:101C0A00072E0A2E88315328072E43014408BC3E6A
:101C1A0086000130870001084001980043014F08FF
:101C2A00AE3E860001308700010840019900283045
:101C3A00890B1D2E43014408603E8600013087004F
:101C4A0001084001990043014F08E43E86008701DC
:101C5A000108400198002830890B312E40010C18E8
:101C6A00372E382E452E0430430146064704031901
:101C7A003F2E402E452E0130C6000030C700452EAB
:101C8A0040018C18492E4A2E572E0330430146062E
:101C9A0047040319512E522E572E0230C600003027
:101CAA00C700572E40010C195B2E5C2E692E02309C
:101CBA004301460647040319632E642E692E033036
:101CCA00C6000030C700692E40018C196D2E6E2E99
:101CDA00792E4301460347040319742E752E792E73
:101CEA000430C6000030C70001304301CF0700307E
:101CFA00D03D5008803A4001AB0080302B02031DD2
:101D0A00892E083043014F02031C8D2E8831522838
:101D1A000A2E51011308F839063893007E01D901B9
:101D2A0040018F0194017E01CE0140018E01930191
:101D3A007E01B80140018C01FF3091000F307E0115
:101D4A00B9004301B801B9014101EC01ED01A0015B
:101D5A00A101DB30860001308700BC3084000130ED
:101D6A00850008304001AB0016001A00AB0BB92EF3
:101D7A00E330860001308700AE30840001308500F0
:101D8A000830AB0016001A00AB0BC72EA030860035
:101D9A0002308700A4308400003085004030AB0058
:101DAA0016001A00AB0BD52E2030860003308700B0
:101DBA0020308400013085004030AB0016001A0044
:101DCA00AB0BE32ED330860001308700E430840069
:101DDA00003085000830AB0016001A00AB0BF12E5C
:101DEA003030860002308700603084000130850080
:101DFA000830AB0016001A00AB0BFF2E023043016D
:101E0A00CD000030CE000530CB000030CC002830A9
:101E1A00860002308700683084000130850008306F
:101E2A004001AB0016001A00AB0B172F20308600BA
:101E3A0002308700A0308400013085000830AB00F2
:101E4A0016001A00AB0B252F4301A001A00A393056
:101E5A004001AB002B084301A10041304001AB0017
:101E6A002B084301A20039304001AB002B08430183
:101E7A00A300A401A40A49304001AB002B08430186
:101E8A00A500A601A60AFF304001AB002B084301BA
:101E9A00A7007F304001AB002B084201E800BF30A9
:101EAA004001AB002B084201E900DF304001AB00E2
:101EBA002B084201EA00EF304001AB002B08420137
:101ECA00EB00F7304001AB002B084201EC00FB307D
:101EDA004001AB002B084201ED00FD304001AB0090
:101EEA002B084201EE00FE304001AB002B084201F4
:101EFA00EF0064304301AC000030AD000130BA009D
:101F0A000030BB0004304001AB0043014B08AE3E39
:101F1A0086000130870040012B088100DF30AB00CA
:101F2A0043014D08BC3E86000130870040012B0862
:101F3A0081004301C601C70101304101EE000030B2
:101F4A00EF0001304301CF000030D000A801A90101
:101F5A000330AA000030AB004101A201A3014301F2
:101F6A004408BC3E86000130870001084001980001
:101F7A0043014F08AE3E8600013087000108400148
:101F8A009900AB00430144084001AC000330AC3572
:101F9A00890BCC2F2F302C07AD0043014F0840018D
:101FAA002D07AE002E08860087012B088100430109
:101FBA00CA01B601B70107304001A4000030A500EC
:101FCA00883115208E317D084001A7007C08A600C3
:101FDA0080316F208E31400125084301D200400133
:101FEA0024084301D10001304001AB004301510AEA
:061FFA0040018B31FB2BBE
:10200600640080010131890B04280034FE001200AF
:102016001E00FE0B0A2800340030FB000030FA00D8
:102026000030F9000030F8001828701C1B281C2806
:1020360025287408F8077508F93D7608FA3D7708EB
:10204600FB3D25280130F435F50DF60DF70D890B0E
:1020560026280130F336F20CF10CF00C890B2D28F2
:102066007308720471047004031D3A283B2818286B
:102076003C287B08F3007A08F2007908F10078081A
:10208600F00045280800FE304001AB002B08430154
:10209600CA004E284E28053051065204031D542806
:1020A6005528C428023051065204031D5B285C28BB
:1020B60063287F304001AB002B084301CA00632828
:1020C60051035204031D682869287028BF30400157
:1020D600AB002B084301CA00702851085204031DA7
:1020E600752876287D28DF304001AB002B08430198
:1020F600CA007D28073051065204031D8328842810
:102106008B28EF304001AB002B084301CA008B2817
:10211600063051065204031D912892289928F7305B
:102126004001AB002B084301CA009928053051062F
:102136005204031D9F28A028A728FB304001AB00AE
:102146002B084301CA00A728043051065204031D78
:10215600AD28AE28B528FD304001AB002B08430161
:10216600CA00B528033051065204031DBB28BC28FB
:10217600C428FE304001AB002B084301CA00C42826
:10218600C428063051065204031DCA28CB28392913
:1021960051035204031DD028D128D8287F3040018E
:1021A600AB002B084301CA00D82851035204031D73
:1021B600DD28DE28E528BF304001AB002B084301AF
:1021C600CA00E52851085204031DEA28EB28F22824
:1021D600DF304001AB002B084301CA00F22807306C
:1021E60051065204031DF828F9280029EF30400152
:1021F600AB002B084301CA000029063051065204E1
:10220600031D062907290E29F7304001AB002B08CC
:102216004301CA000E29053051065204031D142934
:1022260015291C29FB304001AB002B084301CA00CD
:102236001C29043051065204031D222923292A2968
:10224600FD304001AB002B084301CA002A290330A8
:1022560051065204031D302931293929FE30400127
:10226600AB002B084301CA0039293929073051062A
:102276005204031D3F2941298D319D2D51085204D9
:10228600031D462948298D313B2D7F304001AB0087
:102296002B084301CA004629F7304001AB002B0842
:1022A6004301CA00562951085204031D5B295C29C3
:1022B6006329FB304001AB002B084301CA006329A8
:1022C600073051065204031D69296A297129FD3018
:1022D6004001AB002B084301CA00712906305106A4
:1022E6005204031D772978298029FE304001AB006E
:1022F6002B084301CA008029802903305106520465
:10230600031D86298729F629043051065204031D28
:102316008D298E2995297F304001AB002B0843017A
:10232600CA009529033051065204031D9B299C2996
:10233600A329BF304001AB002B084301CA00A329E3
:10234600023051065204031DA929AA29B129DF30FA
:102356004001AB002B084301CA00B12951035204C6
:10236600031DB629B729BE29EF304001AB002B0863
:102376004301CA00BE2951085204031DC329C429BA
:10238600CB29F7304001AB002B084301CA00CB290B
:10239600073051065204031DD129D229D929FB3011
:1023A6004001AB002B084301CA00D929063051066B
:1023B6005204031DDF29E029E729FD304001AB0067
:1023C6002B084301CA00E729053051065204031DB4
:1023D600ED29EE29F629FE304001AB002B0843011A
:1023E600CA00F629F629043051065204031DFC29B9
:1023F600FE2990314E28033051065204031D042A4B
:10240600052A0C2A7F304001AB002B084301CA0085
:102416000C2A023051065204031D122A132A1A2AC4
:10242600BF304001AB002B084301CA001A2A5103F2
:102436005204031D1F2A202A272ADF304001AB0041
:102446002B084301CA00272A51085204031D2C2ACF
:102456002D2A342AEF304001AB002B084301CA0075
:10246600342A073051065204031D3A2A3B2A422ACF
:10247600F7304001AB002B084301CA00422A063060
:1024860051065204031D482A492A502AFB304001AE
:10249600AB002B084301CA00502A053051065204EE
:1024A600031D562A572A5E2AFD304001AB002B0831
:1024B6004301CA005E2A043051065204031D652AF0
:1024C60090314628FC29430148084001AB002B08FF
:1024D6004201A000430149084001AB002B0841011D
:1024E600A4008631EA2E0D304301CF000030D00023
:1024F6005008803A4001AB0080302B02031D862A2B
:10250600013043014F020318892A8A2A8C2AC52AD8
:10251600C52A43014F08FF3E203E86000130870052
:1025260001084001AB0043014F08203E8600013000
:10253600870040012B08810043014F08FF3EA43E5F
:102546008600870101084001AB0043014F08A43E05
:102556008600870140012B088100FF304301CF0729
:10256600FF30D03D5008803A4001AB0080302B024E
:10257600031DC02A013043014F020318C32AC42A8F
:102586008C2AC52A430148084001AB002B084201AA
:10259600A000430149084001AB002B084101A400FB
:1025A600742A0E304301CF000030D0005008803A24
:1025B6004001AB0080302B02031DE42A01304301A9
:1025C6004F020318E72AE82AEA2A232B232B430182
:1025D6004F08FF3E203E860001308700010840017B
:1025E600AB0043014F08203E8600013087004001C2
:1025F6002B08810043014F08FF3EA43E8600870159
:1026060001084001AB0043014F08A43E8600870144
:1026160040012B088100FF304301CF07FF30D03D3A
:102626005008803A4001AB0080302B02031D1E2B60
:10263600013043014F020318212B222BEA2A232BB8
:10264600430148084001AB002B084201A0004301AA
:1026560049084001AB002B084101A400742A0F3041
:102666004301CF000030D0005008803A4001AB0053
:1026760080302B02031D422B013043014F02031809
:10268600452B462B492B8031CD28462B43014F083D
:10269600FF3E203E86000130870001084001AB0066
:1026A60043014F08203E86000130870040012B0879
:1026B600810043014F08FF3EA43E860087010108C2
:1026C6004001AB0043014F08A43E8600870140014C
:1026D6002B088100FF304301CF07FF30D03D500863
:1026E600803A4001AB0080302B02031D7D2B013068
:1026F60043014F020318802B812B492B462B4301A4
:1027060048084001AB002B084201A00043014908DC
:102716004001AB002B084101A4008631EA2E0A30A5
:102726004301CF000030D0005008803A4001AB0092
:1027360080302B02031DA22B013043014F020318E8
:10274600A52BA62BA82BE12BE12B43014F08FF3E1F
:10275600203E86000130870001084001AB0043019E
:102766004F08203E86000130870040012B0881007B
:1027760043014F08FF3EA43E860087010108400141
:10278600AB0043014F08A43E8600870140012B0899
:102796008100FF304301CF07FF30D03D5008803A1B
:1027A6004001AB0080302B02031DDC2B01304301BE
:1027B6004F020318DF2BE02BA82BE12B430148081F
:1027C6004001AB002B084201A0004301490840012B
:1027D600AB002B084101A400902B0B304301CF0026
:1027E6000030D0005008803A4001AB0080302B0208
:1027F600031D002C013043014F020318032C042C47
:10280600062C3F2C3F2C43014F08FF3E203E8600FE
:102816000130870001084001AB0043014F08203E0C
:1028260086000130870040012B08810043014F08D4
:10283600FF3EA43E8600870101084001AB0043012C
:102846004F08A43E8600870140012B088100FF3017
:102856004301CF07FF30D03D5008803A4001AB001E
:1028660080302B02031D3A2C013043014F0203181E
:102876003D2C3E2C062C3F2C430148084001AB0062
:102886002B084201A000430149084001AB002B0878
:102896004101A400902B0C304301CF000030D00042
:1028A6005008803A4001AB0080302B02031D5E2C9D
:1028B600013043014F020318612C622C652C9231C2
:1028C600662A622C43014F08FF3E203E86000130F7
:1028D600870001084001AB0043014F08203E8600F7
:1028E6000130870040012B08810043014F08FF3E5D
:1028F600A43E8600870101084001AB0043014F0852
:10290600A43E8600870140012B088100FF30430169
:10291600CF07FF30D03D5008803A4001AB008030F1
:102926002B02031D992C013043014F0203189C2CE6
:102936009D2C652C622C430148084001AB002B08F6
:102946004201A000430149084001AB002B084101A8
:10295600A4008631EA2E07304301CF000030D000B4
:102966005008803A4001AB0080302B02031DBE2C7C
:10297600013043014F020318C12CC22CC42CFD2C7C
:10298600FD2C43014F08FF3E203E860001308700A4
:1029960001084001AB0043014F08203E860001308C
:1029A600870040012B08810043014F08FF3EA43EEB
:1029B6008600870101084001AB0043014F08A43E91
:1029C6008600870140012B088100FF304301CF07B5
:1029D600FF30D03D5008803A4001AB0080302B02DA
:1029E600031DF82C013043014F020318FB2CFC2C6D
:1029F600C42CFD2C430148084001AB002B084201C2
:102A0600A000430149084001AB002B084101A40086
:102A1600AC2C08304301CF000030D0005008803A7B
:102A26004001AB0080302B02031D1C2D01304301F9
:102A36004F0203181F2D202D222D5B2D5B2D4301E8
:102A46004F08FF3E203E8600013087000108400106
:102A5600AB0043014F08203E86000130870040014D
:102A66002B08810043014F08FF3EA43E86008701E4
:102A760001084001AB0043014F08A43E86008701D0
:102A860040012B088100FF304301CF07FF30D03DC6
:102A96005008803A4001AB0080302B02031D562DB2
:102AA600013043014F020318592D5A2D222D5B2D5B
:102AB600430148084001AB002B084201A000430136
:102AC60049084001AB002B084101A400AC2C093099
:102AD6004301CF000030D0005008803A4001AB00DF
:102AE60080302B02031D7A2D013043014F0203185B
:102AF6007D2D7E2D812D9331822B7E2D43014F0816
:102B0600FF3E203E86000130870001084001AB00F1
:102B160043014F08203E86000130870040012B0804
:102B2600810043014F08FF3EA43E8600870101084D
:102B36004001AB0043014F08A43E860087014001D7
:102B46002B088100FF304301CF07FF30D03D5008EE
:102B5600803A4001AB0080302B02031DB52D0130B9
:102B660043014F020318B82DB92D812D7E2D430147
:102B760048084001AB002B084201A0004301490868
:102B86004001AB002B084101A4008631EA2E043037
:102B96004301CF000030D0005008803A4001AB001E
:102BA60080302B02031DDA2D013043014F0203183A
:102BB600DD2DDE2DE02D192E192E43014F08FF3E87
:102BC600203E86000130870001084001AB0043012A
:102BD6004F08203E86000130870040012B08810007
:102BE60043014F08FF3EA43E8600870101084001CD
:102BF600AB0043014F08A43E8600870140012B0825
:102C06008100FF304301CF07FF30D03D5008803AA6
:102C16004001AB0080302B02031D142E013043010E
:102C26004F020318172E182EE02D192E43014808BF
:102C36004001AB002B084201A000430149084001B6
:102C4600AB002B084101A400C82D05304301CF007D
:102C56000030D0005008803A4001AB0080302B0293
:102C6600031D382E013043014F0203183B2E3C2E24
:102C76003E2E772E772E43014F08FF3E203E8600DC
:102C86000130870001084001AB0043014F08203E98
:102C960086000130870040012B08810043014F0860
:102CA600FF3EA43E8600870101084001AB004301B8
:102CB6004F08A43E8600870140012B088100FF30A3
:102CC6004301CF07FF30D03D5008803A4001AB00AA
:102CD60080302B02031D722E013043014F02031870
:102CE600752E762E3E2E772E430148084001AB0006
:102CF6002B084201A000430149084001AB002B0804
:102D06004101A400C82D06304301CF000030D00099
:102D16005008803A4001AB0080302B02031D962EEE
:102D2600013043014F020318992E9A2E9D2E94319D
:102D36009E2C9A2E43014F08FF3E203E860001300E
:102D4600870001084001AB0043014F08203E860082
:102D56000130870040012B08810043014F08FF3EE8
:102D6600A43E8600870101084001AB0043014F08DD
:102D7600A43E8600870140012B088100FF304301F5
:102D8600CF07FF30D03D5008803A4001AB0080307D
:102D96002B02031DD12E013043014F020318D42EFE
:102DA600D52E9D2E9A2EFE304001AB002B084301F6
:102DB600CA00DE2EDE2E063051065204031DE42E16
:102DC600E52E532F51035204031DEA2EEB2EF22E4D
:102DD6007F304001AB002B084301CA00F22E51039D
:102DE6005204031DF72EF82EFF2EBF304001AB0014
:102DF6002B084301CA00FF2E51085204031D042F5D
:102E0600052F0C2FDF304001AB002B084301CA0011
:102E16000C2F073051065204031D122F132F1A2FA1
:102E2600EF304001AB002B084301CA001A2F0630D1
:102E360051065204031D202F212F282FF730400161
:102E4600AB002B084301CA00282F05305106520457
:102E5600031D2E2F2F2F362FFB304001AB002B08E2
:102E66004301CA00362F043051065204031D3C2F7D
:102E76003D2F442FFD304001AB002B084301CA0013
:102E8600442F033051065204031D4A2F4B2F532F54
:102E9600FE304001AB002B084301CA00532F532FCD
:102EA600073051065204031D592F5A2FC92F5108B6
:102EB6005204031D5F2F602F672F7F304001AB0048
:102EC6002B084301CA00672F073051065204031D21
:102ED6006D2F6E2F752FBF304001AB002B084301BD
:102EE600CA00752F063051065204031D7B2F7C2F16
:102EF600832FDF304001AB002B084301CA00832F2C
:102F0600053051065204031D892F8A2F912FEF3069
:102F16004001AB002B084301CA00912F0430510633
:102F26005204031D972F982F9F2FF7304001AB00B7
:102F36002B084301CA009F2F033051065204031D7C
:102F4600A52FA62FAD2FFB304001AB002B08430168
:102F5600CA00AD2F023051065204031DB32FB42F01
:102F6600BB2FFD304001AB002B084301CA00BB2F2D
:102F760051035204031DC02FC12FC92FFE3040013B
:102F8600AB002B084301CA00C92FC92F4A084001CC
:102F9600AB0043015108E43E8600870140012B083F
:102FA6008100D52F40010C18D92FDA2FE72F0430D6
:102FB6004301460647040319E12FE22FE72F0130AC
:102FC600C6000030C700E72F40018C18EB2FEC2F0E
:102FD600F92F03304301460647040319F32FF42F54
:102FE600F92F0230C6000030C700F92F40010C1936
:0A2FF600FE2F89317F2989318C29D3
:103DD800FF34FF34FF34FF34FF34FF34FF34FF3443
:103DE800FF34FF34FF34EF34F734FB34FF34FF344F
:103DF800063051065204031D022F032F0A2F7F306D
:103E08004001AB002B084301CA000A2F05305106B8
:103E18005204031D102F112F182FBF304001AB0083
:103E28002B084301CA00182F043051065204031D01
:103E38001E2F1F2F262FDF304001AB002B08430118
:103E4800CA00262F033051065204031D2C2F2D2F94
:103E5800342FEF304001AB002B084301CA00342F48
:103E6800023051065204031D3A2F3B2F422FF730E0
:103E78004001AB002B084301CA00422F51035204F2
:103E8800031D472F482F4F2FFB304001AB002B0855
:103E98004301CA004F2F51085204031D542F552FB8
:103EA8005C2FFD304001AB002B084301CA005C2F9A
:103EB800073051065204031D622F632F6B2FFE300B
:103EC8004001AB002B084301CA006B2F6B2F023057
:103ED80051065204031D712F722FE12F0530510630
:103EE8005204031D782F792F802F7F304001AB00BB
:103EF8002B084301CA00802F043051065204031DC9
:103F0800862F872F8E2FBF304001AB002B0843012F
:103F1800CA008E2F033051065204031D942F952F8B
:103F28009C2FDF304001AB002B084301CA009C2FB7
:103F3800023051065204031DA22FA32FAA2FEF30DF
:103F48004001AB002B084301CA00AA2F51035204B9
:103F5800031DAF2FB02FB72FF7304001AB002B0850
:103F68004301CA00B72F51085204031DBC2FBD2FAF
:103F7800C42FFB304001AB002B084301CA00C42FFB
:103F8800073051065204031DCA2FCB2FD22FFD3004
:103F98004001AB002B084301CA00D22F063051065E
:103FA8005204031DD82FD92FE12FFE304001AB005A
:103FB8002B084301CA00E12FE12F033051065204B8
:103FC800031DE72FE92F8B31142B043051065204BF
:103FD800031DEF2FF02FF72F7F304001AB002B0888
:103FE8004301CA00F72F033051065204031DFE2F68
:083FF8008A31BA2A8A31C12A7C
:020000040001F9
:0A000E008C3FFD3F9F3FFF3FFF3F87
:00000001FF
