:020000040000FA
:08000000803102288731D52F61
:10000E00FE0012001E00FE0B08280034FF34FF34E1
:10001E00FF34FF34FF34FF34FF34FF34FF34FF343A
:10002E00FF34FF34FF34FF34FF34FF344001AA01A4
:10003E00A71F222823282B28A609A709A60A0319D9
:10004E00A70AAA01AA0A2B28A51F2E282F28352871
:10005E00A409A509A40A0319A50A3528240825040C
:10006E0003193A283B286A28A901A90A4828013011
:10007E00A435A50D890B3F280130A8002808A90733
:10008E004828A51F4B284C283E284E284E282508C8
:10009E002702031D542824082602031C572858281B
:1000AE005D282408A6022508A73B5D280130A53649
:1000BE00A40C890B5E280130A902031D672868284D
:1000CE004E286A286A282A0803196E286F28752870
:1000DE00A609A709A60A0319A70A75282708A500C5
:1000EE002608A4007A280800043042013806390494
:1000FE00031D82288328B1280430BA000030BB00CB
:10010E004608283E86000130870001084001AB00FA
:10011E0042014608DC3E8600870140012B08810023
:10012E0042014E08203E8600013087000108400142
:10013E00AB0042014E08D43E8600870140012B08D9
:10014E00810042014F084101C30042014E084101A6
:10015E00C200B1280230420138063904031DB82806
:10016E00B928E7280230BA000030BB004608203E0E
:10017E0086000130870001084001AB0042014608AD
:10018E00D43E8600870140012B08810042014C08B5
:10019E00283E86000130870001084001AB00420175
:1001AE004C08DC3E8600870140012B08810042018D
:1001BE004F084101C30042014E084101C200E72829
:1001CE000330420138063904031DEE28EF281D299D
:1001DE000330BA000030BB004608203E86000130D6
:1001EE00870001084001AB0042014608D43E86005C
:1001FE00870140012B08810042014C08283E8600F1
:10020E000130870001084001AB0042014C08DC3E82
:10021E008600870140012B08810042014F084101F1
:10022E00C30042014E084101C2001D2940010C18B5
:10023E00212922292F29043042014406450403199D
:10024E0029292A292F290130C4000030C5002F2961
:10025E0040018C18332934294129033042014406C8
:10026E00450403193B293C2941290230C4000030C2
:10027E00C500412940010C19452946295329023050
:10028E0042014406450403194D294E2953290330D2
:10029E00C4000030C500532940018C195729582934
:1002AE00642942014403450403195E295F29642928
:1002BE000430C4000030C50064294201CA01CB01DC
:1002CE004B08803A4001AB0080302B02031D72298F
:1002DE00083042014A02031C752976297829422FDB
:1002EE00422F4201C801C9014908803A4001AB00C2
:1002FE0080302B02031D8629083042014802031C60
:10030E0089298A298C29B329B329FF304001AB00F2
:10031E0042014A08203E86000130870040012B082A
:10032E00810042014808283E860001308700810185
:10033E000130C8070030C93D4908803A4001AB0082
:10034E0080302B02031DAE29083042014802031CE7
:10035E00B129B2298C29B32901304201CA070030D4
:10036E00CB3D4B08803A4001AB0080302B02031D81
:10037E00C329083042014A02031CC629C72978291D
:10038E00422F422F01304201B8000030B9004C0814
:10039E00013ECC0000304D3DCD004C08FF3E303EBE
:1003AE0086000130870001364001AB0042014C0847
:1003BE00303E86000130870040012B08810042014B
:1003CE004C08FF3E303E8600013087000108400198
:1003DE00AB0042014C08FF3E283E860001308700EC
:1003EE0040012B08810042014C08FF3E303E860042
:1003FE000130870081014C08FF3EC600FF304D3DA5
:10040E00C7004E083C3E86000130870001084001BF
:10041E00AB0042014E08203E8600013087004001AD
:10042E002B08810042014D08803A4001AB0080301C
:10043E002B02031D252A083042014C02031C282AD8
:10044E00292A572F4201CC01CD014101E601E701D6
:10045E00572F572F02304201B8000030B9004E0816
:10046E00FF3ECE00FF304F3DCF004E08013E3C3EDA
:10047E00860001308700FE300106031D472A482AF8
:10048E008D2AFD304001AB0042014E083C3E8600F5
:10049E000130870040012B08810042014E08013EC9
:1004AE003C3E86000130870001084001AB0042014E
:1004BE004E08013E203E86000130870040012B0889
:1004CE008100FF30AB0042014E08013E3C3E8600EB
:1004DE000130870040012B08810042014E08013E89
:1004EE00C60000304F3DC7004C08303E860001303C
:1004FE00870001084001AB0042014C08283E8600EF
:10050E000130870040012B088100572F42014E0811
:10051E00013E3C3E860001308700FD300106031D82
:10052E00992A9A2ADF2AFB304001AB0042014E087D
:10053E003C3E86000130870040012B0881004201BD
:10054E004E08013E3C3E8600013087000108400106
:10055E00AB0042014E08013E203E8600013087006E
:10056E0040012B088100FF30AB0042014E08013ED6
:10057E003C3E86000130870040012B08810042017D
:10058E004E08013EC60000304F3DC7004C08303EBD
:10059E0086000130870001084001AB0042014C0883
:1005AE00283E86000130870040012B088100572F1E
:1005BE0042014E08013E3C3E860001308700FB3072
:1005CE000106031DEB2AEC2A312BF7304001AB005C
:1005DE0042014E083C3E86000130870040012B0848
:1005EE00810042014E08013E3C3E860001308700EC
:1005FE0001084001AB0042014E08013E203E86003C
:10060E000130870040012B088100FF30AB00420112
:10061E004E08013E3C3E86000130870040012B080B
:10062E00810042014E08013EC60000304F3DC7001A
:10063E004C08303E86000130870001084001AB00B7
:10064E0042014C08283E86000130870040012B08ED
:10065E008100572F42014E08013E3C3E860001307C
:10066E008700F7300106031D3D2B3E2B832BEF3009
:10067E004001AB0042014E083C3E8600013087002F
:10068E0040012B08810042014E08013E3C3E86008F
:10069E000130870001084001AB0042014E08013EC7
:1006AE00203E86000130870040012B088100FF307C
:1006BE00AB0042014E08013E3C3E860001308700F1
:1006CE0040012B08810042014E08013EC600003059
:1006DE004F3DC7004C08303E8600013087000108B0
:1006EE004001AB0042014C08283E860001308700D5
:1006FE0040012B088100572F42014E08013E3C3E1F
:10070E00860001308700EF300106031D8F2B902BE2
:10071E00D52BDF304001AB0042014E083C3E860037
:10072E000130870040012B08810042014E08013E36
:10073E003C3E86000130870001084001AB004201BB
:10074E004E08013E203E86000130870040012B08F6
:10075E008100FF30AB0042014E08013E3C3E860058
:10076E000130870040012B08810042014E08013EF6
:10077E00C60000304F3DC7004C08303E86000130A9
:10078E00870001084001AB0042014C08283E86005C
:10079E000130870040012B088100572F42014E087F
:1007AE00013E3C3E860001308700DF300106031D0E
:1007BE00E12BE22B272CBF304001AB0042014E084B
:1007CE003C3E86000130870040012B08810042012B
:1007DE004E08013E3C3E8600013087000108400174
:1007EE00AB0042014E08013E203E860001308700DC
:1007FE0040012B088100FF30AB0042014E08013E44
:10080E003C3E86000130870040012B0881004201EA
:10081E004E08013EC60000304F3DC7004C08303E2A
:10082E0086000130870001084001AB0042014C08F0
:10083E00283E86000130870040012B088100572F8B
:10084E0042014E08013E3C3E860001308700BF301B
:10085E000106031D332C342C792C7F304001AB0064
:10086E0042014E083C3E86000130870040012B08B5
:10087E00810042014E08013E3C3E86000130870059
:10088E0001084001AB0042014E08013E203E8600A9
:10089E000130870040012B088100FF30AB00420180
:1008AE004E08013E3C3E86000130870040012B0879
:1008BE00810042014E08013EC60000304F3DC70088
:1008CE004C08303E86000130870001084001AB0025
:1008DE0042014C08283E86000130870040012B085B
:1008EE008100572F42014E08013E3C3E86000130EA
:1008FE0087007F300106031D852C862C572F410162
:10090E00E601E701572F572F03304201B8000030A0
:10091E00B9004E08013ECE0000304F3DCF004E08CC
:10092E00FF3E3C3E8600013087007F300106031DEE
:10093E00A12CA22CE72CBF304001AB0042014E0887
:10094E003C3E86000130870040012B0881004201A9
:10095E004E08FF3E3C3E86000130870001084001F4
:10096E00AB0042014E08FF3E203E8600013087005C
:10097E0040012B088100FF30AB0042014E08FF3EC4
:10098E003C3E86000130870040012B088100420169
:10099E004E08FF3EC600FF304F3DC7004C08303EAC
:1009AE0086000130870001084001AB0042014C086F
:1009BE00283E86000130870040012B088100572F0A
:1009CE0042014E08FF3E3C3E860001308700BF309C
:1009DE000106031DF32CF42C392DDF304001AB0042
:1009EE0042014E083C3E86000130870040012B0834
:1009FE00810042014E08FF3E3C3E860001308700DA
:100A0E0001084001AB0042014E08FF3E203E860029
:100A1E000130870040012B088100FF30AB004201FE
:100A2E004E08FF3E3C3E86000130870040012B08F9
:100A3E00810042014E08FF3EC600FF304F3DC70009
:100A4E004C08303E86000130870001084001AB00A3
:100A5E0042014C08283E86000130870040012B08D9
:100A6E008100572F42014E08FF3E3C3E860001306A
:100A7E008700DF300106031D452D462D8B2DEF30EF
:100A8E004001AB0042014E083C3E8600013087001B
:100A9E0040012B08810042014E08FF3E3C3E86007D
:100AAE000130870001084001AB0042014E08FF3EB5
:100ABE00203E86000130870040012B088100FF3068
:100ACE00AB0042014E08FF3E3C3E860001308700DF
:100ADE0040012B08810042014E08FF3EC600FF3048
:100AEE004F3DC7004C08303E86000130870001089C
:100AFE004001AB0042014C08283E860001308700C1
:100B0E0040012B088100572F42014E08FF3E3C3E0C
:100B1E00860001308700EF300106031D972D982DBA
:100B2E00DD2DF7304001AB0042014E083C3E860001
:100B3E000130870040012B08810042014E08FF3E24
:100B4E003C3E86000130870001084001AB004201A7
:100B5E004E08FF3E203E86000130870040012B08E4
:100B6E008100FF30AB0042014E08FF3E3C3E860046
:100B7E000130870040012B08810042014E08FF3EE4
:100B8E00C600FF304F3DC7004C08303E8600013096
:100B9E00870001084001AB0042014C08283E860048
:100BAE000130870040012B088100572F42014E086B
:100BBE00FF3E3C3E860001308700F7300106031DE4
:100BCE00E92DEA2D2F2EFB304001AB0042014E08DD
:100BDE003C3E86000130870040012B088100420117
:100BEE004E08FF3E3C3E8600013087000108400162
:100BFE00AB0042014E08FF3E203E860001308700CA
:100C0E0040012B088100FF30AB0042014E08FF3E31
:100C1E003C3E86000130870040012B0881004201D6
:100C2E004E08FF3EC600FF304F3DC7004C08303E19
:100C3E0086000130870001084001AB0042014C08DC
:100C4E00283E86000130870040012B088100572F77
:100C5E0042014E08FF3E3C3E860001308700FB30CD
:100C6E000106031D3B2E3C2E812EFD304001AB00B4
:100C7E0042014E083C3E86000130870040012B08A1
:100C8E00810042014E08FF3E3C3E86000130870047
:100C9E0001084001AB0042014E08FF3E203E860097
:100CAE000130870040012B088100FF30AB0042016C
:100CBE004E08FF3E3C3E86000130870040012B0867
:100CCE00810042014E08FF3EC600FF304F3DC70077
:100CDE004C08303E86000130870001084001AB0011
:100CEE0042014C08283E86000130870040012B0847
:100CFE008100572F42014E08FF3E3C3E86000130D8
:100D0E008700FD300106031D8D2E8E2ED32EFE3054
:100D1E004001AB0042014E083C3E86000130870088
:100D2E0040012B08810042014E08FF3E3C3E8600EA
:100D3E000130870001084001AB0042014E08FF3E22
:100D4E00203E86000130870040012B088100FF30D5
:100D5E00AB0042014E08FF3E3C3E8600013087004C
:100D6E0040012B08810042014E08FF3EC600FF30B5
:100D7E004F3DC7004C08303E860001308700010809
:100D8E004001AB0042014C08283E8600013087002E
:100D9E0040012B088100572F42014E08FF3E3C3E7A
:100DAE00860001308700FE300106031DDF2EE02E87
:100DBE00572F4101E601E701572F572F572F0430C8
:100DCE004201B8000030B9004C08FF3ECC00FF30A5
:100DDE004D3DCD004C08013E303E8600013087006F
:100DEE0001354001AB0042014C08303E8600013017
:100DFE00870040012B08810042014C08013E303E25
:100E0E0086000130870001084001AB0042014C080A
:100E1E00013E283E86000130870040012B088100EC
:100E2E0042014C08013E303E8600013087008101B0
:100E3E004E083C3E86000130870001084001AB00A1
:100E4E0042014E08203E86000130870040012B08EB
:100E5E0081004201CD1F342F352F392F4101E6017C
:100E6E00E701392F42014C08013EC60000304D3DCE
:100E7E00C700572F572F42014508003A0319482F34
:100E8E00572F4408013A0319C929033A0319312A85
:100E9E00013A03198B2C073A0319E62E572F572FB9
:100EAE00410166086704031D5D2F5F2F8D319A2D5A
:100EBE00602FE801E9016908803A4001AB008030FB
:100ECE002B02031D6D2F643041016802031C702F2D
:100EDE00712F732FD32FD32F4201CA01CB014B0891
:100EEE00803A4001AB0080302B02031D812F083069
:100EFE0042014A02031C842F852F872FB52FB52F51
:100F0E0042014A08CC3E8600870101084001990043
:100F1E0042014A08C43E860087010108400198003C
:100F2E000B304001AB006230890B9B2FAB0B9B2F1C
:100F3E00000001304201CA070030CB3D4B08803A19
:100F4E004001AB0080302B02031DB02F0830420150
:100F5E004A02031CB32FB42F872FB52F0B3040013D
:100F6E00AB006230890BB92FAB0BB92F00000130EB
:100F7E004101E8070030E93D6908803A4001AB00C5
:100F8E0080302B02031DCE2F643041016802031CFA
:100F9E00D12FD22F732FD32F803102280D30840002
:100FAE00803085005230860001308700103080314D
:100FBE00072087310530840088308500A0308600F8
:100FCE00013087002830803107208731623084005D
:100FDE00013085000C30923168228731C830840090
:100FEE0001308500203092316822873140018E31E8
:020FFE005C2E67
:10100A00FF34FF34FF34FF34FF34FF34FF34FF343E
:10101A00FF34FF34FF34EF34F734FB34FF34FF344A
:10102A00FF34FF34FF34FF34FF34FF34FF34FF341E
:10103A00FF34FF34FF34FF34FF34FF34FF34FF340E
:10104A00FF34FF34FF34FF34FF34FF34FF34FF34FE
:10105A0042013A033B04031D332834285528460825
:10106A00FF3EDC3E8600870101084001AB004201D9
:10107A004608BA3E8600870140012B0881004201DA
:10108A004E08D43E8600870101084001AB004201A8
:10109A004E08B23E8600870140012B088100552880
:1010AA00023042013A063B04031D5C285D287E2873
:1010BA004608013ED43E8600870101084001AB0084
:1010CA0042014608B23E8600870140012B08810092
:1010DA0042014C08DC3E8600870101084001AB0052
:1010EA0042014C08BA3E8600870140012B08810064
:1010FA007E28033042013A063B04031D85288628D0
:10110A00A7284608FF3ED43E860087010108400111
:10111A00AB0042014608B23E8600870140012B0817
:10112A00810042014C08DC3E86008701010840012B
:10113A00AB0042014C08BA3E8600870140012B08E9
:10114A008100A7284201CA01CB014B08803A40011D
:10115A00AB0080302B02031DB528083042014A0239
:10116A00031CB828B928BB28092909294201C80142
:10117A00C9014908803A4001AB0080302B02031DA7
:10118A00C928083042014802031CCC28CD28CF28A0
:10119A00F428F428FF304001AB0042014A08D43E4B
:1011AA008600870140012B08810042014808DC3E85
:1011BA008600870181010130C8070030C93D49080E
:1011CA00803A4001AB0080302B02031DEF28083023
:1011DA0042014802031CF228F328CF28F4280130E0
:1011EA004201CA070030CB3D4B08803A4001AB00B0
:1011FA0080302B02031D0429083042014A02031CD5
:10120A0007290829BB280929420138033904031D83
:10121A000F29112980317B280130BA000030BB0028
:10122A004608283E86000130870001084001AB00CD
:10123A0042014608DC3E8600870140012B088100F6
:10124A0042014E08203E8600013087000108400115
:10125A00AB0042014E08D43E8600870140012B08AC
:10126A00810042014F084101C30042014E08410179
:10127A00C2000F290630420150065104031D4629B7
:10128A0047294F29FE304001AB002B084101EC00F1
:10129A004F294F290330420150065104031D562994
:1012AA005729CD29043050065104031D5D295E29B2
:1012BA0065297F304001AB002B084101EC0065290C
:1012CA000330420150065104031D6C296D2974290B
:1012DA00BF304001AB002B084101EC0074290230F9
:1012EA00420150065104031D7B297C298329DF30E2
:1012FA004001AB002B084101EC0083294201500355
:10130A005104031D89298A299129EF304001AB0034
:10131A002B084101EC009129420150085104031D98
:10132A00972998299F29F7304001AB002B084101E2
:10133A00EC009F290730420150065104031DA629DB
:10134A00A729AE29FB304001AB002B084101EC0074
:10135A00AE290630420150065104031DB529B629AB
:10136A00BD29FD304001AB002B084101EC00BD292D
:10137A000530420150065104031DC429C529CD294F
:10138A00FE304001AB002B084101EC00CD29CD29EC
:10139A000430420150065104031DD429D5294B2A91
:1013AA00033050065104031DDB29DC29E3297F3071
:1013BA004001AB002B084101EC00E3290230420155
:1013CA0050065104031DEA29EB29F229BF304001D6
:1013DA00AB002B084101EC00F229420150035104F1
:1013EA00031DF829F929002ADF304001AB002B0838
:1013FA004101EC00002A420150085104031D062A4B
:10140A00072A0E2AEF304001AB002B084101EC00FD
:10141A000E2A0730420150065104031D152A162AC6
:10142A001D2AF7304001AB002B084101EC001D2AB0
:10143A000630420150065104031D242A252A2C2A6B
:10144A00FB304001AB002B084101EC002C2A05308F
:10145A00420150065104031D332A342A3B2AFD3027
:10146A004001AB002B084101EC003B2A0430420149
:10147A0050065104031D422A432A4B2AFE304001DA
:10148A00AB002B084101EC004B2A4B2A05304201E4
:10149A0050065104031D532A9331E52B94315B2CDA
:1014AA00033050065104031D5B2A5C2A632A7F30ED
:1014BA004001AB002B084101EC00632A02304201D3
:1014CA0050065104031D6A2A6B2A722ABF30400152
:1014DA00AB002B084101EC00722A4201500351046F
:1014EA00031D782A792A802ADF304001AB002B08B5
:1014FA004101EC00802A420150085104031D862A4A
:10150A00872A8E2AEF304001AB002B084101EC00FC
:10151A008E2A0730420150065104031D952A962A45
:10152A009D2AF7304001AB002B084101EC009D2AAF
:10153A000630420150065104031DA42AA52AAC2AEA
:10154A00FB304001AB002B084101EC00AC2A05300E
:10155A00420150065104031DB32AB42ABB2AFD30A6
:10156A004001AB002B084101EC00BB2A04304201C8
:10157A0050065104031DC22AC32ACB2AFE30400159
:10158A00AB002B084101EC00CB2ACB2A05304201E3
:10159A0050065104031DD22AD32A492B0230500681
:1015AA005104031DD92ADA2AE12A7F304001AB000F
:1015BA002B084101EC00E12A420150035104031DAA
:1015CA00E72AE82AEF2ABF304001AB002B08410185
:1015DA00EC00EF2A420150085104031DF52AF62AAD
:1015EA00FD2ADF304001AB002B084101EC00FD2A47
:1015FA000730420150065104031D042B052B0C2B06
:10160A00EF304001AB002B084101EC000C2B0630F7
:10161A00420150065104031D132B142B1B2BF730C8
:10162A004001AB002B084101EC001B2B05304201A5
:10163A0050065104031D222B232B2A2BFB30400179
:10164A00AB002B084101EC002A2B04304201500662
:10165A005104031D312B322B392BFD304001AB00D5
:10166A002B084101EC00392B03304201500651048A
:10167A00031D402B412B492BFE304001AB002B08A8
:10168A004101EC00492B492B063042015006510416
:10169A00031D502B522B8D310E2D50035104031D67
:1016AA00572B582B5F2B7F304001AB002B08410191
:1016BA00EC005F2B420150035104031D652B662B7E
:1016CA006D2BBF304001AB002B084101EC006D2BA4
:1016DA00420150085104031D732B742B7B2BDF30FE
:1016EA004001AB002B084101EC007B2B0730420183
:1016FA0050065104031D822B832B8A2BEF304001A5
:10170A00AB002B084101EC008A2B0630420150063F
:10171A005104031D912B932B8C31E02CF73040019F
:10172A00AB002B084101EC00912B02304201440628
:10173A0045040319A12BA22BA72B0330C4000030A8
:10174A00C500A72B40018C19AB2BAC2BB72B420140
:10175A00440345040319B22BB32BB72B0430C4003E
:10176A000030C50001304201C8070030C93D4908B0
:10177A00803A4001AB0080302B02031DC72B083092
:10178A0042014802031CCA2BCC2B8D31C92DCD2B0B
:10179A008530890BCE2B000001304201CA07003088
:1017AA00CB3D4B08803A4001AB0080302B02031D31
:1017BA00E12B083042014A02031CE42BE62B8D314F
:1017CA00B42DE72B01304101E4070030E53D6508FF
:1017DA00803A4001AB0041016B08803A40012B027C
:1017EA00031DFA2B41016A086402031CFD2BFF2B1F
:1017FA008D319F2D002C42015008AA3E8600870198
:10180A004C08303E84000130850000080106031DA3
:10181A000F2C102C4D2C5008A23E860087014E0832
:10182A003C3E84000130850000080106031D1E2C81
:10183A001F2C4D2C5008AA3E860087018101FF30DB
:10184A004001AB0042015008A23E860087014001D8
:10185A002B08810041016B08803A4001AB008030BF
:10186A002B02031D3B2C153041016A0203183E2C42
:10187A003F2C452C1E304101EA000030EB00452C7C
:10188A0041016A08EC3EEA00FF306B3DEB004D2C4B
:10189A0042015008AA3E860087010108031D562C02
:1018AA00582C9731742F9231A5228B3107307C0541
:1018BA004201D00000307D05D10001304001AB006B
:1018CA004201500A40016A2CAB35890B692C2B085E
:1018DA00AC0042015008AA3E8600870140012C084C
:1018EA008100420150085104031D7C2C7E2C923148
:1018FA00F82A073050065104031D842C852C8C2CA1
:10190A007F304001AB002B084101EC008C2C0630E3
:10191A00420150065104031D932C942C9B2CBF307A
:10192A004001AB002B084101EC009B2C0530420121
:10193A0050065104031DA22CA32CAA2CDF3040010F
:10194A00AB002B084101EC00AA2C043042015006DE
:10195A005104031DB12CB22CB92CEF304001AB005D
:10196A002B084101EC00B92C033042015006510406
:10197A00031DC02CC12CC82CF7304001AB002B082A
:10198A004101EC00C82C0230420150065104031DEB
:10199A00CF2CD02CD72CFB304001AB002B084101B7
:1019AA00EC00D72C420150035104031DDE2C923166
:1019BA00E22A9231E92A0530420150065104031DF8
:1019CA00E72CE82CEF2CFB304001AB002B0841013F
:1019DA00EC00EF2C0430420150065104031DF62C92
:1019EA00F72CFE2CFD304001AB002B084101EC0026
:1019FA00FE2C0330420150065104031D052D062D0D
:101A0A000E2DFE304001AB002B084101EC000E2DDB
:101A1A000E2D0730420150065104031D152D162DB7
:101A2A008C2D50085104031D1B2D1C2D232D7F3096
:101A3A004001AB002B084101EC00232D0730420185
:101A4A0050065104031D2A2D2B2D322DBF30400183
:101A5A00AB002B084101EC00322D06304201500642
:101A6A005104031D392D3A2D412DDF304001AB00C1
:101A7A002B084101EC00412D05304201500651046A
:101A8A00031D482D492D502DEF304001AB002B0886
:101A9A004101EC00502D0430420150065104031D4F
:101AAA00572D582D5F2DF7304001AB002B0841010F
:101ABA00EC005F2D0330420150065104031D662DD0
:101ACA00672D6E2DFB304001AB002B084101EC0065
:101ADA006E2D0230420150065104031D752D762DDC
:101AEA007D2DFD304001AB002B084101EC007D2D1E
:101AFA00420150035104031D832D842D8C2DFE3089
:101B0A004001AB002B084101EC008C2D8C2D4101CA
:101B1A006C084001AB0042015008A23E86008701D2
:101B2A0040012B0881008731572F4101E401E5016B
:101B3A008B31EC2B4201CA01CB014B08803A4001A0
:101B4A00AB0080302B02031DAD2D083042014A0242
:101B5A00031CB02DB12DB42D8B31E72BB12D4201D1
:101B6A00C801C9014908803A4001AB0080302B0204
:101B7A00031DC22D083042014802031CC52DC62D83
:101B8A00C92D8B31CD2BC62D42014A083C3E860019
:101B9A000130870001084001980042014808303EA0
:101BAA008600013087000108400199004230890B04
:101BBA00DC2D003242014A08203E860001308700AF
:101BCA0001084001980042014808283E8600013079
:101BDA0087000108400199004230890BF22D00323A
:101BEA0042014A08D43E8600870101084001980054
:101BFA0042014808DC3E860087010108400199003D
:101C0A004230890B062E003242014A08B23E860053
:101C1A00870101084001980042014808BA3E86003F
:101C2A0087010108400199004230890B1A2E0032BF
:101C3A0042014A08AA3E860087010108400199002C
:101C4A0042014808A23E8600870101084001980027
:101C5A004230890B2E2E003240010C18352E362EBA
:101C6A00432E043042014406450403193D2E3E2EFC
:101C7A00432E0130C4000030C500432E40018C18A9
:101C8A00472E482E552E03304201440645040319B7
:101C9A004F2E502E552E0230C4000030C500552E4E
:101CAA0040010C195A2E8B319A2B8B31A72B5101DB
:101CBA001308F839063893007E01D90140018F01D3
:101CCA0094017E01CE0140018E0193017E01B8018B
:101CDA0040018C01FF3091000F307E01B9004201B2
:101CEA00C601C701B801B901BA01BB015A30860061
:101CFA00013087003C308400013085000830400103
:101D0A00AB0016001A00AB0B862E6230860001303B
:101D1A00870030308400013085000830AB0016009F
:101D2A001A00AB0B942E5230860001308700203007
:101D3A008400013085000830AB0016001A00AB0B96
:101D4A00A22EE0308600013087002830840001305E
:101D5A0085000830AB0016001A00AB0BB02EC0305D
:101D6A00860001308700D4308400003085000830B6
:101D7A00AB0016001A00AB0BBE2ED830860001301D
:101D8A008700DC308400003085000830AB00160084
:101D9A001A00AB0BCC2EB830860001308700B23067
:101DAA008400003085000830AB0016001A00AB0B27
:101DBA00DA2ED030860001308700BA308400003035
:101DCA0085000830AB0016001A00AB0BE82EB030C5
:101DDA00860001308700A230840000308500083078
:101DEA00AB0016001A00AB0BF62EC8308600013085
:101DFA008700AA308400003085000830AB00160046
:101E0A001A00AB0B042F02304201CE000030CF0083
:101E1A000530CC000030CD00A830860001308700A4
:101E2A00C43084000030850008304001AB00160041
:101E3A001A00AB0B1C2FA030860001308700CC3073
:101E4A008400003085000830AB0016001A00AB0B86
:101E5A002A2F4101CC01CC0A39304001AB002B08B2
:101E6A004101CD0041304001AB002B084101CE00B9
:101E7A0039304001AB002B084101CF00D001D00A14
:101E8A0049304001AB002B084101D100D201D20AEE
:101E9A00FF304001AB002B084101D3007F304001E5
:101EAA00AB002B084101C400BF304001AB002B0836
:101EBA004101C500DF304001AB002B084101C600DB
:101ECA00EF304001AB002B084101C700F730400159
:101EDA00AB002B084101C800FB304001AB002B08C6
:101EEA004101C900FD304001AB002B084101CA0085
:101EFA00FE304001AB002B084101CB006430EA0000
:101F0A000030EB0004304001AB0042014C08303E87
:101F1A0086000130870040012B088100DF30AB00CA
:101F2A0042014E083C3E86000130870040012B08E2
:101F3A0081004201C401C50101304101E6000030BF
:101F4A00E70001304201C8000030C9004101E40144
:101F5A00E5010330E8000030E900A001A1014201D7
:101F6A004A083C3E8600013087000108400198007B
:101F7A0042014808303E86000130870001084001CE
:101F8A009900AB0042014A084001AC000330AC356D
:101F9A00890BCC2F2F302C07AD0042014808400195
:101FAA002D07AE002E08860087012B08810041010B
:101FBA00EC01C201C30107304001A4000030A500B2
:101FCA009231A5228E317D084001A7007C08A60027
:101FDA0080311D208E31400125084201D100400187
:101FEA0024084201D00001304001AB004201500AEE
:061FFA0040019531F12DBC
:1024D000640080010131890B692A00340030FB005F
:1024E0000030FA000030F9000030F800772A701C44
:1024F0007A2A7B2A842A7408F8077508F93D760839
:10250000FA3D7708FB3D842A0130F435F50DF60DD0
:10251000F70D890B852A0130F336F20CF10CF00C23
:10252000890B8C2A7308720471047004031D992AA4
:102530009A2A772A9B2A7B08F3007A08F200790806
:10254000F1007808F000A42A080042016D08F300A9
:102550006C08F2006B08F1006A08F0004C30F700DC
:102560009530F6007F30F5002D30F40092316E2268
:102570009231013070074201EA000030713DEB00FA
:102580000030723DEC000030733DED006A08400100
:10259000A00042016B084001A10042016C0840010B
:1025A000A20042016D084001A3000330A336A20C33
:1025B000A10CA00C890BD62A2108FD002008FC00E4
:1025C000E12A0800FD304001AB002B084101EC007E
:1025D000E92A420150085104031DEF2AF02AF82A83
:1025E000FE304001AB002B084101EC00F82AF82A2C
:1025F000420150035104031DFE2AFF2A752B0630A9
:1026000050065104031D052B062B0D2B7F30400176
:10261000AB002B084101EC000D2B053042015006A8
:102620005104031D142B152B1C2BBF304001AB0094
:102630002B084101EC001C2B0430420150065104D0
:10264000031D232B242B2B2BDF304001AB002B0849
:102650004101EC002B2B0330420150065104031DB5
:10266000322B332B3A2BEF304001AB002B084101CA
:10267000EC003A2B0230420150065104031D412B5D
:10268000422B492BF7304001AB002B084101EC00F5
:10269000492B420150035104031D4F2B502B572B44
:1026A000FB304001AB002B084101EC00572B4201ED
:1026B00050085104031D5D2B5E2B652BFD3040013E
:1026C000AB002B084101EC00652B0730420150069E
:1026D0005104031D6C2B6D2B752BFE304001AB009C
:1026E0002B084101EC00752B752B0230420150067E
:1026F0005104031D7C2B7E2B89314F290530500658
:102700005104031D842B852B8C2B7F304001AB00A3
:102710002B084101EC008C2B04304201500651047F
:10272000031D932B942B9B2BBF304001AB002B0838
:102730004101EC009B2B0330420150065104031D64
:10274000A22BA32BAA2BDF304001AB002B084101A9
:10275000EC00AA2B0230420150065104031DB12B9C
:10276000B22BB92BEF304001AB002B084101EC003C
:10277000B92B420150035104031DBF2BC02BC72BA3
:10278000F7304001AB002B084101EC00C72B4201A0
:1027900050085104031DCD2BCE2BD52BFB3040010F
:1027A000AB002B084101EC00D52B0730420150064D
:1027B0005104031DDC2BDE2B89313F29FD30400104
:1027C000AB002B084101EC00DC2B02305006510419
:1027D000031DEB2BEC2BF32B7F304001AB002B08C0
:1027E0004101EC00F32B420150035104031DF92B6E
:1027F000FA2B012CBF304001AB002B084101EC004B
:10280000012C420150085104031D072C082C0F2CE9
:10281000DF304001AB002B084101EC000F2C0730EA
:10282000420150065104031D162C172C1E2CEF30AC
:102830004001AB002B084101EC001E2C0630420188
:1028400050065104031D252C262C2D2CF730400159
:10285000AB002B084101EC002D2C05304201500645
:102860005104031D342C352C3C2CFB304001AB00B3
:102870002B084101EC003C2C04304201500651046D
:10288000031D432C442C4B2CFD304001AB002B0886
:102890004101EC004B2C0330420150065104031D52
:1028A000522C532C5B2CFE304001AB002B08410115
:1028B000EC005B2C5B2C0630420150065104031DDA
:1028C000622C632CD82C50035104031D682C692CF6
:1028D000702C7F304001AB002B084101EC00702CC4
:1028E000420150035104031D762C772C7E2CBF30FF
:1028F0004001AB002B084101EC007E2C4201500846
:102900005104031D842C852C8C2CDF304001AB003E
:102910002B084101EC008C2C073042015006510479
:10292000031D932C942C9B2CEF304001AB002B0803
:102930004101EC009B2C0630420150065104031D5E
:10294000A22CA32CAA2CF7304001AB002B0841018C
:10295000EC00AA2C0530420150065104031DB12C95
:10296000B22CB92CFB304001AB002B084101EC002C
:10297000B92C0430420150065104031DC02CC12C57
:10298000C82CFD304001AB002B084101EC00C82CE5
:102990000330420150065104031DCF2CD02CD82CFB
:1029A000FE304001AB002B084101EC00D82CD82CA4
:1029B0000730420150065104031DDF2CE12C9731F2
:1029C000672F50085104031DE72C9631F72E9631DE
:1029D000FE2EEA2C0230420150065104031DF12C58
:1029E000F22C682D053050065104031DF82CF92CEB
:1029F000002D7F304001AB002B084101EC00002D81
:102A00000430420150065104031D072D082D0F2DDF
:102A1000BF304001AB002B084101EC000F2D03300B
:102A2000420150065104031D162D172D1E2DDF30B7
:102A30004001AB002B084101EC001E2D0230420189
:102A400050065104031D252D262D2D2DEF3040015C
:102A5000AB002B084101EC002D2D42015003510425
:102A6000031D332D342D3B2DF7304001AB002B08D7
:102A70004101EC003B2D420150085104031D412D42
:102A8000422D492DFB304001AB002B084101EC00E9
:102A9000492D0730420150065104031D502D512D80
:102AA000582DFD304001AB002B084101EC00582DA2
:102AB0000630420150065104031D5F2D602D682D24
:102AC000FE304001AB002B084101EC00682D682D61
:102AD0000330420150065104031D6F2D702DE62D69
:102AE000043050065104031D762D772D7E2D7F3046
:102AF0004001AB002B084101EC007E2D0330420168
:102B000050065104031D852D862D8D2DBF304001AB
:102B1000AB002B084101EC008D2D02304201500624
:102B20005104031D942D952D9C2DDF304001AB00E9
:102B30002B084101EC009C2D420150035104031D60
:102B4000A22DA32DAA2DEF304001AB002B0841018F
:102B5000EC00AA2D420150085104031DB02DB12DE7
:102B6000B82DF7304001AB002B084101EC00B82D27
:102B70000730420150065104031DBF2DC02DC72D43
:102B8000FB304001AB002B084101EC00C72D0630A3
:102B9000420150065104031DCE2DCF2DD62DFD3000
:102BA0004001AB002B084101EC00D62D053042015D
:102BB00050065104031DDD2DDE2DE62DFE304001B3
:102BC000AB002B084101EC00E62DE62D043042015C
:102BD00050065104031DEE2D8A31552A8A31CB2A25
:102BE000AB35890BF02D2B08AC0042015008AA3EF2
:102BF0008600870140012C088100420150085104E1
:102C0000031D032E042E7A2E073050065104031D97
:102C10000A2E0B2E122E7F304001AB002B084101F3
:102C2000EC00122E0630420150065104031D192EED
:102C30001A2E212EBF304001AB002B084101EC00C1
:102C4000212E0530420150065104031D282E292E45
:102C5000302EDF304001AB002B084101EC00302E5C
:102C60000430420150065104031D372E382E3F2EEA
:102C7000EF304001AB002B084101EC003F2E033048
:102C8000420150065104031D462E472E4E2EF730AA
:102C90004001AB002B084101EC004E2E02304201F6
:102CA00050065104031D552E562E5D2EFB3040015B
:102CB000AB002B084101EC005D2E42015003510492
:102CC000031D632E642E6B2EFD304001AB002B08DC
:102CD0004101EC006B2E420150085104031D712E7E
:102CE000722E7A2EFE304001AB002B084101EC0021
:102CF0007A2E7A2E420150035104031D802E822E1B
:102D00009431EA2C063050065104031D882E892E7A
:102D1000902E7F304001AB002B084101EC00902E3B
:102D20000530420150065104031D972E982E9F2E08
:102D3000BF304001AB002B084101EC009F2E043056
:102D4000420150065104031DA62EA72EAE2EDF30E1
:102D50004001AB002B084101EC00AE2E03304201D4
:102D600050065104031DB52EB62EBD2EEF30400186
:102D7000AB002B084101EC00BD2E02304201500691
:102D80005104031DC42EC52ECC2EF7304001AB00DC
:102D90002B084101EC00CC2E420150035104031DCD
:102DA000D22ED32EDA2EFB304001AB002B0841018E
:102DB000EC00DA2E420150085104031DE02EE12EF2
:102DC000E82EFD304001AB002B084101EC00E82E5D
:102DD0000730420150065104031DEF2EF02E802EC5
:102DE000FE304001AB002B084101EC00802E7F300B
:102DF0004001AB002B084101EC00FE2E07304201E0
:102E000050065104031D052F062F0D2FBF30400122
:102E1000AB002B084101EC000D2F0630420150069B
:102E20005104031D142F152F1C2FDF304001AB0060
:102E30002B084101EC001C2F0530420150065104C3
:102E4000031D232F242F2B2FEF304001AB002B0825
:102E50004101EC002B2F0430420150065104031DA8
:102E6000322F332F3A2FF7304001AB002B084101AE
:102E7000EC003A2F0330420150065104031D412F4C
:102E8000422F492FFB304001AB002B084101EC00E1
:102E9000492F0230420150065104031D502F512F7B
:102EA000582FFD304001AB002B084101EC00582F9A
:102EB000420150035104031D5E2F5F2F672FFE3028
:102EC0004001AB002B084101EC00672F672F410147
:102ED0006C084001AB0042015008A23E8600870109
:102EE00040012B088100742F4201CA01CB014B081D
:102EF000803A4001AB0080302B02031D822F083046
:102F000042014A02031C852F862F882FD62FD62FE9
:102F10004201C801C9014908803A4001AB00803034
:102F20002B02031D962F083042014802031C992FE3
:102F30009A2F9C2FC12FC12FFF304001AB004201BF
:102F40004A08B23E8600870140012B0881004201F9
:102F50004808BA3E8600870181010130C807003069
:102F6000C93D4908803A4001AB0080302B02031D67
:102F7000BC2F083042014802031CBF2FC02F9C2FDA
:102F8000C12F01304201CA070030CB3D4B08803AC7
:102F90004001AB0080302B02031DD12F08304201CD
:102FA0004A02031CD42FD52F882FD62F043042017C
:102FB0003A063B04031DDD2FDF2F88312D284608FC
:102FC000013EDC3E8600870101084001AB00420162
:102FD0004608BA3E8600870140012B088100420165
:102FE0004E08D43E8600870101084001AB00420133
:102FF0004E08B23E8600870140012B088100DD2F7C
:020000040001F9
:0A000E008C3FFD3F9F3FFF3FFF3F87
:00000001FF
