:020000040000FA
:08000000803102288731E52F51
:10000C000800730872047104700403190E280F2879
:10001C0012288030F30612281328080042016908C0
:10002C004001A500420168084001A4004201670894
:10003C004001A300420166084001A2007308A5001C
:10004C007208A4007108A3007008A2002208F40032
:10005C002308F5002408F6002508F7001730F736BA
:10006C00F60CF50CF40C890B3528FF307405A00048
:10007C0000307505A10020082104031D46284728DF
:10008C006A282208F4002308F5002408F600250845
:10009C00F7000130F435F50DF60DF70D890B5028EE
:1000AC007708760475047404031D5D285E286328A4
:1000BC000230F0000030F10096280330F0000030E0
:1000CC00F100962896289628200A2104031D6F28F3
:1000DC00702891282208F4002308F5002408F60063
:1000EC002508F7000930F435F50DF60DF70D890BE1
:1000FC0079287708760475047404031986288828EF
:10010C00013089280030F800F9017808F0007908EE
:10011C00F100962896280430F0000030F100962863
:10012C0008004101C000BE01BF0140016B08410144
:10013C00D40040016A084101D30040016908410123
:10014C00D200400168084101D10054084001BD00B3
:10015C00410153084001BC00410152084001BB0061
:10016C00410151084001BA000030C1000030C0000C
:10017C000030BF000030BE009D31B825803103181F
:10018C00C828C928E32801304101BE000030BF0057
:10019C005408F3005308F2005208F1005108F00023
:1001AC0080310720803173084101D4007208D300DC
:1001BC007108D2007008D100E3284101D701D801A1
:1001CC0042016D084101C50042016C084101C400A7
:1001DC003E083F04031DF328F428F9286E1DF72868
:1001EC00F8281B29F9283E083F04031DFE28FF2888
:1001FC0004292B30A8000030A90009292D30A800B3
:10020C000030A90009292808A0005708203E8600C4
:10021C0002308700200881000130D7070030D83D1C
:10022C00FF30C407FF30C53D1B295408F3005308A9
:10023C00F2005208F1005108F00080311420803196
:10024C0070037104031D2B292C29922940016C0881
:10025C00BF3E4101A000FF3003180030A100003068
:10026C0021021A3003192002031C3D293F290130B9
:10027C0040290030A200A3012208AA002308AB00E9
:10028C00592940016C084101A000A1012008F0008F
:10029C002108F10098312220803171084101AB0016
:1002AC007008AA0059292A082B0403195E295F2912
:1002BC0069291630F000A030F1005708203E983123
:1002CC00A120803174291E30F000A030F1004101D2
:1002DC005708203E9831A12080317429FD3041010E
:1002EC00C407FF30C53D2030A00020084001A40009
:1002FC00410145084001A600410144084001A50008
:10030C00410140089A31BE22803140012508E900A4
:10031C002408E800E42FE42F41015408F3005308AB
:10032C00F2005208F1005108F000803114208031A5
:10033C0070087104031DA329A4290A2A40016C0822
:10034C00BF3E4101A000FF3003180030A100003077
:10035C0021021A3003192002031CB529B7290130D8
:10036C00B8290030A200A3012208AC002308AD007C
:10037C00D12940016C084101A000A1012008F00026
:10038C002108F10098312220803171084101AD0023
:10039C007008AC00D1292C082D040319D629D729B3
:1003AC00E1291A30F000A030F1005708203E9831B6
:1003BC00A1208031EC292230F000A030F100410165
:1003CC005708203E9831A1208031EC29FD304101A5
:1003DC00C407FF30C53D2030A00020084001A40018
:1003EC00410145084001A600410144084001A50017
:1003FC00410140089A31BE22803140012508E900B4
:10040C002408E800E42FE42F3F304101DC00803069
:10041C00DB000030DA000030D900D501D6015408D9
:10042C00F3005308F2005208F1005108F0000030BC
:10043C00F7000030F6000030F5000030F400903189
:10044C000520803103182B2A2C2AF62A5F2A5F2AD2
:10045C0041304001A3002030A2000030A100003048
:10046C00A00041015C084001A70041015B0840016C
:10047C00A60041015A084001A5004101590840015C
:10048C00A400933123238031400123084101DC0077
:10049C00400122084101DB00400121084101DA0042
:1004AC00400120084101D9000130D5070030D63D6C
:1004BC005F2A410154084001BD004101530840012D
:1004CC00BC00410152084001BB00410151084001F0
:1004DC00BA004130A3002030A2000030A10000304F
:1004EC00A00041015C084001A70041015B084001EC
:1004FC00A60041015A084001A500410159084001DC
:10050C00A40093312323803140012308C100220829
:10051C00C0002108BF002008BE009D31B8258031E5
:10052C000318992A9A2A2E2ACD2ACD2A4130400125
:10053C00BD002030BC000030BB000030BA004101CF
:10054C005C084001C10041015B084001C000410151
:10055C005A084001BF00410159084001BE009131C9
:10056C004421803140013D084101DC0040013C0840
:10057C004101DB0040013B084101DA0040013A082F
:10058C004101D900FF30D507FF30D63DCD2A4101BE
:10059C0054084001BD00410153084001BC00410119
:1005AC0052084001BB00410151084001BA00410111
:1005BC005C084001C10041015B084001C0004101E1
:1005CC005A084001BF00410159084001BE009D314D
:1005DC00B8258031031CF32AF42A9C2AF62AF62A21
:1005EC0040016C084101A000A1012008F60021087F
:1005FC00F70099311521803176084101A2002208BB
:10060C00C6004608A0002008C30067304606031D3C
:10061C00102B112B3B2B42016E086F04031D172B63
:10062C00182B1C2B0130EE000030EF006F08803AC5
:10063C004101A00080302002031D272B0130420114
:10064C006E0203182A2B2B2B312B06304101C100D3
:10065C000030C2004F2B42016F084101C200420121
:10066C006E084101C1004F2B4F2B4201EF1B3F2B5A
:10067C00402B482B6F084101C20042016E0841011A
:10068C00C1004F2B06304101C1000030C2004F2B7E
:10069C004F2B67304606031D542B552B832B5608C6
:1006AC00803AA0007F302002031D5E2BFC305502E7
:1006BC00031C612B622B7D2B41014108FF3EA000E6
:1006CC00FF30423DA1002108803AA2005608803A32
:1006DC002202031D732B55082002031C762B772B4B
:1006EC007D2B66304101A0002008C300832B6530B0
:1006FC004101A0002008C300832B4208B900410827
:10070C00B80067304606031D8C2B8D2B982B66305A
:10071C004306031D922B932B9D2BD61F962B972BA9
:10072C009D2B982B0130B8070030B93D9D2B6630BE
:10073C004306031DA22BA32BBE2BD61FA62BA72B28
:10074C00B22B3F30DC008030DB000030DA000030B0
:10075C00D900D501D601B22B673046060319B72B49
:10076C00B82BBE2B5508B8075608B93DBE2BBE2B6F
:10077C00CF01D0015408CA005308C9005208C80060
:10078C005108C7005C08A7005B08A6005A08A50022
:10079C005908A4009F2C41015C084001BD00410197
:1007AC005B084001BC0041015A084001BB004101FB
:1007BC0059084001BA0041014A084001C1004101F9
:1007CC0049084001C000410148084001BF004101F7
:1007DC0047084001BE0091314421803140013D0861
:1007EC00D7003C08D6003B08D5003A08D40090311D
:1007FC0055208031400157084101CE004001560878
:10080C004101CD00400155084101CC004001540884
:10081C004101CB004E08F3004D08F2004C08F100EA
:10082C004B08F0009B31EE23803171084101BD0073
:10083C007008BC004E084001A70041014D08400162
:10084C00A60041014C084001A50041014B084001A4
:10085C00A40041015C084001A30041015B08400178
:10086C00A20041015A084001A10041015908400170
:10087C00A00093312323803140012308BD002208BE
:10088C00BC002108BB002008BA0041014A08400105
:10089C00C100410149084001C00041014808400124
:1008AC00BF00410147084001BE0098313B20803118
:1008BC0040013D084101CA0040013C084101C9000A
:1008CC0040013B084101C80040013A084101C70002
:1008DC0041304001BD002030BC000030BB00003076
:1008EC00BA0041015C084001C10041015B084001B4
:1008FC00C00041015A084001BF00410159084001A4
:10090C00BE0091314421803140013D084101DC00A1
:10091C0040013C084101DB0040013B084101DA0089
:10092C0040013A084101D9000130CF070030D03DD9
:10093C009F2C5008803AA0003908803A2002031DF1
:10094C00A92C38084F02031CAC2CAD2CD12BAE2C8F
:10095C0040304001A300A030A2000030A1000030C4
:10096C00A00041015C084001A70041015B08400167
:10097C00A60041015A084001A50041015908400157
:10098C00A400933123238031400123084101CE0080
:10099C00400122084101CD00400121084101CC0059
:1009AC00400120084101CB004A084001BD00410133
:1009BC0049084001BC00410148084001BB0041010D
:1009CC0047084001BA0041014E084001C1004101F5
:1009DC004D084001C00041014C084001BF004101DD
:1009EC004B084001BE009D31B82580310318FF2C07
:1009FC00002D0A2D00304101CE000030CD0000301A
:100A0C00CC000030CB00312D41014A08F3004908DD
:100A1C00F2004808F1004708F0004E08F7004D08B6
:100A2C00F6004C08F5004B08F4009031052080319D
:100A3C00031C212D222D312D41013C18262D272D53
:100A4C00312D0030CE000030CD000030CC00003015
:100A5C00CB00312D312D41014E08F7004D08F60029
:100A6C004C08F5004B08F4005408FB005308FA003E
:100A7C005208F9005108F80095318E25803177081D
:100A8C004101CA007608C9007508C8007408C7007F
:100A9C002708DC002608DB002508DA002408D9002A
:100AAC006530430603195B2D5C2D612D5608BB0088
:100ABC005508BA00632DBA01BB01B601B701B401E8
:100ACC00B501CF01D001A62E41015C084001BD004B
:100ADC0041015B084001BC0041015A084001BB00C8
:100AEC00410159084001BA0041014A084001C100C6
:100AFC00410149084001C000410148084001BF00C4
:100B0C00410147084001BE00913144218031400130
:100B1C003D08D7003C08D6003B08D5003A08D40065
:100B2C00903155208031400157084101CE004001E1
:100B3C0056084101CD00400155084101CC0040014F
:100B4C0054084101CB004E08F3004D08F2004C084C
:100B5C00F1004B08F0009B31EE238031710841010C
:100B6C00BD007008BC006E1ABC2DBD2DD22D3C08EA
:100B7C003D04031DC22DC32DD22D67304606031D27
:100B8C00C82DC92DD22DBB1FCC2DCD2DD22D013072
:100B9C00B4070030B53D232E36083704031DD72D7E
:100BAC00D82D092EBB1FDB2DDC2D092E2E30A000DD
:100BBC005708203E86000230870020088100013053
:100BCC00D7070030D83DFF30C407FF30C53D01309A
:100BDC00B6000030B700092E092E3030A00057089F
:100BEC00203E860002308700200881000130D707A4
:100BFC000030D83DFF30C407FF30C53DFF30B4078F
:100C0C00FF30B53D092E34083504031D0E2E0F2E72
:100C1C00F32D102E3C08303EA0005708203E8600D5
:100C2C0002308700200881000130D7070030D83D02
:100C3C00FF30C407FF30C53D232E4E084001A700EE
:100C4C0041014D084001A60041014C084001A5009E
:100C5C0041014B084001A40041015C084001A30084
:100C6C0041015B084001A20041015A084001A1006A
:100C7C00410159084001A0009331232380314001E8
:100C8C002308BD002208BC002108BB002008BA00C4
:100C9C0041014A084001C100410149084001C0001E
:100CAC00410148084001BF00410147084001BE0016
:100CBC0098313B20803140013D084101CA00400180
:100CCC003C084101C90040013B084101C8004001FA
:100CDC003A084101C70041304001BD002030BC0042
:100CEC000030BB000030BA0041015C084001C1007B
:100CFC0041015B084001C00041015A084001BF009E
:100D0C00410159084001BE0091314421803140011C
:100D1C003D084101DC0040013C084101DB00400181
:100D2C003B084101DA0040013A084101D900FF308B
:100D3C00BA07FF30BB3D0130CF070030D03DA62EA7
:100D4C005008803AA0003908803A2002031DB02ECA
:100D5C0038084F020318B32EB42EC42E4101580884
:100D6C00803AA00080302002031DBE2E4B3057026B
:100D7C00031CC12EC22E6A2DC42EC42E410136086E
:100D8C003704031DCA2ECB2EDD2E6E1ECE2ECF2E7B
:100D9C00DD2E2E30A0005708203E86000230870042
:100DAC00200881000130D7070030D83DDD2E5708D0
:100DBC00203E860002308700810165304306031D0A
:100DCC00E82EE92ECB2F4F30CF000030D0004F084B
:100DDC00203E8600023087008101BE01BF01D61F74
:100DEC00F82EF92E032F0130BE000030BF00D509BC
:100DFC00D609D50A0319D60A032F0230C1000030D8
:100E0C00C2003C2FFF304101CF07FF30D03D0A30EC
:100E1C00F0000030F1005608F3005508F2009A314A
:100E2C00612280317008303E4101A0004F08203E05
:100E3C00860002308700200881000A30F000003064
:100E4C00F1005608F3005508F2009B311B2380314A
:100E5C0071084101D6007008D500FF30C107FF3082
:100E6C00C23DFF30C407FF30C53D3C2F550856042A
:100E7C00031D412F422F082F4208803AA0008030DA
:100E8C002002031D4B2F0130410203184E2F4F2F10
:100E9C00082F502FFF304101CF07FF30D03D3E08C7
:100EAC003F04031D5A2F5B2F602F2B30AE000030F8
:100EBC00AF00652F2D30AE000030AF00652F2E082F
:100ECC00A0004F08203E86000230870020088100D9
:100EDC00FF30C407FF30C53DFF30CF07FF30D03D9A
:100EEC0040016C08BF3E4101A000FF3003180030E8
:100EFC00A100003021021A3003192002031C872F95
:100F0C00892F01308A2F0030A200A3012208B200E1
:100F1C002308B300A32F40016C084101A000A101DC
:100F2C002008F0002108F10098312220803171084E
:100F3C004101B3007008B200A32F32083304031D23
:100F4C00A82FA92FAE2F6530B0000030B100B32F01
:100F5C004530B0000030B100B32F3008A0004F086E
:100F6C00203E86000230870020088100FF30C40735
:100F7C00FF30C53D4F08203EF0000230F10057080D
:100F8C00203E9831A1208031CB2F20304101A00090
:100F9C0020084001A400410145084001A600410180
:100FAC0044084001A500410140089A31BE2280311D
:100FBC0040012508E9002408E800E42F080041015D
:100FCC00EE01EF0166308400013085000A30983163
:100FDC00032087314301A001A101A201A30120300C
:100FEC008400023085005030983103208731400155
:040FFC008831E3282D
:101008004001A300A101A2011D282008F900FA014E
:101018007908F0007A08F1007808FB007B08F200F4
:101028009A310622883101304001A1070030A23DE3
:101038001D2821082307F900790886000230870057
:101048000108FA007A08A0002008031D2C282D2882
:1010580009282E280800F8007808031934283528AC
:101068004928F31F3828392849287009FA007109D6
:10107800FB007209FC007309FD00FA0A0319FB0A58
:101088000319FC0A0319FD0A51287308FD007208A8
:10109800FC007108FB007008FA0073087204710400
:1010A8007004031D5828592863280030F3000030C5
:1010B800F2000030F1000030F000E228E22896301B
:1010C800F4007408F90074280130F4007408F90772
:1010D8000130FD36FC0CFB0CFA0C890B6D287428CA
:1010E800FE307D05031D79287A2868288F288F28E7
:1010F8000130F4007408F9070130FA070030FB3DAD
:101108000030FC3D0030FD3D0130FD36FC0CFB0C91
:10111800FA0C890B8928FF307D05031D9428952832
:101128007C28A128A1280130F9020130FA35FB0DED
:10113800FC0DFD0D890B9A28A128FC1BA428A528C5
:10114800AC28023079020318AA28AB289728AC28C3
:101158007918AF28B028B828FF30FA05FF30FB050A
:101168007F30FC05FF30FD050310F90C7908F40009
:10117800F501F601F7011830F435F50DF60DF70D08
:10118800890BC0287408FA047508FB047608FC0467
:101198007708FD0478080319D228D328D928F31F23
:1011A800D628D728D928FD17D9287D08F3007C0828
:1011B800F2007B08F1007A08F000E22808004201FA
:1011C800DE01DF01E001E101C001C10151011308A5
:1011D800F839063893007E01CE0140018C018D015B
:1011E8008F017E014314400112147E01381440011E
:1011F80011147E01D913400194137E015913400143
:1012080014134101931713161A12FC309A05130888
:10121800F3390438930009304101EC001E30EB002B
:10122800E430890B1529EB0B1529EC0B1529000067
:101238009E316626883101309C31822488310C30F9
:101248009C318224883105304101EC000F30EB00DD
:10125800F130890B2D29EB0B2D29EC0B2D29342985
:1012680041019E0103304101EC000830EB0077306A
:10127800890B3C29EB0B3C29EC0B3C29410113144D
:10128800452913184829492945294A290D08EB00F9
:10129800EC016B084201DE0041016C084201DF00ED
:1012A8005F084101EC0042015E084101EB006B0858
:1012B800EC00EB016B084201DE0041016C084201C1
:1012C800DF0041010C0842015E074101EB004201C9
:1012D8005F0803185F0A4101EC006B084201DE0059
:1012E80041016C084201DF0044304001BD007F30FD
:1012F800BC00C030BB000030BA004030A300A030B2
:10130800A2000030A1000030A00042015E08F000F9
:101318005F08F100890D893B8909F200F30001306B
:1013280088312F20883173084001A7007208A60071
:101338007108A5007008A400933123238831400167
:101348002308C1002208C0002108BF002008BE00F1
:1013580091314421883140013D084201D9004001C2
:101368003C084201D80040013B084201D700400137
:101378003A084201D60042304001A300C830A2001A
:101388000030A1000030A000420159084001A70028
:10139800420158084001A600420157084001A50033
:1013A800420156084001A4009331232388314001AB
:1013B80023084201DD00400122084201DC0040010F
:1013C80021084201DB00400120084201DA000C300C
:1013D800B100A030B2005D08B6005C08B5005B083B
:1013E800B4005A08B3004230993148218831F301DA
:1013F80042304101EB006B08F40001309931B7210C
:10140800883115304101EB00C630890B092AEB0BF6
:10141800092A00000D304101EC002D30EB00D730D7
:10142800890B142AEB0B142AEC0B142A003208300F
:1014380041019E0003304101EC000830EB00773099
:10144800890B242AEB0B242AEC0B242A41011314C0
:101458002D2A1318302A312A2D2A322A0D08EB009A
:10146800EC016B084201E00041016C084201E10017
:1014780061084101EC00420160084101EB006B0882
:10148800EC00EB016B084201E00041016C084201ED
:10149800E10041010C08420160074101EB004201F3
:1014A80061080318610A4101EC006B084201E00081
:1014B80041016C084201E10044304001BD007F3029
:1014C800BC00C030BB000030BA004030A300A030E0
:1014D800A2000030A1000030A00042016008F00026
:1014E8006108F100890D893B8909F200F300013098
:1014F80088312F20883173084001A7007208A600A0
:101508007108A5007008A400933123238831400195
:101518002308C1002208C0002108BF002008BE001F
:1015280091314421883140013D084201D9004001F0
:101538003C084201D80040013B084201D700400165
:101548003A084201D60042304001A300C830A20048
:101558000030A1000030A000420159084001A70056
:10156800420158084001A600420157084001A50061
:10157800420156084001A4009331232388314001D9
:1015880023084201E500400122084201E40040012D
:1015980021084201E300400120084201E200003036
:1015A800B100A030B2006508B6006408B500630851
:1015B800B4006208B3004230993148218831F30100
:1015C80042304101EB006B08F40002309931B72139
:1015D80088310D304101EC002D30EB00D730890BFC
:1015E800F32AEB0BF32AEC0BF32A003240304201CA
:1015F800D500A030D4000030D3000030D200550808
:10160800F7005408F6005308F5005208F40065087E
:10161800FB006408FA006308F9006208F8009531D5
:101628008E25883177084001BD007608BC00750812
:10163800BB007408BA0042015D084001C1004201C4
:101648005C084001C00042015B084001BF00420144
:101658005A084001BE009D31B82588310318352B42
:10166800362B3A2B4001191799133A2B0D304101AB
:10167800EC002D30EB00D730890B402BEB0B402BC7
:10168800EC0B402B003242015D084001BD004201D5
:101698005C084001BC0042015B084001BB004201FC
:1016A8005A084001BA0042016508F7006408F600CC
:1016B8006308F5006208F4005508F3005408F200C6
:1016C8005308F1005208F000803107208831730870
:1016D800FB007208FA007108F9007008F8009531EB
:1016E8008E25883177084001C1007608C00075084A
:1016F800BF007408BE009D31B82588310318852BBA
:10170800862B8A2B4001191399178A2B42016508E9
:101718004001BD00420164084001BC004201630869
:101728004001BB00420162084001BA004130C100DB
:10173800C830C0000030BF000030BE009D31B82561
:101748008831031CA82BA92BCA2B42304001BD00AD
:10175800A030BC000030BB000030BA004201650870
:101768004001C100420164084001C0004201630811
:101778004001BF00420162084001BE009D31B8250A
:1017880088310318C82BC92BEE2BCA2B2A304201EB
:10179800B100A030B20042309931482188310E3072
:1017A8004101EB006B08F3004230EC006C08F400D8
:1017B80002309931B72188310D304101EC002D30CC
:1017C800EB00D730890BE62BEB0BE62BEC0BE62B6B
:1017D8000032342926304201B100A030B200423034
:1017E8009931482188310E304101EB006B08F30034
:1017F8004230EC006C08F40002309931B72188318E
:101808000D304101EC002D30EB00D730890B0A2C4C
:10181800EB0B0A2CEC0B0A2C00323429342934291E
:10182800803102284201B00040016D08860087011E
:10183800403F4101DD00413FDE005D0884005E0855
:1018480085001200253A031D2A2C2B2CD42F400189
:101858006D08860087010130810741310318810A2C
:101868004201EC01ED014101EE01EF01FF304201BF
:10187800EE00FF30EF00A001A101A82C812C6E140E
:1018880040016D0886008701013081074131031846
:10189800810AA82CEE1440016D08860087010130EA
:1018A800810741310318810AA82C6E1540016D0883
:1018B800860087010130810741310318810AA82C6D
:1018C800EE1540016D08860087010130810741311E
:1018D8000318810AA82C6E1640016D08860087013E
:1018E8000130810741310318810AA82C01304201D7
:1018F800A0000030A100A82CA82C40016D0886008B
:101908008701403F4101DD00413FDE005D08840062
:101918005E0885000008DF00E0016008003A03194E
:10192800962C7A2C5F08203A0319642C033A031981
:101938006F2C083A0319592C063A0319432C1D3AFF
:1019480003194E2C7A2CA82C4201200821040319D3
:10195800AE2CAF2C812C41016E1CB32CB42CB92CAD
:10196800FD30EE05FF30EF05B92C40016D0886000B
:101978008701403F4101DD00413FDE005D088400F2
:101988005E08850012002A3A031DCB2CCC2CF22CC1
:1019980040016D0886008701013081074131031835
:1019A800810A6E0886000130870001088400013032
:1019B800850002308107003F4201EC00013FED0045
:1019C800ED1FE72CE82C5B2D41016E144201EC0958
:1019D800ED09EC0A0319ED0A5B2D5B2D40016D083A
:1019E80086008701403FF600413FF7009F311627E8
:1019F8008C3177084201ED007608EC000D2D40018E
:101A08006D08860087010130810741310318810A7A
:101A18000D2D40016D0886008701403F4101DD0022
:101A2800413FDE005D0884005E0885000008D03E66
:101A3800DF00FF3003180030E000003060020A3099
:101A480003195F02031C292D2B2D01302C2D00308A
:101A5800E100E20161084201A2004101620842017D
:101A6800A300532D40016D0886008701403F4101C6
:101A7800DD00413FDE005D0884005E088500000847
:101A8800DF00E0015F08F0006008F10098310920EC
:101A98008C3171084201A3007008A200532D22085E
:101AA8002304031D582D592D032D5B2D5B2D40015B
:101AB8006D0886008701403F4101DD00413FDE009F
:101AC8005D0884005E08850012002E3A031D6D2D06
:101AD8006E2D0F2E4201EE01EF0140016D088600C8
:101AE80087010130810741310318810A6D0886009A
:101AF8008701403F4101DD00413FDE005D08840071
:101B08005E08850012002A3A031D8B2D8C2DA52D09
:101B180040016D08860087010130810741310318B3
:101B2800810A6E08860001308700010884000130B0
:101B3800850002308107003F4201EE00013FEF00BF
:101B48000F2E40016D0886008701403FF600413F97
:101B5800F7009F3116278C3177084201EF0076088D
:101B6800EE00C02D40016D08860087010130810715
:101B780041310318810AC02D40016D088600870194
:101B8800403F4101DD00413FDE005D0884005E0802
:101B980085000008D03EDF00FF3003180030E00069
:101BA800003060020A3003195F02031CDC2DDE2DB1
:101BB8000130DF2D0030E100E20161084201A4009C
:101BC800410162084201A500062E40016D08860009
:101BD8008701403F4101DD00413FDE005D08840090
:101BE8005E0885000008DF00E0015F08F00060087B
:101BF800F100983109208C3171084201A500700864
:101C0800A400062E24082504031D0B2E0C2EB62D29
:101C18000F2E0F2E0F2E40016D0886008701403FC2
:101C28004101DD00413FDE005D0884005E0885005B
:101C38000008DF00E0015F08F6006008F70099314E
:101C480015218C3176084101E10061084201AC00A0
:101C58002C080319302E312E782E40016D0886008D
:101C68008701403F4101DD00413FDE0001305D0753
:101C780084005E0803185E0A85000008DF00E001A2
:101C88005F08F6006008F700993115218C31760855
:101C98004101E10061084201AD002D080319552EEC
:101CA800562E782E40016D0886008701403F41017D
:101CB800DD00413FDE0002305D0784005E08031846
:101CC8005E0A85000008DF00E0015F08F600600892
:101CD800F700993115218C3176084101E10061083E
:101CE8004201AE00782E782E66302C06031D7D2E1C
:101CF8007E2ECE2E40016D0886008701403F4101AF
:101D0800DD00413FDE005D0884005E0885000008B4
:101D1800DF005F084201AF0040016D0886008701BF
:101D28000130810741310318810A6E0886000130AD
:101D38008700010884000130850004308107003FD6
:101D48004201A800013FA900023FAA00033FAB00DF
:101D58002B084001EB0042012A084001EA00420139
:101D680029084001E900420128084001E800420131
:101D78002F084101DD005D084001EC0042013008F8
:101D8800803197208C3140016908EE006808ED0029
:101D9800FF2FFF2F2E30F000A030F1000230F200AC
:101DA8000030F3002C309B3184238C31700871048F
:101DB800031DDF2EE02E972F40016D088600870156
:101DC800403F4101DD00413FDE0001305D078400F6
:101DD8005E0803185E0A85000008DF005F084201FC
:101DE800AF0040016D0886008701403F4101DD00DA
:101DF800413FDE005D0884005E0885000008BF3EA4
:101E0800DF00FF3003180030E000003060021A30B5
:101E180003195F02031C112F132F0130142F0030F8
:101E2800E100E20161084201A600410162084201A5
:101E3800A7003B2F40016D0886008701403F410104
:101E4800DD00413FDE005D0884005E088500000873
:101E5800DF00E0015F08F0006008F10098312220FF
:101E68008C3171084201A7007008A6003B2F260894
:101E780027040319402F412F562F40016E08860072
:101E88000130870001088400013085000430810793
:101E9800003F4201A800013FA900023FAA00033FFA
:101EA800AB006B2F40016E088600013087000108E7
:101EB80084000130850004308107003F4201A800FA
:101EC800013FA900023FAA00033FAB006B2F40016E
:101ED8006D08860087010230810741310318810AA5
:101EE80042012B084001EB0042012A084001EA00A8
:101EF800420129084001E900420128084001E800A0
:101F080042012F084101DD005D084001EC0042015B
:101F18003008803197208C3140016908EE0068084C
:101F2800ED00FF2FFF2F40016D0886008701403F1D
:101F38004101DD00413FDE005D0884005E08850048
:101F48001200253A031DA92FAA2FC72F40016D089B
:101F5800860087010130810741310318810A253045
:101F6800F0000030F100420130084101DD005D0859
:101F7800F2009A3106228C3101304001ED00003028
:101F8800EE00FF2FFF2F40016D088600870101300A
:101F9800810741310318810AED01EE01FF2FFF2F60
:101FA80040016D0886008701403F4101DD00413F47
:101FB800DE005D0884005E0885000008DF00E0019F
:101FC8005F08F0006008F100420130084101E100BB
:101FD8006108F2009A3106228C3140016D088600B2
:101FE80087010130810741310318810A0130ED0072
:081FF8000030EE00FF2F08008D
:10200A0000307005F80000307105F9008030720563
:10201A00FA007F307305FB007B087A0479047804A0
:10202A00031D1828192821280030F3000030F20077
:10203A000030F1000030F00000307405F800003084
:10204A007505F90080307605FA007F307705FB00C8
:10205A007B087A0479047804031D342835283D283E
:10206A000030F7000030F6000030F5000030F400D0
:10207A0077087306031D4B2876087206031D4B2842
:10208A0075087106031D4B287408700603194E283B
:10209A004F285128031054280314542854280800A0
:1020AA00430123084001E700430122084001E600FA
:1020BA00430121084001E500430120084001E400F2
:1020CA005708E7005608E6005508E5005408E400FA
:1020DA006408D8006508D9006608DA006708DB00DA
:1020EA001730DB36DA0CD90CD80C890B7628FF307E
:1020FA005805DC0000305905DD005C08813EE2002D
:10210A00FF305D3DE3006308803AD8008030580212
:10211A00031D912817306202031C942895289628DB
:10212A0043294001E31B9A289B28F928FF30D8004D
:10213A00FF30D9007F30DA000030DB00620AA928BC
:10214A00DB37DA0CD90CD80C890BA5285B08E1001F
:10215A005A08E0005908DF005808DE0064085E05E6
:10216A00D80065085F05D90066086005DA006708C7
:10217A006105DB005B085A0459045804031DC6288C
:10218A00C728C82843296408D8006508D900660802
:10219A00DA006708DB001F30DB36DA0CD90CD80C02
:1021AA00890BD1285B085A04590458040319DE28FC
:1021BA00DF28E8285E08E4075F08E53D6008E63D99
:1021CA006108E73DE8285E09D8005F09D90060097F
:1021DA00DA006109DB005808E4055908E5055A08E0
:1021EA00E6055B08E7053A296408D8006508D900BE
:1021FA006608DA006708DB001F30DB36DA0CD90C18
:10220A00D80C890B02295B085A0459045804031D87
:10221A000F29102919290030E7000030E6000030A4
:10222A00E5000030E4003A296408D8006508D900BE
:10223A006608DA006708DB000130D835D90DDA0DF7
:10224A00DB0D890B22295B085A0459045804031927
:10225A002F2930293A29BF30E7008030E6000030C4
:10226A00E5000030E4003A293A296708D7006608F1
:10227A00D6006508D5006408D40043290800400147
:10228A0041088039C2004208CB004135C2004208E9
:10229A00D200C01F512952295429521454295208D4
:1022AA000319582959296A29520A031D5D295E29E9
:1022BA0067290030C1000030C0000030BF00003084
:1022CA00BE006729C017C10173290030C100003060
:1022DA00C0000030BF000030BE0073293D088039BD
:1022EA00C2004208CB063D35C2004208D300BC1FDB
:1022FA007F298029822953148229530803198629A0
:10230A0087299829530A031D8B298C29952900307E
:10231A00BD000030BC000030BB000030BA00952977
:10232A00BC17BD01A0290030BD000030BC00003040
:10233A00BB000030BA003D083C043B043A04031DCC
:10234A00A729A829C2290030C1000030C0000030E6
:10235A00BF000030BE008030C0047F30C1044B088B
:10236A00C2004208C1044108BD004008BC003F0841
:10237A00BB003E08BA00222B222B5208031DC62995
:10238A00C729D9290030C1000030C0000030BF0081
:10239A000030BE004108BD004008BC003F08BB0039
:1023AA003E08BA00222B222B5308C200C301C209DD
:1023BA00C309C20A0319C30A52084207C4004308E0
:1023CA000318430AC50044087F3ECC000030453D4F
:1023DA00CD004108CA004008C9003F08C8003E08AD
:1023EA00C7000030C1000030C0000030BF0000301C
:1023FA00BE000030D1000030D0000030CF000030E5
:10240A00CE00D3014A2A530803190C2A0D2A292A75
:10241A000130C735C80DC90DCA0D890B0E2A013006
:10242A00BE35BF0DC00DC10D890B152AD11F1E2A3D
:10243A001F2A212A3E14212A0130CE35CF0DD00D74
:10244A00D10D890B222A292A3D084A02031D372A5F
:10245A003C084902031D372A3B084802031D372A54
:10246A003A084702031C3A2A3B2A452A51173A08D6
:10247A00C7023B08C83B3C08C93B3D08CA3B452A42
:10248A000130C2004208D3074A2A1A305302031CF9
:10249A004F2A502A082A512A4A084904480447045C
:1024AA000319582A592A752A4E14752A752A013091
:1024BA00BE35BF0DC00DC10D890B5D2AD11F662A1D
:1024CA00672A692A3E14692A0130CE35CF0DD00D0C
:1024DA00D10D890B6A2AFF30CC07FF30CD3D752A12
:1024EA00C01F782A792A5C2A7A2AD301D11F7E2A28
:1024FA007F2A9F2AFF304E05C200FF304F05C300D6
:10250A00FF305005C4007F305105C500450844041A
:10251A00430442040319922A932A962AD301D30A1E
:10252A009F2A3E1C992A9A2A9F2AD301D30A9F2AB4
:10253A009F2A9F2A53080319A32AA42ACE2A0130C4
:10254A00BE070030BF3D0030C03D0030C13D411CD8
:10255A00AF2AB02ACE2A3E08C2003F08C30040086C
:10256A00C4004108C5000130C600C537C40CC30CFD
:10257A00C20CC60BBA2A4508C1004408C000430869
:10258A00BF004208BE000130CC070030CD3DCE2A44
:10259A00CE2A4D08803AC20080304202031DD72A53
:1025AA00FF304C02031CDA2ADB2AE82AFF304001FA
:1025BA00CC000030CD000030C1000030C000003037
:1025CA00BF000030BE0040014D08803AC200803092
:1025DA004202031DF22A01304C020318F52AF62A98
:1025EA00022B4001CC01CD010030C1000030C000F7
:1025FA000030BF000030BE00CB0140014C08C200D1
:10260A004208D200521C0A2B0B2B0D2BC017112B80
:10261A007F30C2004208C0055236C2004208C100DB
:10262A004B08C2004208C1044108BD004008BC0072
:10263A003F08BB003E08BA00222B080040012308CD
:10264A008039A8002808AD002335A8002808B3005F
:10265A00A21F302B312B332B3314332B330803199E
:10266A00372B382B482B330A031D3C2B3D2B462B8B
:10267A000030A3000030A2000030A1000030A0000A
:10268A00462BA217512B0030A3000030A2000030C5
:10269A00A1000030A000512B27088039A800280883
:1026AA00AD062735A8002808B200A61F5D2B5E2BB1
:1026BA00602B3214602B32080319642B652B752B9F
:1026CA00320A031D692B6A2B732B0030A7000030D6
:1026DA00A6000030A5000030A400732BA6177E2B9D
:1026EA000030A7000030A6000030A5000030A4008A
:1026FA007E2B32080319822B832B892B3308031D67
:10270A00872B882B932B892B0030A3000030A20043
:10271A000030A1000030A0008D2D8D2D2008A800CA
:10272A002808F00026089831C52093317108400125
:10273A00B9007008B8003808A800A901AA01AB01BD
:10274A002B08B1002A08B0002908AF002808AE00FB
:10275A003908A800A901AA01AB012B08B7002A0869
:10276A00B6002908B5002808B4002108A8002808DE
:10277A00F00025089831C520933171084001B9004D
:10278A007008B8003808A800A901AA01AB012808F6
:10279A00AE072908AF3D2A08B03D2B08B13D3908DC
:1027AA00A800A901AA01AB012808B4072908B53D68
:1027BA002A08B63D2B08B73D2208A8002808F000D1
:1027CA0024089831C520933171084001B900700876
:1027DA00B8003808A800A901AA01AB012808AE0769
:1027EA002908AF3D2A08B03D2B08B13D3908A80099
:1027FA00A901AA01AB012808B4072908B53D2A088E
:10280A00B63D2B08B73D0830AE35AF0DB00DB10D52
:10281A00890B092C2108A8002808F00024089831FF
:10282A00C520933171084001B9007008B800380812
:10283A00AE073908AF3D0030B03DB13D2008A800D1
:10284A002808F00025089831C52093317108400105
:10285A00B9007008B8003808AE073908AF3D003033
:10286A00B03DB13D0830AE35AF0DB00DB10D890B9D
:10287A00382C2008A8002808F00024089831C52020
:10288A00933171084001B9007008B8003808AE07E2
:10289A003908AF3D0030B03DB13D2108A8002808F5
:1028AA00F00026089831C520933171084001B9001B
:1028BA007008B8003808B4073908B53D0030B63D8D
:1028CA00B73D2208A8002808F00025089831C5203D
:1028DA00933171084001B9007008B8003808B4078C
:1028EA003908B53D0030B63DB73D2208A800280892
:1028FA00F00026089831C520933171084001B900CB
:10290A007008B8003808A8003908A900AA01AB0164
:10291A000830A835A90DAA0DAB0D890B8E2C2808F5
:10292A00B4072908B53D2A08B63D2B08B73D2E083D
:10293A00A8002F08A9003008AA003108AB001830F7
:10294A00AB36AA0CA90CA80C890BA52C2808B4072D
:10295A002908B53D2A08B63D2B08B73D0830AE35E3
:10296A00AF0DB00DB10D890BB42C33083207A80096
:10297A00A901A90D2808823EB800FF30293DB900F7
:10298A00DF2C0130B435B50DB60DB70D890BC72C48
:10299A00B11FD02CD12CD32C3414D32C0130AE350A
:1029AA00AF0DB00DB10D890BD42CFF30B807FF3035
:1029BA00B93DDF2CB61FE22CE32CC62CE42CB20165
:1029CA00B11FE82CE92C092DFF302E05A800FF3095
:1029DA002F05A900FF303005AA007F303105AB0072
:1029EA002B082A04290428040319FC2CFD2C002D89
:1029FA00B201B20A092D341C032D042D092DB2018E
:102A0A00B20A092D092D092D320803190D2D0E2D93
:102A1A00382D0130B4070030B53D0030B63D0030E6
:102A2A00B73D371C192D1A2D382D3408A800350842
:102A3A00A9003608AA003708AB000130AC00AB3752
:102A4A00AA0CA90CA80CAC0B242D2B08B7002A0839
:102A5A00B6002908B5002808B4000130B8070030CC
:102A6A00B93D382D382D3908803AA800803028021F
:102A7A00031D412DFF303802031C442D452D4F2DD7
:102A8A007F304001B7008030B6000030B50000301A
:102A9A00B400802D40013908803AA800803028020D
:102AAA00031D592D0130380203185C2D5D2D682D48
:102ABA0000304001B7000030B6000030B5000030E9
:102ACA00B400AD01802D40013808A8002808B300E1
:102ADA00FF30B405FF30B5057F30B6050030B705C5
:102AEA00331C782D792D7B2DB6177B2D3336A80014
:102AFA002808B700802D2D08A8002808B704370831
:102B0A00A3003608A2003508A1003408A0008D2DC4
:102B1A000800770880394001A0002008AC0077350A
:102B2A00A0002008AE00F61F9B2D9C2D9E2D2E1472
:102B3A009E2D2E080319A22DA32DB42D2E0A031D96
:102B4A00A72DA82DB12D0030F7000030F600003077
:102B5A00F5000030F400B12DF617F701BD2D003055
:102B6A00F7000030F6000030F5000030F400BD2D0B
:102B7A007B088039A0002008AD002D082C06031917
:102B8A00C72DC82DCA2D2C17CA2D7B35A0002008A9
:102B9A00AD00FA1FD12DD22DD42D2D14D42D2D08F0
:102BAA000319D82DD92DEA2D2D0A031DDD2DDE2D71
:102BBA00E72D0030FB000030FA000030F900003049
:102BCA00F800E72DFA17FB01F22D0030FB00003068
:102BDA00FA000030F9000030F8002E082D02031820
:102BEA00F72DF82D3E2E2C1FFB2DFC2D012E8030AB
:102BFA00A0002008AC06012E2E08A0002008AF0075
:102C0A002D08A0002008AE002F08A0002008AD0063
:102C1A007408A0002008AF007808A0002008F4007B
:102C2A002F08A0002008F8007508A0002008AF00AF
:102C3A007908A0002008F5002F08A0002008F90054
:102C4A007608A0002008AF007A08A0002008F60045
:102C5A002F08A0002008FA007708A0002008AF007B
:102C6A007B08A0002008F7002F08A0002008FB001E
:102C7A003E2EAF012E08A000A101A009A109A00AB9
:102C8A000319A10A2D082007A20021080318210A06
:102C9A00A3002308803AA40080302402031D572E83
:102CAA001A302202031C5A2E5B2E972E77087604BE
:102CBA0075047404031D622E642E0130652E0030E3
:102CCA004001A0002008AF000030F7000030F600F5
:102CDA000030F5000030F4002D08A0002008AE00F6
:102CEA009F2E972E2F1C7A2E7B2E812E2F3601385F
:102CFA00A0002008AF00842E0310AF0C842E741C91
:102D0A00872E882E8A2EAF178A2E0130A000F73719
:102D1A00F60CF50CF40CA00B8C2E0130A000200848
:102D2A00AE07972E40012D082E02031C9D2E9E2EC3
:102D3A00772E9F2E2C1BA22EA32EDF2E2E08031DCC
:102D4A00A72EA82EB22E0030F7000030F600003071
:102D5A00F5000030F400FF2FFF2F7808F4077908F8
:102D6A00F53D7A08F63D7B08F73D771CBD2EBE2E51
:102D7A00862F2F1CC12EC22EC82E2F360138A00036
:102D8A002008AF00CB2E0310AF0CCB2E741CCE2E16
:102D9A00CF2ED12EAF17D12E0130A000F737F60C67
:102DAA00F50CF40CA00BD32E0130A0002008AE07BE
:102DBA00862F862F7708803AA0007B08803A200267
:102DCA00031DF12E7A087602031DF12E7908750289
:102DDA00031DF12E780874020318F42EF52E412FE4
:102DEA00FF30A000FF30A100FF30A200FF30A30097
:102DFA007808A4007908A5007A08A6007B08A7002D
:102E0A007409A8007509A9007609AA007709AB0018
:102E1A00A80A0319A90A0319AA0A0319AB0A280856
:102E2A00A4072908A53D2A08A63D2B08A73D240882
:102E3A00A0072508A13D2608A23D2708A33D23088F
:102E4A00F7002208F6002108F5002008F400803077
:102E5A00A0002008AC06AF09AF0A2F08031D362FC1
:102E6A00372F492F0130F4070030F53D0030F63D89
:102E7A000030F73D492F492F7808F4027908F53BCD
:102E8A007A08F63B7B08F73B7708760475047404E6
:102E9A00031D502F512F802F2F08031D552F562FFA
:102EAA00802F0030F7000030F6000030F5000030C7
:102EBA00F400FF2FFF2F802F0130F435F50DF60DAA
:102ECA00F70D890B622FAF1F6B2F6C2F6D2F7414A8
:102EDA002F1C702F712F742F0314AF0D772F03102F
:102EEA00AF0D772F2E0803197B2F7C2F802F0130EF
:102EFA00AE02802F802FF61F832F842F612F862FFB
:102F0A00862FAD01AF1F8A2F8B2F9D2F2F087F3958
:102F1A000319902F912F942FAD01AD0A9D2F741C88
:102F2A00972F982F9D2FAD01AD0A9D2F9D2F9D2F75
:102F3A002D080319A12FA22FD12F0130F407003039
:102F4A00F53D0030F63D0030F73D771CAD2FAE2F32
:102F5A00D12F7408A0007508A1007608A20077088E
:102F6A00A3000130A400A337A20CA10CA00CA40B4F
:102F7A00B82F2308F7002208F6002108F5002008D8
:102F8A00F4002E0A0319CA2FCB2FD12F0130A0002B
:102F9A002008AE07D12FD12F2E0A0319D52FD62FED
:102FAA00DC2F2E08031DDA2FDB2FEC2FDC2F00304D
:102FBA00F7000030F6000030F5000030F4002E086B
:102FCA00031DE82FE92FEC2FAC01EC2FEC2F2E1C60
:102FDA00EF2FF02FF22FF617F62F7F30A0002008E0
:102FEA00F6052E36A0002008F700AC1FFD2FFE2F95
:062FFA00FF2FF71708008D
:10300600640080010131890B042800347008D03E29
:10301600F200FF30713DF300003073020A300319ED
:103026007202031C1728192801301A280030F400F0
:10303600F5017408F0007508F100212808007008F1
:10304600BF3EF200FF30713DF300003073021A30CC
:1030560003197202031C302832280130332800304D
:10306600F400F5017408F0007508F1003A2808002C
:1030760080304001BD064108F7004008F6003F08D1
:10308600F5003E08F4003D08FB003C08FA003B084A
:10309600F9003A08F80095318E25983177084001F5
:1030A600BD007608BC007508BB007408BA005B2832
:1030B6000800F401F5015F28701C62286328672860
:1030C6007208F4077308F53D0130F235F30D890BEC
:1030D60068280130F136F00C890B6D2870087104F0
:1030E600031D762877285F2878287508F10074086C
:1030F600F0007D280800F401F40A203070067104FF
:1031060003198628872898287008F73EF200FF30B2
:10311600713DF30000307302053003197202031C7F
:10312600952896289828F40198287408F200F30147
:103136007208F0007308F100A0280800F700710873
:10314600F5007008F4007708F2007208F600AC2863
:10315600AC287608860002308700F60A7508F30068
:103166007408F200F40A0319F50A72088400730859
:1031760085000008C03F8908031DC228C328AC2863
:10318600C4280800F800F401F5017008F200F30104
:103196007208F6007308F700D028781CD328D428C4
:1031A600D8287608F4077708F53D0130F635F70D8F
:1031B600890BD9280310F80C7808031DE328E428A6
:1031C600D028E5287508F1007408F000EA28080000
:1031D600F7007708F2007208F600F6280130F200D0
:1031E6007208F707F628770886000230870001087C
:1031F600031DFE28FF28F12800297608F200023078
:10320600F300F209F309F20A0319F30A7708F40046
:103216000230F50072087407F0007308753DF1007E
:10322600142908007608BF3EF800FF30773DF90004
:10323600003079021A3003197802031C2329252944
:10324600013026290030FA00FB017A08FC007B08D1
:10325600FD0039297708F1007608F0009831222020
:1032660099317108FD007008FC0039297C087D043D
:1032760003193E293F29472920307604F6000030FD
:103286007704F7004729472908004201B90033307F
:103296004001EF006F084201BA0039084001EF0013
:1032A6006F084201BB00BC01BD01BE01BF0132086F
:1032B6004101E400420131084101E3003A30400196
:1032C600EF006F084101E5003B3099317E219931CD
:1032D600410164084201B800410163084201B70098
:1032E6003C0839074001EF006F088600013087006F
:1032F60081017D2908004101E8006408EA006308AD
:10330600E9004201EA01EB01A229E9304101E600A8
:1033160066084001ED0041016508E70067084001C5
:10332600EE00410168088C311624993140016D0880
:103336004201EA0740016E084201EB3DA229410124
:10334600690884006A0885001200031DAB29AC29B0
:103356008829AD2942016B084101E40042016A084F
:103366004101E300B6290800F700D3297308803E1F
:10337600F5007508F800E9297308C03EF5007508E0
:10338600F800E9297308943EF5007508F800E92964
:103396007308D43EF5007508F800E929E929E929FA
:1033A6007708F500F6017608003A0319DB29E929C2
:1033B6007508013A0319B929033A0319BF29013AD5
:1033C6000319C529073A0319CB29E92978089C313D
:1033D60082249931FB297408860001308700010890
:1033E6009D311B2599310130F5007508F407FB293D
:1033F60074088600013087000108031D032A042A89
:10340600EE29052A0800720803190A2A0B2A112A2E
:103416007208031D0F2A102A162A112A70088031F5
:1034260006209A31602A7208033E86000130870022
:10343600160001040319202A212A412A7208033E94
:10344600860001308700403FF300413FF400720AD6
:10345600860001308700403FF500413FF6007608C0
:10346600803AF7007408803A7702031D3C2A7308F5
:10347600750203183F2A402A602A412A7008F30081
:103486007208860001308700720A840001308500C8
:1034960000080107F40074088600013087007308ED
:1034A6008100720A860001308700013081074131B0
:1034B6000318810A602A602A602A0800F601F31FB1
:1034C600652A662A6E2AF209F309F20A0319F30A33
:1034D600F601F60A6E2AF11F712A722A782AF00975
:1034E600F109F00A0319F10A782A70087104031920
:1034F6007D2A7E2AAD2AF501F50A8B2A0130F035A0
:10350600F10D890B822A0130F4007408F5078B2A25
:10351600F11F8E2A8F2A812A912A912A7108730215
:10352600031D972A70087202031C9A2A9B2AA02A56
:103536007008F2027108F33BA02A0130F136F00C54
:10354600890BA12A0130F502031DAA2AAB2A912A6A
:10355600AD2AAD2A76080319B12AB22AB82AF20989
:10356600F309F20A0319F30AB82A7308F10072087C
:10357600F000BD2A08004001AB0041016E1CC42AC0
:10358600C52ACF2A40012B08FC007C08F800240835
:10359600883104209A31CF2A4001A61BD32AD42A87
:1035A600D92A2608AA002508A900DB2AA901AA010A
:1035B600A701A801F02A2030F0000030F1004001F8
:1035C6002B08FC007C08F2009A3106229A31013061
:1035D6004001A7070030A83DF02A2808803AFC00E1
:1035E6002A08803A7C02031DFA2A29082702031CAE
:1035F600FD2AFE2ADE2A41016E18022B032B0D2B13
:1036060040012B08FC007C08F800240888310420BF
:103616009A310D2B400124089831EB209A31400154
:1036260029087007A4002A08713DA5001A2B080076
:10363600F601F11F1F2B202B282BF009F109F00AA8
:103646000319F10AF601F60A282BF31F2B2B2C2B54
:10365600362BF209F309F20A0319F30A0130F400D2
:103666007408F606362BF701F80170087104031981
:103676003D2B3E2B732BF501F50A4B2B0130F03514
:10368600F10D890B422B0130F4007408F5074B2B22
:10369600F11F4E2B4F2B412B512B512B0130F73560
:1036A600F80D890B522B71087302031D5C2B7008F1
:1036B6007202031C5F2B602B662B7008F2027108E6
:1036C600F33B7714662B0130F136F00C890B672B30
:1036D6000130F502031D702B712B512B732B732BAD
:1036E60076080319772B782B7E2BF709F809F70A4A
:1036F6000319F80A7E2B7808F1007708F000832B6F
:103706000800F6007608F4007408F9007108F8005D
:103716007008F7000130F2020030F33B720A031D15
:10372600982B730A031D982B992BAB2BF001F101F3
:10373600ED2BED2BAB2B0130F4007408F9070130AB
:10374600F7070030F83D0130F2020030F33BAB2BB7
:10375600790886000130870001080319B32BB42BC2
:10376600D52B770884007808850012000319BC2B36
:10377600BD2BD52B720873040319C22BC32BD52B73
:1037860077088400780885000008F4007908860028
:1037960001308700010874060319D22BD32B9E2B08
:1037A600D52BD52B77088400780885000008F4000F
:1037B600F501F409F509F40A0319F50A79088600F2
:1037C6000130870001087407F00075080318750AB0
:1037D600F100ED2B08007008F4007108F50072087E
:1037E600F6007308F7000310760D770DF8007808D9
:1037F600FA007A08031D002C012C0B2C0030F30074
:103806000030F2000030F1000030F000812C812CF5
:103816007008F4007108F5007208F6007308F700E6
:103826001F30F736F60CF50CF40C890B142C7408C3
:10383600F8007808F900F217FF30F005FF30F105BF
:10384600FF30F2050030F3059630FA02FA1F2C2CF1
:103856002D2C502C7A08803A973E0318332C342CA2
:103866003F2C0030F3000030F2000030F100003051
:10387600F000812C812C3F2C0130F336F20CF10C38
:10388600F00C890B402C0130F4007408FA07031D74
:103896004D2C4E2C3F2C712C712C20307A02031C9F
:1038A600552C562C6A2C0030F3000030F200003004
:1038B600F1000030F000812C812C6A2C0130F035AB
:1038C600F10DF20DF30D890B622C0130FA027A0824
:1038D600031D6E2C6F2C612C712C712C7908031929
:1038E600752C762C812CF009F109F209F309F00AFE
:1038F6000319F10A0319F20A0319F30A0800F20080
:1039060040018E100E107208F0000730F036890B59
:10391600892C70080139F100F10CF10C0E087106C2
:103926007F3971068E007208F0000630F036890B7A
:10393600992C70080139F100F10EF10DF10D0E0808
:103946007106BF3971068E007208F0000530F03638
:10395600890BAA2C70080139F100F10EF10D0E0841
:103966007106DF3971068E007208F0000430F036F9
:10397600890BBA2C70080139F100F10E0E08710698
:10398600EF3971068E000330890BC72C0000400109
:103996008E140D30890BCD2C000040018E1072085C
:1039A600F0000330F036890BD52C70080139F10090
:1039B600F10CF10C0E0871067F3971068E00720843
:1039C600F0000230F036890BE52C70080139F10061
:1039D600F10EF10DF10D0E087106BF3971068E005C
:1039E60072360139F000F00EF00D0E087006DF3960
:1039F60070068E0072080139F000F00E0E0870068F
:103A0600EF3970068E000330890B072D0000400148
:103A16008E140D30890B0D2D000040018E103A30AA
:103A2600F0002330890B152DF00B152D0000080032
:103A3600F20040018E100E147208F0000730F036C6
:103A4600890B222D70080139F100F10CF10C0E08DA
:103A560071067F3971068E007208F0000630F03666
:103A6600890B322D70080139F100F10EF10DF10DBF
:103A76000E087106BF3971068E007208F000053017
:103A8600F036890B432D70080139F100F10EF10D66
:103A96000E087106DF3971068E007208F0000430D8
:103AA600F036890B532D70080139F100F10E0E081E
:103AB6007106EF3971068E000330890B602D000008
:103AC60040018E140D30890B662D000040018E10CA
:103AD6007208F0000330F036890B6E2D700801393C
:103AE600F100F10CF10C0E0871067F3971068E009B
:103AF6007208F0000230F036890B7E2D700801390D
:103B0600F100F10EF10DF10D0E087106BF397106C7
:103B16008E0072360139F000F00EF00D0E087006B8
:103B2600DF3970068E0072080139F000F00E0E08BB
:103B36007006EF3970068E000330890BA02D000049
:103B460040018E140D30890BA62D000040018E1009
:103B56000D30890BAC2D00003A30F0002330890B74
:103B6600B22DF00BB22D00000800003040013A05DE
:103B7600C20000303B05C30080303C05C4007F30E6
:103B86003D05C5004508440443044204031DCC2DED
:103B9600CD2DD52D0030BD000030BC000030BB005F
:103BA6000030BA0000303E05C20000303F05C300B9
:103BB60080304005C4007F304105C50045084404F7
:103BC60043044204031DE82DE92DF22D0030C10007
:103BD6000030C0000030BF000030BE00F22DBD1F17
:103BE600F52DF62D1E2E0030C2000030C300003029
:103BF600C4008030C5003A09C6003B09C7003C092D
:103C0600C8003D09C900C60A0319C70A0319C80A2C
:103C16000319C90A4608C2074708C33D4808C43DF8
:103C26004908C53D4508BD004408BC004308BB0023
:103C36004208BA001E2EC11F212E222E4A2E003007
:103C4600C2000030C3000030C4008030C5003E0909
:103C5600C6003F09C7004009C8004109C900C60A95
:103C66000319C70A0319C80A0319C90A4608C2076D
:103C76004708C33D4808C43D4908C53D4508C1003D
:103C86004408C0004308BF004208BE004A2E8030E8
:103C9600BD068030C10641083D02031D5C2E40086A
:103CA6003C02031D5C2E3F083B02031D5C2E3E08B2
:103CB6003A0203185F2E602E622E0310652E03143F
:103CC600652E652E080040019313131393121312E9
:103CD600931013108E130E138E120E128E100E10DA
:103CE6003A30F3002330890B762EF30B762E000044
:103CF6003A30F3002330890B7E2EF30B7E2E000024
:103D06003A30F3002330890B862EF30B862E000003
:103D16003A30F3002330890B8E2EF30B8E2E0000E3
:103D26003A30F3002330890B962EF30B962E0000C3
:103D36003A30F3002330890B9E2EF30B9E2E0000A3
:103D4600F401F40A04307402031CAA2EAB2EAD2E25
:103D5600D72ED72E40018E130E138E160E168E10EA
:103D66000E108E130E138E160E168E140E100D30A8
:103D7600890BBB2E000040018E130E138E160E16F5
:103D86008E100E103A30F3002330890BC82EF30B39
:103D9600C82E00000130F3007308F40704307402E3
:103DA600031CD62ED72EAD2E40018E130E138E1663
:103DB6000E128E100E108E130E138E160E128E14F9
:103DC6000E100D30890BE52E000040018E130E13E8
:103DD6008E160E128E100E103A30F3002330890B19
:103DE600F22EF30BF22E00002830F3007308F400D5
:103DF60074089C3182249E311030F3007308F4005D
:103E060074089C3182249E31F401F40A74089C31B2
:103E160082249E310F30F3007308F40074089C313D
:103E260082249E3108004001A701A801A001A1013A
:103E3600212F0130F6070030F73D212FA601A60AF3
:103E460076088400770885001200203A03192C2F83
:103E56002D2F432F76088400770885000008F73E4B
:103E6600F800FF3003180030F90000307902053001
:103E760003197802031C402F412F432FA601432F1D
:103E86002608F800F9017808A2007908A3005F2F38
:103E960076088400770885000008F800F90178089C
:103EA600F0007908F10098317E209F3171084001B9
:103EB600A3007008A2005F2F22082304031D642FAD
:103EC600652F1C2F712F712F01304001A00000308B
:103ED600A1000130F6070030F73DAE2F76088400CA
:103EE600770885000008F800F9017908003A0319F7
:103EF6007D2FAE2F78082B3A03196C2F063A03193B
:103F0600672FAE2FAE2F760884007708850000084D
:103F1600D03EF800FF3003180030F900F809F9091F
:103F2600F80A0319F90A40012808F1002708F000E9
:103F36000A30F2000030F30098315C209F31780897
:103F460070074001A7007908713DA8000130F60707
:103F56000030F73DAE2F760884007708850000080C
:103F6600D03EF800FF3003180030F9000030790227
:103F76000A3003197802031CC12FC32F0130C42F46
:103F86000030FA00FB017A084001A4007B08A50076
:103F9600E02F76088400770885000008F800F9010C
:103FA6007808F0007908F100983109209F317108EE
:103FB6004001A5007008A400E02F24082504031D75
:103FC600E52FE62F862FE72F20082104031DEC2F6F
:103FD600ED2FF92F2709F8002809F900F80A031927
:103FE600F90A7808F6007908F700FF2F2808F70085
:103FF6002708F600FF2FFF2F08004C346D343D34A0
:104006002534303434342E34323466342034433458
:1040160000345234653466343D34253430342E341D
:1040260032346634003449344E34463400344E3427
:1040360041344E34003469346E34663400346E34A0
:1040460061346E34003420342034203400344F344C
:0C4056005534543400346C3466340034AB
:020000040001F9
:0A000E008C3FFD3F9F3FFF3FFF3F87
:00000001FF
