:020000040000FA
:040000008631692EAE
:100008007E14803141012B08A9002A08A8007B082A
:100018007C04031D102811281B2845303E063F0488
:10002800031D172818281B28E301E4011B287B035C
:100038007C04031D202821282B2845303E063F0438
:10004800031D272828282B28E301E4012B28023048
:100058007B067C04031D312832283C2845303E06A7
:100068003F04031D382839283C28E301E4013C28D3
:1000780003307B067C04031D422843284D28453065
:100088003E063F04031D49284A284D28E301E401A0
:100098004D287E013F1C5128522875287B087C0476
:1000A800031D57285828752840016E08013EEE00A8
:1000B80000306F3DEF001530FA004B30F900BE30CC
:1000C800890B6428F90B6428FA0B64280032013084
:1000D8004101BA000030BB007E013F104E010C12F6
:1000E80075287E01BF1C79287A289D287B087C0406
:1000F800031D7F2880289D2840016E08013EEE00E0
:1001080000306F3DEF001530FA004B30F900BE307B
:10011800890B8C28F90B8C28FA0B8C2800320230BA
:100128004101BA000030BB007E01BF104E010C1225
:100138009D287E013F1DA128A228C5287B087C0494
:10014800031DA728A828C52840016E08013EEE0017
:1001580000306F3DEF001530FA004B30F900BE302B
:10016800890BB428F90BB428FA0BB42800320330F1
:100178004101BA000030BB007E013F114E010C1254
:10018800C5287E01BF1DC928CA28EB287B087C0426
:10019800031DCF28D028EB281530FA004B30F90082
:1001A800BE30890BD528F90BD528FA0BD528003293
:1001B800BC304101B8000130B9007E01BF114E01C9
:1001C8000C12BC304101AA000130AB00EB287E01C3
:1001D8003F1CEF28F02813297B037C04031DF52816
:1001E800F628132940016E08013EEE0000306F3DED
:1001F800EF001530FA004B30F900BE30890B0229A8
:10020800F90B0229FA0B0229003204304101BA0025
:100218000030BB007E013F104E010C1213297E01F5
:10022800BF1C172918293B297B037C04031D1D29A2
:100238001E293B2940016E08013EEE0000306F3D4B
:10024800EF001530FA004B30F900BE30890B2A292F
:10025800F90B2A29FA0B2A29003205304101BA0084
:100268000030BB007E01BF104E010C123B297E01FD
:100278003F1D3F29402963297B037C04031D452931
:100288004629632940016E08013EEE0000306F3DAB
:10029800EF001530FA004B30F900BE30890B5229B7
:1002A800F90B5229FA0B5229003206304101BA00E3
:1002B8000030BB007E013F114E010C1263297E0104
:1002C800BF1D6729682989297B037C04031D6D29C3
:1002D8006E2989291530FA004B30F900BE30890B98
:1002E8007329F90B7329FA0B732900322B3041015A
:1002F800B8000230B9007E01BF114E010C122B303C
:100308004101AA000230AB0089297E013F1C8D29DA
:100318008E29B22902307B067C04031D9429952975
:10032800B22940016E08013EEE0000306F3DEF003B
:100338001530FA004B30F900BE30890BA129F90BB2
:10034800A129FA0BA129003207304101BA00003077
:10035800BB007E013F104E010C12B2297E01BF1C6A
:10036800B629B729DB2902307B067C04031DBD2989
:10037800BE29DB2940016E08013EEE0000306F3DCA
:10038800EF001530FA004B30F900BE30890BCA294E
:10039800F90BCA29FA0BCA29003208304101BA0000
:1003A8000030BB007E01BF104E010C12DB297E011C
:1003B8003F1DDF29E029042A02307B067C04031D47
:1003C800E629E729042A40016E08013EEE000030C4
:1003D8006F3DEF001530FA004B30F900BE30890B45
:1003E800F329F90BF329FA0BF329003209304101FB
:1003F800BA000030BB007E013F114E010C12042AE6
:100408007E01BF1D082A092A2B2A02307B067C049C
:10041800031D0F2A102A2B2A1530FA004B30F90039
:10042800BE30890B152AF90B152AFA0B152A00324A
:100438009A304101B8000230B9007E01BF114E0167
:100448000C129A304101AA000230AB002B2A7E011F
:100458003F1C2F2A302A522A03307B067C04031DB6
:10046800362A372A522A40016E08013EEE00003033
:100478006F3DEF001530FA004B30F900BE30890BA4
:10048800432AF90B432AFA0B432A00324101BA01E5
:10049800BB017E013F104E010C12522A7E01BF1C87
:1004A800562A572A742A03307B067C04031D5D2ACA
:1004B8005E2A742A1530FA004B30F900BE30890BD9
:1004C800632AF90B632AFA0B632A00327830410158
:1004D800B8000330B9007E01BF104E010C12742A17
:1004E8007E013F1D782A792A962A03307B067C04F0
:1004F800031D7F2A802A962A1530FA004B30F9000E
:10050800BE30890B852AF90B852AFA0B852A003219
:10051800DE304101B8000030B9007E013F114E01C4
:100528000C12962A7E01BF1D9A2A9B2ABD2A0330E7
:100538007B067C04031DA12AA22ABD2A1530FA00D5
:100548004B30F900BE30890BA72AF90BA72AFA0B02
:10055800A72A00326F304101B8000030B9007E018F
:10056800BF114E010C126F304101AA000030AB00E0
:10057800BD2A783041013806033003193906031DB6
:10058800C62AC72ACA2AE301E401CA2A6F30280604
:100598002904031DD02AD12AEB2A2B303806023031
:1005A80003193906031DD92ADA2AEB2A30082E073F
:1005B800AE0031082F3DAF004001EE01EF014101CF
:1005C800B801B9010130BC000030BD00EB2A6F3022
:1005D80028062904031DF12AF22A0C2BBC30380600
:1005E800031DFA2A3903031DFA2AFB2A0C2B3008AB
:1005F8002E07AE0031082F3DAF004001EE01EF019C
:100608004101B801B9010130BC000030BD000C2B1C
:100618006F3028062904031D122B132B2D2B9A301B
:100628003806023003193906031D1B2B1C2B2D2BF2
:1006380030082E07AE0031082F3DAF004001EE0113
:10064800EF014101B801B9010130BC000030BD0023
:100658002D2B9A302806023003192906031D352B45
:10066800362B552B6F3038063904031D3C2B3D2B98
:10067800552B3009F9003109FA00F90A0319FA0A69
:100688002E087907AE002F087A3DAF004001EE0131
:10069800EF014101B801B9010130BC000030BD00D3
:1006A800552B9A302806023003192906031D5D2BA5
:1006B8005E2B7F2B2B303806023003193906031DB9
:1006C800662B672B7F2B3009F9003109FA00F90AEC
:1006D8000319FA0A2E087907AE002F087A3DAF00F1
:1006E8004001EE01EF014101B801B9010130BC0040
:1006F8000030BD007F2B9A302806023003192906E6
:10070800031D872B882BA92BBC303806031D902B83
:100718003903031D902B912BA92B3009F9003109BE
:10072800FA00F90A0319FA0A2E087907AE002F0809
:100738007A3DAF004001EE01EF014101B801B90176
:100748000130BC000030BD00A92B2B302806023038
:1007580003192906031DB12BB22BD42B6F30380691
:100768003904031DB82BB92BD42B2F08F1002E0800
:10077800F0003108F3003008F20096316426803129
:1007880071084101AF007008AE004001EE01EF01B1
:100798004101B801B9010130BC000030BD00D42BC3
:1007A8002B302806023003192906031DDC2BDD2B0C
:1007B800012C9A303806023003193906031DE52B3F
:1007C800E62B012C2F08F1002E08F0003108F30069
:1007D8003008F20096316426803171084101AF007B
:1007E8007008AE004001EE01EF014101B801B90106
:1007F8000130BC000030BD00012C2B30280602302F
:1008080003192906031D092C0A2C2E2CBC30380686
:10081800031D122C3903031D122C132C2E2C2F0808
:10082800F1002E08F0003108F3003008F20096318C
:100838006426803171084101AF007008AE004001A4
:10084800EE01EF014101B801B9010130BC000030EF
:10085800BD002E2CBC302806031D362C2903031D91
:10086800362C372C5B2C2B3038060230031939060E
:10087800031D3F2C402C5B2C3108F1003008F000A0
:100888002F08F3002E08F2008831B8208031710853
:100898004101AF007008AE004001EE01EF014101D7
:1008A800B801B9010130BC000030BD005B2CBC3080
:1008B8002806031D632C2903031D632C642C882C34
:1008C8009A303806023003193906031D6C2C6D2C3A
:1008D800882C3108F1003008F0002F08F3002E08AA
:1008E800F2008831B820803171084101AF007008EA
:1008F800AE004001EE01EF014101B801B90101303C
:10090800BC000030BD00882CBC302806031D902C8C
:100918002903031D902C912CB32C6F303806390411
:10092800031D972C982CB32C3108F1003008F000E7
:100938002F08F3002E08F2008831B82080317108A2
:100948004101AF007008AE004001EE01EF01410126
:10095800B801B9010130BC000030BD00B32CBC3077
:100968003806031DBB2C3903031DBB2CBC2CDD2C06
:100978003C033D04031DC12CC22CDD2C3108F100C1
:100988003008F0002F08F3002E08F2008831B82054
:10099800803171084101AF007008AE004001EE01DE
:1009A800EF0101304101BC000030BD00B801B901C0
:1009B800DD2CBC303806031DE52C3903031DE52C5E
:1009C800E62CF52C3108AF003008AE004001EE01EE
:1009D800EF0101304101BC000030BD00B801B90190
:1009E800F52C2B303806023003193906031DFD2C6F
:1009F800FE2C1F2D3C033D04031D032D042D1F2D2C
:100A08002F08F1002E08F0003108F3003008F2003A
:100A180096316426803171084101AF007008AE003C
:100A28004001EE01EF0101304101BC000030BD0082
:100A3800B801B9011F2D2B303806023003193906C9
:100A4800031D272D282D372D3108AF003008AE00A3
:100A58004001EE01EF0101304101BC000030BD0052
:100A6800B801B901372D9A30380602300319390612
:100A7800031D3F2D402D5E2D3C033D04031D452DD8
:100A8800462D5E2D3009F9003109FA00F90A0319DB
:100A9800FA0A2E087907AE002F087A3DAF00400108
:100AA800EE01EF0101304101BC000030BD00B8018A
:100AB800B9015E2D9A303806023003193906031D34
:100AC800662D672D762D3108AF003008AE00400145
:100AD800EE01EF0101304101BC000030BD00B8015A
:100AE800B901762D6F3038063904031D7C2D7D2D14
:100AF800892D30082E07AE0031082F3DAF00400188
:100B0800EE01EF014101B801B901DE3038063904C0
:100B1800031D8F2D902DE82DBC302A06031D982D1E
:100B28002B03031D982D992DAA2D3108F1003008AB
:100B3800F0002F08F3002E08F2008831B820803129
:100B480071084101AD007008AC00AA2D2B302A06AF
:100B5800023003192B06031DB22DB32DC42D310805
:100B6800F1003008F0002F08F3002E08F20096314B
:100B78006426803171084101AD007008AC00C42DB5
:100B88009A302A06023003192B06031DCC2DCD2DD1
:100B9800DA2D3009F9003109FA00F90A0319FA0ABD
:100BA8002E087907AC002F087A3DAD006F302A0671
:100BB8002B04031DE02DE12DE82D2E083007AC0095
:100BC8002F08313DAD00E82D043040016E066F045A
:100BD800031DEF2DF02DF32DEE01EF01F32D6E081F
:100BE8006F04031DF82DF92D012E4101B601B7013F
:100BF800B401B501B201B301012E40016E036F04C7
:100C0800031D072E082E0E2E41013B08B7003A0897
:100C1800B6000E2E023040016E066F04031D152E1D
:100C2800162E2C2E41013708F1003608F0000A3044
:100C3800F2000030F30096316426803171084101DA
:100C4800B5007008B4003B08B7003A08B6002C2E6F
:100C5800033040016E066F04031D332E342E5A2EC6
:100C680041013508F1003408F0000A30F200003084
:100C7800F30096316426803171084101B300700891
:100C8800B2003708F1003608F0000A30F2000030F0
:100C9800F30096316426803171084101B50070086F
:100CA800B4003B08B7003A08B6005A2E4101340890
:100CB8003607F9003508373DFA0032087907B000E1
:100CC80033087A3DB1007E10090086316B2E27303B
:100CD80084009630850041011200DF001200E00018
:100CE8001200E1001200E2001200E3001200E4002A
:100CF800FB01FC014001EE01EF01A030840000304F
:100D0800850020309631212686312030840001303C
:100D1800850020309631212686317E1040018D31A4
:100D2800102D4001C1003C08CB003B08CA003A081E
:100D3800C9003908C800CB1BA22EA42E0130A52E4D
:100D48000030BD00BE013D08C6003E08C700460889
:100D580047040319B02EB12EBC2EC809C909CA0907
:100D6800CB09C80A0319C90A0319CA0A0319CB0A05
:100D78004101A51BC02EC12EC52EFD30A605FF3092
:100D8800A7052508803A4001BD0080303D02031DBB
:100D9800D02E0130410124020318D32ED42EDA2E8E
:100DA80001304001C2000030C300E22E4101250895
:100DB8004001C300410124084001C2004101230849
:100DC8004001C500410122084001C400460847040B
:100DD800031DEF2EF02EF62E4101261DF42EF52EC2
:100DE800FB2EF62EFF304001C407FF30C53D1F30F3
:100DF8004001CC000030CD004C08203E8600013078
:100E080087008101572FFF304001CC07FF30CD3DCF
:100E18000030A3000030A2000030A1000A30A0007A
:100E28004B08A7004A08A6004908A5004808A400DE
:100E380089312121863140012108AC002008AB000E
:100E480096314726863140012B08303EBD004C08BC
:100E5800203E8600013087003D088100FF30C20730
:100E6800FF30C33DFF30C407FF30C53D0030A3004D
:100E78000030A2000030A1000A30A0004B08A700F3
:100E88004A08A6004908A5004808A4008A313F225C
:100E9800863140012308CB002208CA002108C90076
:100EA8002008C800572F4D08803ABD0080303D0209
:100EB800031D602F01304C02031C632F642F902FF9
:100EC80040014B084A0449044804031D6C2F6D2F48
:100ED800072F4308803ABD0080303D02031D762F5E
:100EE800013042020318792F7A2F072F4001450855
:100EF800803ABD0080303D02031D842F013044023A
:100F0800031C872F882F902F4101A6188C2F8D2F17
:100F1800072F902F902F902F400146084704031D5C
:100F2800962F972F9D2F4101261D9B2F9C2FBC2F5D
:100F38009D2FFF304001CC07FF30CD3D46084704C8
:100F4800031DA72FA82FAD2F2B30BF000030C000E6
:100F5800B22F2D30BF000030C000B22F3F08BD00B7
:100F68004C08203E8600013087003D088100BC2FD8
:100F780040014C08203EBD003D08B0004508B200C5
:100F88004408B100410888315B20863140013108AE
:100F9800BA003008B900D02F08004001A700270880
:100FA800A2002208A600DD2F0130A2002208A70710
:100FB800DD2F27088600013087000108031DE52F73
:100FC800E62FD82FE72F2608A2000130A300A20998
:100FD800A309A20A0319A30A2708A4000130A5003F
:100FE80022082407A0002308253DA100FB2F0800A4
:020FF8000800EF
:1010080040012208031909280A2810282208031D6C
:101018000E280F281528102820088731FC2788312A
:101028005A2840012208033E860087011600010461
:1010380003191F2820283E282208033E860087011E
:10104800403FA300413FA400220A86008701403F99
:10105800A500413FA6002608803AA7002408803A48
:101068002702031D39282308250203183C283D2898
:101078005A283E2840012008A3002208860087013C
:10108800220A8400850100080107A40024088600BC
:10109800870123088100220A860087010130810721
:1010A80041310318810A5A285A285A280800400151
:1010B800B8004101261C612862286C2840013808C4
:1010C800B3003308A80030089631CD2688316C2843
:1010D8004001B21B7028712876283208B700310801
:1010E800B6007828B601B701B401B5018D282030C3
:1010F8004001A0000030A1003808B3003308A20066
:1011080088310420883101304001B4070030B53DF2
:101118008D283508803AB3003708803A3302031D1A
:10112800972836083402031C9A289B287B284101FB
:1011380026189F28A028AA2840013808B300330899
:10114800A80030089631CD268831AA2840013008F9
:101158008731D1278831400136082007B000370889
:10116800213DB100B7280800F601F11FBC28BD28B1
:10117800C528F009F109F00A0319F10AF601F60A7F
:10118800C528F31FC828C928D328F209F309F20A89
:101198000319F30A0130F4007408F606D328F7019E
:1011A800F801700871040319DA28DB281029F50101
:1011B800F50AE8280130F035F10D890BDF280130F8
:1011C800F4007408F507E828F11FEB28EC28DE285E
:1011D800EE28EE280130F735F80D890BEF28710855
:1011E8007302031DF92870087202031CFC28FD28ED
:1011F80003297008F2027108F33B771403290130C0
:10120800F136F00C890B04290130F502031D0D2974
:101218000E29EE28102910297608031914291529F2
:101228001B29F709F809F70A0319F80A1B2978088E
:10123800F1007708F000202908004001AA01A71F43
:10124800262927293429A409A509A609A709A40A32
:101258000319A50A0319A60A0319A70AAA01AA0AC3
:10126800A31F372938294429A009A109A209A309DC
:10127800A00A0319A10A0319A20A0319A30A4429F7
:10128800230822042104200403194B294C298B2903
:10129800A901A90A5B290130A035A10DA20DA30D52
:1012A800890B50290130A8002808A9075B29A31F2A
:1012B8005E295F294F296129612923082702031D17
:1012C8006F2922082602031D6F2921082502031D04
:1012D8006F2920082402031C722973297C292008FD
:1012E800A4022108A53B2208A63B2308A73B7C298A
:1012F8000130A336A20CA10CA00C890B7D2901306A
:10130800A902031D8829892961298B298B292A0883
:1013180003198F2990299C29A409A509A609A709B9
:10132800A40A0319A50A0319A60A0319A70A9C29DE
:101338002708A3002608A2002508A1002408A00069
:10134800A52908004001A2008E100E102208A00056
:101358000730A036890BAD2920080139A100A10C5E
:10136800A10C0E0821067F3921068E002208A00054
:101378000630A036890BBD2920080139A100A10E2D
:10138800A10DA10D0E082106BF3921068E002208E5
:10139800A0000530A036890BCE2920080139A1000C
:1013A800A10EA10D0E082106DF3921068E002208A4
:1013B800A0000430A036890BDE2920080139A100DD
:1013C800A10E0E082106EF3921068E000330890B85
:1013D800EB29000040018E140D30890BF129000023
:1013E80040018E102208A0000330A036890BF9298D
:1013F80020080139A100A10CA10C0E0821067F3993
:1014080021068E002208A0000230A036890B092A86
:1014180020080139A100A10EA10DA10D0E08210679
:10142800BF3921068E0022360139A000A00EA00D7A
:101438000E082006DF3920068E0022080139A00098
:10144800A00E0E082006EF3920068E000330890B07
:101458002B2A000040018E140D30890B312A000020
:1014680040018E103A304001A0002330890B3A2AFF
:10147800A00B3A2A08004001AA01A31F442A452AC2
:10148800522AA009A109A209A309A00A0319A10ABD
:101498000319A20A0319A30AAA01AA0AA71F552A0F
:1014A800562A662AA409A509A609A709A40A0319A0
:1014B800A50A0319A60A0319A70A0130A8002808D3
:1014C800AA06662A0030AE000030AD000030AC003D
:1014D8000030AB0023082204210420040319752AD4
:1014E800762ABD2AA901A90A852A0130A035A10DAD
:1014F800A20DA30D890B7A2A0130A8002808A90794
:10150800852AA31F882A892A792A8B2A8B2A0130BF
:10151800AB35AC0DAD0DAE0D890B8C2A2308270217
:10152800031DA02A22082602031DA02A210825023D
:10153800031DA02A20082402031CA32AA42AAE2AD9
:101548002008A4022108A53B2208A63B2308A73BA4
:101558002B14AE2A0130A336A20CA10CA00C890BC7
:10156800AF2A0130A902031DBA2ABB2A8B2ABD2A39
:10157800BD2A2A080319C12AC22ACE2AAB09AC09F6
:10158800AD09AE09AB0A0319AC0A0319AD0A031970
:10159800AE0ACE2A2E08A3002D08A2002C08A1000E
:1015A8002B08A000D72A08004001A2008E100E14B4
:1015B8002208A0000730A036890BDF2A200801394D
:1015C800A100A10CA10C0E0821067F3921068E006E
:1015D8002208A0000630A036890BEF2A200801391E
:1015E800A100A10EA10DA10D0E082106BF392106EB
:1015F8008E002208A0000530A036890B002B200899
:101608000139A100A10EA10D0E082106DF3921061E
:101618008E002208A0000430A036890B102B200869
:101628000139A100A10E0E082106EF3921068E000E
:101638000330890B1D2B000040018E140D30890BDF
:10164800232B000040018E102208A0000330A03692
:10165800890B2B2B20080139A100A10CA10C0E0825
:1016680021067F3921068E002208A0000230A0360C
:10167800890B3B2B20080139A100A10EA10DA10D5A
:101688000E082106BF3921068E0022360139A00036
:10169800A00EA00D0E082006DF3920068E002208B5
:1016A8000139A000A00E0E082006EF3920068E0092
:1016B8000330890B5D2B000040018E140D30890B1F
:1016C800632B000040018E100D30890B692B000040
:1016D8003A304001A0002330890B702BA00B702BEF
:1016E800080040019313131393121312931013104D
:1016F8008E130E138E120E128E100E103A304001F9
:10170800A3002330890B862BA30B862B3A3040018C
:10171800A3002330890B8E2BA30B8E2B3A3040016C
:10172800A3002330890B962BA30B962B3A3040014C
:10173800A3002330890B9E2BA30B9E2B3A3040012C
:10174800A3002330890BA62BA30BA62B3A3040010C
:10175800A3002330890BAE2BA30BAE2B4001A401B1
:10176800A40A04302402031CBA2BBB2BBD2BE72B85
:10177800E72B8E130E138E160E168E100E108E1368
:101788000E138E160E168E140E100D30890BCA2BE2
:10179800000040018E130E138E160E168E100E10BA
:1017A8003A304001A3002330890BD82BA30BD82B48
:1017B80001304001A3002308A40704302402031CBD
:1017C800E62BE72BBD2B8E130E138E160E128E10E2
:1017D8000E108E130E138E160E128E140E100D3060
:1017E800890BF42B000040018E130E138E160E1277
:1017F8008E100E103A304001A3002330890B022CC2
:10180800A30B022C28304001A3002308A4002408BD
:101818008931A6218B3110304001A3002308A40090
:1018280024088931A6218B314001A401A40A240887
:101838008931A6218B310F304001A3002308A40071
:1018480024088931A6218B3108004001B301B40175
:10185800AC01AD01342C0130A6070030A73D342C73
:10186800B201B20A26088400270885001200203A2F
:1018780003193F2C402C562C260884002708850085
:101888000008F73EA800FF3003180030A900003018
:101898002902053003192802031C532C542C562CFA
:1018A800B201562C3208A800A9012808AE00290860
:1018B800AF00722C26088400270885000008A800BD
:1018C800A9012808A0002908A1009631A9268C3171
:1018D80040012108AF002008AE00722C2E082F040A
:1018E800031D772C782C2F2C832C832C0130AC00F3
:1018F8000030AD000130A6070030A73DBF2C2608F8
:101908008400270885000008A800A9012908003AD2
:1019180003198F2CBF2C28082B3A03197E2C063A62
:1019280003197A2CBF2CBF2C2608840027088500B1
:101938000008D03EA800FF3003180030A900A8090D
:10194800A909A80A0319A90A3408A1003308A000A4
:101958000A30A2000030A300963186268C3140015F
:1019680028082007B3002908213DB4000130A60744
:101978000030A73DBF2C26088400270885000008F2
:10198800D03EA800FF3003180030A900003029021B
:101998000A3003192802031CD22CD42C0130D52C70
:1019A8000030AA00AB012A08B0002B08B100F02CC7
:1019B80026088400270885000008A800A90128082F
:1019C800A0002908A10096312D268C31400121085C
:1019D800B1002008B000F02C30083104031DF52CAC
:1019E800F62C982CF72C2C082D04031DFC2CFD2C10
:1019F800092D3309A8003409A900A80A0319A90A5E
:101A08002808A6002908A7000F2D3408A7003308C6
:101A1800A6000F2D0F2D080051011308F8390638BC
:101A2800930041016208CC006108CB006008CA003D
:101A38005F08C90040018C018D017E01B801C30116
:101A48000F30400191009201FF307E01C400CE01A9
:101A58008B3175238D3101308931A6218D310C30C0
:101A68008931A6218D317E013D143F10BD14BF1070
:101A78003D153F11BD15BF114E010C1216168B17DF
:101A88000A2E4101DD01DE015E08803A4001EC00CA
:101A980080306C02031D532D043041015D02031C8C
:101AA800562D572D592D832D832D41015E08FC009D
:101AB8005D08FB005D08C93E8600870101084001FA
:101AC800970068304001EC00E430890B692DEC0B7D
:101AD800692D000001304101DD070030DE3D5E0860
:101AE800803A4001EC0080306C02031D7E2D0430EA
:101AF80041015D02031C812D822D592D832D410149
:101B080038083904031D892D8A2DC72D0930400155
:101B1800E7009830E800410131084001EA0041013E
:101B280030084001E900CD309631F8268D31093072
:101B38004001EC006C08A300CD30ED006D08A40056
:101B480002309731AF278D3109304001E7009830D6
:101B5800E80041012F084001EA0041012E08400138
:101B6800E900CD309631F8268D3109304001EC007E
:101B78006C08A300CD30ED006D08A400013097314A
:101B8800AF278D31C72DDE30410138063904031DDA
:101B9800CE2DCF2D0A2E00304001E7009830E80006
:101BA800CD309631F8268D3109304001EC006C08B3
:101BB800A300CD30ED006D08A400013097315E27F9
:101BC8008D3109304001E7009830E80041012D08C7
:101BD8004001EA0041012C084001E900CD3096316E
:101BE800F8268D3109304001EC006C08A300CD3097
:101BF800ED006D08A40002309731AF278D314530D4
:101C08004101BE000030BF000A2E0A2E41016308C0
:101C18006404031D102E112E452D122E8631692EB7
:101C28004001DE004E0886008701403FD000413F5A
:101C3800D10050088400510885001200253A031D80
:101C4800262E272ED82F4E088600870101308107BF
:101C580041310318810A4101A201A301A601A7018C
:101C6800FF30A400FF30A5004001DA01DB01A42EFB
:101C78007F2E4101261440014E088600870101305D
:101C8800810741310318810AA42E4101A61440019D
:101C98004E08860087010130810741310318810A07
:101CA800A42E4101261540014E0886008701013007
:101CB800810741310318810AA42E4101A61540016C
:101CC8004E08860087010130810741310318810AD7
:101CD800A42E4101261640014E08860087010130D6
:101CE800810741310318810AA42E0130DA0000303F
:101CF800DB00A42EA42E4E0886008701403FD000AA
:101D0800413FD10050088400510885000008D200E6
:101D1800D3015308003A0319922E792E5208203A1B
:101D28000319612E033A03196D2E083A0319552E2B
:101D3800063A03193D2E1D3A0319492E792EA42E71
:101D48005A085B040319A92EAA2E7F2E4101261CCE
:101D5800AE2EAF2EB42EFD30A605FF30A705B42E4B
:101D680040014E0886008701403FD000413FD10026
:101D7800500884005108850012002A3A031DC52E18
:101D8800C62EE72E4E0886008701013081074131B3
:101D98000318810A4F08860087010108840085011D
:101DA80002308107003F4101A200013FA300A31FA9
:101DB800DE2EDF2E4D2F2614A209A309A20A03192D
:101DC800A30A4D2F4D2F40014E0886008701403F42
:101DD800A600413FA7008C3129248E3140012708F5
:101DE8004101A300400126084101A200052F40013E
:101DF8004E08860087010130810741310318810AA6
:101E0800052F40014E0886008701403FD000413F22
:101E1800D10050088400510885000008D03ED20047
:101E2800FF3003180030D300003053020A30031982
:101E38005202031C202F222F0130232F0030D40000
:101E4800D5015408DC005508DD00452F4E088600F2
:101E58008701403FD000413FD1005008840051081D
:101E680085000008D200D3015208A0005308A10041
:101E780096312D268E3140012108DD002008DC0036
:101E8800452F5C085D04031D4A2F4B2FFB2E4D2F59
:101E98004D2F40014E0886008701403FD000413F4A
:101EA800D10050088400510885001200643A0319D3
:101EB8005E2F5F2F712F4E0886008701403FD000AC
:101EC800413FD10050088400510885001200693A4A
:101ED800031D6F2F702FA12F712F4E0886008701C9
:101EE8000130810741310318810A4F0886008701B4
:101EF80001088400850102308107003FD000013FBE
:101F0800D1005008D6005108D700890D893B8909AE
:101F1800D800D9005908BC005808BB005708BA00B7
:101F28005608B9005E08863195268E3140013A0878
:101F3800CF003908CE00FF2FFF2F4E0886008701FB
:101F4800403FD000413FD10050088400510885002F
:101F58001200253A031DB12FB22FCC2F4E08860050
:101F680087010130810741310318810A2530A0001B
:101F78000030A1005E08D0005008A200883104207B
:101F88008E3101304001CE000030CF00FF2FFF2FEF
:101F98004E08860087010130810741310318810A04
:101FA800CE01CF01FF2FFF2F4E0886008701403F4B
:101FB800D000413FD1005008840051088500000836
:101FC800D200D3015208A0005308A1005E08D40033
:101FD8005408A200883104208E3140014E08860042
:101FE80087010130810741310318810A0130CE0091
:081FF8000030CF00FF2F0800AC
:102C4200640080010131890B222E003408340434DF
:102C5200023401340134003440012008D03EA20085
:102C6200FF30213DA300003023020A300319220263
:102C7200031C3C2E3E2E01303F2E0030A400A50145
:102C82002408A0002508A100462E080040012C08B7
:102C9200803AAD0080302D02031D512E01302B02EF
:102CA2000318542E552E622E40012B09AD002C091B
:102CB200AE00AD0A0319AE0A2D08AB002E08AC0017
:102CC200632E632E0800F401F501672E701C6A2E34
:102CD2006B2E6F2E7208F4077308F53D0130F23542
:102CE200F30D890B702E0130F136F00C890B752E25
:102CF20070087104031D7E2E7F2E672E802E7508AC
:102D0200F1007408F000852E08004001A401A5011D
:102D12008A2E201C8D2E8E2E922E2208A407230886
:102D2200A53D0130A235A30D890B932E0130A136AA
:102D3200A00C890B982E20082104031DA12EA22E7F
:102D42008A2EA32E2508A1002408A000A82E080080
:102D52004001A401A40A2030200621040319B22E46
:102D6200B32EC42E2008F73EA200FF30213DA3005F
:102D720000302302053003192202031CC12EC22E89
:102D8200C42EA401C42E2408A200A3012208A0007C
:102D92002308A100CC2E08004001AF00AD01AE0116
:102DA200E62E2C08A900AA012908A0002A08A100E1
:102DB2002808AB002B08A20088310420963101308C
:102DC2004001AD070030AE3DE62E2D082F07A900C9
:102DD20029088600013087000108AA002A08AC00F1
:102DE2002C08031DF52EF62ED22EF72E08004101D7
:102DF200C30069304001EB006B084101C200430887
:102E02004001EB006B084101C400C501C601C701C6
:102E1200C80140016808E0006708DF00C230EB002B
:102E22006B08E100C43097312927963140016008D0
:102E32004101C10040015F084101C000450843074C
:102E42004001EB006B08860087018101282F0800F2
:102E52004001E4006008E6005F08E5004101A001CE
:102E6200A101492F65304001E2006208CE006108ED
:102E7200E3006308CF0064088E31142697314001C5
:102E82004E084101A00740014F084101A13D492FD1
:102E9200400165088400660885001200031D522F58
:102EA200532F332F542F410121084001E0004101EB
:102EB20020084001DF005D2F08004001A7007B2FA2
:102EC2002308803EA5002508A800912F2308C03EB4
:102ED200A5002508A800912F2308943EA5002508E7
:102EE200A800912F2308D43EA5002508A800912F01
:102EF200912F912F2708A500A6012608003A031951
:102F0200832F912F2508013A0319612F033A0319E0
:102F1200672F013A03196D2F073A0319732F912F67
:102F220028088931A6219731A42F40012408860060
:102F3200870101088A31D822973101304001A5006A
:102F42002508A407A42F4001240886008701010850
:102F5200031DAC2FAD2F962FAE2F08004001A70006
:102F6200CC2F2308803EA5002508A800E22F2308C5
:102F7200C03EA5002508A800E22F2308943EA50024
:102F82002508A800E22F2308D43EA5002508A800A2
:102F9200E22FE22FE22F2708A500A6012608003A19
:102FA2000319D42FE22F2508013A0319B22F033A4D
:102FB2000319B82F013A0319BE2F073A0319C42F78
:102FC200E22F28088931A6219731F52F40012408E4
:102FD2008600870101088A31D822973101304001E9
:102FE200A5002508A407F52F4001240886008701C3
:102FF2000108031DFD2FFE2FE72FFF2F08002034AD
:10300200203420342034203420342034203400343E
:0A30120025343034353464340034C2
:020000040001F9
:0A000E008C3FFD3F9F3FFF3FFF3F87
:00000001FF
