:020000040000FA
:08000000803102288731EE2F48
:100014000800640080010131890B0C280034FA01C6
:10002400F71F152816282328F409F509F609F709F6
:10003400F40A0319F50A0319F60A0319F70AFA016F
:10004400FA0AF31F262827283328F009F109F209B0
:10005400F309F00A0319F10A0319F20A0319F30A5E
:100064003328730872047104700403193A283B2876
:100074007A28F901F90A4A280130F035F10DF20D18
:10008400F30D890B3F280130F8007808F9074A2856
:10009400F31F4D284E283E28502850287308770215
:1000A400031D5E2872087602031D5E28710875021E
:1000B400031D5E2870087402031C612862286B28E3
:1000C4007008F4027108F53B7208F63B7308F73BBD
:1000D4006B280130F336F20CF10CF00C890B6C2810
:1000E4000130F902031D7728782850287A287A28C5
:1000F4007A0803197E287F288B28F409F509F60964
:10010400F709F40A0319F50A0319F60A0319F70A99
:100114008B287708F3007608F2007508F10074085C
:10012400F00094280800F20040018E100E107208AE
:10013400F0000730F036890B9C2870080139F10073
:10014400F10CF10C0E0871067F3971068E007208ED
:10015400F0000630F036890BAC2870080139F10044
:10016400F10EF10DF10D0E087106BF3971068E0006
:100174007208F0000530F036890BBD28700801398B
:10018400F100F10EF10D0E087106DF3971068E00D3
:100194007208F0000430F036890BCD28700801395C
:1001A400F100F10E0E087106EF3971068E0003306E
:1001B400890BDA28000040018E140D30890BE028E9
:1001C400000040018E107208F0000330F036890BF5
:1001D400E82870080139F100F10CF10C0E087106E1
:1001E4007F3971068E007208F0000230F036890BF8
:1001F400F82870080139F100F10EF10DF10D0E0827
:100204007106BF3971068E0072360139F000F00EA6
:10021400F00D0E087006DF3970068E007208013981
:10022400F000F00E0E087006EF3970068E000330F1
:10023400890B1A29000040018E140D30890B2029E6
:10024400000040018E103A30F0002330890B282939
:10025400F00B2829000008004001A101F31F3329F5
:1002640034294129F009F109F209F309F00A0319C3
:10027400F10A0319F20A0319F30AA101A10AF71FEB
:10028400442945295529F409F509F609F709F40A19
:100294000319F50A0319F60A0319F70A0130F800DD
:1002A4007808A10655290030A5000030A4000030CC
:1002B400A3000030A20073087204710470040319CF
:1002C40064296529AC29A001A00A74290130F035FC
:1002D400F10DF20DF30D890B69290130F80078084E
:1002E400A0077429F31F7729782968297A297A299C
:1002F4000130A235A30DA40DA50D890B7B2973082C
:100304007702031D8F2972087602031D8F29710855
:100314007502031D8F2970087402031C9229932906
:100324009D297008F4027108F53B7208F63B7308C6
:10033400F73B22149D290130F336F20CF10CF00C3A
:10034400890B9E290130A002031DA929AA297A2913
:10035400AC29AC2921080319B029B129BD29A20966
:10036400A309A409A509A20A0319A30A0319A40A43
:100374000319A50ABD292508F3002408F20023085F
:10038400F1002208F000C6290800F20040018E1096
:100394000E147208F0000730F036890BCE2970086D
:1003A4000139F100F10CF10C0E0871067F39710668
:1003B4008E007208F0000630F036890BDE297008D2
:1003C4000139F100F10EF10DF10D0E087106BF397E
:1003D40071068E007208F0000530F036890BEF29A3
:1003E40070080139F100F10EF10D0E087106DF39C4
:1003F40071068E007208F0000430F036890BFF2974
:1004040070080139F100F10E0E087106EF3971061A
:100414008E000330890B0C2A000040018E140D302D
:10042400890B122A000040018E107208F00003307C
:10043400F036890B1A2A70080139F100F10CF10C1D
:100444000E0871067F3971068E007208F0000230C2
:10045400F036890B2A2A70080139F100F10EF10DEA
:10046400F10D0E087106BF3971068E00723601391E
:10047400F000F00EF00D0E087006DF3970068E00E5
:1004840072080139F000F00E0E087006EF3970069C
:100494008E000330890B4C2A000040018E140D306D
:1004A400890B522A000040018E100D30890B582A06
:1004B40000003A30F0002330890B5E2AF00B5E2AEC
:1004C40000000800400193131313931213129310A6
:1004D40013108E130E138E120E128E100E103A304D
:1004E400F3002330890B742AF30B742A00003A308A
:1004F400F3002330890B7C2AF30B7C2A00003A306A
:10050400F3002330890B842AF30B842A00003A3049
:10051400F3002330890B8C2AF30B8C2A00003A3029
:10052400F3002330890B942AF30B942A00003A3009
:10053400F3002330890B9C2AF30B9C2A0000F4015E
:10054400F40A04307402031CA82AA92AAB2AD52A67
:10055400D52A40018E130E138E160E168E100E1011
:100564008E130E138E160E168E140E100D30890B6C
:10057400B92A000040018E130E138E160E168E102B
:100584000E103A30F3002330890BC62AF30BC62A27
:1005940000000130F3007308F40704307402031CF4
:1005A400D42AD52AAB2A40018E130E138E160E12AE
:1005B4008E100E108E130E138E160E128E140E1035
:1005C4000D30890BE32A000040018E130E138E16A2
:1005D4000E128E100E103A30F3002330890BF02ADD
:1005E400F30BF02A00002830F3007308F4007408B9
:1005F4008031952082311030F3007308F4007408C0
:10060400803195208231F401F40A740880319520F8
:1006140082310F30F3007308F400740880319520A0
:10062400823108004001A701A801A001A1011F2BEC
:100634000130F6070030F73D1F2BA601A60A760805
:100644008400770885001200203A03192A2B2B2BEB
:10065400412B76088400770885000008F73EF800EF
:10066400FF3003180030F900003079020530031917
:100674007802031C3E2B3F2B412BA601412B26085D
:10068400F800F9017808A2007908A3005D2B760828
:100694008400770885000008F800F9017808F00064
:1006A4007908F1008D31E325833171084001A300FD
:1006B4007008A2005D2B22082304031D622B632B08
:1006C4001A2B6F2B6F2B01304001A0000030A100CA
:1006D4000130F6070030F73DAC2B7608840077082C
:1006E40085000008F800F9017908003A03197B2B0A
:1006F400AC2B78082B3A03196A2B063A0319652B9D
:10070400AC2BAC2B76088400770885000008D03E1B
:10071400F800FF3003180030F900F809F909F80A65
:100724000319F90A40012808F1002708F0000A30EB
:10073400F2000030F3008D31C12583317808700751
:100744004001A7007908713DA8000130F607003088
:10075400F73DAC2B76088400770885000008D03E6E
:10076400F800FF3003180030F900003079020A3035
:1007740003197802031CBF2BC12B0130C22B00309C
:10078400FA00FB017A084001A4007B08A500DE2BD7
:1007940076088400770885000008F800F9017808D5
:1007A400F0007908F1008D318B2583317108400107
:1007B400A5007008A400DE2B24082504031DE32BE8
:1007C400E42B842BE52B20082104031DEA2BEB2BBF
:1007D400F72B2709F8002809F900F80A0319F90A80
:1007E4007808F6007908F700FD2B2808F700270899
:1007F400F600FD2BFD2B080051011308F8390638CB
:1008040093007E01CE01CE01823164228331013016
:100814008031952083310C3080319520833105302F
:100824004001E8000F30E700F130890B172CE70B8B
:10083400172CE80B172C0F30803195208331293089
:100844004001E8009630E7007F30890B272CE70B46
:10085400272CE80B272C0C30803195208331023073
:100864004101D2000030D3000130D4000030D50063
:10087400D6010D305602031C402C412C432CA22CD3
:10088400A22C5208013ED2000030533DD30054083C
:10089400013ED4000030553DD50054084001E70026
:1008A4006708F3000F30F4009030F50001308F3109
:1008B40003278331410152084001E7006708F30030
:1008C4001F30F4009030F50001308F31032783315D
:1008D40011304001DA009030DB004101560840013C
:1008E400E700E8016708DC006808DD00C2308E31EB
:1008F40006268331F301F30AC2304001E70067089A
:10090400F40002308E31B626833115304001E80000
:100914004B30E700BE30890B8D2CE70B8D2CE80B98
:100924008D2C000001304001E70067084101D60723
:100934000D305602031C9F2CA02C432CA22CA22C5D
:10094400D6010D305602031CA82CA92CAB2CA22CCA
:10095400A22CF301F30A0030F4009030F5000130CA
:100964008F310327833111304001DA009030DB00EE
:10097400410156084001E700E8016708DC00680807
:10098400DD00C2308E3106268331F301F30AC23012
:100994004001E7006708F40002308E31B626833147
:1009A40015304001E8004B30E700BE30890BD82CED
:1009B400E70BD82CE80BD82C000001304001E700ED
:1009C40067084101D6070D305602031CEA2CEB2CB4
:1009D400AB2CA22CA22CA22C803102284001B40002
:1009E4002F08BE002E08BD002D08BC002C08BB003B
:1009F400BE1BFD2CFF2C0130002D0030B000B101D6
:100A04003008B9003108BA0039083A0403190B2D2B
:100A14000C2D172DBB09BC09BD09BE09BB0A03195E
:100A2400BC0A0319BD0A0319BE0AEC1B1A2D1B2D9F
:100A34001F2DFD30ED05FF30EE056C08803AB00047
:100A440080303002031D282D01306B0203182B2D3A
:100A54002C2D322D01304001B5000030B600372D69
:100A640040016C08B6006B08B5006A08B800690854
:100A7400B70039083A04031D402D412D462D6D1D44
:100A8400442D452D4A2D462DFF30B707FF30B83D84
:100A94001F30BF000030C0003F08A23E860087011F
:100AA4008101A22DFF304001BF07FF30C03D00305F
:100AB400F3000030F2000030F1000A30F0003E088C
:100AC400F7003D08F6003C08F5003B08F4008031CF
:100AD400112084317108FC007008FB008D31A425BD
:100AE40084317B08303E4001B0003F08A23E8600BE
:100AF400870130088100FF30B507FF30B63DFF3075
:100B0400B707FF30B83D0030F3000030F20000308A
:100B1400F1000A30F0003E08F7003D08F6003C08FA
:100B2400F5003B08F40081312E2184317308400123
:100B3400BE007208BD007108BC007008BB00A22D85
:100B44004008803AB00080303002031DAB2D0130E4
:100B54003F02031CAE2DAF2DDB2D40013E083D04AA
:100B64003C043B04031DB72DB82D542D3608803AA0
:100B7400B00080303002031DC12D0130350203184E
:100B8400C42DC52D542D40013808803AB000803062
:100B94003002031DCF2D01303702031CD22DD32D7B
:100BA400DB2D4001ED18D72DD82D542DDB2DDB2D59
:100BB400DB2D400139083A04031DE12DE22DE72D18
:100BC4006D1DE52DE62D042EE72DFF30BF07FF3008
:100BD400C03D39083A04031DF02DF12DF62D2B30BC
:100BE400B2000030B300FB2D2D30B2000030B30052
:100BF400FB2D3208B0003F08A23E86008701300872
:100C04008100042E3F08A23EB0003008A40038083A
:100C1400A6003708A50034088F31A6278431400187
:100C24002508AD002408AC00172E08004001D100AF
:100C3400410886008701403FC300413FC400430888
:100C44008400440885001200253A031D2A2E2B2E09
:100C5400C62F4108860087010130810741310318FE
:100C6400810AE901EA01ED01EE01FF30EB00FF30FA
:100C7400EC00CD01CE019C2E772E6D144108860028
:100C840087010130810741310318810A9C2EED143C
:100C94004108860087010130810741310318810A28
:100CA4009C2E6D1541088600870101308107413172
:100CB4000318810A9C2EED15410886008701013036
:100CC400810741310318810A9C2E6D164108860064
:100CD40087010130810741310318810A9C2E0130BC
:100CE400CD000030CE009C2E9C2E4108860087014A
:100CF400403FC300413FC4004308840044088500CA
:100D04000008C500C6014608003A03198A2E712E50
:100D14004508203A03195D2E033A0319672E083A51
:100D24000319532E063A03193F2E1D3A0319492E6F
:100D3400712E9C2E4D084E040319A12EA22E772E3F
:100D44006D1CA52EA62EAB2EFD30ED05FF30EE0555
:100D5400AB2E410886008701403FC300413FC400D9
:100D6400430884004408850012002A3A031DBB2E60
:100D7400BC2EDC2E410886008701013081074131F9
:100D84000318810A4208860087010108840085014E
:100D940002308107003FE900013FEA00EA1FD32E39
:100DA400D42E3C2F6D14E909EA09E90A0319EA0A69
:100DB4003C2F3C2F410886008701403FF600413F0D
:100DC400F70083311423863177084001EA0076085E
:100DD400E900F52E41088600870101308107413181
:100DE4000318810AF52E410886008701403FC3009D
:100DF400413FC40043088400440885000008D03EF5
:100E0400C500FF3003180030C600003046020A3027
:100E140003194502031C0F2F112F0130122F00302C
:100E2400C700C8014708CF004808D000342F410844
:100E340086008701403FC300413FC400430884004B
:100E4400440885000008C500C6014508F0004608AE
:100E5400F1008D318B25863171084001D000700876
:100E6400CF00342F4F085004031D392F3A2FEC2E96
:100E74003C2F3C2F410886008701403FC300413F7F
:100E8400C40043088400440885001200643A03192E
:100E94004C2F4D2F5F2F410886008701403FC30030
:100EA400413FC40043088400440885001200693AA5
:100EB400031D5D2F5E2F8F2F5F2F41088600870152
:100EC4000130810741310318810A420886008701F5
:100ED40001088400850102308107003FC300013FFF
:100EE400C4004308C9004408CA00890D893B890924
:100EF400CB00CC004C08AF004B08AE004A08AD0054
:100F04004908AC0051088431F024863140012D0891
:100F1400C2002C08C100ED2FED2F41088600870187
:100F2400403FC300413FC400430884004408850097
:100F34001200253A031D9F2FA02FBA2F41088600C7
:100F440087010130810741310318810A2530F000FF
:100F54000030F1005108C3004308F2008F315227DA
:100F6400863101304001C1000030C200ED2FED2F69
:100F74004108860087010130810741310318810A45
:100F8400C101C201ED2FED2F410886008701403FCA
:100F9400C300413FC400430884004408850000089E
:100FA400C500C6014508F0004608F1005108C70015
:100FB4004708F2008F3152278631400141088600EC
:100FC40087010130810741310318810A0130C100D2
:100FD4000030C200ED2F08004001E901EA01EB01F5
:100FE400EC01ED01EE01A0308400003085002230D8
:0C0FF40080310B20873140018331FE2B3F
:101B16007008D03EF200FF30713DF30000307302D2
:101B26000A3003197202031C992D9B2D01309C2D3E
:101B36000030F400F5017408F0007508F100A32DDB
:101B460008007C08803A4001A00080302002031D76
:101B5600AE2D01307B020318B12DB22DBF2D7B09AE
:101B66004001A0007C09A100A00A0319A10A2008CF
:101B7600FB002108FC00C02DC02D0800F401F50172
:101B8600C42D701CC72DC82DCC2D7208F407730800
:101B9600F53D0130F235F30D890BCD2D0130F136CF
:101BA600F00C890BD22D70087104031DDB2DDC2D82
:101BB600C42DDD2D7508F1007408F000E22D080033
:101BC600F401F40A2030700671040319EB2DEC2D94
:101BD600FD2D7008F73EF200FF30713DF300003036
:101BE6007302053003197202031CFA2DFB2DFD2D1D
:101BF600F401FD2D7408F200F3017208F000730879
:101C0600F100052E08004001E1005C30FD007D0872
:101C1600E0006108FD007D08E200E301E401E50162
:101C2600E6015B08D3005A08D2006030FD007D084B
:101C3600D40062308E3181268E3140015308DF0098
:101C46005208DE0063086107FD007D0886008701F3
:101C560081012D2E0800F7007708F2007208F600C1
:101C6600392E0130F2007208F707392E7708860000
:101C760087010108031D402E412E342E422E760880
:101C8600F2000030F300F209F309F20A0319F30A2D
:101C96007708F4000030F50072087407F000730846
:101CA600753DF100562E08004001A300A101A201D6
:101CB600702E2008F900FA017908F0007A08F10080
:101CC6007808FB007B08F2008F3152278E310130F5
:101CD6004001A1070030A23D702E21082307F9001C
:101CE6007908860087010108FA007A08A000200812
:101CF600031D7E2E7F2E5C2E802E08004001D7000D
:101D06005308D9005208D8004101A001A101A12E13
:101D160058304001D5005508C1005408D600560871
:101D2600C2005708863118268E314001410841010C
:101D3600A007400142084101A13DA12E40015808DB
:101D46008400590885001200031DAA2EAB2E8B2E87
:101D5600AC2E410121084001D30041012008400179
:101D6600D200B52E0800F700D22E7308803EF5008B
:101D76007508F800E82E7308C03EF5007508F800EF
:101D8600E82E7308943EF5007508F800E82E7308EF
:101D9600D43EF5007508F800E82EE82EE82E770800
:101DA600F500F6017608003A0319DA2EE82E7508D2
:101DB600013A0319B82E033A0319BE2E013A031944
:101DC600C42E073A0319CA2EE82E780880319520CA
:101DD6008E31F92E74088600870101088131C721EA
:101DE6008E310130F5007508F407F92E7408860067
:101DF60087010108031D002F012FED2E022F080079
:101E0600F8001F2F7308803EF6007608F900352F7C
:101E16007308C03EF6007608F900352F7308943E25
:101E2600F6007608F900352F7308D43EF6007608DA
:101E3600F900352F352F352F7808F600F70177088A
:101E4600003A0319272F352F7608013A0319052F73
:101E5600033A03190B2F013A0319112F073A0319F5
:101E6600172F352F7908803195208F31472F740829
:101E760084007508850000088131C7218F31013043
:101E8600F4070030F53D472F740884007508850077
:101E96001200031D4F2F502F3A2F512F08007208A2
:101EA6000319562F572F5D2F7208031D5B2F5C2FCA
:101EB600622F5D2F700880310A208F31A52F72089E
:101EC600033E860087011600010403196B2F6C2F51
:101ED6008A2F7208033E86008701403FF300413F88
:101EE600F400720A86008701403FF500413FF60084
:101EF6007608803AF7007408803A7702031D852F2A
:101F0600730875020318882F892FA52F8A2F70084A
:101F1600F300720886008701720A840085010008B2
:101F26000107F40074088600870173088100720AAD
:101F3600860087010130810741310318810AA52FE8
:101F4600A52FA52F08004001AB006D1CAB2FAC2FB1
:101F5600B52F2B08FC007C08F80024088E31572684
:101F66008F31B52F4001A61BB92FBA2FBF2F2608D8
:101F7600AA002508A900C12FA901AA01A701A80145
:101F8600D62F2030F0000030F10040012B08FC0075
:101F96007C08F2008F3152278F3101304001A707AC
:101FA6000030A83DD62F2808803AFC002A08803A3F
:101FB6007C02031DE02F29082702031CE32FE42FD0
:101FC600C42F40016D18E82FE92FF22F2B08FC00D3
:101FD6007C08F80024088E3157268F31F22F4001F5
:101FE60024088E312E268F31400129087007A4005F
:101FF6002A08713DA500FF2F080020342034203424
:10200600203420342034203420342034203420342A
:1020160020342034203420342034003443346F34C8
:102026006E347434613464346F347234203425343D
:1020360030343334643400344D34653463346134BD
:10204600743472346F346E346934633461340034FA
:020000040001F9
:0A000E008C3FFD3F9F3FFF3FFF3F87
:00000001FF
