:020000040000FA
:08000000803102288731FD2F39
:100F560006305101930040018E017E01CE01400111
:100F6600930110307E01A60042019D179E161E12A7
:100F76001E119F1133309B00C02F4130F20000300C
:100F8600F3007308803AF00080307002031DCD2F05
:100F96005B307202031CD02FD12FD32FC02FC02F4E
:100FA600720842019A00D72F9E1CDA2FDB2FD72F0B
:100FB600DC2F0D30F1002D30F000D830890BE12FF9
:100FC600F00BE12FF10BE12F0130F2070030F33D7A
:100FD6007308803AF00080307002031DF42F5B30F6
:100FE6007202031CF72FF82FD32FC02FC02FC02F4C
:0A0FF6008031022840018731AB2F43
:020000040001F9
:0A000E008C3FFD3F9F3FFF3FFF3F87
:00000001FF
