:020000040000FA
:08000000803102288731FD2F39
:100F2E0051011308F8390638930040018D017E01F6
:100F3E00C3010730400192008F017E01D9010130BB
:100F4E0040019400AA2F40010D18AE2FAF2FD42FC1
:100F5E000530F1000F30F000F130890BB42FF00B9B
:100F6E00B42FF10BB42F00004001170CF000F00C61
:100F7E00700C0139013EF100F10DF10DF10D170864
:100F8E007106F739710697006830F000E430890B6E
:100F9E00CE2FF00BCE2F0032D42F40010F18D82FAA
:100FAE00D92FAA2F0530F1000F30F000F130890B48
:100FBE00DE2FF00BDE2FF10BDE2F00004001190C9F
:100FCE000139013EF000F00D19087006FD3970066A
:100FDE0099006830F000E430890BF32FF00BF32FFB
:100FEE000032AA2FAA2FAA2F803102284001873162
:020FFE00972F2B
:020000040001F9
:0A000E00EC3FFD3F9F3FFF3FFF3F27
:00000001FF
