:020000040000FA
:0400000080310A2819
:100008007E1480314E0190107E10090080310C283A
:100018007E1040018031102851011308F839063844
:10002800930040018E0193018D011F3092007E01E3
:10003800C3010930A40046018E170F308E040A3020
:100048007E01A500460192170F309204FF3045014A
:100058008D0044011E08FC3901389E001E08F33942
:1000680004389E0045011008F03901389000F0303E
:100078008E050E088F3940388E008E1743284601AA
:100088009001910103308D0020308C005230F10036
:100098002B30F0000030890B4F28F00B4F28F10B64
:1000A8004F280032033046019100203090008C0127
:1000B8008D015230F1002B30F0000030890B62289E
:1000C800F00B6228F10B6228003243284328803164
:0200D8000A28F4
:020000040001F9
:0A000E008C3FFD3F9F3FFF3FFF3F87
:00000001FF
