:020000040000FA
:0400000080316328C0
:1000060008007E148031420167036804031D0C2832
:100016000D2831287E01CA181128122831284A1CB9
:1000260015281628312840018D1C1A281B2831282E
:100036000D181E281F28312842016B08FF3EEB00D1
:10004600FF306C3DEC002030F0002A30890B292867
:10005600F00B292831283128312831280230420175
:1000660067066804031D382839285E287E01CA1CE5
:100076003D283E285E284A18412842285E2840012D
:100086008D18462847285E280D1C4A284B285E28CE
:1000960042016B08013EEB0000306C3DEC0068301D
:1000A600F000E430890B5528F00B552800325E2805
:1000B6005E285E285E287E01CA104A107E1009005E
:1000C60080316528FC0153308400013085001A30E8
:1000D600903100208031A0308400013085005030FE
:1000E6009031002080317E10400188310028410186
:1000F600C300C401C5012308D9002208D80021087D
:10010600D7002008D60059084001C300410158080D
:100116004001C200410157084001C1004101560893
:100126004001C0000030C7000030C6000030C500E6
:100136000030C4009031BC2080310318A328A428C5
:10014600BE2801304101C4000030C5005908F40042
:100156005808F3005708F2005608F1009A31382281
:10016600803174084101D9007308D8007208D7009D
:100176007108D600BE284101DC01DD01420162089A
:100186004101CA00420161084101C9004408450411
:10019600031DCE28CF28D5284201651DD328D42893
:1001A600F828D528410144084504031DDB28DC282E
:1001B600E1282B30AD000030AE00E6282D30AD0032
:1001C6000030AE00E6282D08A5005C08A03E86009B
:1001D60001308700250881000130DC070030DD3D55
:1001E600FF30C907FF30CA3DF82841015908F4001D
:1001F6005808F3005708F2005608F1009E315026C1
:10020600803171037204031D09290A2970294101ED
:100216002408BF3EA500FF3003180030A6000030BA
:1002260026021A3003192502031C1A291C2901303B
:100236001D290030A700A8012708AF002808B00034
:1002460034292408A500A6012508F1002608F20095
:1002560090310620803172084101B0007108AF006C
:1002660034292F083004031939293A2944290A3038
:10027600F100A030F2005C08A03E9A31C422803121
:100286004F291230F100A030F20041015C08A03E77
:100296009A31C42280314F29FD304101C907FF3010
:1002A600CA3DA030A50025084001A70041014A0823
:1002B6004001A900410149084001A8004101430845
:1002C6009D3120258031400128084101A1004001CF
:1002D60027084101A000C62FC62F41015908F40086
:1002E6005808F3005708F2005608F1009E315026D0
:1002F600803171087204031D81298229E829410190
:100306002408BF3EA500FF3003180030A6000030C9
:1003160026021A3003192502031C9229942901305A
:1003260095290030A700A8012708B1002808B200C7
:10033600AC292408A500A6012508F1002608F2002C
:1003460090310620803172084101B2007108B10077
:10035600AC29310832040319B129B229BC290E305F
:10036600F100A030F2005C08A03E9A31C422803130
:10037600C7291630F100A030F20041015C08A03E0A
:100386009A31C4228031C729FD304101C907FF30A7
:10039600CA3DA030A50025084001A70041014A0832
:1003A6004001A900410149084001A8004101430854
:1003B6009D3120258031400128084101A1004001DE
:1003C60027084101A000C62FC62F3F304101E1009A
:1003D6008030E0000030DF000030DE00DA01DB01B3
:1003E6005908F4005808F3005708F2005608F100BF
:1003F6000030F8000030F7000030F6000030F5005D
:100406009C31172480310318092A0A2AD42A3D2A46
:100416003D2A41304001A9002030A8000030A70045
:100426000030A600410161084001AD0041016008AD
:100436004001AC0041015F084001AB0041015E088C
:100446004001AA00953195258031400129084101D6
:10045600E100400128084101E00040012708410170
:10046600DF00400126084101DE000130DA070030D6
:10047600DB3D3D2A410159084001C30041015808AE
:100486004001C200410157084001C1004101560820
:100496004001C0004130A9002030A8000030A7006C
:1004A6000030A600410161084001AD00410160082D
:1004B6004001AC0041015F084001AB0041015E080C
:1004C6004001AA0095319525803140012908C700D1
:1004D6002808C6002708C5002608C4009031BC209D
:1004E60080310318772A782A0C2AAB2AAB2A4130A6
:1004F6004001C3002030C2000030C1000030C000FF
:10050600410161084001C700410160084001C60081
:1005160041015F084001C50041015E084001C40079
:100526009331B6238031400143084101E100400187
:1005360042084101E000400141084101DF0040015D
:1005460040084101DE00FF30DA07FF30DB3DAB2A11
:10055600410159084001C300410158084001C20049
:10056600410157084001C100410156084001C00041
:10057600410161084001C700410160084001C60011
:1005860041015F084001C50041015E084001C40009
:100596009031BC208031031CD12AD22A7A2AD42A4F
:1005A600D42A41012408A500A6012508F70026083B
:1005B600F8009B319423803177084101A700270872
:1005C600CB004B08A5002508C80067304B06031D65
:1005D600ED2AEE2A182B420163086404031DF42A4F
:1005E600F52AF92A0130E3000030E4006408803A75
:1005F6004101A50080302502031D042B0130420174
:1006060063020318072B082B0E2B06304101C60088
:100616000030C7002C2B420164084101C70042018B
:1006260063084101C6002C2B2C2B4201E41B1C2B1A
:100636001D2B252B64084101C700420163084101B7
:10064600C6002C2B06304101C6000030C7002C2BFB
:100656002C2B67304B06031D312B322B602B5B088E
:10066600803AA5007F302502031D3B2BFC305A0241
:10067600031C3E2B3F2B5A2B41014608FF3EA5008B
:10068600FF30473DA6002608803AA7005B08803A5F
:100696002702031D502B5A082502031C532B542BEB
:1006A6005A2B66304101A5002508C800602B65302D
:1006B6004101A5002508C800602B4708BE00460872
:1006C600BD0067304B06031D692B6A2B752B663000
:1006D6004806031D6F2B702B7A2BDB1F732B742B95
:1006E6007A2B752B0130BD070030BE3D7A2B663064
:1006F6004806031D7F2B802B9B2BDB1F832B842B14
:100706008F2B3F30E1008030E0000030DF0000300A
:10071600DE00DA01DB018F2B67304B060319942BC1
:10072600952B9B2B5A08BD075B08BE3D9B2B9B2B2D
:10073600D401D5015908CF005808CE005708CD007E
:100746005608CC006108AC006008AB005F08AA0040
:100756005E08A9007C2C410161084001C3004101EB
:1007660060084001C20041015F084001C10041012B
:100776005E084001C00041014F084001C700410129
:100786004E084001C60041014D084001C500410127
:100796004C084001C4009331B62380314001430820
:1007A600DD004208DC004108DB004008DA00883141
:1007B600B120803140015D084101D30040015C0851
:1007C6004101D20040015B084101D10040015A08B5
:1007D6004101D0005308F4005208F3005108F2001A
:1007E6005008F1009E31D326803172084101C200C3
:1007F6007108C10053084001AD0041015208400193
:10080600AC00410151084001AB00410150084001D4
:10081600AA00410161084001A900410160084001A8
:10082600A80041015F084001A70041015E084001A0
:10083600A60095319525803140012908C300280876
:10084600C2002708C1002608C00041014F08400128
:10085600C70041014E084001C60041014D08400154
:10086600C50041014C084001C4009A315E22803126
:10087600400143084101CF00400142084101CE003A
:10088600400141084101CD00400140084101CC0032
:1008960041304001C3002030C2000030C1000030AA
:1008A600C000410161084001C700410160084001E4
:1008B600C60041015F084001C50041015E084001D4
:1008C600C4009331B6238031400143084101E10061
:1008D600400142084101E000400141084101DF00BA
:1008E600400140084101DE000130D4070030D53D0B
:1008F6007C2C5508803AA5003E08803A2502031D47
:10090600862C3D085402031C892C8A2CAE2B8B2C7A
:1009160040304001A900A030A8000030A7000030F8
:10092600A600410161084001AD0041016008400197
:10093600AC0041015F084001AB0041015E08400187
:10094600AA00953195258031400129084101D3003F
:10095600400128084101D200400127084101D10089
:10096600400126084101D0004F084001C300410163
:100976004E084001C20041014D084001C10041013D
:100986004C084001C000410153084001C700410125
:1009960052084001C600410151084001C50041010D
:1009A60050084001C4009031BC2080310318DC2C73
:1009B600DD2CE72C00304101D3000030D20000309E
:1009C600D1000030D0000E2D41014F08F4004E0832
:1009D600F3004D08F2004C08F1005308F8005208E5
:1009E600F7005108F6005008F5009C3117248031B5
:1009F600031CFE2CFF2C0E2D41014118032D042D46
:100A06000E2D0030D3000030D2000030D10000306F
:100A1600D0000E2D0E2D41015308F4005208F300AC
:100A26005108F2005008F1005908F8005808F7007C
:100A36005708F6005608F5008931A0218031740860
:100A46004101CF007308CE007208CD007108CC00BA
:100A56002C08E1002B08E0002A08DF002908DE0048
:100A6600653048060319382D392D3E2D5B08C00028
:100A76005A08BF00402DBF01C001BB01BC01B9012E
:100A8600BA01D401D501862E410161084001C30097
:100A9600410160084001C20041015F084001C100F8
:100AA60041015E084001C00041014F084001C700F6
:100AB60041014E084001C60041014D084001C500F4
:100AC60041014C084001C4009331B62380314001F6
:100AD6004308DD004208DC004108DB004008DA007C
:100AE6008831B120803140015D084101D3004001C9
:100AF6005C084101D20040015B084101D100400180
:100B06005A084101D0005308F4005208F300510876
:100B1600F2005008F1009E31D3268031720841015F
:100B2600C2007108C1004201651A9A2D9B2DB12D94
:100B3600410141084204031DA12DA22DB12D6730AC
:100B46004B06031DA72DA82DB12DC01FAB2DAC2D17
:100B5600B12D0130B9070030BA3D032E41013B08E3
:100B66003C04031DB72DB82DE92DC01FBB2DBC2D90
:100B7600E92D2E30A5005C08A03E860001308700D6
:100B8600250881000130DC070030DD3DFF30C90754
:100B9600FF30CA3D0130BB000030BC00E92DE92D15
:100BA6003030A5005C08A03E86000130870025088D
:100BB60081000130DC070030DD3DFF30C907FF3022
:100BC600CA3DFF30B907FF30BA3DE92D39083A046E
:100BD600031DEE2DEF2DD32DF02D4108303EA5003F
:100BE6005C08A03E860001308700250881000130A0
:100BF600DC070030DD3DFF30C907FF30CA3D032E5C
:100C060053084001AD00410152084001AC004101CA
:100C160051084001AB00410150084001AA004101C2
:100C260061084001A900410160084001A800410196
:100C36005F084001A70041015E084001A60095310A
:100C46009525803140012908C3002808C2002708DD
:100C5600C1002608C00041014F084001C7004101FC
:100C66004E084001C60041014D084001C500410142
:100C76004C084001C4009A315E228031400143088D
:100C86004101CF00400142084101CE004001410828
:100C96004101CD00400140084101CC0041304001F6
:100CA600C3002030C2000030C1000030C000410146
:100CB60061084001C700410160084001C6004101CA
:100CC6005F084001C50041015E084001C400933140
:100CD600B6238031400143084101E100400142084A
:100CE6004101E000400141084101DF0040014008A8
:100CF6004101DE00FF30BF07FF30C03D0130D407A1
:100D06000030D53D862E5508803AA5003E08803A2B
:100D16002502031D902E3D0854020318932E942E8F
:100D2600A42E41015D08803AA50080302502031DEE
:100D36009E2E4B305C02031CA12EA22E472DA42E04
:100D4600A42E41013B083C04031DAA2EAB2EBF2E48
:100D56004201651EAF2EB02EBF2E2E304101A500DA
:100D66005C08A03E8600013087002508810001301E
:100D7600DC070030DD3DBF2E41015C08A03E860049
:100D860001308700810165304806031DCB2ECC2E2D
:100D9600AA2F4F30D4000030D5005408A03E86005C
:100DA600013087008101C401C501DB1FDB2EDC2E6B
:100DB600E62E0130C4000030C500DA09DB09DA0A84
:100DC6000319DB0AE62E0230C6000030C7001F2FCB
:100DD600FF304101D407FF30D53D0A30F100003025
:100DE600F2005B08F4005A08F3009C31C3248031FA
:100DF6007108303E4101A5005408A03E860001302E
:100E06008700250881000A30F1000030F2005B08F7
:100E1600F4005A08F3009D317D25803172084101A6
:100E2600DB007108DA00FF30C607FF30C73DFF3030
:100E3600C907FF30CA3D1F2F5A085B04031D242F24
:100E4600252FEB2E4708803AA50080302502031D8A
:100E56002E2F013046020318312F322FEB2E332F5F
:100E6600FF304101D407FF30D53D44084504031D3A
:100E76003D2F3E2F432F2B30B3000030B400482FB8
:100E86002D30B3000030B400482F3308A5005408B5
:100E9600A03E86000130870025088100FF30C90783
:100EA600FF30CA3DFF30D407FF30D53D2408BF3E92
:100EB600A500FF3003180030A600003026021A30C5
:100EC60003192502031C682F6A2F01306B2F00308F
:100ED600A700A8012708B7002808B800822F240811
:100EE600A500A6012508F1002608F200903106208B
:100EF600803172084101B8007108B700822F3708A7
:100F06003804031D872F882F8D2F6530B5000030DC
:100F1600B600922F4530B5000030B600922F350846
:100F2600A5005408A03E86000130870025088100F0
:100F3600FF30C907FF30CA3D5408A03EF10001301A
:100F4600F2005C08A03E9A31C4228031AA2FA0305C
:100F56004101A50025084001A70041014A084001BA
:100F6600A900410149084001A800410143089D31FB
:100F760020258031400128084101A10040012708B1
:100F86004101A000C62F08004101ED006908EF00ED
:100F96006808EE004201DF01E001EB2FEE3041016F
:100FA600EB006B084001EE0041016A08EC006C089A
:100FB6004001EF0041016D088C3112248731400158
:100FC6006E084201DF0740016F084201E03DEB2F4A
:100FD60041016E0884006F0885001200031DF42F7E
:100FE600F52FD12FF62F420160084101E900420199
:100FF6005F084101E800FF2F080051011308F83986
:10100600063893007E01CE0140018D017E01C301A9
:101016000730400192007E014415C914CA104914D4
:101026004A104E0116160B178B1791316A2188311B
:1010360001309F31672788310C309F31672788310F
:10104600242840010D192828292849284201670823
:10105600013EE7000030683DE8000330670668049B
:10106600031D362837283B280130E7000030E8000A
:101076000D304201C2002D30C100D730890B412806
:10108600C10B4128C20B412800324928413040019A
:10109600C300A030C2000030C1000030C0004130A3
:1010A600A900AC30A8000030A7000030A60042011D
:1010B6006B08F1006C08F200890D893B8909F30081
:1010C600F400013092311A22883174084001AD00D3
:1010D6007308AC007208AB007108AA00953195251B
:1010E600883140012908C7002808C6002708C5001E
:1010F6002608C4009331B6238831400143084201D3
:10110600DE00400142084201DD0040014108420183
:10111600DC00400140084201DB000030B100A03095
:10112600B2005E08B6005D08B5005C08B4005B0856
:10113600B30043309B316323883109304201C1003B
:101146004108F4004330C2004208F50002309B31EA
:10115600C823883124282428803163284201560870
:101166004001ED00420155084001EC0042015408DF
:101176004001EB00420153084001EA005D08ED0022
:101186005C08EC005B08EB005A08EA006A08DE001F
:101196006B08DF006C08E0006D08E1001730E136EF
:1011A600E00CDF0CDE0C890BD228FF305E05E20076
:1011B60000305F05E3006208813EE800FF30633DD2
:1011C600E9006908803ADE0080305E02031DED28E2
:1011D60017306802031CF028F128F2289F294001E5
:1011E600E91BF628F7285529FF30DE00FF30DF001F
:1011F6007F30E0000030E100680A0529E137E00CA5
:10120600DF0CDE0C890B01296108E7006008E600A7
:101216005F08E5005E08E4006A086405DE006B0806
:101226006505DF006C086605E0006D086705E100EE
:10123600610860045F045E04031D22292329242912
:101246009F296A08DE006B08DF006C08E0006D0865
:10125600E1001F30E136E00CDF0CDE0C890B2D2996
:10126600610860045F045E0403193A293B29442996
:101276006408EA076508EB3D6608EC3D6708ED3D46
:1012860044296409DE006509DF006609E000670994
:10129600E1005E08EA055F08EB056008EC056108F9
:1012A600ED0596296A08DE006B08DF006C08E00091
:1012B6006D08E1001F30E136E00CDF0CDE0C890B17
:1012C6005E29610860045F045E04031D6B296C29B6
:1012D60075290030ED000030EC000030EB000030E6
:1012E600EA0096296A08DE006B08DF006C08E00059
:1012F6006D08E1000130DE35DF0DE00DE10D890BF3
:101306007E29610860045F045E0403198B298C2919
:101316009629BF30ED008030EC000030EB00003045
:10132600EA00962996296D08DD006C08DC006B083A
:10133600DB006A08DA009F2908007408803940013A
:10134600A0002008AC007435A0002008AE00F31FF2
:10135600AD29AE29B0292E14B0292E080319B429B7
:10136600B529C6292E0A031DB929BA29C329003071
:10137600F4000030F3000030F2000030F100C32921
:10138600F317F401CF290030F4000030F3000030E9
:10139600F2000030F100CF2978088039A00020083B
:1013A600AD002D082C060319D929DA29DC292C17BA
:1013B600DC297835A0002008AD00F71FE329E429D1
:1013C600E6292D14E6292D080319EA29EB29FC291B
:1013D6002D0A031DEF29F029F9290030F800003005
:1013E600F7000030F6000030F500F929F717F8018C
:1013F600042A0030F8000030F7000030F600003014
:10140600F5002E082D020318092A0A2A502A2C1F35
:101416000D2A0E2A132A8030A0002008AC06132AB3
:101426002E08A0002008AF002D08A0002008AE005E
:101436002F08A0002008AD007108A0002008AF000A
:101446007508A0002008F1002F08A0002008F5006C
:101456007208A0002008AF007608A0002008F2005D
:101466002F08A0002008F6007308A0002008AF008F
:101476007708A0002008F3002F08A0002008F70036
:101486007408A0002008AF007808A0002008F40027
:101496002F08A0002008F800502AAF012E08A0004F
:1014A600A101A009A109A00A0319A10A2D08200774
:1014B600A20021080318210AA3002308803AA400E9
:1014C60080302402031D692A1A302202031C6C2A6A
:1014D6006D2AA92A7408730472047104031D742A00
:1014E600762A0130772A00304001A0002008AF009C
:1014F6000030F4000030F3000030F2000030F1005C
:101506002D08A0002008AE00B12AA92A2F1C8C2A7B
:101516008D2A932A2F360138A0002008AF00962A7C
:101526000310AF0C962A711C992A9A2A9C2AAF1787
:101536009C2A0130A000F437F30CF20CF10CA00B3E
:101546009E2A0130A0002008AE07A92A40012D08D6
:101556002E02031CAF2AB02A892AB12A2C1BB42AD0
:10156600B52AF12A2E08031DB92ABA2AC42A003040
:10157600F4000030F3000030F2000030F100112CCE
:10158600112C7508F1077608F23D7708F33D7808C7
:10159600F43D741CCF2AD02A982B2F1CD32AD42A88
:1015A600DA2A2F360138A0002008AF00DD2A031002
:1015B600AF0CDD2A711CE02AE12AE32AAF17E32AE1
:1015C6000130A000F437F30CF20CF10CA00BE52A65
:1015D6000130A0002008AE07982B982B7408803A9B
:1015E600A0007808803A2002031D032B77087302B7
:1015F600031D032B76087202031D032B7508710267
:101606000318062B072B532BFF30A000FF30A10039
:10161600FF30A200FF30A3007508A4007608A500DD
:101626007708A6007808A7007109A8007209A90022
:101636007309AA007409AB00A80A0319A90A0319B9
:10164600AA0A0319AB0A2808A4072908A53D2A08EF
:10165600A63D2B08A73D2408A0072508A13D26087E
:10166600A23D2708A33D2308F4002208F300210821
:10167600F2002008F1008030A0002008AC06AF0977
:10168600AF0A2F08031D482B492B5B2B0130F107AE
:101696000030F23D0030F33D0030F43D5B2B5B2B18
:1016A6007508F1027608F23B7708F33B7808F43BBD
:1016B6007408730472047104031D622B632B922B4E
:1016C6002F08031D672B682B922B0030F400003087
:1016D600F3000030F2000030F100112C112C922B97
:1016E6000130F135F20DF30DF40D890B742BAF1F9C
:1016F6007D2B7E2B7F2B71142F1C822B832B862B0D
:101706000314AF0D892B0310AF0D892B2E08031977
:101716008D2B8E2B922B0130AE02922B922BF31F28
:10172600952B962B732B982B982BAD01AF1F9C2BCB
:101736009D2BAF2B2F087F390319A22BA32BA62B8A
:10174600AD01AD0AAF2B711CA92BAA2BAF2BAD0196
:10175600AD0AAF2BAF2BAF2B2D080319B32BB42B30
:10176600E32B0130F1070030F23D0030F33D00304D
:10177600F43D741CBF2BC02BE32B7108A00072082C
:10178600A1007308A2007408A3000130A400A337C7
:10179600A20CA10CA00CA40BCA2B2308F40022084F
:1017A600F3002108F2002008F1002E0A0319DC2BB1
:1017B600DD2BE32B0130A0002008AE07E32BE32B43
:1017C6002E0A0319E72BE82BEE2B2E08031DEC2B14
:1017D600ED2BFE2BEE2B0030F4000030F300003032
:1017E600F2000030F1002E08031DFA2BFB2BFE2B16
:1017F600AC01FE2BFE2B2E1C012C022C042CF31705
:10180600082C7F30A0002008F3052E36A000200803
:10181600F400AC1F0F2C102C112CF41708004201F9
:10182600B00040016E0886008701403F4101E2009A
:10183600413FE30062088400630885001200253AF0
:10184600031D262C272CD42F40016E088600870105
:101856000130810741310318810A4201E101E201A9
:10186600E501E601FF30E300FF30E400A001A1013D
:10187600A72C802C4201651440016E088600870162
:101886000130810741310318810AA72C4201E51472
:1018960040016E0886008701013081074131031837
:1018A600810AA72C4201651540016E088600870152
:1018B6000130810741310318810AA72C4201E51541
:1018C60040016E0886008701013081074131031807
:1018D600810AA72C4201651640016E088600870121
:1018E6000130810741310318810AA72C01304201DA
:1018F600A0000030A100A72CA72C40016E0886008E
:101906008701403F4101E200413FE3006208840055
:10191600630885000008E400E5016508003A03193C
:10192600952C792C6408203A0319612C033A031983
:101936006D2C083A0319552C063A03193D2C1D3A0D
:101946000319492C792CA72C4201200821040319DC
:10195600AD2CAE2C802C651CB12CB22CB72CFD30D6
:10196600E505FF30E605B72C40016E0886008701C5
:10197600403F4101E200413FE30062088400630802
:10198600850012002A3A031DC92CCA2CEE2C4001F0
:101996006E08860087010130810741310318810AEC
:1019A6006F08860001308700010884000130850039
:1019B60002308107003F4201E100013FE200E21FE1
:1019C600E52CE62C572D6514E109E209E10A031915
:1019D600E20A572D572D40016E0886008701403FC9
:1019E600F700413FF8009231CF228C31780842014E
:1019F600E2007708E100092D40016E0886008701A4
:101A06000130810741310318810A092D40016E0812
:101A160086008701403F4101E200413FE300620842
:101A26008400630885000008D03EE400FF300318F8
:101A36000030E500003065020A3003196402031C19
:101A4600252D272D0130282D0030E600E7016608F8
:101A56004201A200410167084201A3004F2D400147
:101A66006E0886008701403F4101E200413FE300E6
:101A760062088400630885000008E400E501640844
:101A8600F1006508F2009A3145228C317208420154
:101A9600A3007108A2004F2D22082304031D542D14
:101AA600552DFF2C572D572D40016E0886008701B6
:101AB600403F4101E200413FE300620884006308C1
:101AC600850012002E3A031D692D6A2D0B2E420148
:101AD600E301E40140016E088600870101308107B9
:101AE60041310318810A6E0886008701403F410193
:101AF600E200413FE30062088400630885001200AB
:101B06002A3A031D872D882DA12D40016E088600D7
:101B160087010130810741310318810A6F08860069
:101B260001308700010884000130850002308107FA
:101B3600003F4201E300013FE4000B2E40016E0826
:101B460086008701403FF700413FF8009231CF22DF
:101B56008C3178084201E4007708E300BC2D40018F
:101B66006E08860087010130810741310318810A1A
:101B7600BC2D40016E0886008701403F4101E2000E
:101B8600413FE30062088400630885000008D03EF8
:101B9600E400FF3003180030E500003065020A302B
:101BA60003196402031CD82DDA2D0130DB2D003019
:101BB600E600E70166084201A40041016708420108
:101BC600A500022E40016E0886008701403F4101B4
:101BD600E200413FE30062088400630885000008D4
:101BE600E400E5016408F1006508F2009A31452237
:101BF6008C3172084201A5007108A400022E240847
:101C06002504031D072E082EB22D0B2E0B2E0B2E90
:101C160040016E0886008701403F4101E200413FD6
:101C2600E30062088400630885000008E400E5011B
:101C36006408F7006508F8009B3194238C31770817
:101C46004101E60066084201A800280803192C2E67
:101C56002D2E742E40016E0886008701403F4101FB
:101C6600E200413FE3000130620784006308031885
:101C7600630A85000008E400E5016408F7006508CA
:101C8600F8009B3194238C3177084101E600660801
:101C96004201A90029080319512E522E742E400123
:101CA6006E0886008701403F4101E200413FE300A4
:101CB60002306207840063080318630A850000087F
:101CC600E400E5016408F7006508F8009B319423F9
:101CD6008C3177084101E60066084201AA00742E9D
:101CE600742E66302806031D792E7A2ECC2E4001DE
:101CF6006E0886008701403F4101E200413FE30054
:101D060062088400630885000008E4006408420154
:101D1600AF0040016E08860087010130810741311E
:101D26000318810A6F0886000130870001088400C5
:101D36000130850004308107003F4201AB00013FBE
:101D4600AC00023FAD00033FAE002E084101A300E8
:101D560042012D084101A20042012C084101A100C7
:101D660042012B084101A00042012F084101E20077
:101D76006208A4004201300880317A208C3141018A
:101D860021084001EF00410120084001EE00FF2F2D
:101D9600FF2F1A30F100A030F2000230F3000030BD
:101DA600F40028309D31E6258C3171087204031D3C
:101DB600DD2EDE2E972F40016E0886008701403FFC
:101DC6004101E200413FE3000130620784006308FD
:101DD6000318630A85000008E40064084201AF00A6
:101DE60040016E0886008701403F4101E200413F05
:101DF600E30062088400630885000008BF3EE40033
:101E0600FF3003180030E500003065021A30031970
:101E16006402031C0F2F112F0130122F0030E60031
:101E2600E70166084201A600410167084201A700D2
:101E3600392F40016E0886008701403F4101E200CC
:101E4600413FE30062088400630885000008E4005F
:101E5600E5016408F1006508F200903106208C3136
:101E660072084201A7007108A600392F2608270428
:101E760003193E2F3F2F542F40016F088600013073
:101E86008700010884000130850004308107003F87
:101E96004201AB00013FAC00023FAD00033FAE0084
:101EA600692F40016F088600013087000108840011
:101EB6000130850004308107003F4201AB00013F3D
:101EC600AC00023FAD00033FAE00692F40016E0833
:101ED600860087010230810741310318810A4201D9
:101EE6002E084101A30042012D084101A200420132
:101EF6002C084101A10042012B084101A00042012A
:101F06002F084101E2006208A40042013008803136
:101F16007A208C31410121084001EF00410120085F
:101F26004001EE00FF2FFF2F40016E08860087015B
:101F3600403F4101E200413FE3006208840063083C
:101F460085001200253A031DA92FAA2FC72F40018D
:101F56006E08860087010130810741310318810A26
:101F66002530F1000030F200420130084101E20064
:101F76006208F3009C3168248C3101304001EE0088
:101F86000030EF00FF2FFF2F40016E08860087010B
:101F96000130810741310318810AEE01EF01FF2F5D
:101FA600FF2F40016E0886008701403F4101E20095
:101FB600413FE30062088400630885000008E400EE
:101FC600E5016408F1006508F200420130084101AC
:101FD600E6006608F3009C3168248C3140016E08E7
:101FE600860087010130810741310318810A0130DB
:101FF600EE000030EF00FF2F080064008001013181
:10200600890B012800347108BF3EF300FF30723D92
:10201600F400003074021A3003197302031C1428EA
:102026001628013017280030F500F6017508F10072
:102036007608F2001E280800F30040018E100E14E8
:102046007308F1000730F136890B2628710801392B
:10205600F200F20CF20C0E0872067F3972068E0040
:102066007308F1000630F136890B362871080139FC
:10207600F200F20EF20DF20D0E087206BF3972066C
:102086008E007308F1000530F136890B4728710878
:102096000139F200F20EF20D0E087206DF397206F1
:1020A6008E007308F1000430F136890B5728710849
:1020B6000139F200F20E0E087206EF3972068E0032
:1020C6000330890B6428000040018E140D30890B03
:1020D6006A28000040018E107308F1000330F136C3
:1020E600890B722871080139F200F20CF20C0E0805
:1020F60072067F3972068E007308F1000230F136DF
:10210600890B822871080139F200F20EF20DF20DE8
:102116000E087206BF3972068E0073360139F10059
:10212600F10EF10D0E087106DF3971068E00730887
:102136000139F100F10E0E087106EF3971068E00B5
:102146000330890BA428000040018E140D30890B42
:10215600AA28000040018E100D30890BB02800001F
:102166003A30F1002330890BB628F10BB62800006F
:102176000800003040014005C80000304105C90094
:1021860080304205CA007F304305CB004B084A0425
:1021960049044804031DD028D128D9280030C3009B
:1021A6000030C2000030C1000030C00000304405DD
:1021B600C80000304505C90080304605CA007F309A
:1021C6004705CB004B084A0449044804031DEC2884
:1021D600ED28F6280030C7000030C6000030C500E4
:1021E6000030C400F628C31FF928FA282229003037
:1021F600C8000030C9000030CA008030CB0040095A
:10220600CC004109CD004209CE004309CF00CC0ADB
:102216000319CD0A0319CE0A0319CF0A4C08C807B9
:102226004D08C93D4E08CA3D4F08CB3D4B08C3007B
:102236004A08C2004908C1004808C0002229C71F31
:10224600252926294E290030C8000030C900003053
:10225600CA008030CB004409CC004509CD004609B0
:10226600CE004709CF00CC0A0319CD0A0319CE0ABE
:102276000319CF0A4C08C8074D08C93D4E08CA3D88
:102286004F08CB3D4B08C7004A08C6004908C500A1
:102296004808C4004E298030C3068030C706470868
:1022A6004302031D602946084202031D60294508B2
:1022B6004102031D6029440840020318632964296A
:1022C6006629031069290314692969290800400150
:1022D6009313131393121312931013108E130E13DA
:1022E6008E120E128E100E103A30F4002330890B27
:1022F6007A29F40B7A2900003A30F4002330890B4E
:102306008229F40B822900003A30F4002330890B2D
:102316008A29F40B8A2900003A30F4002330890B0D
:102326009229F40B922900003A30F4002330890BED
:102336009A29F40B9A2900003A30F4002330890BCD
:10234600A229F40BA2290000F501F50A0430750252
:10235600031CAE29AF29B129DB29DB2940018E13E5
:102366000E138E160E168E100E108E130E138E165C
:102376000E168E140E100D30890BBF290000400179
:102386008E130E138E160E168E100E103A30F400A3
:102396002330890BCC29F40BCC2900000130F40042
:1023A6007408F50704307502031CDA29DB29B12904
:1023B60040018E130E138E160E128E100E108E13F3
:1023C6000E138E160E128E140E100D30890BE9297F
:1023D600000040018E130E138E160E128E100E1074
:1023E6003A30F4002330890BF629F40BF629000065
:1023F6002830F4007408F50075089F31672791317D
:102406001030F4007408F50075089F316727913184
:10241600F501F50A75089F31672791310F30F400F1
:102426007408F50075089F3167279131080040014F
:10243600A00020080319202A212A352AF41F242A5D
:10244600252A352A7109A2007209A3007309A4007E
:102456007409A500A20A0319A30A0319A40A0319F9
:10246600A50A3D2A7408A5007308A4007208A300F3
:102476007108A2007408730472047104031D442ACF
:10248600452A4F2A0030F4000030F3000030F200F5
:102496000030F100CE2ACE2A9630F5007508A1004C
:1024A600602A0130F5007508A1070130A536A40C95
:1024B600A30CA20C890B592A602AFE302505031DA0
:1024C600652A662A542A7B2A7B2A0130F50075087C
:1024D600A1070130A2070030A33D0030A43D003023
:1024E600A53D0130A536A40CA30CA20C890B752AB8
:1024F600FF302505031D802A812A682A8D2A8D2A08
:102506000130A1020130A235A30DA40DA50D890B42
:10251600862A8D2AA41B902A912A982A0230210203
:102526000318962A972A832A982A21189B2A9C2AD6
:10253600A42AFF30A205FF30A3057F30A405FF3093
:10254600A5050310A10C2108F500F601F701F80115
:102556001830F535F60DF70DF80D890BAC2A750810
:10256600A2047608A3047708A4047808A504200822
:102576000319BE2ABF2AC52AF41FC22AC32AC52A9E
:10258600A517C52A2508F4002408F3002308F2003D
:102596002208F100CE2A08004001AB01AC01A401DB
:1025A600A501DA2A0130F7070030F83DDA2AAA0138
:1025B600AA0A77088400780885001200203A0319D1
:1025C600E52AE62AFC2A77088400780885000008B0
:1025D600F73EA000FF3003180030A10000302102B2
:1025E600053003192002031CF92AFA2AFC2AAA013B
:1025F600FC2A2A08A000A1012008A6002108A7009D
:10260600182B77088400780885000008A000A1012F
:102616002008F1002108F2009A31A12292317208B5
:102626004001A7007108A600182B26082704031DE1
:102636001D2B1E2BD52A292B292B0130A400003057
:10264600A5000130F7070030F83D652B77088400B8
:10265600780885000008A000A1012108003A0319A6
:10266600352B652B20082B3A0319242B063A031920
:10267600202B652B652B77088400780885000008D9
:10268600D03EA000FF3003180030A100A009A10928
:10269600A00A0319A10A2C08F2002B08F1000A303F
:1026A600F3000030F4009A317F2292314001200875
:1026B6007107AB002108723DAC000130F70700300E
:1026C600F83D652B77088400780885000008D03E21
:1026D600A000FF3003180030A100003021020A30AC
:1026E60003192002031C782B7A2B01307B2B003038
:1026F600A200A3012208A8002308A900962B7708A8
:102706008400780885000008A000A1012008F100D7
:102716002108F2009A314522923172084001A9003F
:102726007108A800962B28082904031D9B2B9C2BB7
:102736003E2B9D2B24082504031DA22BA32BAF2B78
:102746002B09A0002C09A100A00A0319A10A200840
:10275600F7002108F800B52B2C08F8002B08F70025
:10276600B52BB52B0800400147088039C80048083A
:10277600D1004735C8004808D800C61FC32BC42B54
:10278600C62B5814C62B58080319CA2BCB2BDC2B87
:10279600580A031DCF2BD02BD92B0030C700003091
:1027A600C6000030C5000030C400D92BC617C701CB
:1027B600E52B0030C7000030C6000030C5000030F1
:1027C600C400E52B43088039C8004808D1064335C4
:1027D600C8004808D900C21FF12BF22BF42B59145C
:1027E600F42B59080319F82BF92B0A2C590A031D47
:1027F600FD2BFE2B072C0030C3000030C20000303A
:10280600C1000030C000072CC217C301122C0030D3
:10281600C3000030C2000030C1000030C0004308D1
:10282600420441044004031D192C1A2C342C003098
:10283600C7000030C6000030C5000030C40080303C
:10284600C6047F30C7045108C8004808C7044708B3
:10285600C3004608C2004508C1004408C000942DC4
:10286600942D5808031D382C392C4B2C0030C700EA
:102876000030C6000030C5000030C4004708C30061
:102886004608C2004508C1004408C000942D942D96
:102896005908C800C901C809C909C80A0319C90ADB
:1028A60058084807CA0049080318490ACB004A08CD
:1028B6007F3ED20000304B3DD3004708D00046088B
:1028C600CF004508CE004408CD000030C7000030D8
:1028D600C6000030C5000030C4000030D70000300C
:1028E600D6000030D5000030D400D901BC2C5908E0
:1028F60003197E2C7F2C9B2C0130CD35CE0DCF0DB0
:10290600D00D890B802C0130C435C50DC60DC70D01
:10291600890B872CD71F902C912C932C4414932C25
:102926000130D435D50DD60DD70D890B942C9B2CA3
:1029360043085002031DA92C42084F02031DA92C6F
:1029460041084E02031DA92C40084D02031CAC2C65
:10295600AD2CB72C57174008CD024108CE3B420894
:10296600CF3B4308D03BB72C0130C8004808D907F5
:10297600BC2C1A305902031CC12CC22C7A2CC32C35
:1029860050084F044E044D040319CA2CCB2CE72CD7
:102996005414E72CE72C0130C435C50DC60DC70D00
:1029A600890BCF2CD71FD82CD92CDB2C4414DB2C2D
:1029B6000130D435D50DD60DD70D890BDC2CFF3063
:1029C600D207FF30D33DE72CC61FEA2CEB2CCE2CCA
:1029D600EC2CD901D71FF02CF12C112DFF3054050A
:1029E600C800FF305505C900FF305605CA007F30C4
:1029F6005705CB004B084A04490448040319042D23
:102A0600052D082DD901D90A112D441C0B2D0C2D8D
:102A1600112DD901D90A112D112D112D590803197E
:102A2600152D162D402D0130C4070030C53D003050
:102A3600C63D0030C73D471C212D222D402D4408A0
:102A4600C8004508C9004608CA004708CB0001303F
:102A5600CC00CB37CA0CC90CC80CCC0B2C2D4B08A0
:102A6600C7004A08C6004908C5004808C400013026
:102A7600D2070030D33D402D402D5308803AC80080
:102A860080304802031D492DFF305202031C4C2D95
:102A96004D2D5A2DFF304001D2000030D3000030BA
:102AA600C7000030C6000030C5000030C400400139
:102AB6005308803AC80080304802031D642D013057
:102AC60052020318672D682D742D4001D201D301DF
:102AD6000030C7000030C6000030C5000030C4001A
:102AE600D10140015208C8004808D800581C7C2D66
:102AF6007D2D7F2DC617832D7F30C8004808C6055B
:102B06005836C8004808C7005108C8004808C70416
:102B16004708C3004608C2004508C1004408C00073
:102B2600942D0800400129088039AE002E08B30014
:102B36002935AE002E08B900A81FA22DA32DA52D5C
:102B46003914A52D39080319A92DAA2DBA2D390A2C
:102B5600031DAE2DAF2DB82D0030A9000030A80002
:102B66000030A7000030A600B82DA817C32D0030EE
:102B7600A9000030A8000030A7000030A600C32D31
:102B86002D088039AE002E08B3062D35AE002E086E
:102B9600B800AC1FCF2DD02DD22D3814D22D380829
:102BA6000319D62DD72DE72D380A031DDB2DDC2D75
:102BB600E52D0030AD000030AC000030AB00003039
:102BC600AA00E52DAC17F02D0030AD000030AC00AA
:102BD6000030AB000030AA00F02D38080319F42DA0
:102BE600F52DFB2D3908031DF92DFA2D052EFB2D8C
:102BF6000030A9000030A8000030A7000030A60071
:102C0600FF2FFF2F2608AE002E08F1002C089A3160
:102C1600E822953172084001BF007108BE003E08E7
:102C2600AE00AF01B001B1013108B7003008B600FF
:102C36002F08B5002E08B4003F08AE00AF01B00162
:102C4600B1013108BD003008BC002F08BB002E08BA
:102C5600BA002708AE002E08F1002B089A31E822A8
:102C6600953172084001BF007108BE003E08AE00F3
:102C7600AF01B001B1012E08B4072F08B53D3008E9
:102C8600B63D3108B73D3F08AE00AF01B001B10116
:102C96002E08BA072F08BB3D3008BC3D3108BD3DA4
:102CA6002808AE002E08F1002A089A31E82295314C
:102CB60072084001BF007108BE003E08AE00AF01B9
:102CC600B001B1012E08B4072F08B53D3008B63D56
:102CD6003108B73D3F08AE00AF01B001B1012E0883
:102CE600BA072F08BB3D3008BC3D3108BD3D083052
:102CF600B435B50DB60DB70D890B7B2E2708AE0082
:102D06002E08F1002A089A31E8229531720840010E
:102D1600BF007108BE003E08B4073F08B53D00304D
:102D2600B63DB73D2608AE002E08F1002B089A31B5
:102D3600E822953172084001BF007108BE003E08C6
:102D4600B4073F08B53D0030B63DB73D0830B43551
:102D5600B50DB60DB70D890BAA2E2608AE002E08A6
:102D6600F1002A089A31E822953172084001BF0025
:102D76007108BE003E08B4073F08B53D0030B63DB9
:102D8600B73D2708AE002E08F1002C089A31E8223C
:102D9600953172084001BF007108BE003E08BA07AF
:102DA6003F08BB3D0030BC3DBD3D2808AE002E08A7
:102DB600F1002B089A31E822953172084001BF00D4
:102DC6007108BE003E08BA073F08BB3D0030BC3D57
:102DD600BD3D2808AE002E08F1002C089A31E822E5
:102DE600953172084001BF007108BE003E08AE0072
:102DF6003F08AF00B001B1010830AE35AF0DB00DE0
:102E0600B10D890B002F2E08BA072F08BB3D3008DD
:102E1600BC3D3108BD3D3408AE003508AF0036086C
:102E2600B0003708B1001830B136B00CAF0CAE0C9C
:102E3600890B172F2E08BA072F08BB3D3008BC3D5B
:102E46003108BD3D0830B435B50DB60DB70D890B4B
:102E5600262F39083807AE00AF01AF0D2E08823E87
:102E6600BE00FF302F3DBF00512F0130BA35BB0DDC
:102E7600BC0DBD0D890B392FB71F422F432F452F90
:102E86003A14452F0130B435B50DB60DB70D890B83
:102E9600462FFF30BE07FF30BF3D512FBC1F542FBA
:102EA600552F382F562FB801B71F5A2F5B2F7B2F60
:102EB600FF303405AE00FF303505AF00FF30360574
:102EC600B0007F303705B100310830042F042E04DE
:102ED60003196E2F6F2F722FB801B80A7B2F3A1C79
:102EE600752F762F7B2FB801B80A7B2F7B2F7B2F70
:102EF600380803197F2F802FAA2F0130BA07003018
:102F0600BB3D0030BC3D0030BD3D3D1C8B2F8C2FA2
:102F1600AA2F3A08AE003B08AF003C08B0003D08B7
:102F2600B1000130B200B137B00CAF0CAE0CB20B31
:102F3600962F3108BD003008BC002F08BB002E08B4
:102F4600BA000130BE070030BF3DAA2FAA2F3F08A6
:102F5600803AAE0080302E02031DB32FFF303E02B2
:102F6600031CB62FB72FC12F7F304001BD00803024
:102F7600BC000030BB000030BA00F22F40013F0811
:102F8600803AAE0080302E02031DCB2F01303E0268
:102F96000318CE2FCF2FDA2F00304001BD000030AE
:102FA600BC000030BB000030BA00B301F22F400174
:102FB6003E08AE002E08B900FF30BA05FF30BB054B
:102FC6007F30BC050030BD05391CEA2FEB2FED2FF5
:102FD600BC17ED2F3936AE002E08BD00F22F330890
:102FE600AE002E08BD043D08A9003C08A8003B0819
:0A2FF600A7003A08A600FF2F08000C
:10347000740873047204710403193F2A402A432A12
:103480008030F406432A442A08007108D03EF30035
:10349000FF30723DF400003074020A3003197302E9
:1034A000031C532A552A0130562A0030F500F60134
:1034B0007508F1007608F2005D2A080080304001AE
:1034C000C3064708F4004608F3004508F200440824
:1034D000F1004308F8004208F7004108F6004008F0
:1034E000F5008931A0219A3174084001C3007308A6
:1034F000C2007208C1007108C0007E2A0800F501F0
:10350000F601822A711C852A862A8A2A7308F50701
:103510007408F63D0130F335F40D890B8B2A013028
:10352000F236F10C890B902A71087204031D992A56
:103530009A2A822A9B2A7608F2007508F100A02AAE
:103540000800F501F50A2030710672040319A92A52
:10355000AA2ABB2A7108F73EF300FF30723DF4003F
:1035600000307402053003197302031CB82AB92A0B
:10357000BB2AF501BB2A7508F300F4017308F100BA
:103580007408F200C32A0800F8007208F6007108F7
:10359000F5007808F3007308F700CF2ACF2A7708E0
:1035A000860001308700F70A7608F4007508F300FA
:1035B000F50A0319F60A73088400740885000008E8
:1035C000C03F8908031DE52AE62ACF2AE72A08001A
:1035D000F900F501F6017108F300F4017308F70032
:1035E0007408F800F32A791CF62AF72AFB2A7708D0
:1035F000F5077808F63D0130F735F80D890BFC2A00
:103600000310F90C7908031D062B072BF32A082B4E
:103610007608F2007508F1000D2B0800F800780814
:10362000F3007308F700192B0130F3007308F80753
:10363000192B78088600013087000108031D212B13
:10364000222B142B232B7708F3000130F400F3090D
:10365000F409F30A0319F40A7808F5000130F600BA
:1036600073087507F1007408763DF200372B0800E7
:103670004001A600A401A501512B2308A000A1012F
:103680002008F1002108F2007908A2002208F300C6
:103690009C3168249B3101304001A4070030A53DD6
:1036A000512B24082607A00020088600013087003F
:1036B0000108A1002108A3002308031D602B612B32
:1036C0003D2B622B08004201BA003330B7003708A7
:1036D000BB003A08B7003708BC00BD01BE01BF01FE
:1036E000C00132084101E900420131084101E8000E
:1036F0003B304201B70037084101EA003C308731D6
:10370000C7279B31410169084201B900410168089E
:103710004201B8003D083A07B7003708860001307B
:1037200087008101932B08007708BF3E4001A0006D
:10373000FF30783DA100003021021A300319200229
:10374000031CA32BA52B0130A62B0030A200A30144
:103750002208F9002308FA00B92B7808F20077084C
:10376000F100903106209B317208FA007108F900CF
:10377000B92B79087A040319BE2BBF2BC72B203035
:103780007704F70000307804F800C72BC72B080037
:10379000F800E42B7408803EF6007608F900FA2B56
:1037A0007408C03EF6007608F900FA2B7408943EBF
:1037B000F6007608F900FA2B7408D43EF600760875
:1037C000F900FA2BFA2BFA2B7808F600F7017708A4
:1037D000003A0319EC2BFA2B7608013A0319CA2B8D
:1037E000033A0319D02B013A0319D62B073A0319D0
:1037F000DC2BFA2B79089F3167279B310C2C75083D
:10380000860001308700010890311F209B31013074
:10381000F6007608F5070C2C750886000130870045
:103820000108031D142C152CFF2B162C080000304A
:1038300071054001A00000307205A10080307305C1
:10384000A2007F307405A300230822042104200471
:10385000031D2B2C2C2C342C0030F4000030F300F2
:103860000030F2000030F10000307505A00000309B
:103870007605A10080307705A2007F307805A3008F
:103880002308220421042004031D472C482C502C1B
:103890000030F8000030F7000030F6000030F5008E
:1038A00078087406031D5E2C77087306031D5E2CD2
:1038B00076087206031D5E2C750871060319612CCB
:1038C000622C642C0310672C0314672C672C0800EF
:1038D000730803196C2C6D2C732C7308031D712C49
:1038E000722C782C732C7108803103209C31C22CEF
:1038F0007308033E86000130870016000104031997
:10390000822C832CA32C7308033E86000130870091
:10391000403FF400413FF500730A86000130870004
:10392000403FF600413FF7007708803AF8007508FD
:10393000803A7802031D9E2C740876020318A12C8D
:10394000A22CC22CA32C7108F4007308860001304D
:103950008700730A84000130850000080107F50024
:10396000750886000130870074088100730A86009C
:10397000013087000130810741310318810AC22CD0
:10398000C22CC22C0800F701F41FC72CC82CD02C65
:10399000F309F409F30A0319F40AF701F70AD02C22
:1039A000F21FD32CD42CDA2CF109F209F10A0319F5
:1039B000F20ADA2C710872040319DF2CE02C0F2DA7
:1039C000F601F60AED2C0130F135F20D890BE42CED
:1039D0000130F5007508F607ED2CF21FF02CF12CE4
:1039E000E32CF32CF32C72087402031DF92C7108DC
:1039F0007302031CFC2CFD2C022D7108F3027208CB
:103A0000F43B022D0130F236F10C890B032D01300D
:103A1000F602031D0C2D0D2DF32C0F2D0F2D770805
:103A20000319132D142D1A2DF309F409F30A0319A0
:103A3000F40A1A2D7408F2007308F1001F2D080013
:103A40004001AE004201651C262D272D312D40017D
:103A50002E08FA007A08F90027089B3138239D3197
:103A6000312D4001A91B352D362D3B2D2908AD00E8
:103A70002808AC003D2DAC01AD01AA01AB01522DCF
:103A80002030F1000030F20040012E08FA007A08E0
:103A9000F3009C3168249D3101304001AA070030B9
:103AA000AB3D522D2B08803AFA002D08803A7A025D
:103AB000031D5C2D2C082A02031C5F2D602D402D58
:103AC00042016518642D652D6F2D40012E08FA0006
:103AD0007A08F90027089B3138239D316F2D40016A
:103AE00027089B310E239D3140012C087107A70048
:103AF0002D08723DA8007C2D0800F701F21F812DD2
:103B0000822D8A2DF109F209F10A0319F20AF7014F
:103B1000F70A8A2DF41F8D2D8E2D982DF309F409A7
:103B2000F30A0319F40A0130F5007508F706982D19
:103B3000F801F9017108720403199F2DA02DD52DEC
:103B4000F601F60AAD2D0130F135F20D890BA42DE9
:103B50000130F5007508F607AD2DF21FB02DB12D1F
:103B6000A32DB32DB32D0130F835F90D890BB42DEC
:103B700072087402031DBE2D71087302031CC12D4F
:103B8000C22DC82D7108F3027208F43B7814C82DB9
:103B90000130F236F10C890BC92D0130F602031DFC
:103BA000D22DD32DB32DD52DD52D77080319D92D91
:103BB000DA2DE02DF809F909F80A0319F90AE02DC0
:103BC0007908F2007808F100E52D0800F700770881
:103BD000F5007508FA007208F9007108F800013064
:103BE000F3020030F43B730A031DFA2D740A031D1F
:103BF000FA2DFB2D0D2EF101F2014F2E4F2E0D2E21
:103C00000130F5007508FA070130F8070030F93D7A
:103C10000130F3020030F43B0D2E7A0886000130AB
:103C2000870001080319152E162E372E78088400F8
:103C300079088500120003191E2E1F2E372E7308D7
:103C400074040319242E252E372E78088400790851
:103C500085000008F5007A08860001308700010819
:103C600075060319342E352E002E372E372E780880
:103C70008400790885000008F500F601F509F609C9
:103C8000F50A0319F60A7A08860001308700010850
:103C90007507F10076080318760AF2004F2E080027
:103CA00042015A084001A500420159084001A40000
:103CB000420158084001A300420157084001A200F8
:103CC0007408A5007308A4007208A3007108A2007C
:103CD0002208F5002308F6002408F7002508F8005C
:103CE0001730F836F70CF60CF50C890B712EFF30F7
:103CF0007505A00000307605A10020082104031DF1
:103D0000822E832EA62E2208F5002308F600240812
:103D1000F7002508F8000130F535F60DF70DF80D20
:103D2000890B8C2E7808770476047504031D992E70
:103D30009A2E9F2E0230F1000030F200D22E033076
:103D4000F1000030F200D22ED22ED22E200A210411
:103D5000031DAB2EAC2ECD2E2208F5002308F60055
:103D60002408F7002508F8000930F535F60DF70DA1
:103D7000F80D890BB52E78087704760475040319BD
:103D8000C22EC42E0130C52E0030F900FA01790888
:103D9000F1007A08F200D22ED22E0430F100003069
:103DA000F200D22E08007108F5007208F6007308C0
:103DB000F7007408F8000310770D780DF900790802
:103DC000FB007B08031DE52EE62EF02E0030F400EC
:103DD0000030F3000030F2000030F100662F662F53
:103DE0007108F5007208F6007308F7007408F8000F
:103DF0001F30F836F70CF60CF50C890BF92E750808
:103E0000F9007908FA00F317FF30F105FF30F205E9
:103E1000FF30F3050030F4059630FB02FB1F112F35
:103E2000122F352F7B08803A973E0318182F192F31
:103E3000242F0030F4000030F3000030F200003096
:103E4000F100662F662F242F0130F436F30CF20CAC
:103E5000F10C890B252F0130F5007508FB07031DB8
:103E6000322F332F242F562F562F20307B02031C46
:103E70003A2F3B2F4F2F0030F4000030F30000307A
:103E8000F2000030F100662F662F4F2F0130F13520
:103E9000F20DF30DF40D890B472F0130FB027B0867
:103EA000031D532F542F462F562F562F7A080319D0
:103EB0005A2F5B2F662FF109F209F309F409F10A71
:103EC0000319F20A0319F30A0319F40A0800F300AC
:103ED00040018E100E107308F1000730F136890B87
:103EE0006E2F71080139F200F20CF20C0E08720606
:103EF0007F3972068E007308F1000630F136890BA7
:103F00007E2F71080139F200F20EF20DF20D0E084B
:103F10007206BF3972068E007308F1000530F13663
:103F2000890B8F2F71080139F200F20EF20D0E0885
:103F30007206DF3972068E007308F1000430F13624
:103F4000890B9F2F71080139F200F20E0E087206DC
:103F5000EF3972068E000330890BAC2F0000400150
:103F60008E140D30890BB22F000040018E107308A3
:103F7000F1000330F136890BBA2F71080139F200D4
:103F8000F20CF20C0E0872067F3972068E0073086E
:103F9000F1000230F136890BCA2F71080139F200A5
:103FA000F20EF20DF20D0E087206BF3972068E0087
:103FB00073360139F100F10EF10D0E087106DF398B
:103FC00071068E0073080139F100F10E0E087106BA
:103FD000EF3971068E000330890BEC2F0000400191
:103FE0008E140D30890BF22F000040018E103A30F4
:103FF000F1002330890BFA2FF10BFA2F0000080093
:104000002534303433342E3432346634203463343F
:104010006D34003449344E34463400344E34413427
:104020004E34003469346E34663400346E34613496
:0A4030006E3400346C346634003442
:020000040001F9
:0A000E008C3FFD3F9F3FFF3FFF3F87
:00000001FF
