:020000040000FA
:08000000803102288731F02F46
:100020000800640080010131890B12280034FA01B4
:10003000F71F1B281C282928F409F509F609F709D8
:10004000F40A0319F50A0319F60A0319F70AFA0163
:10005000FA0AF31F2C282D283928F009F109F20992
:10006000F309F00A0319F10A0319F20A0319F30A52
:100070003928730872047104700403194028412858
:100080008028F901F90A50280130F035F10DF20D00
:10009000F30D890B45280130F8007808F90750283E
:1000A000F31F5328542844285628562873087702EB
:1000B000031D642872087602031D64287108750206
:1000C000031D642870087402031C672868287128BF
:1000D0007008F4027108F53B7208F63B7308F73BB1
:1000E00071280130F336F20CF10CF00C890B7228F8
:1000F0000130F902031D7D287E285628802880289B
:100100007A080319842885289128F409F509F60945
:10011000F709F40A0319F50A0319F60A0319F70A8D
:1001200091287708F3007608F2007508F10074084A
:10013000F0009A2808004001B4002F08BE002E08E5
:10014000BD002D08BC002C08BB00BE1BA828AA2897
:100150000130AB280030B000B1013008B9003108DF
:10016000BA0039083A040319B628B728C228BB09CF
:10017000BC09BD09BE09BB0A0319BC0A0319BD0AA3
:100180000319BE0AED1BC528C628CA28FD30EE0596
:10019000FF30EF056D08803AB00080303002031D5B
:1001A000D32801306C020318D628D728DD28013067
:1001B0004001B5000030B600E22840016D08B600ED
:1001C0006C08B500410123084001B8004101220834
:1001D0004001B70039083A04031DEF28F028F5283C
:1001E0006E1DF328F428F928F528FF30B707FF30F3
:1001F000B83D1F30BF000030C0003F08A43E86005D
:10020000870181015129FF304001BF07FF30C03D08
:100210000030F3000030F2000030F1000A30F0004E
:100220003E08F7003D08F6003C08F5003B08F400E6
:100230008031172080317108FC007008FB00883184
:10024000AA2080317B08303E4001B0003F08A43E28
:100250008600870130088100FF30B507FF30B63DCA
:10026000FF30B707FF30B83D0030F3000030F20038
:100270000030F1000A30F0003E08F7003D08F600BB
:100280003C08F5003B08F4008B317623803173087D
:100290004001BE007208BD007108BC007008BB00C0
:1002A00051294008803AB00080303002031D5A299D
:1002B00001303F02031C5D295E298A2940013E0866
:1002C0003D043C043B04031D6629672903293608C5
:1002D000803AB00080303002031D702901303502B1
:1002E000031873297429032940013808803AB000A3
:1002F00080303002031D7E2901303702031C812922
:1003000082298A294001EE188629872903298A290A
:100310008A298A29400139083A04031D9029912924
:1003200096296E1D94299529B3299629FF30BF0778
:10033000FF30C03D39083A04031D9F29A029A52993
:100340002B30B2000030B300AA292D30B2000030AB
:10035000B300AA293208B0003F08A43E86008701F6
:1003600030088100B3293F08A43EB0003008A40043
:100370003808A6003708A50034088A318322803166
:1003800040012508AD002408AC00C6290800400142
:1003900041088039C2004208CB004135C200420802
:1003A000D200C01FD429D529D7295214D7295208E1
:1003B0000319DB29DC29ED29520A031DE029E12973
:1003C000EA290030C1000030C0000030BF0000301A
:1003D000BE00EA29C017C101F6290030C100003073
:1003E000C0000030BF000030BE00F6293D08803953
:1003F000C2004208CB063D35C2004208D300BC1FF4
:10040000022A032A052A5314052A53080319092A24
:100410000A2A1B2A530A031D0E2A0F2A182A003003
:10042000BD000030BC000030BB000030BA00182A0C
:10043000BC17BD01232A0030BD000030BC000030D5
:10044000BB000030BA003D083C043B043A04031DE5
:100450002A2A2B2A452A0030C1000030C000003073
:10046000BF000030BE008030C0047F30C1044B08A4
:10047000C2004208C1044108BD004008BC003F085A
:10048000BB003E08BA00A52BA52B5208031D492A24
:100490004A2A5C2A0030C1000030C0000030BF0092
:1004A0000030BE004108BD004008BC003F08BB0052
:1004B0003E08BA00A52BA52B5308C200C301C209F0
:1004C000C309C20A0319C30A52084207C4004308F9
:1004D0000318430AC50044087F3ECC000030453D68
:1004E000CD004108CA004008C9003F08C8003E08C6
:1004F000C7000030C1000030C0000030BF00003035
:10050000BE000030D1000030D0000030CF000030FD
:10051000CE00D301CD2A530803198F2A902AAC2A82
:100520000130C735C80DC90DCA0D890B912A01309C
:10053000BE35BF0DC00DC10D890B982AD11FA12A50
:10054000A22AA42A3E14A42A0130CE35CF0DD00D04
:10055000D10D890BA52AAC2A3D084A02031DBA2AEF
:100560003C084902031DBA2A3B084802031DBA2A67
:100570003A084702031CBD2ABE2AC82A51173A0866
:10058000C7023B08C83B3C08C93B3D08CA3BC82AD8
:100590000130C2004208D307CD2A1A305302031C8F
:1005A000D22AD32A8B2AD42A4A0849044804470469
:1005B0000319DB2ADC2AF82A4E14F82AF82A01301B
:1005C000BE35BF0DC00DC10D890BE02AD11FE92A30
:1005D000EA2AEC2A3E14EC2A0130CE35CF0DD00D9C
:1005E000D10D890BED2AFF30CC07FF30CD3DF82A25
:1005F000C01FFB2AFC2ADF2AFD2AD301D11F012BB1
:10060000022B222BFF304E05C200FF304F05C300E6
:10061000FF305005C4007F305105C5004508440433
:10062000430442040319152B162B192BD301D30AAB
:10063000222B3E1C1C2B1D2B222BD301D30A222B39
:10064000222B222B53080319262B272B512B013049
:10065000BE070030BF3D0030C03D0030C13D411CF1
:10066000322B332B512B3E08C2003F08C3004008F9
:10067000C4004108C5000130C600C537C40CC30C16
:10068000C20CC60B3D2B4508C1004408C0004308FE
:10069000BF004208BE000130CC070030CD3D512BD9
:1006A000512B4D08803AC20080304202031D5A2B64
:1006B000FF304C02031C5D2B5E2B6B2BFF30400187
:1006C000CC000030CD000030C1000030C000003050
:1006D000BF000030BE0040014D08803AC2008030AB
:1006E0004202031D752B01304C020318782B792B25
:1006F000852B4001CC01CD010030C1000030C0008D
:100700000030BF000030BE00CB0140014C08C200E9
:100710004208D200521C8D2B8E2B902BC017942B8D
:100720007F30C2004208C0055236C2004208C100F4
:100730004B08C2004208C1044108BD004008BC008B
:100740003F08BB003E08BA00A52B08004001D100BD
:10075000410886008701403FC300413FC400430871
:100760008400440885001200253A031DB82BB92BDC
:100770005D2D410886008701013081074131031852
:10078000810A4101A201A3014001EE01EF01FF3006
:10079000EC00FF30ED00CD01CE012C2C072C6E14A7
:1007A0004108860087010130810741310318810A21
:1007B0002C2CEE144108860087010130810741315D
:1007C0000318810A2C2C6E15410886008701013020
:1007D000810741310318810A2C2CEE15410886004F
:1007E00087010130810741310318810A2C2C6E16D4
:1007F0004108860087010130810741310318810AD1
:100800002C2C0130CD000030CE002C2C2C2C41089B
:1008100086008701403FC300413FC4004308840075
:10082000440885000008C500C6014608003A0319BF
:100830001A2C012C4508203A0319ED2B033A031911
:10084000F72B083A0319E32B063A0319CF2B1D3A6D
:100850000319D92B012C2C2C4D084E040319312CD3
:10086000322C072C6E1C352C362C3B2CFD30EE0523
:10087000FF30EF053B2C410886008701403FC30055
:10088000413FC400430884004408850012002A3A0E
:10089000031D4B2C4C2C6F2C410886008701013026
:1008A000810741310318810A420886008701010847
:1008B0008400850102308107003F4101A200013F11
:1008C000A300A31F642C652CD22C40016E1441019F
:1008D000A209A309A20A0319A30AD22CD22C40010F
:1008E000410886008701403FF600413FF7008E3106
:1008F0001026833177084101A3007608A2008A2CD4
:100900004001410886008701013081074131031809
:10091000810A8A2C4001410886008701403FC300BC
:10092000413FC40043088400440885000008D03ECD
:10093000C500FF3003180030C600003046020A3000
:1009400003194502031CA52CA72C0130A82C00304C
:10095000C700C8014708CF004808D000CA2C41088A
:1009600086008701403FC300413FC4004308840024
:10097000440885000008C500C6014508F000460887
:10098000F10088319120833171084001D000700856
:10099000CF00CA2C4F085004031DCF2CD02C802C24
:1009A000D22CD22C4001410886008701403FC30071
:1009B000413FC40043088400440885001200643AA3
:1009C0000319E32CE42CF62C410886008701403FF4
:1009D000C300413FC400430884004408850012005E
:1009E000693A031DF42CF52C262DF62C41088600BF
:1009F00087010130810741310318810A42088600CE
:100A0000870101088400850102308107003FC3008F
:100A1000013FC4004308C9004408CA00890D893B4E
:100A20008909CB00CC004C08AF004B08AE004A0847
:100A3000AD004908AC00510880319B208331400152
:100A40002D08C2002C08C100842D842D4108860089
:100A50008701403FC300413FC4004308840044086D
:100A600085001200253A031D362D372D512D4108E2
:100A7000860087010130810741310318810A253042
:100A8000F0000030F1005108C3004308F2008A3141
:100A90002F22833101304001C1000030C200842D7B
:100AA000842D4108860087010130810741310318F8
:100AB000810AC101C201842D842D4108860087016D
:100AC000403FC300413FC400430884004408850000
:100AD0000008C500C6014508F0004608F1005108AD
:100AE000C7004708F2008A312F22833140014108B4
:100AF000860087010130810741310318810A0130E6
:100B0000C1000030C200842D080040012308803954
:100B1000A8002808AD002335A8002808B300A21FAC
:100B2000922D932D952D3314952D33080319992D5E
:100B30009A2DAA2D330A031D9E2D9F2DA82D00301E
:100B4000A3000030A2000030A1000030A000A82DBA
:100B5000A217B32D0030A3000030A2000030A10086
:100B60000030A000B32D27088039A8002808AD0662
:100B70002735A8002808B200A61FBF2DC02DC22D02
:100B80003214C22D32080319C62DC72DD72D320AB3
:100B9000031DCB2DCC2DD52D0030A7000030A60095
:100BA0000030A5000030A400D52DA617E02D0030A0
:100BB000A7000030A6000030A5000030A400E02D02
:100BC00032080319E42DE52DEB2D3308031DE92D23
:100BD000EA2DF52DEB2D0030A3000030A2000030EF
:100BE000A1000030A000EF2FEF2F2008A800280858
:100BF000F000260889310C21853171084001B900C7
:100C00007008B8003808A800A901AA01AB012B0898
:100C1000B1002A08B0002908AF002808AE00390842
:100C2000A800A901AA01AB012B08B7002A08B60049
:100C30002908B5002808B4002108A8002808F000F9
:100C4000250889310C21853171084001B9007008EF
:100C5000B8003808A800A901AA01AB012808AE070E
:100C60002908AF3D2A08B03D2B08B13D3908A8003E
:100C7000A901AA01AB012808B4072908B53D2A0833
:100C8000B63D2B08B73D2208A8002808F00024082C
:100C900089310C21853171084001B9007008B80014
:100CA0003808A800A901AA01AB012808AE07290845
:100CB000AF3D2A08B03D2B08B13D3908A800A90175
:100CC000AA01AB012808B4072908B53D2A08B63D9A
:100CD0002B08B73D0830AE35AF0DB00DB10D890B07
:100CE0006B2E2108A8002808F000240889310C2167
:100CF000853171084001B9007008B8003808AE07A6
:100D00003908AF3D0030B03DB13D2008A8002808AB
:100D1000F000250889310C21853171084001B900A6
:100D20007008B8003808AE073908AF3D0030B03D54
:100D3000B13D0830AE35AF0DB00DB10D890B9A2E17
:100D40002008A8002808F000240889310C218531EA
:100D500071084001B9007008B8003808AE073908BA
:100D6000AF3D0030B03DB13D2108A8002808F0009B
:100D7000260889310C21853171084001B9007008BD
:100D8000B8003808B4073908B53D0030B63DB73D66
:100D90002208A8002808F000250889310C21853197
:100DA00071084001B9007008B8003808B407390864
:100DB000B53D0030B63DB73D2208A8002808F00038
:100DC000260889310C21853171084001B90070086D
:100DD000B8003808A8003908A900AA01AB010830FA
:100DE000A835A90DAA0DAB0D890BF02E2808B40764
:100DF0002908B53D2A08B63D2B08B73D2E08A800A6
:100E00002F08A9003008AA003108AB001830AB3613
:100E1000AA0CA90CA80C890B072F2808B4072908CD
:100E2000B53D2A08B63D2B08B73D0830AE35AF0DAD
:100E3000B00DB10D890B162F33083207A800A90198
:100E4000A90D2808823EB800FF30293DB900412F86
:100E50000130B435B50DB60DB70D890B292FB11F73
:100E6000322F332F352F3414352F0130AE35AF0DDF
:100E7000B00DB10D890B362FFF30B807FF30B93DEB
:100E8000412FB61F442F452F282F462FB201B11FE7
:100E90004A2F4B2F6B2FFF302E05A800FF302F0558
:100EA000A900FF303005AA007F303105AB002B08C8
:100EB0002A042904280403195E2F5F2F622FB20130
:100EC000B20A6B2F341C652F662F6B2FB201B20A4A
:100ED0006B2F6B2F6B2F320803196F2F702F9A2FE8
:100EE0000130B4070030B53D0030B63D0030B73DAD
:100EF000371C7B2F7C2F9A2F3408A8003508A900B7
:100F00003608AA003708AB000130AC00AB37AA0C9A
:100F1000A90CA80CAC0B862F2B08B7002A08B6002A
:100F20002908B5002808B4000130B8070030B93DE1
:100F30009A2F9A2F3908803AA80080302802031D82
:100F4000A32FFF303802031CA62FA72FB12F7F300D
:100F50004001B7008030B6000030B5000030B4006A
:100F6000E22F40013908803AA80080302802031D92
:100F7000BB2F013038020318BE2FBF2FCA2F0030FD
:100F80004001B7000030B6000030B5000030B400BA
:100F9000AD01E22F40013808A8002808B300FF3057
:100FA000B405FF30B5057F30B6050030B705331CFA
:100FB000DA2FDB2FDD2FB617DD2F3336A8002808F8
:100FC000B700E22F2D08A8002808B7043708A300AF
:100FD0003608A2003508A1003408A000EF2F080051
:100FE0004001EC01ED01EE01EF01A0308400003082
:100FF0008500243080311120873140018E31FA2E56
:101122007008D03EF200FF30713DF30000307302D0
:101132000A3003197202031C9F28A1280130A22839
:101142000030F400F5017408F0007508F100A928D8
:1011520008007C08803A4001A00080302002031D74
:10116200B42801307B020318B728B828C5287B09A8
:101172004001A0007C09A100A00A0319A10A2008CD
:10118200FB002108FC00C628C6280800F401F5016E
:10119200CA28701CCD28CE28D2287208F4077308FA
:1011A200F53D0130F235F30D890BD3280130F136CC
:1011B200F00C890BD82870087104031DE128E2287D
:1011C200CA28E3287508F1007408F000E82808002E
:1011D200F401F40A2030700671040319F128F22890
:1011E20003297008F73EF200FF30713DF300003032
:1011F2007302053003197202031C00290129032915
:10120200F40103297408F200F3017208F000730874
:10121200F1000B290800F800F401F5017008F20052
:10122200F3017208F6007308F7001729781C1A29CF
:101232001B291F297608F4077708F53D0130F6359A
:10124200F70D890B20290310F80C7808031D2A29B1
:101252002B2917292C297508F1007408F00031296F
:1012620008004001E3005C30FD007D08E2006308F5
:10127200FD007D08E400E501E601E701E8015B0805
:10128200D3005A08D2006230FD007D08D4006430D9
:101292008931AD21893140015308E1005208E00053
:1012A20065086307FD007D088600870181015929D1
:1012B2000800F7007708F2007208F600652901308D
:1012C200F2007208F707652977088600870101088E
:1012D200031D6C296D2960296E297608F200003001
:1012E200F300F209F309F20A0319F30A7708F4008A
:1012F2000030F50072087407F0007308753DF100C4
:10130200822908004001A300A101A2019C29200812
:10131200F900FA017908F0007A08F1007808FB0078
:101322007B08F2008A312F22893101304001A10766
:101332000030A23D9C2921082307F9007908860084
:1013420087010108FA007A08A0002008031DAA29D3
:10135200AB298829AC2908004001D7005308D900DD
:101362005208D8004101A001A101CD295830400105
:10137200D5005508C1005408D6005608C2005708C7
:101382008331A6238931400141084101A007400170
:1013920042084101A13DCD29400158088400590865
:1013A20085001200031DD629D729B729D829410162
:1013B20021084001D300410120084001D200E12967
:1013C2000800F700FE297308803EF5007508F80052
:1013D200142A7308C03EF5007508F800142A730831
:1013E200943EF5007508F800142A7308D43EF500FF
:1013F2007508F800142A142A142A7708F500F60151
:101402007608003A0319062A142A7508013A0319C4
:10141200E429033A0319EA29013A0319F029073AA0
:101422000319F629142A78088A31DD228931252AFE
:1014320074088600870101088C310F24893101303C
:10144200F5007508F407252A74088600870101084B
:10145200031D2C2A2D2A192A2E2A08007208031984
:10146200332A342A3A2A7208031D382A392A3F2A93
:101472003A2A7008803110208A31822A7208033E8B
:1014820086008701160001040319482A492A672A9F
:101492007208033E86008701403FF300413FF4009B
:1014A200720A86008701403FF500413FF600760848
:1014B200803AF7007408803A7702031D622A7308A3
:1014C20075020318652A662A822A672A7008F300C1
:1014D200720886008701720A8400850100080107EC
:1014E200F40074088600870173088100720A86007E
:1014F20087010130810741310318810A822A822A39
:10150200822A08004001AB006E1C882A892A922A8E
:101512002B08FC007C08F8002408893183218A31D9
:10152200922A4001A61B962A972A9C2A2608AA00DC
:101532002508A9009E2AA901AA01A701A801B32A88
:101542002030F0000030F10040012B08FC007C0844
:10155200F2008A312F228A3101304001A707003080
:10156200A83DB32A2808803AFC002A08803A7C0267
:10157200031DBD2A29082702031CC02AC12AA12A49
:1015820040016E18C52AC62ACF2A2B08FC007C0807
:10159200F8002408893183218A31CF2A40012408A6
:1015A20089315A218A31400129087007A4002A088A
:1015B200713DA500DC2A0800F20040018E100E10D9
:1015C2007208F0000730F036890BE42A70080139FE
:1015D200F100F10CF10C0E0871067F3971068E00D4
:1015E2007208F0000630F036890BF42A70080139CF
:1015F200F100F10EF10DF10D0E087106BF39710601
:101602008E007208F0000530F036890B052B700849
:101612000139F100F10EF10D0E087106DF39710684
:101622008E007208F0000430F036890B152B70081A
:101632000139F100F10E0E087106EF3971068E00C4
:101642000330890B222B000040018E140D30890BD0
:10165200282B000040018E107208F0000330F03693
:10166200890B302B70080139F100F10CF10C0E08D6
:1016720071067F3971068E007208F0000230F03672
:10168200890B402B70080139F100F10EF10DF10DBB
:101692000E087106BF3971068E0072360139F000EC
:1016A200F00EF00D0E087006DF3970068E0072081B
:1016B2000139F000F00E0E087006EF3970068E0048
:1016C2000330890B622B000040018E140D30890B10
:1016D200682B000040018E103A30F0002330890B55
:1016E200702BF00B702B000008004001A101F31FCA
:1016F2007B2B7C2B892BF009F109F209F309F00A03
:101702000319F10A0319F20A0319F30AA101A10A42
:10171200F71F8C2B8D2B9D2BF409F509F609F70980
:10172200F40A0319F50A0319F60A0319F70A013034
:10173200F8007808A1069D2B0030A5000030A40017
:101742000030A3000030A200730872047104700418
:101752000319AC2BAD2BF42BA001A00ABC2B01303A
:10176200F035F10DF20DF30D890BB12B0130F800BC
:101772007808A007BC2BF31FBF2BC02BB02BC22BAA
:10178200C22B0130A235A30DA40DA50D890BC32BCD
:1017920073087702031DD72B72087602031DD72B1D
:1017A20071087502031DD72B70087402031CDA2B13
:1017B200DB2BE52B7008F4027108F53B7208F63B4F
:1017C2007308F73B2214E52B0130F336F20CF10CCF
:1017D200F00C890BE62B0130A002031DF12BF22B3A
:1017E200C22BF42BF42B21080319F82BF92B052C0F
:1017F200A209A309A409A509A20A0319A30A0319A4
:10180200A40A0319A50A052C2508F3002408F200EE
:101812002308F1002208F0000E2C0800F20040011B
:101822008E100E147208F0000730F036890B162C59
:1018320070080139F100F10CF10C0E0871067F39C4
:1018420071068E007208F0000630F036890B262CE5
:1018520070080139F100F10EF10DF10D0E0871065B
:10186200BF3971068E007208F0000530F036890B20
:10187200372C70080139F100F10EF10D0E087106D6
:10188200DF3971068E007208F0000430F036890BE1
:10189200472C70080139F100F10E0E087106EF397C
:1018A20071068E000330890B542C000040018E1407
:1018B2000D30890B5A2C000040018E107208F00086
:1018C2000330F036890B622C70080139F100F10CFB
:1018D200F10C0E0871067F3971068E007208F00055
:1018E2000230F036890B722C70080139F100F10ECA
:1018F200F10DF10D0E087106BF3971068E007236B8
:101902000139F000F00EF00D0E087006DF39700696
:101912008E0072080139F000F00E0E087006EF39E1
:1019220070068E000330890B942C000040018E1447
:101932000D30890B9A2C000040018E100D30890B5E
:10194200A02C00003A30F0002330890BA62CF00BBB
:10195200A62C0000080040019313131393121312D4
:10196200931013108E130E138E120E128E100E1071
:101972003A30F3002330890BBC2CF30BBC2C000053
:101982003A30F3002330890BC42CF30BC42C000033
:101992003A30F3002330890BCC2CF30BCC2C000013
:1019A2003A30F3002330890BD42CF30BD42C0000F3
:1019B2003A30F3002330890BDC2CF30BDC2C0000D3
:1019C2003A30F3002330890BE42CF30BE42C0000B3
:1019D200F401F40A04307402031CF02CF12CF32CF1
:1019E2001D2D1D2D40018E130E138E160E168E10F8
:1019F2000E108E130E138E160E168E140E100D3040
:101A0200890B012D000040018E130E138E160E1647
:101A12008E100E103A30F3002330890B0E2DF30B8B
:101A22000E2D00000130F3007308F4070430740235
:101A3200031C1C2D1D2DF32C40018E130E138E162C
:101A42000E128E100E108E130E138E160E128E1490
:101A52000E100D30890B2B2D000040018E130E133A
:101A62008E160E128E100E103A30F3002330890BB0
:101A7200382DF30B382D00002830F3007308F400E2
:101A820074088A31DD228C311030F3007308F400BF
:101A920074088A31DD228C31F401F40A74088A3127
:101AA200DD228C310F30F3007308F40074088A31A0
:101AB200DD228C310800F80078080319612D622DAF
:101AC200762DF31F652D662D762D7009FA007109AA
:101AD200FB007209FC007309FD00FA0A0319FB0AF4
:101AE2000319FC0A0319FD0A7E2D7308FD00720812
:101AF200FC007108FB007008FA007308720471049C
:101B02007004031D852D862D902D0030F3000030CA
:101B1200F2000030F1000030F0000F2E0F2E963050
:101B2200F4007408F900A12D0130F4007408F907DB
:101B32000130FD36FC0CFB0CFA0C890B9A2DA12D01
:101B4200FE307D05031DA62DA72D952DBC2DBC2D88
:101B52000130F4007408F9070130FA070030FB3D48
:101B62000030FC3D0030FD3D0130FD36FC0CFB0C2D
:101B7200FA0C890BB62DFF307D05031DC12DC22D38
:101B8200A92DCE2DCE2D0130F9020130FA35FB0DF3
:101B9200FC0DFD0D890BC72DCE2DFC1BD12DD22D99
:101BA200D92D023079020318D72DD82DC42DD92D65
:101BB2007918DC2DDD2DE52DFF30FA05FF30FB0510
:101BC2007F30FC05FF30FD050310F90C7908F400A5
:101BD200F501F601F7011830F435F50DF60DF70DA4
:101BE200890BED2D7408FA047508FB047608FC04D1
:101BF2007708FD0478080319FF2D002E062EF31F27
:101C0200032E042E062EFD17062E7D08F3007C08F7
:101C1200F2007B08F1007A08F0000F2E0800400164
:101C2200A701A801A001A1011B2E0130F607003077
:101C3200F73D1B2EA601A60A7608840077088500C8
:101C42001200203A0319262E272E3D2E76088400F4
:101C5200770885000008F73EF800FF3003180030CF
:101C6200F90000307902053003197802031C3A2E7C
:101C72003B2E3D2EA6013D2E2608F800F9017808DC
:101C8200A2007908A300592E7608840077088500FF
:101C92000008F800F9017808F0007908F1008831AD
:101CA200E9208E3171084001A3007008A200592E6C
:101CB20022082304031D5E2E5F2E162E6B2E6B2E22
:101CC20001304001A0000030A1000130F6070030D1
:101CD200F73DA82E76088400770885000008F800F2
:101CE200F9017908003A0319772EA82E78082B3AC1
:101CF2000319662E063A0319612EA82EA82E76081D
:101D02008400770885000008D03EF800FF300318F1
:101D12000030F900F809F909F80A0319F90A400133
:101D22002808F1002708F0000A30F2000030F30022
:101D32008831C7208E31780870074001A7007908E2
:101D4200713DA8000130F6070030F73DA82E760855
:101D52008400770885000008D03EF800FF300318A1
:101D62000030F900003079020A3003197802031CAE
:101D7200BB2EBD2E0130BE2E0030FA00FB017A08C8
:101D82004001A4007B08A500DA2E760884007708BB
:101D920085000008F800F9017808F0007908F100E0
:101DA200883191208E3171084001A5007008A4008D
:101DB200DA2E24082504031DDF2EE02E802EE12ECC
:101DC20020082104031DE62EE72EF32E2709F80032
:101DD2002809F900F80A0319F90A7808F6007908BF
:101DE200F700F92E2808F7002708F600F92EF92E39
:101DF20008004101D801D9010030D7000030D600D7
:101E02000030D5000030D40051011308F8390638EB
:101E120093007E01CE01381640011116410193173D
:101E220013161A12FC309A051308F339043893007A
:101E32008C31AC248E3101308A31DD228E310C306E
:101E42008A31DD228E3105304001EA000F30E9008F
:101E5200F130890B2A2FE90B2A2FEA0B2A2F312F77
:101E6200043041019E001314362F1318392F3A2FD4
:101E7200362F3B2F0D084001E900EA0169084101B4
:101E8200D80040016A084101D90059084001EA001E
:101E9200410158084001E9006908EA00E9016908BE
:101EA2004101D80040016A084101D9000C085807D5
:101EB2004001E900410159080318590A4001EA00AA
:101EC20069084101D80040016A084101D900443043
:101ED2004001BD007F30BC00C030BB000030BA0002
:101EE2004030A3005330A2003330A1003330A000B1
:101EF20041015808F0005908F100890D893B890910
:101F0200F200F30001308D315C258E3173084001FF
:101F1200A7007208A6007108A5007008A400853108
:101F220085258E3140012308C1002208C000210806
:101F3200BF002008BE008131C7218E3140013D081B
:101F42004101D70040013C084101D60040013B0855
:101F52004101D50040013A084101D4000A30400154
:101F6200DA009030DB00410159084001DD004101F7
:101F720058084001DC00C430893132218E31F3012E
:101F8200F30AC4304001E9006908F40001308931E4
:101F9200E2218E3100304001DA009030DB00410155
:101FA20057084001DF00410156084001DE004101AF
:101FB20055084001DD00410154084001DC00C430F5
:101FC200893132218E31F301F30AC4304001E90034
:101FD2006908F40002308931E2218E311530400166
:101FE200EA004B30E900BE30890BF52FE90BF52FE3
:101FF200EA0BF52F0000312F312F803102285634A1
:102002006F346C3474343D342534303434346434B5
:1020120000346134643463343D3425343034343430
:0420220064340034EE
:020000040001F9
:0A000E008C3FFD3F9F3FFF3FFF3F87
:00000001FF
