:020000040000FA
:08000000803102288731EA2F4C
:10000E0008007008F4007108F5007208F600730815
:10001E00F7000310760D770DF8007808FA007A08CD
:10002E00031D1A281B2825280030F3000030F2008B
:10003E000030F1000030F0009B289B287008F4007F
:10004E007108F5007208F6007308F7001F30F736D6
:10005E00F60CF50CF40C890B2E287408F8007808B1
:10006E00F900F217FF30F005FF30F105FF30F20511
:10007E000030F3059630FA02FA1F462847286A2800
:10008E007A08803A973E03184D284E28592800309A
:10009E00F3000030F2000030F1000030F0009B2839
:1000AE009B2859280130F336F20CF10CF00C890B19
:1000BE005A280130F4007408FA07031D67286828CF
:1000CE0059288B288B2820307A02031C6F28702821
:1000DE0084280030F3000030F2000030F1000030D0
:1000EE00F0009B289B2884280130F035F10DF20D8D
:1000FE00F30D890B7C280130FA027A08031D88283B
:10010E0089287B288B288B28790803198F2890281B
:10011E009B28F009F109F209F309F00A0319F10A13
:10012E000319F20A0319F30A08004101C000BE01C7
:10013E00BF0140016B084101D40040016A08410132
:10014E00D300400169084101D20040016808410115
:10015E00D10054084001BD00410153084001BC00CC
:10016E00410152084001BB00410151084001BA0053
:10017E000030C1000030C0000030BF000030BE00B3
:10018E008831002080310318CD28CE28E828013090
:10019E004101BE000030BF005408F3005308F200C6
:1001AE005208F1005108F000993155218031730841
:1001BE004101D4007208D3007108D2007008D1003A
:1001CE00E8284101D701D80142016B084101C50061
:1001DE0042016A084101C4003E083F04031DF8288D
:1001EE00F928FE286E1DFC28FD282029FE283E0831
:1001FE003F04031D0329042909292B30A8000030D0
:10020E00A9000E292D30A8000030A9000E292808BB
:10021E00A0005708A03E860001308700200881000C
:10022E000130D7070030D83DFF30C407FF30C53D41
:10023E0020295408F3005308F2005208F100510827
:10024E00F0009D319725803170037104031D302914
:10025E003129972940016C08BF3E4101A000FF30B3
:10026E0003180030A100003021021A3003192002B9
:10027E00031C42294429013045290030A200A30164
:10028E002208AA002308AB005E2940016C08410138
:10029E00A000A1012008F0002108F10099317B2176
:1002AE00803171084101AB007008AA005E292A084E
:1002BE002B040319632964296E291830F000A0302D
:1002CE00F1005708A03E9931FA218031792920306A
:1002DE00F000A030F10041015708A03E9931FA21FB
:1002EE0080317929FD304101C407FF30C53DA03072
:1002FE00A00020084001A400410145084001A600CD
:10030E00410144084001A500410140089C31672489
:10031E00803140012508E9002408E800E92FE92F83
:10032E0041015408F3005308F2005208F10051083D
:10033E00F0009D319725803170087104031DA829A6
:10034E00A9290F2A40016C08BF3E4101A000FF30D1
:10035E0003180030A100003021021A3003192002C8
:10036E00031CBA29BC290130BD290030A200A3010B
:10037E002208AC002308AD00D62940016C084101CB
:10038E00A000A1012008F0002108F10099317B2185
:10039E00803171084101AD007008AC00D6292C08DF
:1003AE002D040319DB29DC29E6291C30F000A030CE
:1003BE00F1005708A03E9931FA218031F1292430FD
:1003CE00F000A030F10041015708A03E9931FA210A
:1003DE008031F129FD304101C407FF30C53DA03009
:1003EE00A00020084001A400410145084001A600DC
:1003FE00410144084001A500410140089C31672499
:10040E00803140012508E9002408E800E92FE92F92
:10041E003F304101DC008030DB000030DA0000307C
:10042E00D900D501D6015408F3005308F200520842
:10043E00F1005108F0000030F7000030F6000030F7
:10044E00F5000030F4009B315F2380310318302A11
:10045E00312AFB2A642A642A41304001A30020304D
:10046E00A2000030A1000030A00041015C08400154
:10047E00A70041015B084001A60041015A08400156
:10048E00A500410159084001A40095319525803100
:10049E00400123084101DC00400122084101DB003C
:1004AE00400121084101DA00400120084101D90034
:1004BE000130D5070030D63D642A41015408400171
:1004CE00BD00410153084001BC00410152084001EA
:1004DE00BB00410151084001BA004130A300203059
:1004EE00A2000030A1000030A00041015C084001D4
:1004FE00A70041015B084001A60041015A084001D6
:10050E00A500410159084001A4009531952580317F
:10051E0040012308C1002208C0002108BF002008A6
:10052E00BE0088310020803103189E2A9F2A332A6C
:10053E00D22AD22A41304001BD002030BC0000300A
:10054E00BB000030BA0041015C084001C10041010E
:10055E005B084001C00041015A084001BF00410143
:10056E0059084001BE009131CD21803140013D0836
:10057E004101DC0040013C084101DB0040013B0829
:10058E004101DA0040013A084101D900FF30D50798
:10059E00FF30D63DD22A410154084001BD00410131
:1005AE0053084001BC00410152084001BB0041010B
:1005BE0051084001BA0041015C084001C1004101EF
:1005CE005B084001C00041015A084001BF004101D3
:1005DE0059084001BE00883100208031031CF82AE2
:1005EE00F92AA12AFB2AFB2A40016C084101A0002E
:1005FE00A1012008F6002108F7009A316E22803101
:10060E0076084101A2002208C6004608A000200874
:10061E00C30067304606031D152B162B402B4201D7
:10062E006C086D04031D1C2B1D2B212B0130EC00BF
:10063E000030ED006D08803A4101A00080302002AC
:10064E00031D2C2B013042016C0203182F2B302B73
:10065E00362B06304101C1000030C200542B42013E
:10066E006D084101C20042016C084101C100542BCA
:10067E00542B4201ED1B442B452B4D2B6D08410194
:10068E00C20042016C084101C100542B06304101E9
:10069E00C1000030C200542B542B67304606031D98
:1006AE00592B5A2B882B5608803AA0007F302002F7
:1006BE00031D632BFC305502031C662B672B822B0C
:1006CE0041014108FF3EA000FF30423DA10021083C
:1006DE00803AA2005608803A2202031D782B550854
:1006EE002002031C7B2B7C2B822B66304101A00049
:1006FE002008C300882B65304101A0002008C300EC
:10070E00882B4208B9004108B80067304606031D21
:10071E00912B922B9D2B66304306031D972B982B06
:10072E00A22BD61F9B2B9C2BA22B9D2B0130B807E7
:10073E000030B93DA22B66304306031DA72BA82B14
:10074E00C32BD61FAB2BAC2BB72B3F30DC0080302E
:10075E00DB000030DA000030D900D501D601B72B0E
:10076E00673046060319BC2BBD2BC32B5508B807A3
:10077E005608B93DC32BC32BCF01D0015408CA0074
:10078E005308C9005208C8005108C7005C08A700EA
:10079E005B08A6005A08A5005908A400A42C410124
:1007AE005C084001BD0041015B084001BC004101F5
:1007BE005A084001BB00410159084001BA004101ED
:1007CE004A084001C100410149084001C0004101F1
:1007DE0048084001BF00410147084001BE00913169
:1007EE00CD21803140013D08D7003C08D6003B08A2
:1007FE00D5003A08D4008831AE2080314001570828
:10080E004101CE00400156084101CD00400155087E
:10081E004101CC00400154084101CB004E08F300C9
:10082E004D08F2004C08F1004B08F0008031082012
:10083E00803171084101BD007008BC004E084001B6
:10084E00A70041014D084001A60041014C0840019E
:10085E00A50041014B084001A40041015C08400184
:10086E00A30041015B084001A20041015A0840016A
:10087E00A100410159084001A00095319525803114
:10088E0040012308BD002208BC002108BB0020083F
:10089E00BA0041014A084001C10041014908400126
:1008AE00C000410148084001BF0041014708400116
:1008BE00BE0099319421803140013D084101CA00AA
:1008CE0040013C084101C90040013B084101C800FC
:1008DE0040013A084101C70041304001BD002030BF
:1008EE00BC000030BB000030BA0041015C08400182
:1008FE00C10041015B084001C00041015A0840019E
:10090E00BF00410159084001BE009131CD21803117
:10091E0040013D084101DC0040013C084101DB0083
:10092E0040013B084101DA0040013A084101D9007B
:10093E000130CF070030D03DA42C5008803AA000E3
:10094E003908803A2002031DAE2C38084F02031CD2
:10095E00B12CB22CD62BB32C40304001A300A030CA
:10096E00A2000030A1000030A00041015C0840014F
:10097E00A70041015B084001A60041015A08400151
:10098E00A500410159084001A400953195258031FB
:10099E00400123084101CE00400122084101CD0053
:1009AE00400121084101CC00400120084101CB004B
:1009BE004A084001BD00410149084001BC00410107
:1009CE0048084001BB00410147084001BA004101FF
:1009DE004E084001C10041014D084001C0004101D7
:1009EE004C084001BF0041014B084001BE00883158
:1009FE00002080310318042D052D0F2D00304101EC
:100A0E00CE000030CD000030CC000030CB00362DB3
:100A1E0041014A08F3004908F2004808F10047086E
:100A2E00F0004E08F7004D08F6004C08F5004B0894
:100A3E00F4009B315F238031031C262D272D362D8C
:100A4E0041013C182B2D2C2D362D0030CE000030C0
:100A5E00CD000030CC000030CB00362D362D4101BC
:100A6E004E08F3004D08F2004C08F1004B08F00060
:100A7E005408F7005308F6005208F5005108F40028
:100A8E0089319D21803173084101CA007208C90065
:100A9E007108C8007008C7002708DC002608DB00B4
:100AAE002508DA002408D900653043060319602DA5
:100ABE00612D662D5608BB005508BA00682DBA0187
:100ACE00BB01B601B701B401B501CF01D001AB2E08
:100ADE0041015C084001BD0041015B084001BC00C2
:100AEE0041015A084001BB00410159084001BA00BA
:100AFE0041014A084001C100410149084001C000BE
:100B0E00410148084001BF00410147084001BE00B5
:100B1E009131CD21803140013D08D7003C08D600EF
:100B2E003B08D5003A08D4008831AE208031400110
:100B3E0057084101CE00400156084101CD00400149
:100B4E0055084101CC00400154084101CB004E082C
:100B5E00F3004D08F2004C08F1004B08F000803114
:100B6E000820803171084101BD007008BC006E1A6A
:100B7E00C12DC22DD72D3C083D04031DC72DC82DF8
:100B8E00D72D67304606031DCD2DCE2DD72DBB1F7D
:100B9E00D12DD22DD72D0130B4070030B53D282EE2
:100BAE0036083704031DDC2DDD2D0E2EBB1FE02D68
:100BBE00E12D0E2E2E30A0005708A03E86000130EB
:100BCE008700200881000130D7070030D83DFF3064
:100BDE00C407FF30C53D0130B6000030B7000E2E01
:100BEE000E2E3030A0005708A03E86000130870040
:100BFE00200881000130D7070030D83DFF30C407F0
:100C0E00FF30C53DFF30B407FF30B53D0E2E340822
:100C1E003504031D132E142EF82D152E3C08303ED0
:100C2E00A0005708A03E86000130870020088100F2
:100C3E000130D7070030D83DFF30C407FF30C53D27
:100C4E00282E4E084001A70041014D084001A60084
:100C5E0041014C084001A50041014B084001A40090
:100C6E0041015C084001A30041015B084001A20064
:100C7E0041015A084001A100410159084001A0005C
:100C8E0095319525803140012308BD002208BC0016
:100C9E002108BB002008BA0041014A084001C100EA
:100CAE00410149084001C000410148084001BF0010
:100CBE00410147084001BE00993194218031400125
:100CCE003D084101CA0040013C084101C9004001F4
:100CDE003B084101C80040013A084101C7004130BC
:100CEE004001BD002030BC000030BB000030BA0017
:100CFE0041015C084001C10041015B084001C00098
:100D0E0041015A084001BF00410159084001BE008F
:100D1E009131CD21803140013D084101DC0040017F
:100D2E003C084101DB0040013B084101DA00400173
:100D3E003A084101D900FF30BA07FF30BB3D013000
:100D4E00CF070030D03DAB2E5008803AA0003908B6
:100D5E00803A2002031DB52E38084F020318B82E14
:100D6E00B92EC92E41015808803AA00080302002C9
:100D7E00031DC32E4B305702031CC62EC72E6F2DDC
:100D8E00C92EC92E410136083704031DCF2ED02E91
:100D9E00E22E6E1ED32ED42EE22E2E30A000570839
:100DAE00A03E860001308700200881000130D70761
:100DBE000030D83DE22E5708A03E86000130870055
:100DCE00810165304306031DED2EEE2ED02F4F30E0
:100DDE00CF000030D0004F08A03E860001308700C3
:100DEE008101BE01BF01D61FFD2EFE2E082F013040
:100DFE00BE000030BF00D509D609D50A0319D60AA0
:100E0E00082F0230C1000030C200412FFF304101D7
:100E1E00CF07FF30D03D0A30F0000030F100560809
:100E2E00F3005508F2009C310A2480317008303EE0
:100E3E004101A0004F08A03E860001308700200827
:100E4E0081000A30F0000030F1005608F30055081A
:100E5E00F2009C31C424803171084101D600700823
:100E6E00D500FF30C107FF30C23DFF30C407FF3051
:100E7E00C53D412F55085604031D462F472F0D2FF4
:100E8E004208803AA00080302002031D502F01300E
:100E9E0041020318532F542F0D2F552FFF304101B0
:100EAE00CF07FF30D03D3E083F04031D5F2F602F5C
:100EBE00652F2B30AE000030AF006A2F2D30AE0004
:100ECE000030AF006A2F2E08A0004F08A03E86000B
:100EDE000130870020088100FF30C407FF30C53D78
:100EEE00FF30CF07FF30D03D40016C08BF3E4101BF
:100EFE00A000FF3003180030A100003021021A308C
:100F0E0003192002031C8C2F8E2F01308F2F0030DF
:100F1E00A200A3012208B2002308B300A82F4001AB
:100F2E006C084101A000A1012008F0002108F10089
:100F3E0099317B21803171084101B3007008B200F4
:100F4E00A82F32083304031DAD2FAE2FB32F6530FB
:100F5E00B0000030B100B82F4530B0000030B10005
:100F6E00B82F3008A0004F08A03E86000130870041
:100F7E0020088100FF30C407FF30C53D4F08A03E5A
:100F8E00F0000130F1005708A03E9931FA2180316E
:100F9E00D02FA0304101A00020084001A400410143
:100FAE0045084001A600410144084001A500410149
:100FBE0040089C316724803140012508E90024084F
:100FCE00E800E92F08004101EE01EF0160308400D6
:100FDE00013085000E3099314F218731A0308400C9
:100FEE0001308500503099314F21873140019331C6
:100FFE00AC2B003040013A05C20000303B05C30067
:10100E0080303C05C4007F303D05C50045084404D2
:10101E0043044204031D142815281D280030BD006A
:10102E000030BC000030BB000030BA0000303E057E
:10103E00C20000303F05C30080304005C4007F3041
:10104E004105C5004508440443044204031D3028ED
:10105E0031283A280030C1000030C0000030BF00F7
:10106E000030BE003A28BD1F3D283E2866280030BD
:10107E00C2000030C3000030C4008030C5003A0901
:10108E00C6003B09C7003C09C8003D09C900C60A95
:10109E000319C70A0319C80A0319C90A4608C20761
:1010AE004708C33D4808C43D4908C53D4508BD0035
:1010BE004408BC004308BB004208BA006628C11FA2
:1010CE0069286A2892280030C2000030C300003020
:1010DE00C4008030C5003E09C6003F09C700400964
:1010EE00C8004109C900C60A0319C70A0319C80A6C
:1010FE000319C90A4608C2074708C33D4808C43D3C
:10110E004908C53D4508C1004408C0004308BF005A
:10111E004208BE0092288030BD068030C1064108CC
:10112E003D02031DA42840083C02031DA4283F08CD
:10113E003B02031DA4283E083A020318A728A8283C
:10114E00AA280310AD280314AD28AD2808004201CB
:10115E0063084001E700420162084001E6004201D7
:10116E0061084001E500420160084001E4005708B3
:10117E00E7005608E6005508E5005408E400640848
:10118E00D8006508D9006608DA006708DB0017305A
:10119E00DB36DA0CD90CD80C890BCF28FF3058056A
:1011AE00DC0000305905DD005C08813EE200FF30B6
:1011BE005D3DE3006308803AD80080305802031D7D
:1011CE00EA2817306202031CED28EE28EF289C292E
:1011DE004001E31BF328F4285229FF30D800FF30DA
:1011EE00D9007F30DA000030DB00620A0229DB37DB
:1011FE00DA0CD90CD80C890BFE285B08E1005A08D2
:10120E00E0005908DF005808DE0064085E05D800CB
:10121E0065085F05D90066086005DA006708610594
:10122E00DB005B085A0459045804031D1F292029AA
:10123E0021299C296408D8006508D9006608DA00BF
:10124E006708DB001F30DB36DA0CD90CD80C890BA3
:10125E002A295B085A0459045804031937293829D6
:10126E0041295E08E4075F08E53D6008E63D610838
:10127E00E73D41295E09D8005F09D9006009DA000F
:10128E006109DB005808E4055908E5055A08E6052A
:10129E005B08E70593296408D8006508D90066083D
:1012AE00DA006708DB001F30DB36DA0CD90CD80CFD
:1012BE00890B5B295B085A0459045804031D6829DD
:1012CE00692972290030E7000030E6000030E500A1
:1012DE000030E40093296408D8006508D900660838
:1012EE00DA006708DB000130D835D90DDA0DDB0DD9
:1012FE00890B7B295B085A04590458040319882961
:10130E0089299329BF30E7008030E6000030E500E0
:10131E000030E400932993296708D7006608D600A9
:10132E006508D5006408D4009C290800730880392C
:10133E004001A0002008F8007335A0002008FA0034
:10134E00F21FAA29AB29AD297A14AD297A080319FF
:10135E00B129B229C3297A0A031DB629B729C02992
:10136E000030F3000030F2000030F1000030F000E9
:10137E00C029F217F301CC290030F3000030F2003F
:10138E000030F1000030F000CC2977088039A00041
:10139E002008F900790878060319D629D729D92902
:1013AE007817D9297735A0002008F900F61FE02913
:1013BE00E129E3297914E32979080319E729E829B2
:1013CE00F929790A031DEC29ED29F6290030F700D9
:1013DE000030F6000030F5000030F400F629F61764
:1013EE00F701012A0030F7000030F6000030F5005A
:1013FE000030F4007A0879020318062A072A4D2ACB
:10140E00781F0A2A0B2A102A8030A0002008F8061E
:10141E00102A7A08A0002008FB007908A0002008F6
:10142E00FA007B08A0002008F9007008A000200830
:10143E00FB007408A0002008F0007B08A000200824
:10144E00F4007108A0002008FB007508A000200819
:10145E00F1007B08A0002008F5007208A00020080B
:10146E00FB007608A0002008F2007B08A0002008F0
:10147E00F6007308A0002008FB007708A0002008E3
:10148E00F3007B08A0002008F7004D2AFB017A0824
:10149E00A000A101A009A109A00A0319A10A7908B7
:1014AE002007A20021080318210AA3002308803A6E
:1014BE00A40080302402031D662A1A302202031C67
:1014CE00692A6A2AA82A7308720471047004031D1B
:1014DE00712A732A0130742A00304001A0002008BE
:1014EE00FB000030F3000030F2000030F10000305D
:1014FE00F0007908A0002008FA00AF2AA82A7B1C69
:10150E00892A8A2A912A7B3601384001A0002008B8
:10151E00FB00942A0310FB0C942A701C972A982A1D
:10152E009A2AFB179A2A01304001A000F337F20CD9
:10153E00F10CF00CA00B9D2A0130A0002008FA0738
:10154E00A82A79087A02031CAD2AAE2A862AAF2A67
:10155E00781BB22AB32AF12A7A08031DB72AB82AB1
:10156E00C22A0030F3000030F2000030F1000030EB
:10157E00F000152C152C7408F0077508F13D76084F
:10158E00F23D7708F33D731CCD2ACE2A992B7B1C96
:10159E00D12AD22AD92A7B3601384001A000200850
:1015AE00FB00DC2A0310FB0CDC2A701CDF2AE02A6D
:1015BE00E22AFB17E22A01304001A000F337F20CB9
:1015CE00F10CF00CA00BE52A0130A0002008FA0760
:1015DE00992B992B7308803A4001A0007708803A26
:1015EE002002031D042B76087202031D042B7508BE
:1015FE007102031D042B740870020318072B082BAD
:10160E00542BFF30A000FF30A100FF30A200FF30AE
:10161E00A3007408A4007508A5007608A600770834
:10162E00A7007009A8007109A9007209AA00730920
:10163E00AB00A80A0319A90A0319AA0A0319AB0ACF
:10164E002808A4072908A53D2A08A63D2B08A73D72
:10165E002408A0072508A13D2608A23D2708A33D82
:10166E002308F3002208F2002108F1002008F00000
:10167E008030A0002008F806FB09FB0A7B08031D3A
:10168E00492B4A2B5C2B0130F0070030F13D003026
:10169E00F23D0030F33D5C2B5C2B7408F0027508B4
:1016AE00F13B7608F23B7708F33B73087204710442
:1016BE007004031D632B642B932B7B08031D682B77
:1016CE00692B932B0030F3000030F2000030F10054
:1016DE000030F000152C152C932B0130F035F10D48
:1016EE00F20DF30D890B752BFB1F7E2B7F2B802BA1
:1016FE0070147B1C832B842B872B0314FB0D8A2BDE
:10170E000310FB0D8A2B7A0803198E2B8F2B932B2C
:10171E000130FA02932B932BF21F962B972B742BDF
:10172E00992B992BF901FB1F9D2B9E2BB02B7B0820
:10173E007F390319A32BA42BA72BF901F90AB02B80
:10174E00701CAA2BAB2BB02BF901F90AB02BB02BC6
:10175E00B02B79080319B42BB52BE52B0130F0070C
:10176E000030F13D0030F23D0030F33D731CC02BD4
:10177E00C12BE52B70084001A0007108A100720872
:10178E00A2007308A3000130A400A337A20CA10C81
:10179E00A00CA40BCC2B2308F3002208F200210886
:1017AE00F1002008F0007A0A0319DE2BDF2BE52B5F
:1017BE000130A0002008FA07E52BE52B7A0A031961
:1017CE00E92BEA2BF02B7A08031DEE2BEF2B002CC6
:1017DE00F02B0030F3000030F2000030F10000304A
:1017EE00F0007A08031DFC2BFD2B002CF801002CB9
:1017FE00002C7A1C032C042C062CF2170B2C7F3099
:10180E004001A0002008F2057A364001A000200811
:10181E00F300F81F132C142C152CF317080042019B
:10182E00B00040016D0886008701403F4101DD0098
:10183E00413FDE005D0884005E0885001200253AF7
:10184E00031D2A2C2B2CD42F40016D0886008701F6
:10185E000130810741310318810A4201EA01EB018F
:10186E004101EE01EF01FF304201EC00FF30ED00CF
:10187E00A001A101A82C812C6E1440016D088600D8
:10188E0087010130810741310318810AA82CEE141B
:10189E0040016D0886008701013081074131031830
:1018AE00810AA82C6E1540016D0886008701013053
:1018BE00810741310318810AA82CEE1540016D08ED
:1018CE00860087010130810741310318810AA82C57
:1018DE006E1640016D088600870101308107413187
:1018EE000318810AA82C01304201A0000030A1008B
:1018FE00A82CA82C40016D0886008701403F4101AD
:10190E00DD00413FDE005D0884005E0885000008B2
:10191E00DF00E0016008003A0319962C7A2C5F086C
:10192E00203A0319642C033A03196F2C083A031951
:10193E00592C063A0319432C1D3A03194E2C7A2CB6
:10194E00A82C4201200821040319AE2CAF2C812CA7
:10195E0041016E1CB32CB42CB92CFD30EE05FF30BA
:10196E00EF05B92C40016D0886008701403F41010B
:10197E00DD00413FDE005D0884005E088500120038
:10198E002A3A031DCB2CCC2CF22C40016D0886007C
:10199E0087010130810741310318810A6E088600E4
:1019AE000130870001088400013085000230810774
:1019BE00003F4201EA00013FEB00EB1FE72CE82C51
:1019CE005B2D41016E144201EA09EB09EA0A031983
:1019DE00EB0A5B2D5B2D40016D0886008701403FB1
:1019EE00F600413FF7009031E3208C317708420139
:1019FE00EB007608EA000D2D40016D088600870188
:101A0E000130810741310318810A0D2D40016D0807
:101A1E0086008701403F4101DD00413FDE005D0849
:101A2E0084005E0885000008D03EDF00FF300318FA
:101A3E000030E000003060020A3003195F02031C20
:101A4E00292D2B2D01302C2D0030E100E2016108F3
:101A5E004201A200410162084201A300532D400140
:101A6E006D0886008701403F4101DD00413FDE00E9
:101A7E005D0884005E0885000008DF00E0015F0855
:101A8E00F0006008F100993162218C317108420139
:101A9E00A3007008A200532D22082304031D582D05
:101AAE00592D032D5B2D5B2D40016D08860087019E
:101ABE00403F4101DD00413FDE005D0884005E08CD
:101ACE00850012002E3A031D6D2D6E2D0F2E420134
:101ADE00EC01ED0140016D088600870101308107A0
:101AEE0041310318810A6D0886008701403F41018C
:101AFE00DD00413FDE005D0884005E0885001200B7
:101B0E002A3A031D8B2D8C2DA52D40016D088600C4
:101B1E0087010130810741310318810A6E08860062
:101B2E0001308700010884000130850002308107F2
:101B3E00003F4201EC00013FED000F2E40016D0809
:101B4E0086008701403FF600413FF7009031E320C9
:101B5E008C3177084201ED007608EC00C02D400173
:101B6E006D08860087010130810741310318810A13
:101B7E00C02D40016D0886008701403F4101DD0008
:101B8E00413FDE005D0884005E0885000008D03EFF
:101B9E00DF00FF3003180030E000003060020A3032
:101BAE0003195F02031CDC2DDE2D0130DF2D00300A
:101BBE00E100E20161084201A40041016208420114
:101BCE00A500062E40016D0886008701403F4101A9
:101BDE00DD00413FDE005D0884005E0885000008E0
:101BEE00DF00E0015F08F0006008F100993162212A
:101BFE008C3171084201A5007008A400062E24083D
:101C0E002504031D0B2E0C2EB62D0F2E0F2E0F2E70
:101C1E0040016D0886008701403F4101DD00413FD4
:101C2E00DE005D0884005E0885000008DF00E0012C
:101C3E005F08F6006008F7009A316E228C31760844
:101C4E004101E10061084201AC002C080319302E5D
:101C5E00312E782E40016D0886008701403F4101EC
:101C6E00DD00413FDE0001305D0784005E08031891
:101C7E005E0A85000008DF00E0015F08F6006008DC
:101C8E00F7009A316E228C3176084101E10061082D
:101C9E004201AD002D080319552E562E782E400107
:101CAE006D0886008701403F4101DD00413FDE00A7
:101CBE0002305D0784005E0803185E0A8500000886
:101CCE00DF00E0015F08F6006008F7009A316E222F
:101CDE008C3176084101E10061084201AE00782E98
:101CEE00782E66302C06031D7D2E7E2ECE2E4001C4
:101CFE006D0886008701403F4101DD00413FDE0057
:101D0E005D0884005E0885000008DF005F08420160
:101D1E00AF0040016D088600870101308107413117
:101D2E000318810A6E0886000130870001088400BE
:101D3E000130850004308107003F4201A800013FB9
:101D4E00A900023FAA00033FAB002B084001EB00A5
:101D5E0042012A084001EA00420129084001E90037
:101D6E00420128084001E80042012F084101DD0030
:101D7E005D084001EC004201300880319C208C311E
:101D8E0040016908EE006808ED00FF2FFF2F283094
:101D9E00F000A030F1000230F2000030F3002C30E1
:101DAE009D312D258C3170087104031DDF2EE02E20
:101DBE00972F40016D0886008701403F4101DD00ED
:101DCE00413FDE0001305D0784005E0803185E0AA5
:101DDE0085000008DF005F084201AF0040016D087A
:101DEE0086008701403F4101DD00413FDE005D0876
:101DFE0084005E0885000008BF3EDF00FF30031838
:101E0E000030E000003060021A3003195F02031C3C
:101E1E00112F132F0130142F0030E100E201610861
:101E2E004201A600410162084201A7003B2F40017A
:101E3E006D0886008701403F4101DD00413FDE0015
:101E4E005D0884005E0885000008DF00E0015F0881
:101E5E00F0006008F10099317B218C31710842014C
:101E6E00A7007008A6003B2F260827040319402F51
:101E7E00412F562F40016E08860001308700010861
:101E8E0084000130850004308107003F4201A80024
:101E9E00013FA900023FAA00033FAB006B2F400198
:101EAE006E0886000130870001088400013085002D
:101EBE0004308107003F4201A800013FA900023F04
:101ECE00AA00033FAB006B2F40016D08860087010F
:101EDE000230810741310318810A42012B0840016B
:101EEE00EB0042012A084001EA00420129084001A4
:101EFE00E900420128084001E80042012F08410193
:101F0E00DD005D084001EC004201300880319C206C
:101F1E008C3140016908EE006808ED00FF2FFF2F9D
:101F2E0040016D0886008701403F4101DD00413FC1
:101F3E00DE005D0884005E0885001200253A031D50
:101F4E00A92FAA2FC72F40016D08860087010130E7
:101F5E00810741310318810A2530F0000030F1006D
:101F6E00420130084101DD005D08F2009B31AF23D4
:101F7E008C3101304001ED000030EE00FF2FFF2FBD
:101F8E0040016D0886008701013081074131031839
:101F9E00810AED01EE01FF2FFF2F40016D08860033
:101FAE008701403F4101DD00413FDE005D088400B6
:101FBE005E0885000008DF00E0015F08F0006008A1
:101FCE00F100420130084101E1006108F2009B314D
:101FDE00AF238C3140016D088600870101308107E7
:101FEE0041310318810A0130ED000030EE00FF2F61
:021FFE000800D9
:102008004001A300A101A2011D282008F900FA013E
:102018007908F0007A08F1007808FB007B08F200E4
:102028009B31AF23903101304001A1070030A23D20
:102038001D2821082307F900790886000130870048
:102048000108FA007A08A0002008031D2C282D2872
:1020580009282E280800F80078080319342835289C
:102068004928F31F3828392849287009FA007109C6
:10207800FB007209FC007309FD00FA0A0319FB0A48
:102088000319FC0A0319FD0A51287308FD00720898
:10209800FC007108FB007008FA00730872047104F0
:1020A8007004031D5828592863280030F3000030B5
:1020B800F2000030F1000030F000E228E22896300B
:1020C800F4007408F90074280130F4007408F90762
:1020D8000130FD36FC0CFB0CFA0C890B6D287428BA
:1020E800FE307D05031D79287A2868288F288F28D7
:1020F8000130F4007408F9070130FA070030FB3D9D
:102108000030FC3D0030FD3D0130FD36FC0CFB0C81
:10211800FA0C890B8928FF307D05031D9428952822
:102128007C28A128A1280130F9020130FA35FB0DDD
:10213800FC0DFD0D890B9A28A128FC1BA428A528B5
:10214800AC28023079020318AA28AB289728AC28B3
:102158007918AF28B028B828FF30FA05FF30FB05FA
:102168007F30FC05FF30FD050310F90C7908F400F9
:10217800F501F601F7011830F435F50DF60DF70DF8
:10218800890BC0287408FA047508FB047608FC0457
:102198007708FD0478080319D228D328D928F31F13
:1021A800D628D728D928FD17D9287D08F3007C0818
:1021B800F2007B08F1007A08F000E22808004001EC
:1021C800A701A801A001A101EE280130F6070030FF
:1021D800F73DEE28A601A60A760884007708850050
:1021E8001200203A0319F928FA28102976088400E1
:1021F800770885000008F73EF800FF300318003024
:10220800F90000307902053003197802031C0D2902
:102218000E291029A60110292608F800F9017808C6
:10222800A2007908A3002C29760884007708850085
:102238000008F800F9017808F0007908F1009931F0
:10224800D721903171084001A3007008A2002C2901
:1022580022082304031D31293229E9283E293E2971
:1022680001304001A0000030A1000130F607003025
:10227800F73D7B2976088400770885000008F80078
:10228800F9017908003A03194A297B2978082B3A79
:1022980003193929063A031934297B297B29760839
:1022A8008400770885000008D03EF800FF30031846
:1022B8000030F900F809F909F80A0319F90A400188
:1022C8002808F1002708F0000A30F2000030F30077
:1022D8009931B5219031780870074001A700790835
:1022E800713DA8000130F6070030F73D7B297608DC
:1022F8008400770885000008D03EF800FF300318F6
:102308000030F900003079020A3003197802031C02
:102318008E299029013091290030FA00FB017A08B2
:102328004001A4007B08A500AD2976088400770841
:1023380085000008F800F9017808F0007908F10034
:1023480099316221903171084001A5007008A400FC
:10235800AD2924082504031DB229B3295329B4291A
:1023680020082104031DB929BA29C6292709F8001C
:102378002809F900F80A0319F90A7808F600790813
:10238800F700CC292808F7002708F600CC29CC2923
:102398000800400141088039C2004208CB0041359D
:1023A800C2004208D200C01FDA29DB29DD295214F5
:1023B800DD2952080319E129E229F329520A031DEC
:1023C800E629E729F0290030C1000030C0000030BC
:1023D800BF000030BE00F029C017C101FC29003041
:1023E800C1000030C0000030BF000030BE00FC2932
:1023F8003D088039C2004208CB063D35C20042087C
:10240800D300BC1F082A092A0B2A53140B2A530885
:1024180003190F2A102A212A530A031D142A152AE0
:102428001E2A0030BD000030BC000030BB00003068
:10243800BA001E2ABC17BD01292A0030BD00003091
:10244800BC000030BB000030BA003D083C043B042F
:102458003A04031D302A312A4B2A0030C1000030CB
:10246800C0000030BF000030BE008030C0047F30A4
:10247800C1044B08C2004208C1044108BD0040081D
:10248800BC003F08BB003E08BA00AB2BAB2B520880
:10249800031D4F2A502A622A0030C1000030C000B4
:1024A8000030BF000030BE004108BD004008BC003D
:1024B8003F08BB003E08BA00AB2BAB2B5308C20049
:1024C800C301C209C309C20A0319C30A5208420751
:1024D800C40043080318430AC50044087F3ECC00E3
:1024E8000030453DCD004108CA004008C9003F08FA
:1024F800C8003E08C7000030C1000030C0000030EE
:10250800BF000030BE000030D1000030D0000030E5
:10251800CF000030CE00D301D32A53080319952ADF
:10252800962AB22A0130C735C80DC90DCA0D890BC4
:10253800972A0130BE35BF0DC00DC10D890B9E2AEB
:10254800D11FA72AA82AAA2A3E14AA2A0130CE35C2
:10255800CF0DD00DD10D890BAB2AB22A3D084A0206
:10256800031DC02A3C084902031DC02A3B08480233
:10257800031DC02A3A084702031CC32AC42ACE2ACC
:1025880051173A08C7023B08C83B3C08C93B3D08FD
:10259800CA3BCE2A0130C2004208D307D32A1A30D8
:1025A8005302031CD82AD92A912ADA2A4A0849044C
:1025B800480447040319E12AE22AFE2A4E14FE2A97
:1025C800FE2A0130BE35BF0DC00DC10D890BE62AAC
:1025D800D11FEF2AF02AF22A3E14F22A0130CE3512
:1025E800CF0DD00DD10D890BF32AFF30CC07FF306A
:1025F800CD3DFE2AC01F012B022BE52A032BD30158
:10260800D11F072B082B282BFF304E05C200FF30A7
:102618004F05C300FF305005C4007F305105C50089
:10262800450844044304420403191B2B1C2B1F2B8D
:10263800D301D30A282B3E1C222B232B282BD30172
:10264800D30A282B282B282B530803192C2B2D2B86
:10265800572B0130BE070030BF3D0030C03D003071
:10266800C13D411C382B392B572B3E08C2003F086F
:10267800C3004008C4004108C5000130C600C53782
:10268800C40CC30CC20CC60B432B4508C10044083C
:10269800C0004308BF004208BE000130CC0700302C
:1026A800CD3D572B572B4D08803AC200803042024F
:1026B800031D602BFF304C02031C632B642B712B12
:1026C800FF304001CC000030CD000030C1000030A8
:1026D800C0000030BF000030BE0040014D08803A05
:1026E800C20080304202031D7B2B01304C020318CC
:1026F8007E2B7F2B8B2B4001CC01CD010030C100FC
:102708000030C0000030BF000030BE00CB014001E7
:102718004C08C2004208D200521C932B942B962BD3
:10272800C0179A2B7F30C2004208C0055236C2003B
:102738004208C1004B08C2004208C1044108BD005C
:102748004008BC003F08BB003E08BA00AB2B08009D
:102758004201D001D101DE01DF010030D500003097
:10276800D4000030D3000030D2000030D90000304F
:10277800D8000030D7000030D6000030DD0000302F
:10278800DC000030DB000030DA0051011308F839B2
:10279800063893007E01CE014314400112147E01D5
:1027A8003814400111147E014317400112134101EE
:1027B800931713161A12FC309A051308F3390438C4
:1027C80093009F315027933101309E311A2693315F
:1027D8000C309E311A26933105304101EC000F3040
:1027E800EB00F130890BF62BEB0BF62BEC0BF62BF1
:1027F800FD2B41019E0103304101EC000830EB0044
:102808007730890B052CEB0B052CEC0B052C4101C3
:1028180013140E2C1318112C122C0E2C132C0D081B
:10282800EB00EC016B084201DE0041016C0842013B
:10283800DF005F084101EC0042015E084101EB0046
:102848006B08EC00EB016B084201DE0041016C08EB
:102858004201DF0041010C0842015E074101EB0023
:1028680042015F0803185F0A4101EC006B0842014E
:10287800DE0041016C084201DF0044304001BD0028
:102888007F30BC00C030BB000030BA003F30A3002E
:102898004C30A200CC30A100CD30A00042015E082F
:1028A800F0005F08F100890D893B8909F200F30007
:1028B800013090312F20933173084001A70072082E
:1028C800A6007108A5007008A400953195259331DC
:1028D80040012308C1002208C0002108BF002008C9
:1028E800BE009131CD21933140013D084201D50010
:1028F80040013C084201D40040013B084201D3009A
:1029080040013A084201D2000030B100A030B200C4
:102918005508B6005408B5005308B4005208B3006F
:1029280040309A31A1229331F30140304101EB004C
:102938006B08F40001309B31102393310D304101B5
:10294800EC002D30EB00D730890BA82CEB0BA82C12
:10295800EC0BA82C003241011A12FC309A05083001
:102968009E0003304101EC000830EB007730890B02
:10297800BB2CEB0BBB2CEC0BBB2C41011314C42C54
:102988001318C72CC82CC42CC92C0D08EB00EC015B
:102998006B084201DE0041016C084201DF005F085C
:1029A8004101EC0042015E084101EB006B08EC00BC
:1029B800EB016B084201DE0041016C084201DF00B7
:1029C80041010C0842015E074101EB0042015F082A
:1029D80003185F0A4101EC006B084201DE00410167
:1029E8006C084201DF0044304001BD007F30BC006C
:1029F800C030BB000030BA004030A300A030A200B5
:102A08000030A1000030A00042015E08F0005F081D
:102A1800F100890D893B8909F200F30001309031FA
:102A28002F20933173084001A7007208A60071088F
:102A3800A5007008A400953195259331400123081D
:102A4800C1002208C0002108BF002008BE00913143
:102A5800CD21933140013D084201DD0040013C0891
:102A68004201DC0040013B084201DB0040013A081A
:102A78004201DA0042304001A300C830A200003011
:102A8800A1000030A00042015D084001A7004201FA
:102A98005C084001A60042015B084001A500420114
:102AA8005A084001A4009531952593314001230827
:102AB8004201D900400122084201D8004001210802
:102AC8004201D700400120084201D6000C30B10075
:102AD800A030B2005908B6005808B5005708B4002D
:102AE8005608B30040309A31A1229331F3014030A7
:102AF8004101EB006B08F40002309B311023933145
:102B08000D304101EC002D30EB00D730890B8A2DB8
:102B1800EB0B8A2DEC0B8A2D0032FD2BFD2B80311F
:102B28000228400123088039A8002808AD00233571
:102B3800A8002808B300A21FA22DA32DA52D331489
:102B4800A52D33080319A92DAA2DBA2D330A031D63
:102B5800AE2DAF2DB82D0030A3000030A2000030FC
:102B6800A1000030A000B82DA217C32D0030A3008B
:102B78000030A2000030A1000030A000C32D2708BB
:102B88008039A8002808AD062735A8002808B20013
:102B9800A61FCF2DD02DD22D3214D22D32080319D5
:102BA800D62DD72DE72D320A031DDB2DDC2DE52D83
:102BB8000030A7000030A6000030A5000030A400B7
:102BC800E52DA617F02D0030A7000030A600003034
:102BD800A5000030A400F02D32080319F42DF52DBE
:102BE800FB2D3308031DF92DFA2D052EFB2D003082
:102BF800A3000030A2000030A1000030A000FF2F89
:102C0800FF2F2008A8002808F00026089A311E2265
:102C1800953171084001B9007008B8003808A8005B
:102C2800A901AA01AB012B08B1002A08B0002908A4
:102C3800AF002808AE003908A800A901AA01AB0115
:102C48002B08B7002A08B6002908B5002808B400E0
:102C58002108A8002808F00025089A311E2295317D
:102C680071084001B9007008B8003808A800A90127
:102C7800AA01AB012808AE072908AF3D2A08B03DD4
:102C88002B08B13D3908A800A901AA01AB01280801
:102C9800B4072908B53D2A08B63D2B08B73D2208D8
:102CA800A8002808F00024089A311E2295317108DE
:102CB8004001B9007008B8003808A800A901AA01A5
:102CC800AB012808AE072908AF3D2A08B03D2B08FC
:102CD800B13D3908A800A901AA01AB012808B40729
:102CE8002908B53D2A08B63D2B08B73D0830AE3552
:102CF800AF0DB00DB10D890B7B2E2108A800280857
:102D0800F00024089A311E22953171084001B9005B
:102D18007008B8003808AE073908AF3D0030B03D3C
:102D2800B13D2008A8002808F00025089A311E2285
:102D3800953171084001B9007008B8003808AE072D
:102D48003908AF3D0030B03DB13D0830AE35AF0D6C
:102D5800B00DB10D890BAA2E2008A8002808F00094
:102D680024089A311E22953171084001B900700873
:102D7800B8003808AE073908AF3D0030B03DB13D66
:102D88002108A8002808F00026089A311E2295314B
:102D980071084001B9007008B8003808B40739084C
:102DA800B53D0030B63DB73D2208A8002808F00020
:102DB80025089A311E22953171084001B900700822
:102DC800B8003808B4073908B53D0030B63DB73DFE
:102DD8002208A8002808F00026089A311E229531FA
:102DE80071084001B9007008B8003808A80039080F
:102DF800A900AA01AB010830A835A90DAA0DAB0D91
:102E0800890B002F2808B4072908B53D2A08B63DC4
:102E18002B08B73D2E08A8002F08A9003008AA00E3
:102E28003108AB001830AB36AA0CA90CA80C890BDA
:102E3800172F2808B4072908B53D2A08B63D2B08DE
:102E4800B73D0830AE35AF0DB00DB10D890B262F4B
:102E580033083207A800A901A90D2808823EB80046
:102E6800FF30293DB900512F0130B435B50DB60DED
:102E7800B70D890B392FB11F422F432F452F34141B
:102E8800452F0130AE35AF0DB00DB10D890B462F72
:102E9800FF30B807FF30B93D512FB61F542F552FBB
:102EA800382F562FB201B11F5A2F5B2F7B2FFF30BF
:102EB8002E05A800FF302F05A900FF303005AA0015
:102EC8007F303105AB002B082A0429042804031994
:102ED8006E2F6F2F722FB201B20A7B2F341C752F01
:102EE800762F7B2FB201B20A7B2F7B2F7B2F3208E4
:102EF80003197F2F802FAA2F0130B4070030B53D6A
:102F08000030B63D0030B73D371C8B2F8C2FAA2FD1
:102F18003408A8003508A9003608AA003708AB000D
:102F28000130AC00AB37AA0CA90CA80CAC0B962F3F
:102F38002B08B7002A08B6002908B5002808B400ED
:102F48000130B8070030B93DAA2FAA2F3908803AB6
:102F5800A80080302802031DB32FFF303802031C5D
:102F6800B62FB72FC12F7F304001B7008030B60091
:102F78000030B5000030B400F22F40013908803A23
:102F8800A80080302802031DCB2F01303802031817
:102F9800CE2FCF2FDA2F00304001B7000030B60017
:102FA8000030B5000030B400AD01F22F4001380800
:102FB800A8002808B300FF30B405FF30B5057F30FE
:102FC800B6050030B705331CEA2FEB2FED2FB617E7
:102FD800ED2F3336A8002808B700F22F2D08A800D7
:102FE8002808B7043708A3003608A2003508A1004E
:082FF8003408A000FF2F0800BF
:10329E00640080010131890B5029003473087204D7
:1032AE007104700403195C295D2960298030F306CE
:1032BE006029612908007008D03EF200FF30713D90
:1032CE00F300003073020A3003197202031C7029D6
:1032DE007229013073290030F400F5017408F000F2
:1032EE007508F1007A2908007008BF3EF200FF3021
:1032FE00713DF300003073021A3003197202031C81
:10330E0089298B2901308C290030F400F5017408CD
:10331E00F0007508F1009329080080304001BD06C9
:10332E004108F3004008F2003F08F1003E08F000AB
:10333E003D08F7003C08F6003B08F5003A08F4009B
:10334E0089319D21993173084001BD007208BC007E
:10335E007108BB007008BA00B4290800F401F50129
:10336E00B829701CBB29BC29C0297208F407730840
:10337E00F53D0130F235F30D890BC1290130F136DF
:10338E00F00C890BC62970087104031DCF29D029B2
:10339E00B829D1297508F1007408F000D629080063
:1033AE00F401F40A2030700671040319DF29E029B4
:1033BE00F1297008F73EF200FF30713DF300003046
:1033CE007302053003197202031CEE29EF29F1294D
:1033DE00F401F1297408F200F3017208F000730889
:1033EE00F100F9290800F7007108F5007008F400E3
:1033FE007708F2007208F600052A052A760886007C
:10340E0001308700F60A7508F3007408F200F40A1A
:10341E000319F50A72088400730885000008C03F7E
:10342E008908031D1B2A1C2A052A1D2A0800F800DC
:10343E00F401F5017008F200F3017208F60073084A
:10344E00F700292A781C2C2A2D2A312A7608F4070F
:10345E007708F53D0130F635F70D890B322A03104A
:10346E00F80C7808031D3C2A3D2A292A3E2A7508A5
:10347E00F1007408F000432A0800F7007708F20004
:10348E007208F6004F2A0130F2007208F7074F2A31
:10349E0077088600013087000108031D572A582A35
:1034AE004A2A592A7608F2000130F300F209F3098C
:1034BE00F20A0319F30A7708F4000130F5007208D6
:1034CE007407F0007308753DF1006D2A0800760848
:1034DE00BF3EF800FF30773DF900003079021A3018
:1034EE0003197802031C7C2A7E2A01307F2A0030C1
:1034FE00FA00FB017A08FC007B08FD00922A77088F
:10350E00F1007608F00099317B219A317108FD00A7
:10351E007008FC00922A7C087D040319972A982AC9
:10352E00A02A20307604F60000307704F700A02A97
:10353E00A02A08004201B90033304001EF006F08A5
:10354E004201BA0039084001EF006F084201BB008A
:10355E00BC01BD01BE01BF0132084101E4004201C0
:10356E0031084101E3003A304001EF006F0841019C
:10357E00E5003B309A31D7229A314101640842016D
:10358E00B800410163084201B7003C083907400109
:10359E00EF006F088600013087008101D62A0800EF
:1035AE004101E8006408EA006308E9004201E8010D
:1035BE00E901FB2AE9304101E60066084001ED0011
:1035CE0041016508E70067084001EE004101680807
:1035DE008C3116249A3140016D084201E8074001F2
:1035EE006E084201E93DFB2A4101690884006A0820
:1035FE0085001200031D042B052BE12A062B420128
:10360E0069084101E400420168084101E3000F2B03
:10361E000800F7002C2B7308803EF5007508F800A3
:10362E00422B7308C03EF5007508F800422B730854
:10363E00943EF5007508F800422B7308D43EF50051
:10364E007508F800422B422B422B7708F500F60145
:10365E007608003A0319342B422B7508013A0319E8
:10366E00122B033A0319182B013A03191E2B073A92
:10367E000319242B422B78089E311A269B31542B8A
:10368E00740886000130870001089E31B3269B31F5
:10369E000130F5007508F407542B740886000130CC
:1036AE0087000108031D5C2B5D2B472B5E2B08004A
:1036BE0000307005F80000307105F9008030720599
:1036CE00FA007F307305FB007B087A0479047804D6
:1036DE00031D722B732B7B2B0030F3000030F20096
:1036EE000030F1000030F00000307405F8000030BA
:1036FE007505F90080307605FA007F307705FB00FE
:10370E007B087A0479047804031D8E2B8F2B972B5C
:10371E000030F7000030F6000030F5000030F40005
:10372E0077087306031DA52B76087206031DA52BBD
:10373E0075087106031DA52B740870060319A82BB6
:10374E00A92BAB2B0310AE2B0314AE2BAE2B080004
:10375E0072080319B32BB42BBA2B7208031DB82BA6
:10376E00B92BBF2BBA2B7008803107209B31092C47
:10377E007208033E8600013087001600010403190B
:10378E00C92BCA2BEA2B7208033E86000130870034
:10379E00403FF300413FF400720A8600013087007B
:1037AE00403FF500413FF6007608803AF700740876
:1037BE00803A7702031DE52B730875020318E82B78
:1037CE00E92B092CEA2B7008F300720886000130F1
:1037DE008700720A84000130850000080107F4009A
:1037EE00740886000130870073088100720A860013
:1037FE00013087000130810741310318810A092CFD
:10380E00092C092C0800F601F31F0E2C0F2C172C77
:10381E00F209F309F20A0319F30AF601F60A172C54
:10382E00F11F1A2C1B2C212CF009F109F00A031997
:10383E00F10A212C700871040319262C272C562C02
:10384E00F501F50A342C0130F035F10D890B2B2CD6
:10385E000130F4007408F507342CF11F372C382C86
:10386E002A2C3A2C3A2C71087302031D402C700836
:10387E007202031C432C442C492C7008F20271086E
:10388E00F33B492C0130F136F00C890B4A2C0130F8
:10389E00F502031D532C542C3A2C562C562C76081C
:1038AE0003195A2C5B2C612CF209F309F20A031945
:1038BE00F30A612C7308F1007208F000662C080000
:1038CE004001AB0041016E1C6D2C6E2C782C40011A
:1038DE002B08FC007C08F8002408903104209C3151
:1038EE00782C4001A61B7C2C7D2C822C2608AA004D
:1038FE002508A900842CA901AA01A701A801992CC9
:10390E002030F0000030F10040012B08FC007C0854
:10391E00F2009B31AF239C3101304001A7070030EC
:10392E00A83D992C2808803AFC002A08803A7C028F
:10393E00031DA32C29082702031CA62CA72C872CB9
:10394E0041016E18AB2CAC2CB62C40012B08FC00A0
:10395E007C08F8002408903104209C31B62C4001DC
:10396E0024089A3144229C31400129087007A40092
:10397E002A08713DA500C32C0800F601F11FC82CC2
:10398E00C92CD12CF009F109F00A0319F10AF6013C
:10399E00F60AD12CF31FD42CD52CDF2CF209F30907
:1039AE00F20A0319F30A0130F4007408F606DF2C4C
:1039BE00F701F801700871040319E62CE72C1C2D91
:1039CE00F501F50AF42C0130F035F10D890BEB2CD5
:1039DE000130F4007408F507F42CF11FF72CF82CC5
:1039EE00EA2CFA2CFA2C0130F735F80D890BFB2C4A
:1039FE0071087302031D052D70087202031C082D39
:103A0E00092D0F2D7008F2027108F33B77140F2D5C
:103A1E000130F136F00C890B102D0130F502031D2B
:103A2E00192D1A2DFA2C1C2D1C2D76080319202D5C
:103A3E00212D272DF709F809F70A0319F80A272D62
:103A4E007808F1007708F0002C2D0800F6007608B3
:103A5E00F4007408F9007108F8007008F7000130DE
:103A6E00F2020030F33B720A031D412D730A031D4F
:103A7E00412D422D542DF001F101962D962D542DF0
:103A8E000130F4007408F9070130F7070030F83DF3
:103A9E000130F2020030F33B542D790886000130DC
:103AAE008700010803195C2D5D2D7E2D770884009B
:103ABE007808850012000319652D662D7E2D72087B
:103ACE00730403196B2D6C2D7E2D770884007808F6
:103ADE0085000008F400790886000130870001088F
:103AEE00740603197B2D7C2D472D7E2D7E2D770898
:103AFE008400780885000008F400F501F409F50942
:103B0E00F40A0319F50A79088600013087000108C6
:103B1E007407F00075080318750AF100962D080059
:103B2E00420167084001A500420166084001A40059
:103B3E00420165084001A300420164084001A20051
:103B4E007308A5007208A4007108A3007008A200F3
:103B5E002208F4002308F5002408F6002508F700D3
:103B6E001730F736F60CF50CF40C890BB82DFF3028
:103B7E007405A00000307505A10020082104031D66
:103B8E00C92DCA2DED2D2208F4002308F5002408B6
:103B9E00F6002508F7000130F435F50DF60DF70D9A
:103BAE00890BD32D7708760475047404031DE02D5C
:103BBE00E12DE62D0230F0000030F100192E033019
:103BCE00F0000030F100192E192E192E200A2104B2
:103BDE00031DF22DF32D142E2208F4002308F500F8
:103BEE002408F6002508F7000930F435F50DF60D1A
:103BFE00F70D890BFC2D77087604750474040319F0
:103C0E00092E0B2E01300C2E0030F800F901780829
:103C1E00F0007908F100192E192E0430F000003052
:103C2E00F100192E0800F20040018E100E107208DD
:103C3E00F0000730F036890B212E70080139F100A3
:103C4E00F10CF10C0E0871067F3971068E007208A8
:103C5E00F0000630F036890B312E70080139F10074
:103C6E00F10EF10DF10D0E087106BF3971068E00C1
:103C7E007208F0000530F036890B422E70080139BB
:103C8E00F100F10EF10D0E087106DF3971068E008E
:103C9E007208F0000430F036890B522E700801398C
:103CAE00F100F10E0E087106EF3971068E00033029
:103CBE00890B5F2E000040018E140D30890B652E8E
:103CCE00000040018E107208F0000330F036890BB0
:103CDE006D2E70080139F100F10CF10C0E08710611
:103CEE007F3971068E007208F0000230F036890BB3
:103CFE007D2E70080139F100F10EF10DF10D0E0857
:103D0E007106BF3971068E0072360139F000F00E61
:103D1E00F00D0E087006DF3970068E00720801393C
:103D2E00F000F00E0E087006EF3970068E000330AC
:103D3E00890B9F2E000040018E140D30890BA52E8D
:103D4E00000040018E103A30F0002330890BAD2E6A
:103D5E00F00BAD2E00000800F20040018E100E1484
:103D6E007208F0000730F036890BBA2E7008013950
:103D7E00F100F10CF10C0E0871067F3971068E0000
:103D8E007208F0000630F036890BCA2E7008013921
:103D9E00F100F10EF10DF10D0E087106BF3971062D
:103DAE008E007208F0000530F036890BDB2E70089D
:103DBE000139F100F10EF10D0E087106DF397106B1
:103DCE008E007208F0000430F036890BEB2E70086E
:103DDE000139F100F10E0E087106EF3971068E00F1
:103DEE000330890BF82E000040018E140D30890B24
:103DFE00FE2E000040018E107208F0000330F036E7
:103E0E00890B062F70080139F100F10CF10C0E0828
:103E1E0071067F3971068E007208F0000230F0369E
:103E2E00890B162F70080139F100F10EF10DF10D0D
:103E3E000E087106BF3971068E0072360139F00018
:103E4E00F00EF00D0E087006DF3970068E00720847
:103E5E000139F000F00E0E087006EF3970068E0074
:103E6E000330890B382F000040018E140D30890B62
:103E7E003E2F000040018E100D30890B442F0000A4
:103E8E003A30F0002330890B4A2FF00B4A2F0000F6
:103E9E00080040019313131393121312931013106F
:103EAE008E130E138E120E128E100E103A30F30069
:103EBE002330890B602FF30B602F00003A30F30094
:103ECE002330890B682FF30B682F00003A30F30074
:103EDE002330890B702FF30B702F00003A30F30054
:103EEE002330890B782FF30B782F00003A30F30034
:103EFE002330890B802FF30B802F00003A30F30014
:103F0E002330890B882FF30B882F0000F401F40A5D
:103F1E0004307402031C942F952F972FC12FC12F9D
:103F2E0040018E130E138E160E168E100E108E135B
:103F3E000E138E160E168E140E100D30890BA52F25
:103F4E00000040018E130E138E160E168E100E10DC
:103F5E003A30F3002330890BB22FF30BB22F00004F
:103F6E000130F3007308F40704307402031CC02FF1
:103F7E00C12F972F40018E130E138E160E128E1018
:103F8E000E108E130E138E160E128E140E100D3082
:103F9E00890BCF2F000040018E130E138E160E12BA
:103FAE008E100E103A30F3002330890BDC2FF30BFA
:103FBE00DC2F00002830F3007308F40074089E31E3
:103FCE001A269F311030F3007308F40074089E31E6
:103FDE001A269F31F401F40A74089E311A269F3175
:103FEE000F30F3007308F40074089E311A269F31C7
:103FFE00080076346F346C3474343D3425343034E8
:10400E0032342E34323466340034743465346D34C4
:10401E0070343D342534303434342E3432346634F6
:10402E00003449344E34463400344E3441344E3428
:10403E00003469346E34663400346E3461346E3458
:08404E0000346C3466340034C8
:020000040001F9
:0A000E008C3FFD3F9F3FFF3FFF3F87
:00000001FF
